{
  "contracts/GovernorAlpha.sol": {
    "GovernorAlpha": {
      "abi": [
        {
          "inputs": [
            {
              "internalType": "address",
              "name": "_timelock",
              "type": "address"
            },
            {
              "internalType": "address",
              "name": "_comp",
              "type": "address"
            },
            {
              "internalType": "address",
              "name": "_guardian",
              "type": "address"
            },
            {
              "internalType": "string",
              "name": "_name",
              "type": "string"
            }
          ],
          "stateMutability": "nonpayable",
          "type": "constructor"
        },
        {
          "anonymous": false,
          "inputs": [
            {
              "indexed": false,
              "internalType": "uint256",
              "name": "id",
              "type": "uint256"
            }
          ],
          "name": "ProposalCanceled",
          "type": "event"
        },
        {
          "anonymous": false,
          "inputs": [
            {
              "indexed": false,
              "internalType": "uint256",
              "name": "id",
              "type": "uint256"
            },
            {
              "indexed": false,
              "internalType": "address",
              "name": "proposer",
              "type": "address"
            },
            {
              "indexed": false,
              "internalType": "address[]",
              "name": "targets",
              "type": "address[]"
            },
            {
              "indexed": false,
              "internalType": "uint256[]",
              "name": "values",
              "type": "uint256[]"
            },
            {
              "indexed": false,
              "internalType": "bytes[]",
              "name": "calldatas",
              "type": "bytes[]"
            },
            {
              "indexed": false,
              "internalType": "uint256",
              "name": "startBlock",
              "type": "uint256"
            },
            {
              "indexed": false,
              "internalType": "uint256",
              "name": "endBlock",
              "type": "uint256"
            },
            {
              "indexed": false,
              "internalType": "string",
              "name": "description",
              "type": "string"
            }
          ],
          "name": "ProposalCreated",
          "type": "event"
        },
        {
          "anonymous": false,
          "inputs": [
            {
              "indexed": false,
              "internalType": "uint256",
              "name": "id",
              "type": "uint256"
            }
          ],
          "name": "ProposalExecuted",
          "type": "event"
        },
        {
          "anonymous": false,
          "inputs": [
            {
              "indexed": false,
              "internalType": "uint256",
              "name": "id",
              "type": "uint256"
            },
            {
              "indexed": false,
              "internalType": "uint256",
              "name": "eta",
              "type": "uint256"
            }
          ],
          "name": "ProposalQueued",
          "type": "event"
        },
        {
          "anonymous": false,
          "inputs": [
            {
              "indexed": false,
              "internalType": "address",
              "name": "voter",
              "type": "address"
            },
            {
              "indexed": false,
              "internalType": "uint256",
              "name": "proposalId",
              "type": "uint256"
            },
            {
              "indexed": false,
              "internalType": "bool",
              "name": "support",
              "type": "bool"
            },
            {
              "indexed": false,
              "internalType": "uint256",
              "name": "votes",
              "type": "uint256"
            }
          ],
          "name": "VoteCast",
          "type": "event"
        },
        {
          "inputs": [],
          "name": "BALLOT_TYPEHASH",
          "outputs": [
            {
              "internalType": "bytes32",
              "name": "",
              "type": "bytes32"
            }
          ],
          "stateMutability": "view",
          "type": "function"
        },
        {
          "inputs": [],
          "name": "DOMAIN_TYPEHASH",
          "outputs": [
            {
              "internalType": "bytes32",
              "name": "",
              "type": "bytes32"
            }
          ],
          "stateMutability": "view",
          "type": "function"
        },
        {
          "inputs": [],
          "name": "__abdicate",
          "outputs": [],
          "stateMutability": "nonpayable",
          "type": "function"
        },
        {
          "inputs": [],
          "name": "__acceptAdmin",
          "outputs": [],
          "stateMutability": "nonpayable",
          "type": "function"
        },
        {
          "inputs": [
            {
              "internalType": "address",
              "name": "newPendingAdmin",
              "type": "address"
            },
            {
              "internalType": "uint256",
              "name": "eta",
              "type": "uint256"
            }
          ],
          "name": "__executeSetTimelockPendingAdmin",
          "outputs": [],
          "stateMutability": "nonpayable",
          "type": "function"
        },
        {
          "inputs": [
            {
              "internalType": "address",
              "name": "newPendingAdmin",
              "type": "address"
            },
            {
              "internalType": "uint256",
              "name": "eta",
              "type": "uint256"
            }
          ],
          "name": "__queueSetTimelockPendingAdmin",
          "outputs": [],
          "stateMutability": "nonpayable",
          "type": "function"
        },
        {
          "inputs": [
            {
              "internalType": "uint256",
              "name": "proposalId",
              "type": "uint256"
            }
          ],
          "name": "cancel",
          "outputs": [],
          "stateMutability": "nonpayable",
          "type": "function"
        },
        {
          "inputs": [
            {
              "internalType": "uint256",
              "name": "proposalId",
              "type": "uint256"
            },
            {
              "internalType": "bool",
              "name": "support",
              "type": "bool"
            }
          ],
          "name": "castVote",
          "outputs": [],
          "stateMutability": "nonpayable",
          "type": "function"
        },
        {
          "inputs": [
            {
              "internalType": "uint256",
              "name": "proposalId",
              "type": "uint256"
            },
            {
              "internalType": "bool",
              "name": "support",
              "type": "bool"
            },
            {
              "internalType": "uint8",
              "name": "v",
              "type": "uint8"
            },
            {
              "internalType": "bytes32",
              "name": "r",
              "type": "bytes32"
            },
            {
              "internalType": "bytes32",
              "name": "s",
              "type": "bytes32"
            }
          ],
          "name": "castVoteBySig",
          "outputs": [],
          "stateMutability": "nonpayable",
          "type": "function"
        },
        {
          "inputs": [],
          "name": "comp",
          "outputs": [
            {
              "internalType": "contract CompInterface",
              "name": "",
              "type": "address"
            }
          ],
          "stateMutability": "view",
          "type": "function"
        },
        {
          "inputs": [
            {
              "internalType": "uint256",
              "name": "proposalId",
              "type": "uint256"
            }
          ],
          "name": "execute",
          "outputs": [],
          "stateMutability": "payable",
          "type": "function"
        },
        {
          "inputs": [
            {
              "internalType": "uint256",
              "name": "proposalId",
              "type": "uint256"
            }
          ],
          "name": "getActions",
          "outputs": [
            {
              "internalType": "address[]",
              "name": "targets",
              "type": "address[]"
            },
            {
              "internalType": "uint256[]",
              "name": "values",
              "type": "uint256[]"
            },
            {
              "internalType": "bytes[]",
              "name": "calldatas",
              "type": "bytes[]"
            }
          ],
          "stateMutability": "view",
          "type": "function"
        },
        {
          "inputs": [
            {
              "internalType": "uint256",
              "name": "proposalId",
              "type": "uint256"
            },
            {
              "internalType": "address",
              "name": "voter",
              "type": "address"
            }
          ],
          "name": "getReceipt",
          "outputs": [
            {
              "components": [
                {
                  "internalType": "bool",
                  "name": "hasVoted",
                  "type": "bool"
                },
                {
                  "internalType": "bool",
                  "name": "support",
                  "type": "bool"
                },
                {
                  "internalType": "uint96",
                  "name": "votes",
                  "type": "uint96"
                }
              ],
              "internalType": "struct GovernorAlpha.Receipt",
              "name": "",
              "type": "tuple"
            }
          ],
          "stateMutability": "view",
          "type": "function"
        },
        {
          "inputs": [],
          "name": "guardian",
          "outputs": [
            {
              "internalType": "address",
              "name": "",
              "type": "address"
            }
          ],
          "stateMutability": "view",
          "type": "function"
        },
        {
          "inputs": [
            {
              "internalType": "address",
              "name": "",
              "type": "address"
            }
          ],
          "name": "latestProposalIds",
          "outputs": [
            {
              "internalType": "uint256",
              "name": "",
              "type": "uint256"
            }
          ],
          "stateMutability": "view",
          "type": "function"
        },
        {
          "inputs": [],
          "name": "name",
          "outputs": [
            {
              "internalType": "string",
              "name": "",
              "type": "string"
            }
          ],
          "stateMutability": "view",
          "type": "function"
        },
        {
          "inputs": [],
          "name": "proposalCount",
          "outputs": [
            {
              "internalType": "uint256",
              "name": "",
              "type": "uint256"
            }
          ],
          "stateMutability": "view",
          "type": "function"
        },
        {
          "inputs": [],
          "name": "proposalMaxOperations",
          "outputs": [
            {
              "internalType": "uint256",
              "name": "",
              "type": "uint256"
            }
          ],
          "stateMutability": "pure",
          "type": "function"
        },
        {
          "inputs": [],
          "name": "proposalThreshold",
          "outputs": [
            {
              "internalType": "uint256",
              "name": "",
              "type": "uint256"
            }
          ],
          "stateMutability": "pure",
          "type": "function"
        },
        {
          "inputs": [
            {
              "internalType": "uint256",
              "name": "",
              "type": "uint256"
            }
          ],
          "name": "proposals",
          "outputs": [
            {
              "internalType": "uint256",
              "name": "id",
              "type": "uint256"
            },
            {
              "internalType": "address",
              "name": "proposer",
              "type": "address"
            },
            {
              "internalType": "uint256",
              "name": "eta",
              "type": "uint256"
            },
            {
              "internalType": "uint256",
              "name": "startBlock",
              "type": "uint256"
            },
            {
              "internalType": "uint256",
              "name": "endBlock",
              "type": "uint256"
            },
            {
              "internalType": "uint256",
              "name": "forVotes",
              "type": "uint256"
            },
            {
              "internalType": "uint256",
              "name": "againstVotes",
              "type": "uint256"
            },
            {
              "internalType": "bool",
              "name": "canceled",
              "type": "bool"
            },
            {
              "internalType": "bool",
              "name": "executed",
              "type": "bool"
            }
          ],
          "stateMutability": "view",
          "type": "function"
        },
        {
          "inputs": [
            {
              "internalType": "address[]",
              "name": "targets",
              "type": "address[]"
            },
            {
              "internalType": "uint256[]",
              "name": "values",
              "type": "uint256[]"
            },
            {
              "internalType": "bytes[]",
              "name": "calldatas",
              "type": "bytes[]"
            },
            {
              "internalType": "string",
              "name": "description",
              "type": "string"
            }
          ],
          "name": "propose",
          "outputs": [
            {
              "internalType": "uint256",
              "name": "",
              "type": "uint256"
            }
          ],
          "stateMutability": "nonpayable",
          "type": "function"
        },
        {
          "inputs": [
            {
              "internalType": "uint256",
              "name": "proposalId",
              "type": "uint256"
            }
          ],
          "name": "queue",
          "outputs": [],
          "stateMutability": "nonpayable",
          "type": "function"
        },
        {
          "inputs": [],
          "name": "quorumVotes",
          "outputs": [
            {
              "internalType": "uint256",
              "name": "",
              "type": "uint256"
            }
          ],
          "stateMutability": "pure",
          "type": "function"
        },
        {
          "inputs": [],
          "name": "qv",
          "outputs": [
            {
              "internalType": "bool",
              "name": "",
              "type": "bool"
            }
          ],
          "stateMutability": "view",
          "type": "function"
        },
        {
          "inputs": [
            {
              "internalType": "uint256",
              "name": "proposalId",
              "type": "uint256"
            }
          ],
          "name": "state",
          "outputs": [
            {
              "internalType": "enum GovernorAlpha.ProposalState",
              "name": "",
              "type": "uint8"
            }
          ],
          "stateMutability": "view",
          "type": "function"
        },
        {
          "inputs": [],
          "name": "timelock",
          "outputs": [
            {
              "internalType": "contract TimelockInterface",
              "name": "",
              "type": "address"
            }
          ],
          "stateMutability": "view",
          "type": "function"
        },
        {
          "inputs": [],
          "name": "votingDelay",
          "outputs": [
            {
              "internalType": "uint256",
              "name": "",
              "type": "uint256"
            }
          ],
          "stateMutability": "pure",
          "type": "function"
        },
        {
          "inputs": [],
          "name": "votingPeriod",
          "outputs": [
            {
              "internalType": "uint256",
              "name": "",
              "type": "uint256"
            }
          ],
          "stateMutability": "pure",
          "type": "function"
        }
      ],
      "evm": {
        "bytecode": {
          "linkReferences": {},
          "object": "60806040526040518060400160405280600d81526020017f476f7665726e6f72416c7068610000000000000000000000000000000000000081525060009080519060200190620000519291906200016a565b503480156200005f57600080fd5b50604051620051703803806200517083398181016040528101906200008591906200041c565b836001806101000a81548173ffffffffffffffffffffffffffffffffffffffff021916908373ffffffffffffffffffffffffffffffffffffffff16021790555082600260006101000a81548173ffffffffffffffffffffffffffffffffffffffff021916908373ffffffffffffffffffffffffffffffffffffffff16021790555081600360006101000a81548173ffffffffffffffffffffffffffffffffffffffff021916908373ffffffffffffffffffffffffffffffffffffffff16021790555080600090805190602001906200015f9291906200016a565b505050505062000512565b8280546200017890620004dc565b90600052602060002090601f0160209004810192826200019c5760008555620001e8565b82601f10620001b757805160ff1916838001178555620001e8565b82800160010185558215620001e8579182015b82811115620001e7578251825591602001919060010190620001ca565b5b509050620001f79190620001fb565b5090565b5b8082111562000216576000816000905550600101620001fc565b5090565b6000604051905090565b600080fd5b600080fd5b600073ffffffffffffffffffffffffffffffffffffffff82169050919050565b60006200025b826200022e565b9050919050565b6200026d816200024e565b81146200027957600080fd5b50565b6000815190506200028d8162000262565b92915050565b600080fd5b600080fd5b6000601f19601f8301169050919050565b7f4e487b7100000000000000000000000000000000000000000000000000000000600052604160045260246000fd5b620002e8826200029d565b810181811067ffffffffffffffff821117156200030a5762000309620002ae565b5b80604052505050565b60006200031f6200021a565b90506200032d8282620002dd565b919050565b600067ffffffffffffffff82111562000350576200034f620002ae565b5b6200035b826200029d565b9050602081019050919050565b60005b83811015620003885780820151818401526020810190506200036b565b8381111562000398576000848401525b50505050565b6000620003b5620003af8462000332565b62000313565b905082815260208101848484011115620003d457620003d362000298565b5b620003e184828562000368565b509392505050565b600082601f83011262000401576200040062000293565b5b8151620004138482602086016200039e565b91505092915050565b6000806000806080858703121562000439576200043862000224565b5b600062000449878288016200027c565b94505060206200045c878288016200027c565b93505060406200046f878288016200027c565b925050606085015167ffffffffffffffff81111562000493576200049262000229565b5b620004a187828801620003e9565b91505092959194509250565b7f4e487b7100000000000000000000000000000000000000000000000000000000600052602260045260246000fd5b60006002820490506001821680620004f557607f821691505b602082108114156200050c576200050b620004ad565b5b50919050565b614c4e80620005226000396000f3fe6080604052600436106101b75760003560e01c80634634c61f116100ec578063b9a619611161008a578063ddf0b00911610064578063ddf0b009146105f6578063deaaa7cc1461061f578063e23a9a521461064a578063fe0d94c114610687576101b7565b8063b9a6196114610589578063d33219b4146105a0578063da35c664146105cb576101b7565b80637d5e81e2116100c65780637d5e81e2146104cd578063915006711461050a5780639352f7be14610533578063b58131b01461055e576101b7565b80634634c61f14610462578063760fbc131461048b5780637bdbe4d0146104a2576101b7565b806321f43e42116101595780633932abb1116101335780633932abb1146103a65780633e4f49e6146103d157806340e58ee51461040e578063452a932014610437576101b7565b806321f43e421461031357806324bc1a641461033c578063328dd98214610367576101b7565b8063109d0af811610195578063109d0af81461025757806315373e3d1461028257806317977c61146102ab57806320606b70146102e8576101b7565b8063013cf08b146101bc57806302a251a31461020157806306fdde031461022c575b600080fd5b3480156101c857600080fd5b506101e360048036038101906101de9190612870565b6106a3565b6040516101f899989796959493929190612908565b60405180910390f35b34801561020d57600080fd5b5061021661072b565b6040516102239190612995565b60405180910390f35b34801561023857600080fd5b50610241610734565b60405161024e9190612a49565b60405180910390f35b34801561026357600080fd5b5061026c6107c2565b6040516102799190612aca565b60405180910390f35b34801561028e57600080fd5b506102a960048036038101906102a49190612b11565b6107e8565b005b3480156102b757600080fd5b506102d260048036038101906102cd9190612b7d565b6107f7565b6040516102df9190612995565b60405180910390f35b3480156102f457600080fd5b506102fd61080f565b60405161030a9190612bc3565b60405180910390f35b34801561031f57600080fd5b5061033a60048036038101906103359190612bde565b610833565b005b34801561034857600080fd5b506103516109af565b60405161035e9190612995565b60405180910390f35b34801561037357600080fd5b5061038e60048036038101906103899190612870565b6109c2565b60405161039d93929190612eb1565b60405180910390f35b3480156103b257600080fd5b506103bb610ba5565b6040516103c89190612995565b60405180910390f35b3480156103dd57600080fd5b506103f860048036038101906103f39190612870565b610bae565b6040516104059190612f74565b60405180910390f35b34801561041a57600080fd5b5061043560048036038101906104309190612870565b610d7d565b005b34801561044357600080fd5b5061044c611115565b6040516104599190612f8f565b60405180910390f35b34801561046e57600080fd5b506104896004803603810190610484919061300f565b61113b565b005b34801561049757600080fd5b506104a06112fe565b005b3480156104ae57600080fd5b506104b76113d2565b6040516104c49190612995565b60405180910390f35b3480156104d957600080fd5b506104f460048036038101906104ef91906134cc565b6113db565b6040516105019190612995565b60405180910390f35b34801561051657600080fd5b50610531600480360381019061052c9190612bde565b6117a3565b005b34801561053f57600080fd5b5061054861191a565b60405161055591906135a3565b60405180910390f35b34801561056a57600080fd5b5061057361192d565b6040516105809190612995565b60405180910390f35b34801561059557600080fd5b5061059e61193f565b005b3480156105ac57600080fd5b506105b5611a51565b6040516105c291906135df565b60405180910390f35b3480156105d757600080fd5b506105e0611a75565b6040516105ed9190612995565b60405180910390f35b34801561060257600080fd5b5061061d60048036038101906106189190612870565b611a7b565b005b34801561062b57600080fd5b50610634611d1e565b6040516106419190612bc3565b60405180910390f35b34801561065657600080fd5b50610671600480360381019061066c91906135fa565b611d42565b60405161067e91906136b2565b60405180910390f35b6106a1600480360381019061069c9190612870565b611e24565b005b60056020528060005260406000206000915090508060000154908060010160009054906101000a900473ffffffffffffffffffffffffffffffffffffffff169080600201549080600601549080600701549080600801549080600901549080600a0160009054906101000a900460ff169080600a0160019054906101000a900460ff16905089565b6000603c905090565b60008054610741906136fc565b80601f016020809104026020016040519081016040528092919081815260200182805461076d906136fc565b80156107ba5780601f1061078f576101008083540402835291602001916107ba565b820191906000526020600020905b81548152906001019060200180831161079d57829003601f168201915b505050505081565b600260009054906101000a900473ffffffffffffffffffffffffffffffffffffffff1681565b6107f3338383612074565b5050565b60066020528060005260406000206000915090505481565b7f8cad95687ba82c2ce50e74f7b754645e5117c3a5bec8151c0726d5857980a86681565b600360009054906101000a900473ffffffffffffffffffffffffffffffffffffffff1673ffffffffffffffffffffffffffffffffffffffff163373ffffffffffffffffffffffffffffffffffffffff16146108c3576040517f08c379a00000000000000000000000000000000000000000000000000000000081526004016108ba906137c6565b60405180910390fd5b60018054906101000a900473ffffffffffffffffffffffffffffffffffffffff1673ffffffffffffffffffffffffffffffffffffffff166306a41d0960018054906101000a900473ffffffffffffffffffffffffffffffffffffffff166000856040516020016109339190612f8f565b604051602081830303815290604052856040518563ffffffff1660e01b8152600401610962949392919061386b565b6000604051808303816000875af1158015610981573d6000803e3d6000fd5b505050506040513d6000823e3d601f19601f820116820180604052508101906109aa9190613927565b505050565b60006a0422ca8b0a00a425000000905090565b6060806060600060056000868152602001908152602001600020905080600301816004018260050182805480602002602001604051908101604052809291908181526020018280548015610a6b57602002820191906000526020600020905b8160009054906101000a900473ffffffffffffffffffffffffffffffffffffffff1673ffffffffffffffffffffffffffffffffffffffff1681526020019060010190808311610a21575b5050505050925081805480602002602001604051908101604052809291908181526020018280548015610abd57602002820191906000526020600020905b815481526020019060010190808311610aa9575b5050505050915080805480602002602001604051908101604052809291908181526020016000905b82821015610b91578382906000526020600020018054610b04906136fc565b80601f0160208091040260200160405190810160405280929190818152602001828054610b30906136fc565b8015610b7d5780601f10610b5257610100808354040283529160200191610b7d565b820191906000526020600020905b815481529060010190602001808311610b6057829003601f168201915b505050505081526020019060010190610ae5565b505050509050935093509350509193909250565b60006001905090565b60008160045410158015610bc25750600082115b610c01576040517f08c379a0000000000000000000000000000000000000000000000000000000008152600401610bf8906139e2565b60405180910390fd5b600060056000848152602001908152602001600020905080600a0160009054906101000a900460ff1615610c39576002915050610d78565b80600601544311610c4e576000915050610d78565b80600701544311610c63576001915050610d78565b80600901548160080154111580610c7f57506127108160080154105b15610c8e576003915050610d78565b600081600201541415610ca5576004915050610d78565b80600a0160019054906101000a900460ff1615610cc6576007915050610d78565b610d62816002015460018054906101000a900473ffffffffffffffffffffffffffffffffffffffff1673ffffffffffffffffffffffffffffffffffffffff1663c1a287e26040518163ffffffff1660e01b8152600401602060405180830381865afa158015610d39573d6000803e3d6000fd5b505050506040513d601f19601f82011682018060405250810190610d5d9190613a17565b612342565b4210610d72576006915050610d78565b60059150505b919050565b6000610d8882610bae565b9050600780811115610d9d57610d9c612efd565b5b816007811115610db057610daf612efd565b5b1415610df1576040517f08c379a0000000000000000000000000000000000000000000000000000000008152600401610de890613ab6565b60405180910390fd5b6000600560008481526020019081526020016000209050600360009054906101000a900473ffffffffffffffffffffffffffffffffffffffff1673ffffffffffffffffffffffffffffffffffffffff163373ffffffffffffffffffffffffffffffffffffffff161480610f435750610e6761192d565b600260009054906101000a900473ffffffffffffffffffffffffffffffffffffffff1673ffffffffffffffffffffffffffffffffffffffff1663782d6fe18360010160009054906101000a900473ffffffffffffffffffffffffffffffffffffffff16610ed54360016123a0565b6040518363ffffffff1660e01b8152600401610ef2929190613ad6565b602060405180830381865afa158015610f0f573d6000803e3d6000fd5b505050506040513d601f19601f82011682018060405250810190610f339190613b2b565b6bffffffffffffffffffffffff16105b610f82576040517f08c379a0000000000000000000000000000000000000000000000000000000008152600401610f7990613bca565b60405180910390fd5b600181600a0160006101000a81548160ff02191690831515021790555060005b81600301805490508110156110d85760018054906101000a900473ffffffffffffffffffffffffffffffffffffffff1673ffffffffffffffffffffffffffffffffffffffff16635b26b10883600301838154811061100357611002613bea565b5b9060005260206000200160009054906101000a900473ffffffffffffffffffffffffffffffffffffffff1684600401848154811061104457611043613bea565b5b906000526020600020015485600501858154811061106557611064613bea565b5b9060005260206000200186600201546040518563ffffffff1660e01b81526004016110939493929190613cae565b600060405180830381600087803b1580156110ad57600080fd5b505af11580156110c1573d6000803e3d6000fd5b5050505080806110d090613d29565b915050610fa2565b507f789cf55be980739dad1d0699b93b58e806b51c9d96619bfa8fe0a28abaa7b30c836040516111089190612995565b60405180910390a1505050565b600360009054906101000a900473ffffffffffffffffffffffffffffffffffffffff1681565b60007f8cad95687ba82c2ce50e74f7b754645e5117c3a5bec8151c0726d5857980a866600060405161116d9190613e11565b604051809103902061117d6123f9565b306040516020016111919493929190613e28565b60405160208183030381529060405280519060200120905060007f8e25870c07e0b0b3884c78da52790939a455c275406c44ae8b434b692fb916ee87876040516020016111e093929190613e6d565b6040516020818303038152906040528051906020012090506000828260405160200161120d929190613f1c565b60405160208183030381529060405280519060200120905060006001828888886040516000815260200160405260405161124a9493929190613f62565b6020604051602081039080840390855afa15801561126c573d6000803e3d6000fd5b505050602060405103519050600073ffffffffffffffffffffffffffffffffffffffff168173ffffffffffffffffffffffffffffffffffffffff1614156112e8576040517f08c379a00000000000000000000000000000000000000000000000000000000081526004016112df90614019565b60405180910390fd5b6112f3818a8a612074565b505050505050505050565b600360009054906101000a900473ffffffffffffffffffffffffffffffffffffffff1673ffffffffffffffffffffffffffffffffffffffff163373ffffffffffffffffffffffffffffffffffffffff161461138e576040517f08c379a0000000000000000000000000000000000000000000000000000000008152600401611385906140ab565b60405180910390fd5b6000600360006101000a81548173ffffffffffffffffffffffffffffffffffffffff021916908373ffffffffffffffffffffffffffffffffffffffff160217905550565b6000600a905090565b6000835185511480156113ef575082518551145b61142e576040517f08c379a000000000000000000000000000000000000000000000000000000000815260040161142590614163565b60405180910390fd5b600085511415611473576040517f08c379a000000000000000000000000000000000000000000000000000000000815260040161146a906141f5565b60405180910390fd5b61147b6113d2565b855111156114be576040517f08c379a00000000000000000000000000000000000000000000000000000000081526004016114b590614287565b60405180910390fd5b6000600660003373ffffffffffffffffffffffffffffffffffffffff1673ffffffffffffffffffffffffffffffffffffffff168152602001908152602001600020549050600081146115e957600061151582610bae565b90506001600781111561152b5761152a612efd565b5b81600781111561153e5761153d612efd565b5b141561157f576040517f08c379a00000000000000000000000000000000000000000000000000000000081526004016115769061433f565b60405180910390fd5b6000600781111561159357611592612efd565b5b8160078111156115a6576115a5612efd565b5b14156115e7576040517f08c379a00000000000000000000000000000000000000000000000000000000081526004016115de906143f7565b60405180910390fd5b505b60006115fc436115f7610ba5565b612342565b905060006116118261160c61072b565b612342565b90506004600081548092919061162690613d29565b9190505550600060056000600454815260200190815260200160002090506004548160000181905550338160010160006101000a81548173ffffffffffffffffffffffffffffffffffffffff021916908373ffffffffffffffffffffffffffffffffffffffff16021790555060008160020181905550888160030190805190602001906116b49291906125b5565b50878160040190805190602001906116cd92919061263f565b50868160050190805190602001906116e692919061268c565b508281600601819055508181600701819055506000816008018190555060008160090181905550600081600a0160006101000a81548160ff021916908315150217905550600081600a0160016101000a81548160ff0219169083151502179055507f95f03e437e6d5037418f12bef80fc7e0a5f27754c078a1d5d3f62d39bac44e508160000154338b8b8b88888d604051611788989796959493929190614417565b60405180910390a18060000154945050505050949350505050565b600360009054906101000a900473ffffffffffffffffffffffffffffffffffffffff1673ffffffffffffffffffffffffffffffffffffffff163373ffffffffffffffffffffffffffffffffffffffff1614611833576040517f08c379a000000000000000000000000000000000000000000000000000000000815260040161182a90614549565b60405180910390fd5b60018054906101000a900473ffffffffffffffffffffffffffffffffffffffff1673ffffffffffffffffffffffffffffffffffffffff16638e361cdf60018054906101000a900473ffffffffffffffffffffffffffffffffffffffff166000856040516020016118a39190612f8f565b604051602081830303815290604052856040518563ffffffff1660e01b81526004016118d2949392919061386b565b6020604051808303816000875af11580156118f1573d6000803e3d6000fd5b505050506040513d601f19601f82011682018060405250810190611915919061457e565b505050565b600160009054906101000a900460ff1681565b600069152d02c7e14af6800000905090565b600360009054906101000a900473ffffffffffffffffffffffffffffffffffffffff1673ffffffffffffffffffffffffffffffffffffffff163373ffffffffffffffffffffffffffffffffffffffff16146119cf576040517f08c379a00000000000000000000000000000000000000000000000000000000081526004016119c69061461d565b60405180910390fd5b60018054906101000a900473ffffffffffffffffffffffffffffffffffffffff1673ffffffffffffffffffffffffffffffffffffffff16630e18b6816040518163ffffffff1660e01b8152600401600060405180830381600087803b158015611a3757600080fd5b505af1158015611a4b573d6000803e3d6000fd5b50505050565b60018054906101000a900473ffffffffffffffffffffffffffffffffffffffff1681565b60045481565b60046007811115611a8f57611a8e612efd565b5b611a9882610bae565b6007811115611aaa57611aa9612efd565b5b14611aea576040517f08c379a0000000000000000000000000000000000000000000000000000000008152600401611ae1906146d5565b60405180910390fd5b60006005600083815260200190815260200160002090506000611b9b4260018054906101000a900473ffffffffffffffffffffffffffffffffffffffff1673ffffffffffffffffffffffffffffffffffffffff16636a42b8f86040518163ffffffff1660e01b8152600401602060405180830381865afa158015611b72573d6000803e3d6000fd5b505050506040513d601f19601f82011682018060405250810190611b969190613a17565b612342565b905060005b8260030180549050811015611cd657611cc3836003018281548110611bc857611bc7613bea565b5b9060005260206000200160009054906101000a900473ffffffffffffffffffffffffffffffffffffffff16846004018381548110611c0957611c08613bea565b5b9060005260206000200154856005018481548110611c2a57611c29613bea565b5b906000526020600020018054611c3f906136fc565b80601f0160208091040260200160405190810160405280929190818152602001828054611c6b906136fc565b8015611cb85780601f10611c8d57610100808354040283529160200191611cb8565b820191906000526020600020905b815481529060010190602001808311611c9b57829003601f168201915b505050505085612406565b8080611cce90613d29565b915050611ba0565b508082600201819055507f9a2e42fd6722813d69113e7d0079d3d940171428df7373df9c7f7617cfda28928382604051611d119291906146f5565b60405180910390a1505050565b7f8e25870c07e0b0b3884c78da52790939a455c275406c44ae8b434b692fb916ee81565b611d4a6126ec565b60056000848152602001908152602001600020600b0160008373ffffffffffffffffffffffffffffffffffffffff1673ffffffffffffffffffffffffffffffffffffffff1681526020019081526020016000206040518060600160405290816000820160009054906101000a900460ff161515151581526020016000820160019054906101000a900460ff161515151581526020016000820160029054906101000a90046bffffffffffffffffffffffff166bffffffffffffffffffffffff166bffffffffffffffffffffffff1681525050905092915050565b60056007811115611e3857611e37612efd565b5b611e4182610bae565b6007811115611e5357611e52612efd565b5b14611e93576040517f08c379a0000000000000000000000000000000000000000000000000000000008152600401611e8a906147b6565b60405180910390fd5b6000600560008381526020019081526020016000209050600181600a0160016101000a81548160ff02191690831515021790555060005b81600301805490508110156120385760018054906101000a900473ffffffffffffffffffffffffffffffffffffffff1673ffffffffffffffffffffffffffffffffffffffff166306a41d09836004018381548110611f2b57611f2a613bea565b5b9060005260206000200154846003018481548110611f4c57611f4b613bea565b5b9060005260206000200160009054906101000a900473ffffffffffffffffffffffffffffffffffffffff16856004018581548110611f8d57611f8c613bea565b5b9060005260206000200154866005018681548110611fae57611fad613bea565b5b9060005260206000200187600201546040518663ffffffff1660e01b8152600401611fdc9493929190613cae565b60006040518083038185885af1158015611ffa573d6000803e3d6000fd5b50505050506040513d6000823e3d601f19601f820116820180604052508101906120249190613927565b50808061203090613d29565b915050611eca565b507f712ae1383f79ac853f8d882153778e0260ef8f03b504e2866e0593e04d2b291f826040516120689190612995565b60405180910390a15050565b6001600781111561208857612087612efd565b5b61209183610bae565b60078111156120a3576120a2612efd565b5b146120e3576040517f08c379a00000000000000000000000000000000000000000000000000000000081526004016120da90614848565b60405180910390fd5b6000600560008481526020019081526020016000209050600081600b0160008673ffffffffffffffffffffffffffffffffffffffff1673ffffffffffffffffffffffffffffffffffffffff1681526020019081526020016000209050600015158160000160009054906101000a900460ff16151514612197576040517f08c379a000000000000000000000000000000000000000000000000000000000815260040161218e906148da565b60405180910390fd5b6000600260009054906101000a900473ffffffffffffffffffffffffffffffffffffffff1673ffffffffffffffffffffffffffffffffffffffff1663782d6fe18785600601546040518363ffffffff1660e01b81526004016121fa929190613ad6565b602060405180830381865afa158015612217573d6000803e3d6000fd5b505050506040513d601f19601f8201168201806040525081019061223b9190613b2b565b9050831561226c5761225f8360080154826bffffffffffffffffffffffff16612342565b8360080181905550612291565b6122888360090154826bffffffffffffffffffffffff16612342565b83600901819055505b60018260000160006101000a81548160ff021916908315150217905550838260000160016101000a81548160ff021916908315150217905550808260000160026101000a8154816bffffffffffffffffffffffff02191690836bffffffffffffffffffffffff1602179055507f877856338e13f63d0c36822ff0ef736b80934cd90574a3a5bc9262c39d217c4686868684604051612332949392919061492b565b60405180910390a1505050505050565b60008082846123519190614970565b905083811015612396576040517f08c379a000000000000000000000000000000000000000000000000000000000815260040161238d90614a12565b60405180910390fd5b8091505092915050565b6000828211156123e5576040517f08c379a00000000000000000000000000000000000000000000000000000000081526004016123dc90614a7e565b60405180910390fd5b81836123f19190614a9e565b905092915050565b6000804690508091505090565b60018054906101000a900473ffffffffffffffffffffffffffffffffffffffff1673ffffffffffffffffffffffffffffffffffffffff1663f2b06537858585856040516020016124599493929190614ad2565b604051602081830303815290604052805190602001206040518263ffffffff1660e01b815260040161248b9190612bc3565b602060405180830381865afa1580156124a8573d6000803e3d6000fd5b505050506040513d601f19601f820116820180604052508101906124cc9190614b33565b1561250c576040517f08c379a000000000000000000000000000000000000000000000000000000000815260040161250390614bf8565b60405180910390fd5b60018054906101000a900473ffffffffffffffffffffffffffffffffffffffff1673ffffffffffffffffffffffffffffffffffffffff16638e361cdf858585856040518563ffffffff1660e01b815260040161256b9493929190614ad2565b6020604051808303816000875af115801561258a573d6000803e3d6000fd5b505050506040513d601f19601f820116820180604052508101906125ae919061457e565b5050505050565b82805482825590600052602060002090810192821561262e579160200282015b8281111561262d5782518260006101000a81548173ffffffffffffffffffffffffffffffffffffffff021916908373ffffffffffffffffffffffffffffffffffffffff160217905550916020019190600101906125d5565b5b50905061263b919061271f565b5090565b82805482825590600052602060002090810192821561267b579160200282015b8281111561267a57825182559160200191906001019061265f565b5b509050612688919061271f565b5090565b8280548282559060005260206000209081019282156126db579160200282015b828111156126da5782518290805190602001906126ca92919061273c565b50916020019190600101906126ac565b5b5090506126e891906127c2565b5090565b604051806060016040528060001515815260200160001515815260200160006bffffffffffffffffffffffff1681525090565b5b80821115612738576000816000905550600101612720565b5090565b828054612748906136fc565b90600052602060002090601f01602090048101928261276a57600085556127b1565b82601f1061278357805160ff19168380011785556127b1565b828001600101855582156127b1579182015b828111156127b0578251825591602001919060010190612795565b5b5090506127be919061271f565b5090565b5b808211156127e257600081816127d991906127e6565b506001016127c3565b5090565b5080546127f2906136fc565b6000825580601f106128045750612823565b601f016020900490600052602060002090810190612822919061271f565b5b50565b6000604051905090565b600080fd5b600080fd5b6000819050919050565b61284d8161283a565b811461285857600080fd5b50565b60008135905061286a81612844565b92915050565b60006020828403121561288657612885612830565b5b60006128948482850161285b565b91505092915050565b6128a68161283a565b82525050565b600073ffffffffffffffffffffffffffffffffffffffff82169050919050565b60006128d7826128ac565b9050919050565b6128e7816128cc565b82525050565b60008115159050919050565b612902816128ed565b82525050565b60006101208201905061291e600083018c61289d565b61292b602083018b6128de565b612938604083018a61289d565b612945606083018961289d565b612952608083018861289d565b61295f60a083018761289d565b61296c60c083018661289d565b61297960e08301856128f9565b6129876101008301846128f9565b9a9950505050505050505050565b60006020820190506129aa600083018461289d565b92915050565b600081519050919050565b600082825260208201905092915050565b60005b838110156129ea5780820151818401526020810190506129cf565b838111156129f9576000848401525b50505050565b6000601f19601f8301169050919050565b6000612a1b826129b0565b612a2581856129bb565b9350612a358185602086016129cc565b612a3e816129ff565b840191505092915050565b60006020820190508181036000830152612a638184612a10565b905092915050565b6000819050919050565b6000612a90612a8b612a86846128ac565b612a6b565b6128ac565b9050919050565b6000612aa282612a75565b9050919050565b6000612ab482612a97565b9050919050565b612ac481612aa9565b82525050565b6000602082019050612adf6000830184612abb565b92915050565b612aee816128ed565b8114612af957600080fd5b50565b600081359050612b0b81612ae5565b92915050565b60008060408385031215612b2857612b27612830565b5b6000612b368582860161285b565b9250506020612b4785828601612afc565b9150509250929050565b612b5a816128cc565b8114612b6557600080fd5b50565b600081359050612b7781612b51565b92915050565b600060208284031215612b9357612b92612830565b5b6000612ba184828501612b68565b91505092915050565b6000819050919050565b612bbd81612baa565b82525050565b6000602082019050612bd86000830184612bb4565b92915050565b60008060408385031215612bf557612bf4612830565b5b6000612c0385828601612b68565b9250506020612c148582860161285b565b9150509250929050565b600081519050919050565b600082825260208201905092915050565b6000819050602082019050919050565b612c53816128cc565b82525050565b6000612c658383612c4a565b60208301905092915050565b6000602082019050919050565b6000612c8982612c1e565b612c938185612c29565b9350612c9e83612c3a565b8060005b83811015612ccf578151612cb68882612c59565b9750612cc183612c71565b925050600181019050612ca2565b5085935050505092915050565b600081519050919050565b600082825260208201905092915050565b6000819050602082019050919050565b612d118161283a565b82525050565b6000612d238383612d08565b60208301905092915050565b6000602082019050919050565b6000612d4782612cdc565b612d518185612ce7565b9350612d5c83612cf8565b8060005b83811015612d8d578151612d748882612d17565b9750612d7f83612d2f565b925050600181019050612d60565b5085935050505092915050565b600081519050919050565b600082825260208201905092915050565b6000819050602082019050919050565b600081519050919050565b600082825260208201905092915050565b6000612ded82612dc6565b612df78185612dd1565b9350612e078185602086016129cc565b612e10816129ff565b840191505092915050565b6000612e278383612de2565b905092915050565b6000602082019050919050565b6000612e4782612d9a565b612e518185612da5565b935083602082028501612e6385612db6565b8060005b85811015612e9f5784840389528151612e808582612e1b565b9450612e8b83612e2f565b925060208a01995050600181019050612e67565b50829750879550505050505092915050565b60006060820190508181036000830152612ecb8186612c7e565b90508181036020830152612edf8185612d3c565b90508181036040830152612ef38184612e3c565b9050949350505050565b7f4e487b7100000000000000000000000000000000000000000000000000000000600052602160045260246000fd5b60088110612f3d57612f3c612efd565b5b50565b6000819050612f4e82612f2c565b919050565b6000612f5e82612f40565b9050919050565b612f6e81612f53565b82525050565b6000602082019050612f896000830184612f65565b92915050565b6000602082019050612fa460008301846128de565b92915050565b600060ff82169050919050565b612fc081612faa565b8114612fcb57600080fd5b50565b600081359050612fdd81612fb7565b92915050565b612fec81612baa565b8114612ff757600080fd5b50565b60008135905061300981612fe3565b92915050565b600080600080600060a0868803121561302b5761302a612830565b5b60006130398882890161285b565b955050602061304a88828901612afc565b945050604061305b88828901612fce565b935050606061306c88828901612ffa565b925050608061307d88828901612ffa565b9150509295509295909350565b600080fd5b7f4e487b7100000000000000000000000000000000000000000000000000000000600052604160045260246000fd5b6130c7826129ff565b810181811067ffffffffffffffff821117156130e6576130e561308f565b5b80604052505050565b60006130f9612826565b905061310582826130be565b919050565b600067ffffffffffffffff8211156131255761312461308f565b5b602082029050602081019050919050565b600080fd5b600061314e6131498461310a565b6130ef565b9050808382526020820190506020840283018581111561317157613170613136565b5b835b8181101561319a57806131868882612b68565b845260208401935050602081019050613173565b5050509392505050565b600082601f8301126131b9576131b861308a565b5b81356131c984826020860161313b565b91505092915050565b600067ffffffffffffffff8211156131ed576131ec61308f565b5b602082029050602081019050919050565b600061321161320c846131d2565b6130ef565b9050808382526020820190506020840283018581111561323457613233613136565b5b835b8181101561325d5780613249888261285b565b845260208401935050602081019050613236565b5050509392505050565b600082601f83011261327c5761327b61308a565b5b813561328c8482602086016131fe565b91505092915050565b600067ffffffffffffffff8211156132b0576132af61308f565b5b602082029050602081019050919050565b600080fd5b600067ffffffffffffffff8211156132e1576132e061308f565b5b6132ea826129ff565b9050602081019050919050565b82818337600083830152505050565b6000613319613314846132c6565b6130ef565b905082815260208101848484011115613335576133346132c1565b5b6133408482856132f7565b509392505050565b600082601f83011261335d5761335c61308a565b5b813561336d848260208601613306565b91505092915050565b600061338961338484613295565b6130ef565b905080838252602082019050602084028301858111156133ac576133ab613136565b5b835b818110156133f357803567ffffffffffffffff8111156133d1576133d061308a565b5b8086016133de8982613348565b855260208501945050506020810190506133ae565b5050509392505050565b600082601f8301126134125761341161308a565b5b8135613422848260208601613376565b91505092915050565b600067ffffffffffffffff8211156134465761344561308f565b5b61344f826129ff565b9050602081019050919050565b600061346f61346a8461342b565b6130ef565b90508281526020810184848401111561348b5761348a6132c1565b5b6134968482856132f7565b509392505050565b600082601f8301126134b3576134b261308a565b5b81356134c384826020860161345c565b91505092915050565b600080600080608085870312156134e6576134e5612830565b5b600085013567ffffffffffffffff81111561350457613503612835565b5b613510878288016131a4565b945050602085013567ffffffffffffffff81111561353157613530612835565b5b61353d87828801613267565b935050604085013567ffffffffffffffff81111561355e5761355d612835565b5b61356a878288016133fd565b925050606085013567ffffffffffffffff81111561358b5761358a612835565b5b6135978782880161349e565b91505092959194509250565b60006020820190506135b860008301846128f9565b92915050565b60006135c982612a97565b9050919050565b6135d9816135be565b82525050565b60006020820190506135f460008301846135d0565b92915050565b6000806040838503121561361157613610612830565b5b600061361f8582860161285b565b925050602061363085828601612b68565b9150509250929050565b613643816128ed565b82525050565b60006bffffffffffffffffffffffff82169050919050565b61366a81613649565b82525050565b606082016000820151613686600085018261363a565b506020820151613699602085018261363a565b5060408201516136ac6040850182613661565b50505050565b60006060820190506136c76000830184613670565b92915050565b7f4e487b7100000000000000000000000000000000000000000000000000000000600052602260045260246000fd5b6000600282049050600182168061371457607f821691505b60208210811415613728576137276136cd565b5b50919050565b7f476f7665726e6f72416c7068613a3a5f5f6578656375746553657454696d656c60008201527f6f636b50656e64696e6741646d696e3a2073656e646572206d7573742062652060208201527f676f7620677561726469616e0000000000000000000000000000000000000000604082015250565b60006137b0604c836129bb565b91506137bb8261372e565b606082019050919050565b600060208201905081810360008301526137df816137a3565b9050919050565b6000819050919050565b600061380b613806613801846137e6565b612a6b565b61283a565b9050919050565b61381b816137f0565b82525050565b600082825260208201905092915050565b600061383d82612dc6565b6138478185613821565b93506138578185602086016129cc565b613860816129ff565b840191505092915050565b600060808201905061388060008301876128de565b61388d6020830186613812565b818103604083015261389f8185613832565b90506138ae606083018461289d565b95945050505050565b60006138ca6138c5846132c6565b6130ef565b9050828152602081018484840111156138e6576138e56132c1565b5b6138f18482856129cc565b509392505050565b600082601f83011261390e5761390d61308a565b5b815161391e8482602086016138b7565b91505092915050565b60006020828403121561393d5761393c612830565b5b600082015167ffffffffffffffff81111561395b5761395a612835565b5b613967848285016138f9565b91505092915050565b7f476f7665726e6f72416c7068613a3a73746174653a20696e76616c696420707260008201527f6f706f73616c2069640000000000000000000000000000000000000000000000602082015250565b60006139cc6029836129bb565b91506139d782613970565b604082019050919050565b600060208201905081810360008301526139fb816139bf565b9050919050565b600081519050613a1181612844565b92915050565b600060208284031215613a2d57613a2c612830565b5b6000613a3b84828501613a02565b91505092915050565b7f476f7665726e6f72416c7068613a3a63616e63656c3a2063616e6e6f7420636160008201527f6e63656c2065786563757465642070726f706f73616c00000000000000000000602082015250565b6000613aa06036836129bb565b9150613aab82613a44565b604082019050919050565b60006020820190508181036000830152613acf81613a93565b9050919050565b6000604082019050613aeb60008301856128de565b613af8602083018461289d565b9392505050565b613b0881613649565b8114613b1357600080fd5b50565b600081519050613b2581613aff565b92915050565b600060208284031215613b4157613b40612830565b5b6000613b4f84828501613b16565b91505092915050565b7f476f7665726e6f72416c7068613a3a63616e63656c3a2070726f706f7365722060008201527f61626f7665207468726573686f6c640000000000000000000000000000000000602082015250565b6000613bb4602f836129bb565b9150613bbf82613b58565b604082019050919050565b60006020820190508181036000830152613be381613ba7565b9050919050565b7f4e487b7100000000000000000000000000000000000000000000000000000000600052603260045260246000fd5b60008190508160005260206000209050919050565b60008154613c3b816136fc565b613c458186613821565b94506001821660008114613c605760018114613c7257613ca5565b60ff1983168652602086019350613ca5565b613c7b85613c19565b60005b83811015613c9d57815481890152600182019150602081019050613c7e565b808801955050505b50505092915050565b6000608082019050613cc360008301876128de565b613cd0602083018661289d565b8181036040830152613ce28185613c2e565b9050613cf1606083018461289d565b95945050505050565b7f4e487b7100000000000000000000000000000000000000000000000000000000600052601160045260246000fd5b6000613d348261283a565b91507fffffffffffffffffffffffffffffffffffffffffffffffffffffffffffffffff821415613d6757613d66613cfa565b5b600182019050919050565b600081905092915050565b60008190508160005260206000209050919050565b60008154613d9f816136fc565b613da98186613d72565b94506001821660008114613dc45760018114613dd557613e08565b60ff19831686528186019350613e08565b613dde85613d7d565b60005b83811015613e0057815481890152600182019150602081019050613de1565b838801955050505b50505092915050565b6000613e1d8284613d92565b915081905092915050565b6000608082019050613e3d6000830187612bb4565b613e4a6020830186612bb4565b613e57604083018561289d565b613e6460608301846128de565b95945050505050565b6000606082019050613e826000830186612bb4565b613e8f602083018561289d565b613e9c60408301846128f9565b949350505050565b600081905092915050565b7f1901000000000000000000000000000000000000000000000000000000000000600082015250565b6000613ee5600283613ea4565b9150613ef082613eaf565b600282019050919050565b6000819050919050565b613f16613f1182612baa565b613efb565b82525050565b6000613f2782613ed8565b9150613f338285613f05565b602082019150613f438284613f05565b6020820191508190509392505050565b613f5c81612faa565b82525050565b6000608082019050613f776000830187612bb4565b613f846020830186613f53565b613f916040830185612bb4565b613f9e6060830184612bb4565b95945050505050565b7f476f7665726e6f72416c7068613a3a63617374566f746542795369673a20696e60008201527f76616c6964207369676e61747572650000000000000000000000000000000000602082015250565b6000614003602f836129bb565b915061400e82613fa7565b604082019050919050565b6000602082019050818103600083015261403281613ff6565b9050919050565b7f476f7665726e6f72416c7068613a3a5f5f61626469636174653a2073656e646560008201527f72206d75737420626520676f7620677561726469616e00000000000000000000602082015250565b60006140956036836129bb565b91506140a082614039565b604082019050919050565b600060208201905081810360008301526140c481614088565b9050919050565b7f476f7665726e6f72416c7068613a3a70726f706f73653a2070726f706f73616c60008201527f2066756e6374696f6e20696e666f726d6174696f6e206172697479206d69736d60208201527f6174636800000000000000000000000000000000000000000000000000000000604082015250565b600061414d6044836129bb565b9150614158826140cb565b606082019050919050565b6000602082019050818103600083015261417c81614140565b9050919050565b7f476f7665726e6f72416c7068613a3a70726f706f73653a206d7573742070726f60008201527f7669646520616374696f6e730000000000000000000000000000000000000000602082015250565b60006141df602c836129bb565b91506141ea82614183565b604082019050919050565b6000602082019050818103600083015261420e816141d2565b9050919050565b7f476f7665726e6f72416c7068613a3a70726f706f73653a20746f6f206d616e7960008201527f20616374696f6e73000000000000000000000000000000000000000000000000602082015250565b60006142716028836129bb565b915061427c82614215565b604082019050919050565b600060208201905081810360008301526142a081614264565b9050919050565b7f476f7665726e6f72416c7068613a3a70726f706f73653a206f6e65206c69766560008201527f2070726f706f73616c207065722070726f706f7365722c20666f756e6420616e60208201527f20616c7265616479206163746976652070726f706f73616c0000000000000000604082015250565b60006143296058836129bb565b9150614334826142a7565b606082019050919050565b600060208201905081810360008301526143588161431c565b9050919050565b7f476f7665726e6f72416c7068613a3a70726f706f73653a206f6e65206c69766560008201527f2070726f706f73616c207065722070726f706f7365722c20666f756e6420616e60208201527f20616c72656164792070656e64696e672070726f706f73616c00000000000000604082015250565b60006143e16059836129bb565b91506143ec8261435f565b606082019050919050565b60006020820190508181036000830152614410816143d4565b9050919050565b60006101008201905061442d600083018b61289d565b61443a602083018a6128de565b818103604083015261444c8189612c7e565b905081810360608301526144608188612d3c565b905081810360808301526144748187612e3c565b905061448360a083018661289d565b61449060c083018561289d565b81810360e08301526144a28184612a10565b90509998505050505050505050565b7f476f7665726e6f72416c7068613a3a5f5f717565756553657454696d656c6f6360008201527f6b50656e64696e6741646d696e3a2073656e646572206d75737420626520676f60208201527f7620677561726469616e00000000000000000000000000000000000000000000604082015250565b6000614533604a836129bb565b915061453e826144b1565b606082019050919050565b6000602082019050818103600083015261456281614526565b9050919050565b60008151905061457881612fe3565b92915050565b60006020828403121561459457614593612830565b5b60006145a284828501614569565b91505092915050565b7f476f7665726e6f72416c7068613a3a5f5f61636365707441646d696e3a20736560008201527f6e646572206d75737420626520676f7620677561726469616e00000000000000602082015250565b60006146076039836129bb565b9150614612826145ab565b604082019050919050565b60006020820190508181036000830152614636816145fa565b9050919050565b7f476f7665726e6f72416c7068613a3a71756575653a2070726f706f73616c206360008201527f616e206f6e6c792062652071756575656420696620697420697320737563636560208201527f6564656400000000000000000000000000000000000000000000000000000000604082015250565b60006146bf6044836129bb565b91506146ca8261463d565b606082019050919050565b600060208201905081810360008301526146ee816146b2565b9050919050565b600060408201905061470a600083018561289d565b614717602083018461289d565b9392505050565b7f476f7665726e6f72416c7068613a3a657865637574653a2070726f706f73616c60008201527f2063616e206f6e6c79206265206578656375746564206966206974206973207160208201527f7565756564000000000000000000000000000000000000000000000000000000604082015250565b60006147a06045836129bb565b91506147ab8261471e565b606082019050919050565b600060208201905081810360008301526147cf81614793565b9050919050565b7f476f7665726e6f72416c7068613a3a5f63617374566f74653a20766f74696e6760008201527f20697320636c6f73656400000000000000000000000000000000000000000000602082015250565b6000614832602a836129bb565b915061483d826147d6565b604082019050919050565b6000602082019050818103600083015261486181614825565b9050919050565b7f476f7665726e6f72416c7068613a3a5f63617374566f74653a20766f7465722060008201527f616c726561647920766f74656400000000000000000000000000000000000000602082015250565b60006148c4602d836129bb565b91506148cf82614868565b604082019050919050565b600060208201905081810360008301526148f3816148b7565b9050919050565b600061491561491061490b84613649565b612a6b565b61283a565b9050919050565b614925816148fa565b82525050565b600060808201905061494060008301876128de565b61494d602083018661289d565b61495a60408301856128f9565b614967606083018461491c565b95945050505050565b600061497b8261283a565b91506149868361283a565b9250827fffffffffffffffffffffffffffffffffffffffffffffffffffffffffffffffff038211156149bb576149ba613cfa565b5b828201905092915050565b7f6164646974696f6e206f766572666c6f77000000000000000000000000000000600082015250565b60006149fc6011836129bb565b9150614a07826149c6565b602082019050919050565b60006020820190508181036000830152614a2b816149ef565b9050919050565b7f7375627472616374696f6e20756e646572666c6f770000000000000000000000600082015250565b6000614a686015836129bb565b9150614a7382614a32565b602082019050919050565b60006020820190508181036000830152614a9781614a5b565b9050919050565b6000614aa98261283a565b9150614ab48361283a565b925082821015614ac757614ac6613cfa565b5b828203905092915050565b6000608082019050614ae760008301876128de565b614af4602083018661289d565b8181036040830152614b068185613832565b9050614b15606083018461289d565b95945050505050565b600081519050614b2d81612ae5565b92915050565b600060208284031215614b4957614b48612830565b5b6000614b5784828501614b1e565b91505092915050565b7f476f7665726e6f72416c7068613a3a5f71756575654f725265766572743a207060008201527f726f706f73616c20616374696f6e20616c72656164792071756575656420617460208201527f2065746100000000000000000000000000000000000000000000000000000000604082015250565b6000614be26044836129bb565b9150614bed82614b60565b606082019050919050565b60006020820190508181036000830152614c1181614bd5565b905091905056fea264697066735822122066e62a8356c543e820c671fd5cae7297a38f8c81cc995f983f7f472413a70d6564736f6c634300080a0033",
          "opcodes": "PUSH1 0x80 PUSH1 0x40 MSTORE PUSH1 0x40 MLOAD DUP1 PUSH1 0x40 ADD PUSH1 0x40 MSTORE DUP1 PUSH1 0xD DUP2 MSTORE PUSH1 0x20 ADD PUSH32 0x476F7665726E6F72416C70686100000000000000000000000000000000000000 DUP2 MSTORE POP PUSH1 0x0 SWAP1 DUP1 MLOAD SWAP1 PUSH1 0x20 ADD SWAP1 PUSH3 0x51 SWAP3 SWAP2 SWAP1 PUSH3 0x16A JUMP JUMPDEST POP CALLVALUE DUP1 ISZERO PUSH3 0x5F JUMPI PUSH1 0x0 DUP1 REVERT JUMPDEST POP PUSH1 0x40 MLOAD PUSH3 0x5170 CODESIZE SUB DUP1 PUSH3 0x5170 DUP4 CODECOPY DUP2 DUP2 ADD PUSH1 0x40 MSTORE DUP2 ADD SWAP1 PUSH3 0x85 SWAP2 SWAP1 PUSH3 0x41C JUMP JUMPDEST DUP4 PUSH1 0x1 DUP1 PUSH2 0x100 EXP DUP2 SLOAD DUP2 PUSH20 0xFFFFFFFFFFFFFFFFFFFFFFFFFFFFFFFFFFFFFFFF MUL NOT AND SWAP1 DUP4 PUSH20 0xFFFFFFFFFFFFFFFFFFFFFFFFFFFFFFFFFFFFFFFF AND MUL OR SWAP1 SSTORE POP DUP3 PUSH1 0x2 PUSH1 0x0 PUSH2 0x100 EXP DUP2 SLOAD DUP2 PUSH20 0xFFFFFFFFFFFFFFFFFFFFFFFFFFFFFFFFFFFFFFFF MUL NOT AND SWAP1 DUP4 PUSH20 0xFFFFFFFFFFFFFFFFFFFFFFFFFFFFFFFFFFFFFFFF AND MUL OR SWAP1 SSTORE POP DUP2 PUSH1 0x3 PUSH1 0x0 PUSH2 0x100 EXP DUP2 SLOAD DUP2 PUSH20 0xFFFFFFFFFFFFFFFFFFFFFFFFFFFFFFFFFFFFFFFF MUL NOT AND SWAP1 DUP4 PUSH20 0xFFFFFFFFFFFFFFFFFFFFFFFFFFFFFFFFFFFFFFFF AND MUL OR SWAP1 SSTORE POP DUP1 PUSH1 0x0 SWAP1 DUP1 MLOAD SWAP1 PUSH1 0x20 ADD SWAP1 PUSH3 0x15F SWAP3 SWAP2 SWAP1 PUSH3 0x16A JUMP JUMPDEST POP POP POP POP POP PUSH3 0x512 JUMP JUMPDEST DUP3 DUP1 SLOAD PUSH3 0x178 SWAP1 PUSH3 0x4DC JUMP JUMPDEST SWAP1 PUSH1 0x0 MSTORE PUSH1 0x20 PUSH1 0x0 KECCAK256 SWAP1 PUSH1 0x1F ADD PUSH1 0x20 SWAP1 DIV DUP2 ADD SWAP3 DUP3 PUSH3 0x19C JUMPI PUSH1 0x0 DUP6 SSTORE PUSH3 0x1E8 JUMP JUMPDEST DUP3 PUSH1 0x1F LT PUSH3 0x1B7 JUMPI DUP1 MLOAD PUSH1 0xFF NOT AND DUP4 DUP1 ADD OR DUP6 SSTORE PUSH3 0x1E8 JUMP JUMPDEST DUP3 DUP1 ADD PUSH1 0x1 ADD DUP6 SSTORE DUP3 ISZERO PUSH3 0x1E8 JUMPI SWAP2 DUP3 ADD JUMPDEST DUP3 DUP2 GT ISZERO PUSH3 0x1E7 JUMPI DUP3 MLOAD DUP3 SSTORE SWAP2 PUSH1 0x20 ADD SWAP2 SWAP1 PUSH1 0x1 ADD SWAP1 PUSH3 0x1CA JUMP JUMPDEST JUMPDEST POP SWAP1 POP PUSH3 0x1F7 SWAP2 SWAP1 PUSH3 0x1FB JUMP JUMPDEST POP SWAP1 JUMP JUMPDEST JUMPDEST DUP1 DUP3 GT ISZERO PUSH3 0x216 JUMPI PUSH1 0x0 DUP2 PUSH1 0x0 SWAP1 SSTORE POP PUSH1 0x1 ADD PUSH3 0x1FC JUMP JUMPDEST POP SWAP1 JUMP JUMPDEST PUSH1 0x0 PUSH1 0x40 MLOAD SWAP1 POP SWAP1 JUMP JUMPDEST PUSH1 0x0 DUP1 REVERT JUMPDEST PUSH1 0x0 DUP1 REVERT JUMPDEST PUSH1 0x0 PUSH20 0xFFFFFFFFFFFFFFFFFFFFFFFFFFFFFFFFFFFFFFFF DUP3 AND SWAP1 POP SWAP2 SWAP1 POP JUMP JUMPDEST PUSH1 0x0 PUSH3 0x25B DUP3 PUSH3 0x22E JUMP JUMPDEST SWAP1 POP SWAP2 SWAP1 POP JUMP JUMPDEST PUSH3 0x26D DUP2 PUSH3 0x24E JUMP JUMPDEST DUP2 EQ PUSH3 0x279 JUMPI PUSH1 0x0 DUP1 REVERT JUMPDEST POP JUMP JUMPDEST PUSH1 0x0 DUP2 MLOAD SWAP1 POP PUSH3 0x28D DUP2 PUSH3 0x262 JUMP JUMPDEST SWAP3 SWAP2 POP POP JUMP JUMPDEST PUSH1 0x0 DUP1 REVERT JUMPDEST PUSH1 0x0 DUP1 REVERT JUMPDEST PUSH1 0x0 PUSH1 0x1F NOT PUSH1 0x1F DUP4 ADD AND SWAP1 POP SWAP2 SWAP1 POP JUMP JUMPDEST PUSH32 0x4E487B7100000000000000000000000000000000000000000000000000000000 PUSH1 0x0 MSTORE PUSH1 0x41 PUSH1 0x4 MSTORE PUSH1 0x24 PUSH1 0x0 REVERT JUMPDEST PUSH3 0x2E8 DUP3 PUSH3 0x29D JUMP JUMPDEST DUP2 ADD DUP2 DUP2 LT PUSH8 0xFFFFFFFFFFFFFFFF DUP3 GT OR ISZERO PUSH3 0x30A JUMPI PUSH3 0x309 PUSH3 0x2AE JUMP JUMPDEST JUMPDEST DUP1 PUSH1 0x40 MSTORE POP POP POP JUMP JUMPDEST PUSH1 0x0 PUSH3 0x31F PUSH3 0x21A JUMP JUMPDEST SWAP1 POP PUSH3 0x32D DUP3 DUP3 PUSH3 0x2DD JUMP JUMPDEST SWAP2 SWAP1 POP JUMP JUMPDEST PUSH1 0x0 PUSH8 0xFFFFFFFFFFFFFFFF DUP3 GT ISZERO PUSH3 0x350 JUMPI PUSH3 0x34F PUSH3 0x2AE JUMP JUMPDEST JUMPDEST PUSH3 0x35B DUP3 PUSH3 0x29D JUMP JUMPDEST SWAP1 POP PUSH1 0x20 DUP2 ADD SWAP1 POP SWAP2 SWAP1 POP JUMP JUMPDEST PUSH1 0x0 JUMPDEST DUP4 DUP2 LT ISZERO PUSH3 0x388 JUMPI DUP1 DUP3 ADD MLOAD DUP2 DUP5 ADD MSTORE PUSH1 0x20 DUP2 ADD SWAP1 POP PUSH3 0x36B JUMP JUMPDEST DUP4 DUP2 GT ISZERO PUSH3 0x398 JUMPI PUSH1 0x0 DUP5 DUP5 ADD MSTORE JUMPDEST POP POP POP POP JUMP JUMPDEST PUSH1 0x0 PUSH3 0x3B5 PUSH3 0x3AF DUP5 PUSH3 0x332 JUMP JUMPDEST PUSH3 0x313 JUMP JUMPDEST SWAP1 POP DUP3 DUP2 MSTORE PUSH1 0x20 DUP2 ADD DUP5 DUP5 DUP5 ADD GT ISZERO PUSH3 0x3D4 JUMPI PUSH3 0x3D3 PUSH3 0x298 JUMP JUMPDEST JUMPDEST PUSH3 0x3E1 DUP5 DUP3 DUP6 PUSH3 0x368 JUMP JUMPDEST POP SWAP4 SWAP3 POP POP POP JUMP JUMPDEST PUSH1 0x0 DUP3 PUSH1 0x1F DUP4 ADD SLT PUSH3 0x401 JUMPI PUSH3 0x400 PUSH3 0x293 JUMP JUMPDEST JUMPDEST DUP2 MLOAD PUSH3 0x413 DUP5 DUP3 PUSH1 0x20 DUP7 ADD PUSH3 0x39E JUMP JUMPDEST SWAP2 POP POP SWAP3 SWAP2 POP POP JUMP JUMPDEST PUSH1 0x0 DUP1 PUSH1 0x0 DUP1 PUSH1 0x80 DUP6 DUP8 SUB SLT ISZERO PUSH3 0x439 JUMPI PUSH3 0x438 PUSH3 0x224 JUMP JUMPDEST JUMPDEST PUSH1 0x0 PUSH3 0x449 DUP8 DUP3 DUP9 ADD PUSH3 0x27C JUMP JUMPDEST SWAP5 POP POP PUSH1 0x20 PUSH3 0x45C DUP8 DUP3 DUP9 ADD PUSH3 0x27C JUMP JUMPDEST SWAP4 POP POP PUSH1 0x40 PUSH3 0x46F DUP8 DUP3 DUP9 ADD PUSH3 0x27C JUMP JUMPDEST SWAP3 POP POP PUSH1 0x60 DUP6 ADD MLOAD PUSH8 0xFFFFFFFFFFFFFFFF DUP2 GT ISZERO PUSH3 0x493 JUMPI PUSH3 0x492 PUSH3 0x229 JUMP JUMPDEST JUMPDEST PUSH3 0x4A1 DUP8 DUP3 DUP9 ADD PUSH3 0x3E9 JUMP JUMPDEST SWAP2 POP POP SWAP3 SWAP6 SWAP2 SWAP5 POP SWAP3 POP JUMP JUMPDEST PUSH32 0x4E487B7100000000000000000000000000000000000000000000000000000000 PUSH1 0x0 MSTORE PUSH1 0x22 PUSH1 0x4 MSTORE PUSH1 0x24 PUSH1 0x0 REVERT JUMPDEST PUSH1 0x0 PUSH1 0x2 DUP3 DIV SWAP1 POP PUSH1 0x1 DUP3 AND DUP1 PUSH3 0x4F5 JUMPI PUSH1 0x7F DUP3 AND SWAP2 POP JUMPDEST PUSH1 0x20 DUP3 LT DUP2 EQ ISZERO PUSH3 0x50C JUMPI PUSH3 0x50B PUSH3 0x4AD JUMP JUMPDEST JUMPDEST POP SWAP2 SWAP1 POP JUMP JUMPDEST PUSH2 0x4C4E DUP1 PUSH3 0x522 PUSH1 0x0 CODECOPY PUSH1 0x0 RETURN INVALID PUSH1 0x80 PUSH1 0x40 MSTORE PUSH1 0x4 CALLDATASIZE LT PUSH2 0x1B7 JUMPI PUSH1 0x0 CALLDATALOAD PUSH1 0xE0 SHR DUP1 PUSH4 0x4634C61F GT PUSH2 0xEC JUMPI DUP1 PUSH4 0xB9A61961 GT PUSH2 0x8A JUMPI DUP1 PUSH4 0xDDF0B009 GT PUSH2 0x64 JUMPI DUP1 PUSH4 0xDDF0B009 EQ PUSH2 0x5F6 JUMPI DUP1 PUSH4 0xDEAAA7CC EQ PUSH2 0x61F JUMPI DUP1 PUSH4 0xE23A9A52 EQ PUSH2 0x64A JUMPI DUP1 PUSH4 0xFE0D94C1 EQ PUSH2 0x687 JUMPI PUSH2 0x1B7 JUMP JUMPDEST DUP1 PUSH4 0xB9A61961 EQ PUSH2 0x589 JUMPI DUP1 PUSH4 0xD33219B4 EQ PUSH2 0x5A0 JUMPI DUP1 PUSH4 0xDA35C664 EQ PUSH2 0x5CB JUMPI PUSH2 0x1B7 JUMP JUMPDEST DUP1 PUSH4 0x7D5E81E2 GT PUSH2 0xC6 JUMPI DUP1 PUSH4 0x7D5E81E2 EQ PUSH2 0x4CD JUMPI DUP1 PUSH4 0x91500671 EQ PUSH2 0x50A JUMPI DUP1 PUSH4 0x9352F7BE EQ PUSH2 0x533 JUMPI DUP1 PUSH4 0xB58131B0 EQ PUSH2 0x55E JUMPI PUSH2 0x1B7 JUMP JUMPDEST DUP1 PUSH4 0x4634C61F EQ PUSH2 0x462 JUMPI DUP1 PUSH4 0x760FBC13 EQ PUSH2 0x48B JUMPI DUP1 PUSH4 0x7BDBE4D0 EQ PUSH2 0x4A2 JUMPI PUSH2 0x1B7 JUMP JUMPDEST DUP1 PUSH4 0x21F43E42 GT PUSH2 0x159 JUMPI DUP1 PUSH4 0x3932ABB1 GT PUSH2 0x133 JUMPI DUP1 PUSH4 0x3932ABB1 EQ PUSH2 0x3A6 JUMPI DUP1 PUSH4 0x3E4F49E6 EQ PUSH2 0x3D1 JUMPI DUP1 PUSH4 0x40E58EE5 EQ PUSH2 0x40E JUMPI DUP1 PUSH4 0x452A9320 EQ PUSH2 0x437 JUMPI PUSH2 0x1B7 JUMP JUMPDEST DUP1 PUSH4 0x21F43E42 EQ PUSH2 0x313 JUMPI DUP1 PUSH4 0x24BC1A64 EQ PUSH2 0x33C JUMPI DUP1 PUSH4 0x328DD982 EQ PUSH2 0x367 JUMPI PUSH2 0x1B7 JUMP JUMPDEST DUP1 PUSH4 0x109D0AF8 GT PUSH2 0x195 JUMPI DUP1 PUSH4 0x109D0AF8 EQ PUSH2 0x257 JUMPI DUP1 PUSH4 0x15373E3D EQ PUSH2 0x282 JUMPI DUP1 PUSH4 0x17977C61 EQ PUSH2 0x2AB JUMPI DUP1 PUSH4 0x20606B70 EQ PUSH2 0x2E8 JUMPI PUSH2 0x1B7 JUMP JUMPDEST DUP1 PUSH4 0x13CF08B EQ PUSH2 0x1BC JUMPI DUP1 PUSH4 0x2A251A3 EQ PUSH2 0x201 JUMPI DUP1 PUSH4 0x6FDDE03 EQ PUSH2 0x22C JUMPI JUMPDEST PUSH1 0x0 DUP1 REVERT JUMPDEST CALLVALUE DUP1 ISZERO PUSH2 0x1C8 JUMPI PUSH1 0x0 DUP1 REVERT JUMPDEST POP PUSH2 0x1E3 PUSH1 0x4 DUP1 CALLDATASIZE SUB DUP2 ADD SWAP1 PUSH2 0x1DE SWAP2 SWAP1 PUSH2 0x2870 JUMP JUMPDEST PUSH2 0x6A3 JUMP JUMPDEST PUSH1 0x40 MLOAD PUSH2 0x1F8 SWAP10 SWAP9 SWAP8 SWAP7 SWAP6 SWAP5 SWAP4 SWAP3 SWAP2 SWAP1 PUSH2 0x2908 JUMP JUMPDEST PUSH1 0x40 MLOAD DUP1 SWAP2 SUB SWAP1 RETURN JUMPDEST CALLVALUE DUP1 ISZERO PUSH2 0x20D JUMPI PUSH1 0x0 DUP1 REVERT JUMPDEST POP PUSH2 0x216 PUSH2 0x72B JUMP JUMPDEST PUSH1 0x40 MLOAD PUSH2 0x223 SWAP2 SWAP1 PUSH2 0x2995 JUMP JUMPDEST PUSH1 0x40 MLOAD DUP1 SWAP2 SUB SWAP1 RETURN JUMPDEST CALLVALUE DUP1 ISZERO PUSH2 0x238 JUMPI PUSH1 0x0 DUP1 REVERT JUMPDEST POP PUSH2 0x241 PUSH2 0x734 JUMP JUMPDEST PUSH1 0x40 MLOAD PUSH2 0x24E SWAP2 SWAP1 PUSH2 0x2A49 JUMP JUMPDEST PUSH1 0x40 MLOAD DUP1 SWAP2 SUB SWAP1 RETURN JUMPDEST CALLVALUE DUP1 ISZERO PUSH2 0x263 JUMPI PUSH1 0x0 DUP1 REVERT JUMPDEST POP PUSH2 0x26C PUSH2 0x7C2 JUMP JUMPDEST PUSH1 0x40 MLOAD PUSH2 0x279 SWAP2 SWAP1 PUSH2 0x2ACA JUMP JUMPDEST PUSH1 0x40 MLOAD DUP1 SWAP2 SUB SWAP1 RETURN JUMPDEST CALLVALUE DUP1 ISZERO PUSH2 0x28E JUMPI PUSH1 0x0 DUP1 REVERT JUMPDEST POP PUSH2 0x2A9 PUSH1 0x4 DUP1 CALLDATASIZE SUB DUP2 ADD SWAP1 PUSH2 0x2A4 SWAP2 SWAP1 PUSH2 0x2B11 JUMP JUMPDEST PUSH2 0x7E8 JUMP JUMPDEST STOP JUMPDEST CALLVALUE DUP1 ISZERO PUSH2 0x2B7 JUMPI PUSH1 0x0 DUP1 REVERT JUMPDEST POP PUSH2 0x2D2 PUSH1 0x4 DUP1 CALLDATASIZE SUB DUP2 ADD SWAP1 PUSH2 0x2CD SWAP2 SWAP1 PUSH2 0x2B7D JUMP JUMPDEST PUSH2 0x7F7 JUMP JUMPDEST PUSH1 0x40 MLOAD PUSH2 0x2DF SWAP2 SWAP1 PUSH2 0x2995 JUMP JUMPDEST PUSH1 0x40 MLOAD DUP1 SWAP2 SUB SWAP1 RETURN JUMPDEST CALLVALUE DUP1 ISZERO PUSH2 0x2F4 JUMPI PUSH1 0x0 DUP1 REVERT JUMPDEST POP PUSH2 0x2FD PUSH2 0x80F JUMP JUMPDEST PUSH1 0x40 MLOAD PUSH2 0x30A SWAP2 SWAP1 PUSH2 0x2BC3 JUMP JUMPDEST PUSH1 0x40 MLOAD DUP1 SWAP2 SUB SWAP1 RETURN JUMPDEST CALLVALUE DUP1 ISZERO PUSH2 0x31F JUMPI PUSH1 0x0 DUP1 REVERT JUMPDEST POP PUSH2 0x33A PUSH1 0x4 DUP1 CALLDATASIZE SUB DUP2 ADD SWAP1 PUSH2 0x335 SWAP2 SWAP1 PUSH2 0x2BDE JUMP JUMPDEST PUSH2 0x833 JUMP JUMPDEST STOP JUMPDEST CALLVALUE DUP1 ISZERO PUSH2 0x348 JUMPI PUSH1 0x0 DUP1 REVERT JUMPDEST POP PUSH2 0x351 PUSH2 0x9AF JUMP JUMPDEST PUSH1 0x40 MLOAD PUSH2 0x35E SWAP2 SWAP1 PUSH2 0x2995 JUMP JUMPDEST PUSH1 0x40 MLOAD DUP1 SWAP2 SUB SWAP1 RETURN JUMPDEST CALLVALUE DUP1 ISZERO PUSH2 0x373 JUMPI PUSH1 0x0 DUP1 REVERT JUMPDEST POP PUSH2 0x38E PUSH1 0x4 DUP1 CALLDATASIZE SUB DUP2 ADD SWAP1 PUSH2 0x389 SWAP2 SWAP1 PUSH2 0x2870 JUMP JUMPDEST PUSH2 0x9C2 JUMP JUMPDEST PUSH1 0x40 MLOAD PUSH2 0x39D SWAP4 SWAP3 SWAP2 SWAP1 PUSH2 0x2EB1 JUMP JUMPDEST PUSH1 0x40 MLOAD DUP1 SWAP2 SUB SWAP1 RETURN JUMPDEST CALLVALUE DUP1 ISZERO PUSH2 0x3B2 JUMPI PUSH1 0x0 DUP1 REVERT JUMPDEST POP PUSH2 0x3BB PUSH2 0xBA5 JUMP JUMPDEST PUSH1 0x40 MLOAD PUSH2 0x3C8 SWAP2 SWAP1 PUSH2 0x2995 JUMP JUMPDEST PUSH1 0x40 MLOAD DUP1 SWAP2 SUB SWAP1 RETURN JUMPDEST CALLVALUE DUP1 ISZERO PUSH2 0x3DD JUMPI PUSH1 0x0 DUP1 REVERT JUMPDEST POP PUSH2 0x3F8 PUSH1 0x4 DUP1 CALLDATASIZE SUB DUP2 ADD SWAP1 PUSH2 0x3F3 SWAP2 SWAP1 PUSH2 0x2870 JUMP JUMPDEST PUSH2 0xBAE JUMP JUMPDEST PUSH1 0x40 MLOAD PUSH2 0x405 SWAP2 SWAP1 PUSH2 0x2F74 JUMP JUMPDEST PUSH1 0x40 MLOAD DUP1 SWAP2 SUB SWAP1 RETURN JUMPDEST CALLVALUE DUP1 ISZERO PUSH2 0x41A JUMPI PUSH1 0x0 DUP1 REVERT JUMPDEST POP PUSH2 0x435 PUSH1 0x4 DUP1 CALLDATASIZE SUB DUP2 ADD SWAP1 PUSH2 0x430 SWAP2 SWAP1 PUSH2 0x2870 JUMP JUMPDEST PUSH2 0xD7D JUMP JUMPDEST STOP JUMPDEST CALLVALUE DUP1 ISZERO PUSH2 0x443 JUMPI PUSH1 0x0 DUP1 REVERT JUMPDEST POP PUSH2 0x44C PUSH2 0x1115 JUMP JUMPDEST PUSH1 0x40 MLOAD PUSH2 0x459 SWAP2 SWAP1 PUSH2 0x2F8F JUMP JUMPDEST PUSH1 0x40 MLOAD DUP1 SWAP2 SUB SWAP1 RETURN JUMPDEST CALLVALUE DUP1 ISZERO PUSH2 0x46E JUMPI PUSH1 0x0 DUP1 REVERT JUMPDEST POP PUSH2 0x489 PUSH1 0x4 DUP1 CALLDATASIZE SUB DUP2 ADD SWAP1 PUSH2 0x484 SWAP2 SWAP1 PUSH2 0x300F JUMP JUMPDEST PUSH2 0x113B JUMP JUMPDEST STOP JUMPDEST CALLVALUE DUP1 ISZERO PUSH2 0x497 JUMPI PUSH1 0x0 DUP1 REVERT JUMPDEST POP PUSH2 0x4A0 PUSH2 0x12FE JUMP JUMPDEST STOP JUMPDEST CALLVALUE DUP1 ISZERO PUSH2 0x4AE JUMPI PUSH1 0x0 DUP1 REVERT JUMPDEST POP PUSH2 0x4B7 PUSH2 0x13D2 JUMP JUMPDEST PUSH1 0x40 MLOAD PUSH2 0x4C4 SWAP2 SWAP1 PUSH2 0x2995 JUMP JUMPDEST PUSH1 0x40 MLOAD DUP1 SWAP2 SUB SWAP1 RETURN JUMPDEST CALLVALUE DUP1 ISZERO PUSH2 0x4D9 JUMPI PUSH1 0x0 DUP1 REVERT JUMPDEST POP PUSH2 0x4F4 PUSH1 0x4 DUP1 CALLDATASIZE SUB DUP2 ADD SWAP1 PUSH2 0x4EF SWAP2 SWAP1 PUSH2 0x34CC JUMP JUMPDEST PUSH2 0x13DB JUMP JUMPDEST PUSH1 0x40 MLOAD PUSH2 0x501 SWAP2 SWAP1 PUSH2 0x2995 JUMP JUMPDEST PUSH1 0x40 MLOAD DUP1 SWAP2 SUB SWAP1 RETURN JUMPDEST CALLVALUE DUP1 ISZERO PUSH2 0x516 JUMPI PUSH1 0x0 DUP1 REVERT JUMPDEST POP PUSH2 0x531 PUSH1 0x4 DUP1 CALLDATASIZE SUB DUP2 ADD SWAP1 PUSH2 0x52C SWAP2 SWAP1 PUSH2 0x2BDE JUMP JUMPDEST PUSH2 0x17A3 JUMP JUMPDEST STOP JUMPDEST CALLVALUE DUP1 ISZERO PUSH2 0x53F JUMPI PUSH1 0x0 DUP1 REVERT JUMPDEST POP PUSH2 0x548 PUSH2 0x191A JUMP JUMPDEST PUSH1 0x40 MLOAD PUSH2 0x555 SWAP2 SWAP1 PUSH2 0x35A3 JUMP JUMPDEST PUSH1 0x40 MLOAD DUP1 SWAP2 SUB SWAP1 RETURN JUMPDEST CALLVALUE DUP1 ISZERO PUSH2 0x56A JUMPI PUSH1 0x0 DUP1 REVERT JUMPDEST POP PUSH2 0x573 PUSH2 0x192D JUMP JUMPDEST PUSH1 0x40 MLOAD PUSH2 0x580 SWAP2 SWAP1 PUSH2 0x2995 JUMP JUMPDEST PUSH1 0x40 MLOAD DUP1 SWAP2 SUB SWAP1 RETURN JUMPDEST CALLVALUE DUP1 ISZERO PUSH2 0x595 JUMPI PUSH1 0x0 DUP1 REVERT JUMPDEST POP PUSH2 0x59E PUSH2 0x193F JUMP JUMPDEST STOP JUMPDEST CALLVALUE DUP1 ISZERO PUSH2 0x5AC JUMPI PUSH1 0x0 DUP1 REVERT JUMPDEST POP PUSH2 0x5B5 PUSH2 0x1A51 JUMP JUMPDEST PUSH1 0x40 MLOAD PUSH2 0x5C2 SWAP2 SWAP1 PUSH2 0x35DF JUMP JUMPDEST PUSH1 0x40 MLOAD DUP1 SWAP2 SUB SWAP1 RETURN JUMPDEST CALLVALUE DUP1 ISZERO PUSH2 0x5D7 JUMPI PUSH1 0x0 DUP1 REVERT JUMPDEST POP PUSH2 0x5E0 PUSH2 0x1A75 JUMP JUMPDEST PUSH1 0x40 MLOAD PUSH2 0x5ED SWAP2 SWAP1 PUSH2 0x2995 JUMP JUMPDEST PUSH1 0x40 MLOAD DUP1 SWAP2 SUB SWAP1 RETURN JUMPDEST CALLVALUE DUP1 ISZERO PUSH2 0x602 JUMPI PUSH1 0x0 DUP1 REVERT JUMPDEST POP PUSH2 0x61D PUSH1 0x4 DUP1 CALLDATASIZE SUB DUP2 ADD SWAP1 PUSH2 0x618 SWAP2 SWAP1 PUSH2 0x2870 JUMP JUMPDEST PUSH2 0x1A7B JUMP JUMPDEST STOP JUMPDEST CALLVALUE DUP1 ISZERO PUSH2 0x62B JUMPI PUSH1 0x0 DUP1 REVERT JUMPDEST POP PUSH2 0x634 PUSH2 0x1D1E JUMP JUMPDEST PUSH1 0x40 MLOAD PUSH2 0x641 SWAP2 SWAP1 PUSH2 0x2BC3 JUMP JUMPDEST PUSH1 0x40 MLOAD DUP1 SWAP2 SUB SWAP1 RETURN JUMPDEST CALLVALUE DUP1 ISZERO PUSH2 0x656 JUMPI PUSH1 0x0 DUP1 REVERT JUMPDEST POP PUSH2 0x671 PUSH1 0x4 DUP1 CALLDATASIZE SUB DUP2 ADD SWAP1 PUSH2 0x66C SWAP2 SWAP1 PUSH2 0x35FA JUMP JUMPDEST PUSH2 0x1D42 JUMP JUMPDEST PUSH1 0x40 MLOAD PUSH2 0x67E SWAP2 SWAP1 PUSH2 0x36B2 JUMP JUMPDEST PUSH1 0x40 MLOAD DUP1 SWAP2 SUB SWAP1 RETURN JUMPDEST PUSH2 0x6A1 PUSH1 0x4 DUP1 CALLDATASIZE SUB DUP2 ADD SWAP1 PUSH2 0x69C SWAP2 SWAP1 PUSH2 0x2870 JUMP JUMPDEST PUSH2 0x1E24 JUMP JUMPDEST STOP JUMPDEST PUSH1 0x5 PUSH1 0x20 MSTORE DUP1 PUSH1 0x0 MSTORE PUSH1 0x40 PUSH1 0x0 KECCAK256 PUSH1 0x0 SWAP2 POP SWAP1 POP DUP1 PUSH1 0x0 ADD SLOAD SWAP1 DUP1 PUSH1 0x1 ADD PUSH1 0x0 SWAP1 SLOAD SWAP1 PUSH2 0x100 EXP SWAP1 DIV PUSH20 0xFFFFFFFFFFFFFFFFFFFFFFFFFFFFFFFFFFFFFFFF AND SWAP1 DUP1 PUSH1 0x2 ADD SLOAD SWAP1 DUP1 PUSH1 0x6 ADD SLOAD SWAP1 DUP1 PUSH1 0x7 ADD SLOAD SWAP1 DUP1 PUSH1 0x8 ADD SLOAD SWAP1 DUP1 PUSH1 0x9 ADD SLOAD SWAP1 DUP1 PUSH1 0xA ADD PUSH1 0x0 SWAP1 SLOAD SWAP1 PUSH2 0x100 EXP SWAP1 DIV PUSH1 0xFF AND SWAP1 DUP1 PUSH1 0xA ADD PUSH1 0x1 SWAP1 SLOAD SWAP1 PUSH2 0x100 EXP SWAP1 DIV PUSH1 0xFF AND SWAP1 POP DUP10 JUMP JUMPDEST PUSH1 0x0 PUSH1 0x3C SWAP1 POP SWAP1 JUMP JUMPDEST PUSH1 0x0 DUP1 SLOAD PUSH2 0x741 SWAP1 PUSH2 0x36FC JUMP JUMPDEST DUP1 PUSH1 0x1F ADD PUSH1 0x20 DUP1 SWAP2 DIV MUL PUSH1 0x20 ADD PUSH1 0x40 MLOAD SWAP1 DUP2 ADD PUSH1 0x40 MSTORE DUP1 SWAP3 SWAP2 SWAP1 DUP2 DUP2 MSTORE PUSH1 0x20 ADD DUP3 DUP1 SLOAD PUSH2 0x76D SWAP1 PUSH2 0x36FC JUMP JUMPDEST DUP1 ISZERO PUSH2 0x7BA JUMPI DUP1 PUSH1 0x1F LT PUSH2 0x78F JUMPI PUSH2 0x100 DUP1 DUP4 SLOAD DIV MUL DUP4 MSTORE SWAP2 PUSH1 0x20 ADD SWAP2 PUSH2 0x7BA JUMP JUMPDEST DUP3 ADD SWAP2 SWAP1 PUSH1 0x0 MSTORE PUSH1 0x20 PUSH1 0x0 KECCAK256 SWAP1 JUMPDEST DUP2 SLOAD DUP2 MSTORE SWAP1 PUSH1 0x1 ADD SWAP1 PUSH1 0x20 ADD DUP1 DUP4 GT PUSH2 0x79D JUMPI DUP3 SWAP1 SUB PUSH1 0x1F AND DUP3 ADD SWAP2 JUMPDEST POP POP POP POP POP DUP2 JUMP JUMPDEST PUSH1 0x2 PUSH1 0x0 SWAP1 SLOAD SWAP1 PUSH2 0x100 EXP SWAP1 DIV PUSH20 0xFFFFFFFFFFFFFFFFFFFFFFFFFFFFFFFFFFFFFFFF AND DUP2 JUMP JUMPDEST PUSH2 0x7F3 CALLER DUP4 DUP4 PUSH2 0x2074 JUMP JUMPDEST POP POP JUMP JUMPDEST PUSH1 0x6 PUSH1 0x20 MSTORE DUP1 PUSH1 0x0 MSTORE PUSH1 0x40 PUSH1 0x0 KECCAK256 PUSH1 0x0 SWAP2 POP SWAP1 POP SLOAD DUP2 JUMP JUMPDEST PUSH32 0x8CAD95687BA82C2CE50E74F7B754645E5117C3A5BEC8151C0726D5857980A866 DUP2 JUMP JUMPDEST PUSH1 0x3 PUSH1 0x0 SWAP1 SLOAD SWAP1 PUSH2 0x100 EXP SWAP1 DIV PUSH20 0xFFFFFFFFFFFFFFFFFFFFFFFFFFFFFFFFFFFFFFFF AND PUSH20 0xFFFFFFFFFFFFFFFFFFFFFFFFFFFFFFFFFFFFFFFF AND CALLER PUSH20 0xFFFFFFFFFFFFFFFFFFFFFFFFFFFFFFFFFFFFFFFF AND EQ PUSH2 0x8C3 JUMPI PUSH1 0x40 MLOAD PUSH32 0x8C379A000000000000000000000000000000000000000000000000000000000 DUP2 MSTORE PUSH1 0x4 ADD PUSH2 0x8BA SWAP1 PUSH2 0x37C6 JUMP JUMPDEST PUSH1 0x40 MLOAD DUP1 SWAP2 SUB SWAP1 REVERT JUMPDEST PUSH1 0x1 DUP1 SLOAD SWAP1 PUSH2 0x100 EXP SWAP1 DIV PUSH20 0xFFFFFFFFFFFFFFFFFFFFFFFFFFFFFFFFFFFFFFFF AND PUSH20 0xFFFFFFFFFFFFFFFFFFFFFFFFFFFFFFFFFFFFFFFF AND PUSH4 0x6A41D09 PUSH1 0x1 DUP1 SLOAD SWAP1 PUSH2 0x100 EXP SWAP1 DIV PUSH20 0xFFFFFFFFFFFFFFFFFFFFFFFFFFFFFFFFFFFFFFFF AND PUSH1 0x0 DUP6 PUSH1 0x40 MLOAD PUSH1 0x20 ADD PUSH2 0x933 SWAP2 SWAP1 PUSH2 0x2F8F JUMP JUMPDEST PUSH1 0x40 MLOAD PUSH1 0x20 DUP2 DUP4 SUB SUB DUP2 MSTORE SWAP1 PUSH1 0x40 MSTORE DUP6 PUSH1 0x40 MLOAD DUP6 PUSH4 0xFFFFFFFF AND PUSH1 0xE0 SHL DUP2 MSTORE PUSH1 0x4 ADD PUSH2 0x962 SWAP5 SWAP4 SWAP3 SWAP2 SWAP1 PUSH2 0x386B JUMP JUMPDEST PUSH1 0x0 PUSH1 0x40 MLOAD DUP1 DUP4 SUB DUP2 PUSH1 0x0 DUP8 GAS CALL ISZERO DUP1 ISZERO PUSH2 0x981 JUMPI RETURNDATASIZE PUSH1 0x0 DUP1 RETURNDATACOPY RETURNDATASIZE PUSH1 0x0 REVERT JUMPDEST POP POP POP POP PUSH1 0x40 MLOAD RETURNDATASIZE PUSH1 0x0 DUP3 RETURNDATACOPY RETURNDATASIZE PUSH1 0x1F NOT PUSH1 0x1F DUP3 ADD AND DUP3 ADD DUP1 PUSH1 0x40 MSTORE POP DUP2 ADD SWAP1 PUSH2 0x9AA SWAP2 SWAP1 PUSH2 0x3927 JUMP JUMPDEST POP POP POP JUMP JUMPDEST PUSH1 0x0 PUSH11 0x422CA8B0A00A425000000 SWAP1 POP SWAP1 JUMP JUMPDEST PUSH1 0x60 DUP1 PUSH1 0x60 PUSH1 0x0 PUSH1 0x5 PUSH1 0x0 DUP7 DUP2 MSTORE PUSH1 0x20 ADD SWAP1 DUP2 MSTORE PUSH1 0x20 ADD PUSH1 0x0 KECCAK256 SWAP1 POP DUP1 PUSH1 0x3 ADD DUP2 PUSH1 0x4 ADD DUP3 PUSH1 0x5 ADD DUP3 DUP1 SLOAD DUP1 PUSH1 0x20 MUL PUSH1 0x20 ADD PUSH1 0x40 MLOAD SWAP1 DUP2 ADD PUSH1 0x40 MSTORE DUP1 SWAP3 SWAP2 SWAP1 DUP2 DUP2 MSTORE PUSH1 0x20 ADD DUP3 DUP1 SLOAD DUP1 ISZERO PUSH2 0xA6B JUMPI PUSH1 0x20 MUL DUP3 ADD SWAP2 SWAP1 PUSH1 0x0 MSTORE PUSH1 0x20 PUSH1 0x0 KECCAK256 SWAP1 JUMPDEST DUP2 PUSH1 0x0 SWAP1 SLOAD SWAP1 PUSH2 0x100 EXP SWAP1 DIV PUSH20 0xFFFFFFFFFFFFFFFFFFFFFFFFFFFFFFFFFFFFFFFF AND PUSH20 0xFFFFFFFFFFFFFFFFFFFFFFFFFFFFFFFFFFFFFFFF AND DUP2 MSTORE PUSH1 0x20 ADD SWAP1 PUSH1 0x1 ADD SWAP1 DUP1 DUP4 GT PUSH2 0xA21 JUMPI JUMPDEST POP POP POP POP POP SWAP3 POP DUP2 DUP1 SLOAD DUP1 PUSH1 0x20 MUL PUSH1 0x20 ADD PUSH1 0x40 MLOAD SWAP1 DUP2 ADD PUSH1 0x40 MSTORE DUP1 SWAP3 SWAP2 SWAP1 DUP2 DUP2 MSTORE PUSH1 0x20 ADD DUP3 DUP1 SLOAD DUP1 ISZERO PUSH2 0xABD JUMPI PUSH1 0x20 MUL DUP3 ADD SWAP2 SWAP1 PUSH1 0x0 MSTORE PUSH1 0x20 PUSH1 0x0 KECCAK256 SWAP1 JUMPDEST DUP2 SLOAD DUP2 MSTORE PUSH1 0x20 ADD SWAP1 PUSH1 0x1 ADD SWAP1 DUP1 DUP4 GT PUSH2 0xAA9 JUMPI JUMPDEST POP POP POP POP POP SWAP2 POP DUP1 DUP1 SLOAD DUP1 PUSH1 0x20 MUL PUSH1 0x20 ADD PUSH1 0x40 MLOAD SWAP1 DUP2 ADD PUSH1 0x40 MSTORE DUP1 SWAP3 SWAP2 SWAP1 DUP2 DUP2 MSTORE PUSH1 0x20 ADD PUSH1 0x0 SWAP1 JUMPDEST DUP3 DUP3 LT ISZERO PUSH2 0xB91 JUMPI DUP4 DUP3 SWAP1 PUSH1 0x0 MSTORE PUSH1 0x20 PUSH1 0x0 KECCAK256 ADD DUP1 SLOAD PUSH2 0xB04 SWAP1 PUSH2 0x36FC JUMP JUMPDEST DUP1 PUSH1 0x1F ADD PUSH1 0x20 DUP1 SWAP2 DIV MUL PUSH1 0x20 ADD PUSH1 0x40 MLOAD SWAP1 DUP2 ADD PUSH1 0x40 MSTORE DUP1 SWAP3 SWAP2 SWAP1 DUP2 DUP2 MSTORE PUSH1 0x20 ADD DUP3 DUP1 SLOAD PUSH2 0xB30 SWAP1 PUSH2 0x36FC JUMP JUMPDEST DUP1 ISZERO PUSH2 0xB7D JUMPI DUP1 PUSH1 0x1F LT PUSH2 0xB52 JUMPI PUSH2 0x100 DUP1 DUP4 SLOAD DIV MUL DUP4 MSTORE SWAP2 PUSH1 0x20 ADD SWAP2 PUSH2 0xB7D JUMP JUMPDEST DUP3 ADD SWAP2 SWAP1 PUSH1 0x0 MSTORE PUSH1 0x20 PUSH1 0x0 KECCAK256 SWAP1 JUMPDEST DUP2 SLOAD DUP2 MSTORE SWAP1 PUSH1 0x1 ADD SWAP1 PUSH1 0x20 ADD DUP1 DUP4 GT PUSH2 0xB60 JUMPI DUP3 SWAP1 SUB PUSH1 0x1F AND DUP3 ADD SWAP2 JUMPDEST POP POP POP POP POP DUP2 MSTORE PUSH1 0x20 ADD SWAP1 PUSH1 0x1 ADD SWAP1 PUSH2 0xAE5 JUMP JUMPDEST POP POP POP POP SWAP1 POP SWAP4 POP SWAP4 POP SWAP4 POP POP SWAP2 SWAP4 SWAP1 SWAP3 POP JUMP JUMPDEST PUSH1 0x0 PUSH1 0x1 SWAP1 POP SWAP1 JUMP JUMPDEST PUSH1 0x0 DUP2 PUSH1 0x4 SLOAD LT ISZERO DUP1 ISZERO PUSH2 0xBC2 JUMPI POP PUSH1 0x0 DUP3 GT JUMPDEST PUSH2 0xC01 JUMPI PUSH1 0x40 MLOAD PUSH32 0x8C379A000000000000000000000000000000000000000000000000000000000 DUP2 MSTORE PUSH1 0x4 ADD PUSH2 0xBF8 SWAP1 PUSH2 0x39E2 JUMP JUMPDEST PUSH1 0x40 MLOAD DUP1 SWAP2 SUB SWAP1 REVERT JUMPDEST PUSH1 0x0 PUSH1 0x5 PUSH1 0x0 DUP5 DUP2 MSTORE PUSH1 0x20 ADD SWAP1 DUP2 MSTORE PUSH1 0x20 ADD PUSH1 0x0 KECCAK256 SWAP1 POP DUP1 PUSH1 0xA ADD PUSH1 0x0 SWAP1 SLOAD SWAP1 PUSH2 0x100 EXP SWAP1 DIV PUSH1 0xFF AND ISZERO PUSH2 0xC39 JUMPI PUSH1 0x2 SWAP2 POP POP PUSH2 0xD78 JUMP JUMPDEST DUP1 PUSH1 0x6 ADD SLOAD NUMBER GT PUSH2 0xC4E JUMPI PUSH1 0x0 SWAP2 POP POP PUSH2 0xD78 JUMP JUMPDEST DUP1 PUSH1 0x7 ADD SLOAD NUMBER GT PUSH2 0xC63 JUMPI PUSH1 0x1 SWAP2 POP POP PUSH2 0xD78 JUMP JUMPDEST DUP1 PUSH1 0x9 ADD SLOAD DUP2 PUSH1 0x8 ADD SLOAD GT ISZERO DUP1 PUSH2 0xC7F JUMPI POP PUSH2 0x2710 DUP2 PUSH1 0x8 ADD SLOAD LT JUMPDEST ISZERO PUSH2 0xC8E JUMPI PUSH1 0x3 SWAP2 POP POP PUSH2 0xD78 JUMP JUMPDEST PUSH1 0x0 DUP2 PUSH1 0x2 ADD SLOAD EQ ISZERO PUSH2 0xCA5 JUMPI PUSH1 0x4 SWAP2 POP POP PUSH2 0xD78 JUMP JUMPDEST DUP1 PUSH1 0xA ADD PUSH1 0x1 SWAP1 SLOAD SWAP1 PUSH2 0x100 EXP SWAP1 DIV PUSH1 0xFF AND ISZERO PUSH2 0xCC6 JUMPI PUSH1 0x7 SWAP2 POP POP PUSH2 0xD78 JUMP JUMPDEST PUSH2 0xD62 DUP2 PUSH1 0x2 ADD SLOAD PUSH1 0x1 DUP1 SLOAD SWAP1 PUSH2 0x100 EXP SWAP1 DIV PUSH20 0xFFFFFFFFFFFFFFFFFFFFFFFFFFFFFFFFFFFFFFFF AND PUSH20 0xFFFFFFFFFFFFFFFFFFFFFFFFFFFFFFFFFFFFFFFF AND PUSH4 0xC1A287E2 PUSH1 0x40 MLOAD DUP2 PUSH4 0xFFFFFFFF AND PUSH1 0xE0 SHL DUP2 MSTORE PUSH1 0x4 ADD PUSH1 0x20 PUSH1 0x40 MLOAD DUP1 DUP4 SUB DUP2 DUP7 GAS STATICCALL ISZERO DUP1 ISZERO PUSH2 0xD39 JUMPI RETURNDATASIZE PUSH1 0x0 DUP1 RETURNDATACOPY RETURNDATASIZE PUSH1 0x0 REVERT JUMPDEST POP POP POP POP PUSH1 0x40 MLOAD RETURNDATASIZE PUSH1 0x1F NOT PUSH1 0x1F DUP3 ADD AND DUP3 ADD DUP1 PUSH1 0x40 MSTORE POP DUP2 ADD SWAP1 PUSH2 0xD5D SWAP2 SWAP1 PUSH2 0x3A17 JUMP JUMPDEST PUSH2 0x2342 JUMP JUMPDEST TIMESTAMP LT PUSH2 0xD72 JUMPI PUSH1 0x6 SWAP2 POP POP PUSH2 0xD78 JUMP JUMPDEST PUSH1 0x5 SWAP2 POP POP JUMPDEST SWAP2 SWAP1 POP JUMP JUMPDEST PUSH1 0x0 PUSH2 0xD88 DUP3 PUSH2 0xBAE JUMP JUMPDEST SWAP1 POP PUSH1 0x7 DUP1 DUP2 GT ISZERO PUSH2 0xD9D JUMPI PUSH2 0xD9C PUSH2 0x2EFD JUMP JUMPDEST JUMPDEST DUP2 PUSH1 0x7 DUP2 GT ISZERO PUSH2 0xDB0 JUMPI PUSH2 0xDAF PUSH2 0x2EFD JUMP JUMPDEST JUMPDEST EQ ISZERO PUSH2 0xDF1 JUMPI PUSH1 0x40 MLOAD PUSH32 0x8C379A000000000000000000000000000000000000000000000000000000000 DUP2 MSTORE PUSH1 0x4 ADD PUSH2 0xDE8 SWAP1 PUSH2 0x3AB6 JUMP JUMPDEST PUSH1 0x40 MLOAD DUP1 SWAP2 SUB SWAP1 REVERT JUMPDEST PUSH1 0x0 PUSH1 0x5 PUSH1 0x0 DUP5 DUP2 MSTORE PUSH1 0x20 ADD SWAP1 DUP2 MSTORE PUSH1 0x20 ADD PUSH1 0x0 KECCAK256 SWAP1 POP PUSH1 0x3 PUSH1 0x0 SWAP1 SLOAD SWAP1 PUSH2 0x100 EXP SWAP1 DIV PUSH20 0xFFFFFFFFFFFFFFFFFFFFFFFFFFFFFFFFFFFFFFFF AND PUSH20 0xFFFFFFFFFFFFFFFFFFFFFFFFFFFFFFFFFFFFFFFF AND CALLER PUSH20 0xFFFFFFFFFFFFFFFFFFFFFFFFFFFFFFFFFFFFFFFF AND EQ DUP1 PUSH2 0xF43 JUMPI POP PUSH2 0xE67 PUSH2 0x192D JUMP JUMPDEST PUSH1 0x2 PUSH1 0x0 SWAP1 SLOAD SWAP1 PUSH2 0x100 EXP SWAP1 DIV PUSH20 0xFFFFFFFFFFFFFFFFFFFFFFFFFFFFFFFFFFFFFFFF AND PUSH20 0xFFFFFFFFFFFFFFFFFFFFFFFFFFFFFFFFFFFFFFFF AND PUSH4 0x782D6FE1 DUP4 PUSH1 0x1 ADD PUSH1 0x0 SWAP1 SLOAD SWAP1 PUSH2 0x100 EXP SWAP1 DIV PUSH20 0xFFFFFFFFFFFFFFFFFFFFFFFFFFFFFFFFFFFFFFFF AND PUSH2 0xED5 NUMBER PUSH1 0x1 PUSH2 0x23A0 JUMP JUMPDEST PUSH1 0x40 MLOAD DUP4 PUSH4 0xFFFFFFFF AND PUSH1 0xE0 SHL DUP2 MSTORE PUSH1 0x4 ADD PUSH2 0xEF2 SWAP3 SWAP2 SWAP1 PUSH2 0x3AD6 JUMP JUMPDEST PUSH1 0x20 PUSH1 0x40 MLOAD DUP1 DUP4 SUB DUP2 DUP7 GAS STATICCALL ISZERO DUP1 ISZERO PUSH2 0xF0F JUMPI RETURNDATASIZE PUSH1 0x0 DUP1 RETURNDATACOPY RETURNDATASIZE PUSH1 0x0 REVERT JUMPDEST POP POP POP POP PUSH1 0x40 MLOAD RETURNDATASIZE PUSH1 0x1F NOT PUSH1 0x1F DUP3 ADD AND DUP3 ADD DUP1 PUSH1 0x40 MSTORE POP DUP2 ADD SWAP1 PUSH2 0xF33 SWAP2 SWAP1 PUSH2 0x3B2B JUMP JUMPDEST PUSH12 0xFFFFFFFFFFFFFFFFFFFFFFFF AND LT JUMPDEST PUSH2 0xF82 JUMPI PUSH1 0x40 MLOAD PUSH32 0x8C379A000000000000000000000000000000000000000000000000000000000 DUP2 MSTORE PUSH1 0x4 ADD PUSH2 0xF79 SWAP1 PUSH2 0x3BCA JUMP JUMPDEST PUSH1 0x40 MLOAD DUP1 SWAP2 SUB SWAP1 REVERT JUMPDEST PUSH1 0x1 DUP2 PUSH1 0xA ADD PUSH1 0x0 PUSH2 0x100 EXP DUP2 SLOAD DUP2 PUSH1 0xFF MUL NOT AND SWAP1 DUP4 ISZERO ISZERO MUL OR SWAP1 SSTORE POP PUSH1 0x0 JUMPDEST DUP2 PUSH1 0x3 ADD DUP1 SLOAD SWAP1 POP DUP2 LT ISZERO PUSH2 0x10D8 JUMPI PUSH1 0x1 DUP1 SLOAD SWAP1 PUSH2 0x100 EXP SWAP1 DIV PUSH20 0xFFFFFFFFFFFFFFFFFFFFFFFFFFFFFFFFFFFFFFFF AND PUSH20 0xFFFFFFFFFFFFFFFFFFFFFFFFFFFFFFFFFFFFFFFF AND PUSH4 0x5B26B108 DUP4 PUSH1 0x3 ADD DUP4 DUP2 SLOAD DUP2 LT PUSH2 0x1003 JUMPI PUSH2 0x1002 PUSH2 0x3BEA JUMP JUMPDEST JUMPDEST SWAP1 PUSH1 0x0 MSTORE PUSH1 0x20 PUSH1 0x0 KECCAK256 ADD PUSH1 0x0 SWAP1 SLOAD SWAP1 PUSH2 0x100 EXP SWAP1 DIV PUSH20 0xFFFFFFFFFFFFFFFFFFFFFFFFFFFFFFFFFFFFFFFF AND DUP5 PUSH1 0x4 ADD DUP5 DUP2 SLOAD DUP2 LT PUSH2 0x1044 JUMPI PUSH2 0x1043 PUSH2 0x3BEA JUMP JUMPDEST JUMPDEST SWAP1 PUSH1 0x0 MSTORE PUSH1 0x20 PUSH1 0x0 KECCAK256 ADD SLOAD DUP6 PUSH1 0x5 ADD DUP6 DUP2 SLOAD DUP2 LT PUSH2 0x1065 JUMPI PUSH2 0x1064 PUSH2 0x3BEA JUMP JUMPDEST JUMPDEST SWAP1 PUSH1 0x0 MSTORE PUSH1 0x20 PUSH1 0x0 KECCAK256 ADD DUP7 PUSH1 0x2 ADD SLOAD PUSH1 0x40 MLOAD DUP6 PUSH4 0xFFFFFFFF AND PUSH1 0xE0 SHL DUP2 MSTORE PUSH1 0x4 ADD PUSH2 0x1093 SWAP5 SWAP4 SWAP3 SWAP2 SWAP1 PUSH2 0x3CAE JUMP JUMPDEST PUSH1 0x0 PUSH1 0x40 MLOAD DUP1 DUP4 SUB DUP2 PUSH1 0x0 DUP8 DUP1 EXTCODESIZE ISZERO DUP1 ISZERO PUSH2 0x10AD JUMPI PUSH1 0x0 DUP1 REVERT JUMPDEST POP GAS CALL ISZERO DUP1 ISZERO PUSH2 0x10C1 JUMPI RETURNDATASIZE PUSH1 0x0 DUP1 RETURNDATACOPY RETURNDATASIZE PUSH1 0x0 REVERT JUMPDEST POP POP POP POP DUP1 DUP1 PUSH2 0x10D0 SWAP1 PUSH2 0x3D29 JUMP JUMPDEST SWAP2 POP POP PUSH2 0xFA2 JUMP JUMPDEST POP PUSH32 0x789CF55BE980739DAD1D0699B93B58E806B51C9D96619BFA8FE0A28ABAA7B30C DUP4 PUSH1 0x40 MLOAD PUSH2 0x1108 SWAP2 SWAP1 PUSH2 0x2995 JUMP JUMPDEST PUSH1 0x40 MLOAD DUP1 SWAP2 SUB SWAP1 LOG1 POP POP POP JUMP JUMPDEST PUSH1 0x3 PUSH1 0x0 SWAP1 SLOAD SWAP1 PUSH2 0x100 EXP SWAP1 DIV PUSH20 0xFFFFFFFFFFFFFFFFFFFFFFFFFFFFFFFFFFFFFFFF AND DUP2 JUMP JUMPDEST PUSH1 0x0 PUSH32 0x8CAD95687BA82C2CE50E74F7B754645E5117C3A5BEC8151C0726D5857980A866 PUSH1 0x0 PUSH1 0x40 MLOAD PUSH2 0x116D SWAP2 SWAP1 PUSH2 0x3E11 JUMP JUMPDEST PUSH1 0x40 MLOAD DUP1 SWAP2 SUB SWAP1 KECCAK256 PUSH2 0x117D PUSH2 0x23F9 JUMP JUMPDEST ADDRESS PUSH1 0x40 MLOAD PUSH1 0x20 ADD PUSH2 0x1191 SWAP5 SWAP4 SWAP3 SWAP2 SWAP1 PUSH2 0x3E28 JUMP JUMPDEST PUSH1 0x40 MLOAD PUSH1 0x20 DUP2 DUP4 SUB SUB DUP2 MSTORE SWAP1 PUSH1 0x40 MSTORE DUP1 MLOAD SWAP1 PUSH1 0x20 ADD KECCAK256 SWAP1 POP PUSH1 0x0 PUSH32 0x8E25870C07E0B0B3884C78DA52790939A455C275406C44AE8B434B692FB916EE DUP8 DUP8 PUSH1 0x40 MLOAD PUSH1 0x20 ADD PUSH2 0x11E0 SWAP4 SWAP3 SWAP2 SWAP1 PUSH2 0x3E6D JUMP JUMPDEST PUSH1 0x40 MLOAD PUSH1 0x20 DUP2 DUP4 SUB SUB DUP2 MSTORE SWAP1 PUSH1 0x40 MSTORE DUP1 MLOAD SWAP1 PUSH1 0x20 ADD KECCAK256 SWAP1 POP PUSH1 0x0 DUP3 DUP3 PUSH1 0x40 MLOAD PUSH1 0x20 ADD PUSH2 0x120D SWAP3 SWAP2 SWAP1 PUSH2 0x3F1C JUMP JUMPDEST PUSH1 0x40 MLOAD PUSH1 0x20 DUP2 DUP4 SUB SUB DUP2 MSTORE SWAP1 PUSH1 0x40 MSTORE DUP1 MLOAD SWAP1 PUSH1 0x20 ADD KECCAK256 SWAP1 POP PUSH1 0x0 PUSH1 0x1 DUP3 DUP9 DUP9 DUP9 PUSH1 0x40 MLOAD PUSH1 0x0 DUP2 MSTORE PUSH1 0x20 ADD PUSH1 0x40 MSTORE PUSH1 0x40 MLOAD PUSH2 0x124A SWAP5 SWAP4 SWAP3 SWAP2 SWAP1 PUSH2 0x3F62 JUMP JUMPDEST PUSH1 0x20 PUSH1 0x40 MLOAD PUSH1 0x20 DUP2 SUB SWAP1 DUP1 DUP5 SUB SWAP1 DUP6 GAS STATICCALL ISZERO DUP1 ISZERO PUSH2 0x126C JUMPI RETURNDATASIZE PUSH1 0x0 DUP1 RETURNDATACOPY RETURNDATASIZE PUSH1 0x0 REVERT JUMPDEST POP POP POP PUSH1 0x20 PUSH1 0x40 MLOAD SUB MLOAD SWAP1 POP PUSH1 0x0 PUSH20 0xFFFFFFFFFFFFFFFFFFFFFFFFFFFFFFFFFFFFFFFF AND DUP2 PUSH20 0xFFFFFFFFFFFFFFFFFFFFFFFFFFFFFFFFFFFFFFFF AND EQ ISZERO PUSH2 0x12E8 JUMPI PUSH1 0x40 MLOAD PUSH32 0x8C379A000000000000000000000000000000000000000000000000000000000 DUP2 MSTORE PUSH1 0x4 ADD PUSH2 0x12DF SWAP1 PUSH2 0x4019 JUMP JUMPDEST PUSH1 0x40 MLOAD DUP1 SWAP2 SUB SWAP1 REVERT JUMPDEST PUSH2 0x12F3 DUP2 DUP11 DUP11 PUSH2 0x2074 JUMP JUMPDEST POP POP POP POP POP POP POP POP POP JUMP JUMPDEST PUSH1 0x3 PUSH1 0x0 SWAP1 SLOAD SWAP1 PUSH2 0x100 EXP SWAP1 DIV PUSH20 0xFFFFFFFFFFFFFFFFFFFFFFFFFFFFFFFFFFFFFFFF AND PUSH20 0xFFFFFFFFFFFFFFFFFFFFFFFFFFFFFFFFFFFFFFFF AND CALLER PUSH20 0xFFFFFFFFFFFFFFFFFFFFFFFFFFFFFFFFFFFFFFFF AND EQ PUSH2 0x138E JUMPI PUSH1 0x40 MLOAD PUSH32 0x8C379A000000000000000000000000000000000000000000000000000000000 DUP2 MSTORE PUSH1 0x4 ADD PUSH2 0x1385 SWAP1 PUSH2 0x40AB JUMP JUMPDEST PUSH1 0x40 MLOAD DUP1 SWAP2 SUB SWAP1 REVERT JUMPDEST PUSH1 0x0 PUSH1 0x3 PUSH1 0x0 PUSH2 0x100 EXP DUP2 SLOAD DUP2 PUSH20 0xFFFFFFFFFFFFFFFFFFFFFFFFFFFFFFFFFFFFFFFF MUL NOT AND SWAP1 DUP4 PUSH20 0xFFFFFFFFFFFFFFFFFFFFFFFFFFFFFFFFFFFFFFFF AND MUL OR SWAP1 SSTORE POP JUMP JUMPDEST PUSH1 0x0 PUSH1 0xA SWAP1 POP SWAP1 JUMP JUMPDEST PUSH1 0x0 DUP4 MLOAD DUP6 MLOAD EQ DUP1 ISZERO PUSH2 0x13EF JUMPI POP DUP3 MLOAD DUP6 MLOAD EQ JUMPDEST PUSH2 0x142E JUMPI PUSH1 0x40 MLOAD PUSH32 0x8C379A000000000000000000000000000000000000000000000000000000000 DUP2 MSTORE PUSH1 0x4 ADD PUSH2 0x1425 SWAP1 PUSH2 0x4163 JUMP JUMPDEST PUSH1 0x40 MLOAD DUP1 SWAP2 SUB SWAP1 REVERT JUMPDEST PUSH1 0x0 DUP6 MLOAD EQ ISZERO PUSH2 0x1473 JUMPI PUSH1 0x40 MLOAD PUSH32 0x8C379A000000000000000000000000000000000000000000000000000000000 DUP2 MSTORE PUSH1 0x4 ADD PUSH2 0x146A SWAP1 PUSH2 0x41F5 JUMP JUMPDEST PUSH1 0x40 MLOAD DUP1 SWAP2 SUB SWAP1 REVERT JUMPDEST PUSH2 0x147B PUSH2 0x13D2 JUMP JUMPDEST DUP6 MLOAD GT ISZERO PUSH2 0x14BE JUMPI PUSH1 0x40 MLOAD PUSH32 0x8C379A000000000000000000000000000000000000000000000000000000000 DUP2 MSTORE PUSH1 0x4 ADD PUSH2 0x14B5 SWAP1 PUSH2 0x4287 JUMP JUMPDEST PUSH1 0x40 MLOAD DUP1 SWAP2 SUB SWAP1 REVERT JUMPDEST PUSH1 0x0 PUSH1 0x6 PUSH1 0x0 CALLER PUSH20 0xFFFFFFFFFFFFFFFFFFFFFFFFFFFFFFFFFFFFFFFF AND PUSH20 0xFFFFFFFFFFFFFFFFFFFFFFFFFFFFFFFFFFFFFFFF AND DUP2 MSTORE PUSH1 0x20 ADD SWAP1 DUP2 MSTORE PUSH1 0x20 ADD PUSH1 0x0 KECCAK256 SLOAD SWAP1 POP PUSH1 0x0 DUP2 EQ PUSH2 0x15E9 JUMPI PUSH1 0x0 PUSH2 0x1515 DUP3 PUSH2 0xBAE JUMP JUMPDEST SWAP1 POP PUSH1 0x1 PUSH1 0x7 DUP2 GT ISZERO PUSH2 0x152B JUMPI PUSH2 0x152A PUSH2 0x2EFD JUMP JUMPDEST JUMPDEST DUP2 PUSH1 0x7 DUP2 GT ISZERO PUSH2 0x153E JUMPI PUSH2 0x153D PUSH2 0x2EFD JUMP JUMPDEST JUMPDEST EQ ISZERO PUSH2 0x157F JUMPI PUSH1 0x40 MLOAD PUSH32 0x8C379A000000000000000000000000000000000000000000000000000000000 DUP2 MSTORE PUSH1 0x4 ADD PUSH2 0x1576 SWAP1 PUSH2 0x433F JUMP JUMPDEST PUSH1 0x40 MLOAD DUP1 SWAP2 SUB SWAP1 REVERT JUMPDEST PUSH1 0x0 PUSH1 0x7 DUP2 GT ISZERO PUSH2 0x1593 JUMPI PUSH2 0x1592 PUSH2 0x2EFD JUMP JUMPDEST JUMPDEST DUP2 PUSH1 0x7 DUP2 GT ISZERO PUSH2 0x15A6 JUMPI PUSH2 0x15A5 PUSH2 0x2EFD JUMP JUMPDEST JUMPDEST EQ ISZERO PUSH2 0x15E7 JUMPI PUSH1 0x40 MLOAD PUSH32 0x8C379A000000000000000000000000000000000000000000000000000000000 DUP2 MSTORE PUSH1 0x4 ADD PUSH2 0x15DE SWAP1 PUSH2 0x43F7 JUMP JUMPDEST PUSH1 0x40 MLOAD DUP1 SWAP2 SUB SWAP1 REVERT JUMPDEST POP JUMPDEST PUSH1 0x0 PUSH2 0x15FC NUMBER PUSH2 0x15F7 PUSH2 0xBA5 JUMP JUMPDEST PUSH2 0x2342 JUMP JUMPDEST SWAP1 POP PUSH1 0x0 PUSH2 0x1611 DUP3 PUSH2 0x160C PUSH2 0x72B JUMP JUMPDEST PUSH2 0x2342 JUMP JUMPDEST SWAP1 POP PUSH1 0x4 PUSH1 0x0 DUP2 SLOAD DUP1 SWAP3 SWAP2 SWAP1 PUSH2 0x1626 SWAP1 PUSH2 0x3D29 JUMP JUMPDEST SWAP2 SWAP1 POP SSTORE POP PUSH1 0x0 PUSH1 0x5 PUSH1 0x0 PUSH1 0x4 SLOAD DUP2 MSTORE PUSH1 0x20 ADD SWAP1 DUP2 MSTORE PUSH1 0x20 ADD PUSH1 0x0 KECCAK256 SWAP1 POP PUSH1 0x4 SLOAD DUP2 PUSH1 0x0 ADD DUP2 SWAP1 SSTORE POP CALLER DUP2 PUSH1 0x1 ADD PUSH1 0x0 PUSH2 0x100 EXP DUP2 SLOAD DUP2 PUSH20 0xFFFFFFFFFFFFFFFFFFFFFFFFFFFFFFFFFFFFFFFF MUL NOT AND SWAP1 DUP4 PUSH20 0xFFFFFFFFFFFFFFFFFFFFFFFFFFFFFFFFFFFFFFFF AND MUL OR SWAP1 SSTORE POP PUSH1 0x0 DUP2 PUSH1 0x2 ADD DUP2 SWAP1 SSTORE POP DUP9 DUP2 PUSH1 0x3 ADD SWAP1 DUP1 MLOAD SWAP1 PUSH1 0x20 ADD SWAP1 PUSH2 0x16B4 SWAP3 SWAP2 SWAP1 PUSH2 0x25B5 JUMP JUMPDEST POP DUP8 DUP2 PUSH1 0x4 ADD SWAP1 DUP1 MLOAD SWAP1 PUSH1 0x20 ADD SWAP1 PUSH2 0x16CD SWAP3 SWAP2 SWAP1 PUSH2 0x263F JUMP JUMPDEST POP DUP7 DUP2 PUSH1 0x5 ADD SWAP1 DUP1 MLOAD SWAP1 PUSH1 0x20 ADD SWAP1 PUSH2 0x16E6 SWAP3 SWAP2 SWAP1 PUSH2 0x268C JUMP JUMPDEST POP DUP3 DUP2 PUSH1 0x6 ADD DUP2 SWAP1 SSTORE POP DUP2 DUP2 PUSH1 0x7 ADD DUP2 SWAP1 SSTORE POP PUSH1 0x0 DUP2 PUSH1 0x8 ADD DUP2 SWAP1 SSTORE POP PUSH1 0x0 DUP2 PUSH1 0x9 ADD DUP2 SWAP1 SSTORE POP PUSH1 0x0 DUP2 PUSH1 0xA ADD PUSH1 0x0 PUSH2 0x100 EXP DUP2 SLOAD DUP2 PUSH1 0xFF MUL NOT AND SWAP1 DUP4 ISZERO ISZERO MUL OR SWAP1 SSTORE POP PUSH1 0x0 DUP2 PUSH1 0xA ADD PUSH1 0x1 PUSH2 0x100 EXP DUP2 SLOAD DUP2 PUSH1 0xFF MUL NOT AND SWAP1 DUP4 ISZERO ISZERO MUL OR SWAP1 SSTORE POP PUSH32 0x95F03E437E6D5037418F12BEF80FC7E0A5F27754C078A1D5D3F62D39BAC44E50 DUP2 PUSH1 0x0 ADD SLOAD CALLER DUP12 DUP12 DUP12 DUP9 DUP9 DUP14 PUSH1 0x40 MLOAD PUSH2 0x1788 SWAP9 SWAP8 SWAP7 SWAP6 SWAP5 SWAP4 SWAP3 SWAP2 SWAP1 PUSH2 0x4417 JUMP JUMPDEST PUSH1 0x40 MLOAD DUP1 SWAP2 SUB SWAP1 LOG1 DUP1 PUSH1 0x0 ADD SLOAD SWAP5 POP POP POP POP POP SWAP5 SWAP4 POP POP POP POP JUMP JUMPDEST PUSH1 0x3 PUSH1 0x0 SWAP1 SLOAD SWAP1 PUSH2 0x100 EXP SWAP1 DIV PUSH20 0xFFFFFFFFFFFFFFFFFFFFFFFFFFFFFFFFFFFFFFFF AND PUSH20 0xFFFFFFFFFFFFFFFFFFFFFFFFFFFFFFFFFFFFFFFF AND CALLER PUSH20 0xFFFFFFFFFFFFFFFFFFFFFFFFFFFFFFFFFFFFFFFF AND EQ PUSH2 0x1833 JUMPI PUSH1 0x40 MLOAD PUSH32 0x8C379A000000000000000000000000000000000000000000000000000000000 DUP2 MSTORE PUSH1 0x4 ADD PUSH2 0x182A SWAP1 PUSH2 0x4549 JUMP JUMPDEST PUSH1 0x40 MLOAD DUP1 SWAP2 SUB SWAP1 REVERT JUMPDEST PUSH1 0x1 DUP1 SLOAD SWAP1 PUSH2 0x100 EXP SWAP1 DIV PUSH20 0xFFFFFFFFFFFFFFFFFFFFFFFFFFFFFFFFFFFFFFFF AND PUSH20 0xFFFFFFFFFFFFFFFFFFFFFFFFFFFFFFFFFFFFFFFF AND PUSH4 0x8E361CDF PUSH1 0x1 DUP1 SLOAD SWAP1 PUSH2 0x100 EXP SWAP1 DIV PUSH20 0xFFFFFFFFFFFFFFFFFFFFFFFFFFFFFFFFFFFFFFFF AND PUSH1 0x0 DUP6 PUSH1 0x40 MLOAD PUSH1 0x20 ADD PUSH2 0x18A3 SWAP2 SWAP1 PUSH2 0x2F8F JUMP JUMPDEST PUSH1 0x40 MLOAD PUSH1 0x20 DUP2 DUP4 SUB SUB DUP2 MSTORE SWAP1 PUSH1 0x40 MSTORE DUP6 PUSH1 0x40 MLOAD DUP6 PUSH4 0xFFFFFFFF AND PUSH1 0xE0 SHL DUP2 MSTORE PUSH1 0x4 ADD PUSH2 0x18D2 SWAP5 SWAP4 SWAP3 SWAP2 SWAP1 PUSH2 0x386B JUMP JUMPDEST PUSH1 0x20 PUSH1 0x40 MLOAD DUP1 DUP4 SUB DUP2 PUSH1 0x0 DUP8 GAS CALL ISZERO DUP1 ISZERO PUSH2 0x18F1 JUMPI RETURNDATASIZE PUSH1 0x0 DUP1 RETURNDATACOPY RETURNDATASIZE PUSH1 0x0 REVERT JUMPDEST POP POP POP POP PUSH1 0x40 MLOAD RETURNDATASIZE PUSH1 0x1F NOT PUSH1 0x1F DUP3 ADD AND DUP3 ADD DUP1 PUSH1 0x40 MSTORE POP DUP2 ADD SWAP1 PUSH2 0x1915 SWAP2 SWAP1 PUSH2 0x457E JUMP JUMPDEST POP POP POP JUMP JUMPDEST PUSH1 0x1 PUSH1 0x0 SWAP1 SLOAD SWAP1 PUSH2 0x100 EXP SWAP1 DIV PUSH1 0xFF AND DUP2 JUMP JUMPDEST PUSH1 0x0 PUSH10 0x152D02C7E14AF6800000 SWAP1 POP SWAP1 JUMP JUMPDEST PUSH1 0x3 PUSH1 0x0 SWAP1 SLOAD SWAP1 PUSH2 0x100 EXP SWAP1 DIV PUSH20 0xFFFFFFFFFFFFFFFFFFFFFFFFFFFFFFFFFFFFFFFF AND PUSH20 0xFFFFFFFFFFFFFFFFFFFFFFFFFFFFFFFFFFFFFFFF AND CALLER PUSH20 0xFFFFFFFFFFFFFFFFFFFFFFFFFFFFFFFFFFFFFFFF AND EQ PUSH2 0x19CF JUMPI PUSH1 0x40 MLOAD PUSH32 0x8C379A000000000000000000000000000000000000000000000000000000000 DUP2 MSTORE PUSH1 0x4 ADD PUSH2 0x19C6 SWAP1 PUSH2 0x461D JUMP JUMPDEST PUSH1 0x40 MLOAD DUP1 SWAP2 SUB SWAP1 REVERT JUMPDEST PUSH1 0x1 DUP1 SLOAD SWAP1 PUSH2 0x100 EXP SWAP1 DIV PUSH20 0xFFFFFFFFFFFFFFFFFFFFFFFFFFFFFFFFFFFFFFFF AND PUSH20 0xFFFFFFFFFFFFFFFFFFFFFFFFFFFFFFFFFFFFFFFF AND PUSH4 0xE18B681 PUSH1 0x40 MLOAD DUP2 PUSH4 0xFFFFFFFF AND PUSH1 0xE0 SHL DUP2 MSTORE PUSH1 0x4 ADD PUSH1 0x0 PUSH1 0x40 MLOAD DUP1 DUP4 SUB DUP2 PUSH1 0x0 DUP8 DUP1 EXTCODESIZE ISZERO DUP1 ISZERO PUSH2 0x1A37 JUMPI PUSH1 0x0 DUP1 REVERT JUMPDEST POP GAS CALL ISZERO DUP1 ISZERO PUSH2 0x1A4B JUMPI RETURNDATASIZE PUSH1 0x0 DUP1 RETURNDATACOPY RETURNDATASIZE PUSH1 0x0 REVERT JUMPDEST POP POP POP POP JUMP JUMPDEST PUSH1 0x1 DUP1 SLOAD SWAP1 PUSH2 0x100 EXP SWAP1 DIV PUSH20 0xFFFFFFFFFFFFFFFFFFFFFFFFFFFFFFFFFFFFFFFF AND DUP2 JUMP JUMPDEST PUSH1 0x4 SLOAD DUP2 JUMP JUMPDEST PUSH1 0x4 PUSH1 0x7 DUP2 GT ISZERO PUSH2 0x1A8F JUMPI PUSH2 0x1A8E PUSH2 0x2EFD JUMP JUMPDEST JUMPDEST PUSH2 0x1A98 DUP3 PUSH2 0xBAE JUMP JUMPDEST PUSH1 0x7 DUP2 GT ISZERO PUSH2 0x1AAA JUMPI PUSH2 0x1AA9 PUSH2 0x2EFD JUMP JUMPDEST JUMPDEST EQ PUSH2 0x1AEA JUMPI PUSH1 0x40 MLOAD PUSH32 0x8C379A000000000000000000000000000000000000000000000000000000000 DUP2 MSTORE PUSH1 0x4 ADD PUSH2 0x1AE1 SWAP1 PUSH2 0x46D5 JUMP JUMPDEST PUSH1 0x40 MLOAD DUP1 SWAP2 SUB SWAP1 REVERT JUMPDEST PUSH1 0x0 PUSH1 0x5 PUSH1 0x0 DUP4 DUP2 MSTORE PUSH1 0x20 ADD SWAP1 DUP2 MSTORE PUSH1 0x20 ADD PUSH1 0x0 KECCAK256 SWAP1 POP PUSH1 0x0 PUSH2 0x1B9B TIMESTAMP PUSH1 0x1 DUP1 SLOAD SWAP1 PUSH2 0x100 EXP SWAP1 DIV PUSH20 0xFFFFFFFFFFFFFFFFFFFFFFFFFFFFFFFFFFFFFFFF AND PUSH20 0xFFFFFFFFFFFFFFFFFFFFFFFFFFFFFFFFFFFFFFFF AND PUSH4 0x6A42B8F8 PUSH1 0x40 MLOAD DUP2 PUSH4 0xFFFFFFFF AND PUSH1 0xE0 SHL DUP2 MSTORE PUSH1 0x4 ADD PUSH1 0x20 PUSH1 0x40 MLOAD DUP1 DUP4 SUB DUP2 DUP7 GAS STATICCALL ISZERO DUP1 ISZERO PUSH2 0x1B72 JUMPI RETURNDATASIZE PUSH1 0x0 DUP1 RETURNDATACOPY RETURNDATASIZE PUSH1 0x0 REVERT JUMPDEST POP POP POP POP PUSH1 0x40 MLOAD RETURNDATASIZE PUSH1 0x1F NOT PUSH1 0x1F DUP3 ADD AND DUP3 ADD DUP1 PUSH1 0x40 MSTORE POP DUP2 ADD SWAP1 PUSH2 0x1B96 SWAP2 SWAP1 PUSH2 0x3A17 JUMP JUMPDEST PUSH2 0x2342 JUMP JUMPDEST SWAP1 POP PUSH1 0x0 JUMPDEST DUP3 PUSH1 0x3 ADD DUP1 SLOAD SWAP1 POP DUP2 LT ISZERO PUSH2 0x1CD6 JUMPI PUSH2 0x1CC3 DUP4 PUSH1 0x3 ADD DUP3 DUP2 SLOAD DUP2 LT PUSH2 0x1BC8 JUMPI PUSH2 0x1BC7 PUSH2 0x3BEA JUMP JUMPDEST JUMPDEST SWAP1 PUSH1 0x0 MSTORE PUSH1 0x20 PUSH1 0x0 KECCAK256 ADD PUSH1 0x0 SWAP1 SLOAD SWAP1 PUSH2 0x100 EXP SWAP1 DIV PUSH20 0xFFFFFFFFFFFFFFFFFFFFFFFFFFFFFFFFFFFFFFFF AND DUP5 PUSH1 0x4 ADD DUP4 DUP2 SLOAD DUP2 LT PUSH2 0x1C09 JUMPI PUSH2 0x1C08 PUSH2 0x3BEA JUMP JUMPDEST JUMPDEST SWAP1 PUSH1 0x0 MSTORE PUSH1 0x20 PUSH1 0x0 KECCAK256 ADD SLOAD DUP6 PUSH1 0x5 ADD DUP5 DUP2 SLOAD DUP2 LT PUSH2 0x1C2A JUMPI PUSH2 0x1C29 PUSH2 0x3BEA JUMP JUMPDEST JUMPDEST SWAP1 PUSH1 0x0 MSTORE PUSH1 0x20 PUSH1 0x0 KECCAK256 ADD DUP1 SLOAD PUSH2 0x1C3F SWAP1 PUSH2 0x36FC JUMP JUMPDEST DUP1 PUSH1 0x1F ADD PUSH1 0x20 DUP1 SWAP2 DIV MUL PUSH1 0x20 ADD PUSH1 0x40 MLOAD SWAP1 DUP2 ADD PUSH1 0x40 MSTORE DUP1 SWAP3 SWAP2 SWAP1 DUP2 DUP2 MSTORE PUSH1 0x20 ADD DUP3 DUP1 SLOAD PUSH2 0x1C6B SWAP1 PUSH2 0x36FC JUMP JUMPDEST DUP1 ISZERO PUSH2 0x1CB8 JUMPI DUP1 PUSH1 0x1F LT PUSH2 0x1C8D JUMPI PUSH2 0x100 DUP1 DUP4 SLOAD DIV MUL DUP4 MSTORE SWAP2 PUSH1 0x20 ADD SWAP2 PUSH2 0x1CB8 JUMP JUMPDEST DUP3 ADD SWAP2 SWAP1 PUSH1 0x0 MSTORE PUSH1 0x20 PUSH1 0x0 KECCAK256 SWAP1 JUMPDEST DUP2 SLOAD DUP2 MSTORE SWAP1 PUSH1 0x1 ADD SWAP1 PUSH1 0x20 ADD DUP1 DUP4 GT PUSH2 0x1C9B JUMPI DUP3 SWAP1 SUB PUSH1 0x1F AND DUP3 ADD SWAP2 JUMPDEST POP POP POP POP POP DUP6 PUSH2 0x2406 JUMP JUMPDEST DUP1 DUP1 PUSH2 0x1CCE SWAP1 PUSH2 0x3D29 JUMP JUMPDEST SWAP2 POP POP PUSH2 0x1BA0 JUMP JUMPDEST POP DUP1 DUP3 PUSH1 0x2 ADD DUP2 SWAP1 SSTORE POP PUSH32 0x9A2E42FD6722813D69113E7D0079D3D940171428DF7373DF9C7F7617CFDA2892 DUP4 DUP3 PUSH1 0x40 MLOAD PUSH2 0x1D11 SWAP3 SWAP2 SWAP1 PUSH2 0x46F5 JUMP JUMPDEST PUSH1 0x40 MLOAD DUP1 SWAP2 SUB SWAP1 LOG1 POP POP POP JUMP JUMPDEST PUSH32 0x8E25870C07E0B0B3884C78DA52790939A455C275406C44AE8B434B692FB916EE DUP2 JUMP JUMPDEST PUSH2 0x1D4A PUSH2 0x26EC JUMP JUMPDEST PUSH1 0x5 PUSH1 0x0 DUP5 DUP2 MSTORE PUSH1 0x20 ADD SWAP1 DUP2 MSTORE PUSH1 0x20 ADD PUSH1 0x0 KECCAK256 PUSH1 0xB ADD PUSH1 0x0 DUP4 PUSH20 0xFFFFFFFFFFFFFFFFFFFFFFFFFFFFFFFFFFFFFFFF AND PUSH20 0xFFFFFFFFFFFFFFFFFFFFFFFFFFFFFFFFFFFFFFFF AND DUP2 MSTORE PUSH1 0x20 ADD SWAP1 DUP2 MSTORE PUSH1 0x20 ADD PUSH1 0x0 KECCAK256 PUSH1 0x40 MLOAD DUP1 PUSH1 0x60 ADD PUSH1 0x40 MSTORE SWAP1 DUP2 PUSH1 0x0 DUP3 ADD PUSH1 0x0 SWAP1 SLOAD SWAP1 PUSH2 0x100 EXP SWAP1 DIV PUSH1 0xFF AND ISZERO ISZERO ISZERO ISZERO DUP2 MSTORE PUSH1 0x20 ADD PUSH1 0x0 DUP3 ADD PUSH1 0x1 SWAP1 SLOAD SWAP1 PUSH2 0x100 EXP SWAP1 DIV PUSH1 0xFF AND ISZERO ISZERO ISZERO ISZERO DUP2 MSTORE PUSH1 0x20 ADD PUSH1 0x0 DUP3 ADD PUSH1 0x2 SWAP1 SLOAD SWAP1 PUSH2 0x100 EXP SWAP1 DIV PUSH12 0xFFFFFFFFFFFFFFFFFFFFFFFF AND PUSH12 0xFFFFFFFFFFFFFFFFFFFFFFFF AND PUSH12 0xFFFFFFFFFFFFFFFFFFFFFFFF AND DUP2 MSTORE POP POP SWAP1 POP SWAP3 SWAP2 POP POP JUMP JUMPDEST PUSH1 0x5 PUSH1 0x7 DUP2 GT ISZERO PUSH2 0x1E38 JUMPI PUSH2 0x1E37 PUSH2 0x2EFD JUMP JUMPDEST JUMPDEST PUSH2 0x1E41 DUP3 PUSH2 0xBAE JUMP JUMPDEST PUSH1 0x7 DUP2 GT ISZERO PUSH2 0x1E53 JUMPI PUSH2 0x1E52 PUSH2 0x2EFD JUMP JUMPDEST JUMPDEST EQ PUSH2 0x1E93 JUMPI PUSH1 0x40 MLOAD PUSH32 0x8C379A000000000000000000000000000000000000000000000000000000000 DUP2 MSTORE PUSH1 0x4 ADD PUSH2 0x1E8A SWAP1 PUSH2 0x47B6 JUMP JUMPDEST PUSH1 0x40 MLOAD DUP1 SWAP2 SUB SWAP1 REVERT JUMPDEST PUSH1 0x0 PUSH1 0x5 PUSH1 0x0 DUP4 DUP2 MSTORE PUSH1 0x20 ADD SWAP1 DUP2 MSTORE PUSH1 0x20 ADD PUSH1 0x0 KECCAK256 SWAP1 POP PUSH1 0x1 DUP2 PUSH1 0xA ADD PUSH1 0x1 PUSH2 0x100 EXP DUP2 SLOAD DUP2 PUSH1 0xFF MUL NOT AND SWAP1 DUP4 ISZERO ISZERO MUL OR SWAP1 SSTORE POP PUSH1 0x0 JUMPDEST DUP2 PUSH1 0x3 ADD DUP1 SLOAD SWAP1 POP DUP2 LT ISZERO PUSH2 0x2038 JUMPI PUSH1 0x1 DUP1 SLOAD SWAP1 PUSH2 0x100 EXP SWAP1 DIV PUSH20 0xFFFFFFFFFFFFFFFFFFFFFFFFFFFFFFFFFFFFFFFF AND PUSH20 0xFFFFFFFFFFFFFFFFFFFFFFFFFFFFFFFFFFFFFFFF AND PUSH4 0x6A41D09 DUP4 PUSH1 0x4 ADD DUP4 DUP2 SLOAD DUP2 LT PUSH2 0x1F2B JUMPI PUSH2 0x1F2A PUSH2 0x3BEA JUMP JUMPDEST JUMPDEST SWAP1 PUSH1 0x0 MSTORE PUSH1 0x20 PUSH1 0x0 KECCAK256 ADD SLOAD DUP5 PUSH1 0x3 ADD DUP5 DUP2 SLOAD DUP2 LT PUSH2 0x1F4C JUMPI PUSH2 0x1F4B PUSH2 0x3BEA JUMP JUMPDEST JUMPDEST SWAP1 PUSH1 0x0 MSTORE PUSH1 0x20 PUSH1 0x0 KECCAK256 ADD PUSH1 0x0 SWAP1 SLOAD SWAP1 PUSH2 0x100 EXP SWAP1 DIV PUSH20 0xFFFFFFFFFFFFFFFFFFFFFFFFFFFFFFFFFFFFFFFF AND DUP6 PUSH1 0x4 ADD DUP6 DUP2 SLOAD DUP2 LT PUSH2 0x1F8D JUMPI PUSH2 0x1F8C PUSH2 0x3BEA JUMP JUMPDEST JUMPDEST SWAP1 PUSH1 0x0 MSTORE PUSH1 0x20 PUSH1 0x0 KECCAK256 ADD SLOAD DUP7 PUSH1 0x5 ADD DUP7 DUP2 SLOAD DUP2 LT PUSH2 0x1FAE JUMPI PUSH2 0x1FAD PUSH2 0x3BEA JUMP JUMPDEST JUMPDEST SWAP1 PUSH1 0x0 MSTORE PUSH1 0x20 PUSH1 0x0 KECCAK256 ADD DUP8 PUSH1 0x2 ADD SLOAD PUSH1 0x40 MLOAD DUP7 PUSH4 0xFFFFFFFF AND PUSH1 0xE0 SHL DUP2 MSTORE PUSH1 0x4 ADD PUSH2 0x1FDC SWAP5 SWAP4 SWAP3 SWAP2 SWAP1 PUSH2 0x3CAE JUMP JUMPDEST PUSH1 0x0 PUSH1 0x40 MLOAD DUP1 DUP4 SUB DUP2 DUP6 DUP9 GAS CALL ISZERO DUP1 ISZERO PUSH2 0x1FFA JUMPI RETURNDATASIZE PUSH1 0x0 DUP1 RETURNDATACOPY RETURNDATASIZE PUSH1 0x0 REVERT JUMPDEST POP POP POP POP POP PUSH1 0x40 MLOAD RETURNDATASIZE PUSH1 0x0 DUP3 RETURNDATACOPY RETURNDATASIZE PUSH1 0x1F NOT PUSH1 0x1F DUP3 ADD AND DUP3 ADD DUP1 PUSH1 0x40 MSTORE POP DUP2 ADD SWAP1 PUSH2 0x2024 SWAP2 SWAP1 PUSH2 0x3927 JUMP JUMPDEST POP DUP1 DUP1 PUSH2 0x2030 SWAP1 PUSH2 0x3D29 JUMP JUMPDEST SWAP2 POP POP PUSH2 0x1ECA JUMP JUMPDEST POP PUSH32 0x712AE1383F79AC853F8D882153778E0260EF8F03B504E2866E0593E04D2B291F DUP3 PUSH1 0x40 MLOAD PUSH2 0x2068 SWAP2 SWAP1 PUSH2 0x2995 JUMP JUMPDEST PUSH1 0x40 MLOAD DUP1 SWAP2 SUB SWAP1 LOG1 POP POP JUMP JUMPDEST PUSH1 0x1 PUSH1 0x7 DUP2 GT ISZERO PUSH2 0x2088 JUMPI PUSH2 0x2087 PUSH2 0x2EFD JUMP JUMPDEST JUMPDEST PUSH2 0x2091 DUP4 PUSH2 0xBAE JUMP JUMPDEST PUSH1 0x7 DUP2 GT ISZERO PUSH2 0x20A3 JUMPI PUSH2 0x20A2 PUSH2 0x2EFD JUMP JUMPDEST JUMPDEST EQ PUSH2 0x20E3 JUMPI PUSH1 0x40 MLOAD PUSH32 0x8C379A000000000000000000000000000000000000000000000000000000000 DUP2 MSTORE PUSH1 0x4 ADD PUSH2 0x20DA SWAP1 PUSH2 0x4848 JUMP JUMPDEST PUSH1 0x40 MLOAD DUP1 SWAP2 SUB SWAP1 REVERT JUMPDEST PUSH1 0x0 PUSH1 0x5 PUSH1 0x0 DUP5 DUP2 MSTORE PUSH1 0x20 ADD SWAP1 DUP2 MSTORE PUSH1 0x20 ADD PUSH1 0x0 KECCAK256 SWAP1 POP PUSH1 0x0 DUP2 PUSH1 0xB ADD PUSH1 0x0 DUP7 PUSH20 0xFFFFFFFFFFFFFFFFFFFFFFFFFFFFFFFFFFFFFFFF AND PUSH20 0xFFFFFFFFFFFFFFFFFFFFFFFFFFFFFFFFFFFFFFFF AND DUP2 MSTORE PUSH1 0x20 ADD SWAP1 DUP2 MSTORE PUSH1 0x20 ADD PUSH1 0x0 KECCAK256 SWAP1 POP PUSH1 0x0 ISZERO ISZERO DUP2 PUSH1 0x0 ADD PUSH1 0x0 SWAP1 SLOAD SWAP1 PUSH2 0x100 EXP SWAP1 DIV PUSH1 0xFF AND ISZERO ISZERO EQ PUSH2 0x2197 JUMPI PUSH1 0x40 MLOAD PUSH32 0x8C379A000000000000000000000000000000000000000000000000000000000 DUP2 MSTORE PUSH1 0x4 ADD PUSH2 0x218E SWAP1 PUSH2 0x48DA JUMP JUMPDEST PUSH1 0x40 MLOAD DUP1 SWAP2 SUB SWAP1 REVERT JUMPDEST PUSH1 0x0 PUSH1 0x2 PUSH1 0x0 SWAP1 SLOAD SWAP1 PUSH2 0x100 EXP SWAP1 DIV PUSH20 0xFFFFFFFFFFFFFFFFFFFFFFFFFFFFFFFFFFFFFFFF AND PUSH20 0xFFFFFFFFFFFFFFFFFFFFFFFFFFFFFFFFFFFFFFFF AND PUSH4 0x782D6FE1 DUP8 DUP6 PUSH1 0x6 ADD SLOAD PUSH1 0x40 MLOAD DUP4 PUSH4 0xFFFFFFFF AND PUSH1 0xE0 SHL DUP2 MSTORE PUSH1 0x4 ADD PUSH2 0x21FA SWAP3 SWAP2 SWAP1 PUSH2 0x3AD6 JUMP JUMPDEST PUSH1 0x20 PUSH1 0x40 MLOAD DUP1 DUP4 SUB DUP2 DUP7 GAS STATICCALL ISZERO DUP1 ISZERO PUSH2 0x2217 JUMPI RETURNDATASIZE PUSH1 0x0 DUP1 RETURNDATACOPY RETURNDATASIZE PUSH1 0x0 REVERT JUMPDEST POP POP POP POP PUSH1 0x40 MLOAD RETURNDATASIZE PUSH1 0x1F NOT PUSH1 0x1F DUP3 ADD AND DUP3 ADD DUP1 PUSH1 0x40 MSTORE POP DUP2 ADD SWAP1 PUSH2 0x223B SWAP2 SWAP1 PUSH2 0x3B2B JUMP JUMPDEST SWAP1 POP DUP4 ISZERO PUSH2 0x226C JUMPI PUSH2 0x225F DUP4 PUSH1 0x8 ADD SLOAD DUP3 PUSH12 0xFFFFFFFFFFFFFFFFFFFFFFFF AND PUSH2 0x2342 JUMP JUMPDEST DUP4 PUSH1 0x8 ADD DUP2 SWAP1 SSTORE POP PUSH2 0x2291 JUMP JUMPDEST PUSH2 0x2288 DUP4 PUSH1 0x9 ADD SLOAD DUP3 PUSH12 0xFFFFFFFFFFFFFFFFFFFFFFFF AND PUSH2 0x2342 JUMP JUMPDEST DUP4 PUSH1 0x9 ADD DUP2 SWAP1 SSTORE POP JUMPDEST PUSH1 0x1 DUP3 PUSH1 0x0 ADD PUSH1 0x0 PUSH2 0x100 EXP DUP2 SLOAD DUP2 PUSH1 0xFF MUL NOT AND SWAP1 DUP4 ISZERO ISZERO MUL OR SWAP1 SSTORE POP DUP4 DUP3 PUSH1 0x0 ADD PUSH1 0x1 PUSH2 0x100 EXP DUP2 SLOAD DUP2 PUSH1 0xFF MUL NOT AND SWAP1 DUP4 ISZERO ISZERO MUL OR SWAP1 SSTORE POP DUP1 DUP3 PUSH1 0x0 ADD PUSH1 0x2 PUSH2 0x100 EXP DUP2 SLOAD DUP2 PUSH12 0xFFFFFFFFFFFFFFFFFFFFFFFF MUL NOT AND SWAP1 DUP4 PUSH12 0xFFFFFFFFFFFFFFFFFFFFFFFF AND MUL OR SWAP1 SSTORE POP PUSH32 0x877856338E13F63D0C36822FF0EF736B80934CD90574A3A5BC9262C39D217C46 DUP7 DUP7 DUP7 DUP5 PUSH1 0x40 MLOAD PUSH2 0x2332 SWAP5 SWAP4 SWAP3 SWAP2 SWAP1 PUSH2 0x492B JUMP JUMPDEST PUSH1 0x40 MLOAD DUP1 SWAP2 SUB SWAP1 LOG1 POP POP POP POP POP POP JUMP JUMPDEST PUSH1 0x0 DUP1 DUP3 DUP5 PUSH2 0x2351 SWAP2 SWAP1 PUSH2 0x4970 JUMP JUMPDEST SWAP1 POP DUP4 DUP2 LT ISZERO PUSH2 0x2396 JUMPI PUSH1 0x40 MLOAD PUSH32 0x8C379A000000000000000000000000000000000000000000000000000000000 DUP2 MSTORE PUSH1 0x4 ADD PUSH2 0x238D SWAP1 PUSH2 0x4A12 JUMP JUMPDEST PUSH1 0x40 MLOAD DUP1 SWAP2 SUB SWAP1 REVERT JUMPDEST DUP1 SWAP2 POP POP SWAP3 SWAP2 POP POP JUMP JUMPDEST PUSH1 0x0 DUP3 DUP3 GT ISZERO PUSH2 0x23E5 JUMPI PUSH1 0x40 MLOAD PUSH32 0x8C379A000000000000000000000000000000000000000000000000000000000 DUP2 MSTORE PUSH1 0x4 ADD PUSH2 0x23DC SWAP1 PUSH2 0x4A7E JUMP JUMPDEST PUSH1 0x40 MLOAD DUP1 SWAP2 SUB SWAP1 REVERT JUMPDEST DUP2 DUP4 PUSH2 0x23F1 SWAP2 SWAP1 PUSH2 0x4A9E JUMP JUMPDEST SWAP1 POP SWAP3 SWAP2 POP POP JUMP JUMPDEST PUSH1 0x0 DUP1 CHAINID SWAP1 POP DUP1 SWAP2 POP POP SWAP1 JUMP JUMPDEST PUSH1 0x1 DUP1 SLOAD SWAP1 PUSH2 0x100 EXP SWAP1 DIV PUSH20 0xFFFFFFFFFFFFFFFFFFFFFFFFFFFFFFFFFFFFFFFF AND PUSH20 0xFFFFFFFFFFFFFFFFFFFFFFFFFFFFFFFFFFFFFFFF AND PUSH4 0xF2B06537 DUP6 DUP6 DUP6 DUP6 PUSH1 0x40 MLOAD PUSH1 0x20 ADD PUSH2 0x2459 SWAP5 SWAP4 SWAP3 SWAP2 SWAP1 PUSH2 0x4AD2 JUMP JUMPDEST PUSH1 0x40 MLOAD PUSH1 0x20 DUP2 DUP4 SUB SUB DUP2 MSTORE SWAP1 PUSH1 0x40 MSTORE DUP1 MLOAD SWAP1 PUSH1 0x20 ADD KECCAK256 PUSH1 0x40 MLOAD DUP3 PUSH4 0xFFFFFFFF AND PUSH1 0xE0 SHL DUP2 MSTORE PUSH1 0x4 ADD PUSH2 0x248B SWAP2 SWAP1 PUSH2 0x2BC3 JUMP JUMPDEST PUSH1 0x20 PUSH1 0x40 MLOAD DUP1 DUP4 SUB DUP2 DUP7 GAS STATICCALL ISZERO DUP1 ISZERO PUSH2 0x24A8 JUMPI RETURNDATASIZE PUSH1 0x0 DUP1 RETURNDATACOPY RETURNDATASIZE PUSH1 0x0 REVERT JUMPDEST POP POP POP POP PUSH1 0x40 MLOAD RETURNDATASIZE PUSH1 0x1F NOT PUSH1 0x1F DUP3 ADD AND DUP3 ADD DUP1 PUSH1 0x40 MSTORE POP DUP2 ADD SWAP1 PUSH2 0x24CC SWAP2 SWAP1 PUSH2 0x4B33 JUMP JUMPDEST ISZERO PUSH2 0x250C JUMPI PUSH1 0x40 MLOAD PUSH32 0x8C379A000000000000000000000000000000000000000000000000000000000 DUP2 MSTORE PUSH1 0x4 ADD PUSH2 0x2503 SWAP1 PUSH2 0x4BF8 JUMP JUMPDEST PUSH1 0x40 MLOAD DUP1 SWAP2 SUB SWAP1 REVERT JUMPDEST PUSH1 0x1 DUP1 SLOAD SWAP1 PUSH2 0x100 EXP SWAP1 DIV PUSH20 0xFFFFFFFFFFFFFFFFFFFFFFFFFFFFFFFFFFFFFFFF AND PUSH20 0xFFFFFFFFFFFFFFFFFFFFFFFFFFFFFFFFFFFFFFFF AND PUSH4 0x8E361CDF DUP6 DUP6 DUP6 DUP6 PUSH1 0x40 MLOAD DUP6 PUSH4 0xFFFFFFFF AND PUSH1 0xE0 SHL DUP2 MSTORE PUSH1 0x4 ADD PUSH2 0x256B SWAP5 SWAP4 SWAP3 SWAP2 SWAP1 PUSH2 0x4AD2 JUMP JUMPDEST PUSH1 0x20 PUSH1 0x40 MLOAD DUP1 DUP4 SUB DUP2 PUSH1 0x0 DUP8 GAS CALL ISZERO DUP1 ISZERO PUSH2 0x258A JUMPI RETURNDATASIZE PUSH1 0x0 DUP1 RETURNDATACOPY RETURNDATASIZE PUSH1 0x0 REVERT JUMPDEST POP POP POP POP PUSH1 0x40 MLOAD RETURNDATASIZE PUSH1 0x1F NOT PUSH1 0x1F DUP3 ADD AND DUP3 ADD DUP1 PUSH1 0x40 MSTORE POP DUP2 ADD SWAP1 PUSH2 0x25AE SWAP2 SWAP1 PUSH2 0x457E JUMP JUMPDEST POP POP POP POP POP JUMP JUMPDEST DUP3 DUP1 SLOAD DUP3 DUP3 SSTORE SWAP1 PUSH1 0x0 MSTORE PUSH1 0x20 PUSH1 0x0 KECCAK256 SWAP1 DUP2 ADD SWAP3 DUP3 ISZERO PUSH2 0x262E JUMPI SWAP2 PUSH1 0x20 MUL DUP3 ADD JUMPDEST DUP3 DUP2 GT ISZERO PUSH2 0x262D JUMPI DUP3 MLOAD DUP3 PUSH1 0x0 PUSH2 0x100 EXP DUP2 SLOAD DUP2 PUSH20 0xFFFFFFFFFFFFFFFFFFFFFFFFFFFFFFFFFFFFFFFF MUL NOT AND SWAP1 DUP4 PUSH20 0xFFFFFFFFFFFFFFFFFFFFFFFFFFFFFFFFFFFFFFFF AND MUL OR SWAP1 SSTORE POP SWAP2 PUSH1 0x20 ADD SWAP2 SWAP1 PUSH1 0x1 ADD SWAP1 PUSH2 0x25D5 JUMP JUMPDEST JUMPDEST POP SWAP1 POP PUSH2 0x263B SWAP2 SWAP1 PUSH2 0x271F JUMP JUMPDEST POP SWAP1 JUMP JUMPDEST DUP3 DUP1 SLOAD DUP3 DUP3 SSTORE SWAP1 PUSH1 0x0 MSTORE PUSH1 0x20 PUSH1 0x0 KECCAK256 SWAP1 DUP2 ADD SWAP3 DUP3 ISZERO PUSH2 0x267B JUMPI SWAP2 PUSH1 0x20 MUL DUP3 ADD JUMPDEST DUP3 DUP2 GT ISZERO PUSH2 0x267A JUMPI DUP3 MLOAD DUP3 SSTORE SWAP2 PUSH1 0x20 ADD SWAP2 SWAP1 PUSH1 0x1 ADD SWAP1 PUSH2 0x265F JUMP JUMPDEST JUMPDEST POP SWAP1 POP PUSH2 0x2688 SWAP2 SWAP1 PUSH2 0x271F JUMP JUMPDEST POP SWAP1 JUMP JUMPDEST DUP3 DUP1 SLOAD DUP3 DUP3 SSTORE SWAP1 PUSH1 0x0 MSTORE PUSH1 0x20 PUSH1 0x0 KECCAK256 SWAP1 DUP2 ADD SWAP3 DUP3 ISZERO PUSH2 0x26DB JUMPI SWAP2 PUSH1 0x20 MUL DUP3 ADD JUMPDEST DUP3 DUP2 GT ISZERO PUSH2 0x26DA JUMPI DUP3 MLOAD DUP3 SWAP1 DUP1 MLOAD SWAP1 PUSH1 0x20 ADD SWAP1 PUSH2 0x26CA SWAP3 SWAP2 SWAP1 PUSH2 0x273C JUMP JUMPDEST POP SWAP2 PUSH1 0x20 ADD SWAP2 SWAP1 PUSH1 0x1 ADD SWAP1 PUSH2 0x26AC JUMP JUMPDEST JUMPDEST POP SWAP1 POP PUSH2 0x26E8 SWAP2 SWAP1 PUSH2 0x27C2 JUMP JUMPDEST POP SWAP1 JUMP JUMPDEST PUSH1 0x40 MLOAD DUP1 PUSH1 0x60 ADD PUSH1 0x40 MSTORE DUP1 PUSH1 0x0 ISZERO ISZERO DUP2 MSTORE PUSH1 0x20 ADD PUSH1 0x0 ISZERO ISZERO DUP2 MSTORE PUSH1 0x20 ADD PUSH1 0x0 PUSH12 0xFFFFFFFFFFFFFFFFFFFFFFFF AND DUP2 MSTORE POP SWAP1 JUMP JUMPDEST JUMPDEST DUP1 DUP3 GT ISZERO PUSH2 0x2738 JUMPI PUSH1 0x0 DUP2 PUSH1 0x0 SWAP1 SSTORE POP PUSH1 0x1 ADD PUSH2 0x2720 JUMP JUMPDEST POP SWAP1 JUMP JUMPDEST DUP3 DUP1 SLOAD PUSH2 0x2748 SWAP1 PUSH2 0x36FC JUMP JUMPDEST SWAP1 PUSH1 0x0 MSTORE PUSH1 0x20 PUSH1 0x0 KECCAK256 SWAP1 PUSH1 0x1F ADD PUSH1 0x20 SWAP1 DIV DUP2 ADD SWAP3 DUP3 PUSH2 0x276A JUMPI PUSH1 0x0 DUP6 SSTORE PUSH2 0x27B1 JUMP JUMPDEST DUP3 PUSH1 0x1F LT PUSH2 0x2783 JUMPI DUP1 MLOAD PUSH1 0xFF NOT AND DUP4 DUP1 ADD OR DUP6 SSTORE PUSH2 0x27B1 JUMP JUMPDEST DUP3 DUP1 ADD PUSH1 0x1 ADD DUP6 SSTORE DUP3 ISZERO PUSH2 0x27B1 JUMPI SWAP2 DUP3 ADD JUMPDEST DUP3 DUP2 GT ISZERO PUSH2 0x27B0 JUMPI DUP3 MLOAD DUP3 SSTORE SWAP2 PUSH1 0x20 ADD SWAP2 SWAP1 PUSH1 0x1 ADD SWAP1 PUSH2 0x2795 JUMP JUMPDEST JUMPDEST POP SWAP1 POP PUSH2 0x27BE SWAP2 SWAP1 PUSH2 0x271F JUMP JUMPDEST POP SWAP1 JUMP JUMPDEST JUMPDEST DUP1 DUP3 GT ISZERO PUSH2 0x27E2 JUMPI PUSH1 0x0 DUP2 DUP2 PUSH2 0x27D9 SWAP2 SWAP1 PUSH2 0x27E6 JUMP JUMPDEST POP PUSH1 0x1 ADD PUSH2 0x27C3 JUMP JUMPDEST POP SWAP1 JUMP JUMPDEST POP DUP1 SLOAD PUSH2 0x27F2 SWAP1 PUSH2 0x36FC JUMP JUMPDEST PUSH1 0x0 DUP3 SSTORE DUP1 PUSH1 0x1F LT PUSH2 0x2804 JUMPI POP PUSH2 0x2823 JUMP JUMPDEST PUSH1 0x1F ADD PUSH1 0x20 SWAP1 DIV SWAP1 PUSH1 0x0 MSTORE PUSH1 0x20 PUSH1 0x0 KECCAK256 SWAP1 DUP2 ADD SWAP1 PUSH2 0x2822 SWAP2 SWAP1 PUSH2 0x271F JUMP JUMPDEST JUMPDEST POP JUMP JUMPDEST PUSH1 0x0 PUSH1 0x40 MLOAD SWAP1 POP SWAP1 JUMP JUMPDEST PUSH1 0x0 DUP1 REVERT JUMPDEST PUSH1 0x0 DUP1 REVERT JUMPDEST PUSH1 0x0 DUP2 SWAP1 POP SWAP2 SWAP1 POP JUMP JUMPDEST PUSH2 0x284D DUP2 PUSH2 0x283A JUMP JUMPDEST DUP2 EQ PUSH2 0x2858 JUMPI PUSH1 0x0 DUP1 REVERT JUMPDEST POP JUMP JUMPDEST PUSH1 0x0 DUP2 CALLDATALOAD SWAP1 POP PUSH2 0x286A DUP2 PUSH2 0x2844 JUMP JUMPDEST SWAP3 SWAP2 POP POP JUMP JUMPDEST PUSH1 0x0 PUSH1 0x20 DUP3 DUP5 SUB SLT ISZERO PUSH2 0x2886 JUMPI PUSH2 0x2885 PUSH2 0x2830 JUMP JUMPDEST JUMPDEST PUSH1 0x0 PUSH2 0x2894 DUP5 DUP3 DUP6 ADD PUSH2 0x285B JUMP JUMPDEST SWAP2 POP POP SWAP3 SWAP2 POP POP JUMP JUMPDEST PUSH2 0x28A6 DUP2 PUSH2 0x283A JUMP JUMPDEST DUP3 MSTORE POP POP JUMP JUMPDEST PUSH1 0x0 PUSH20 0xFFFFFFFFFFFFFFFFFFFFFFFFFFFFFFFFFFFFFFFF DUP3 AND SWAP1 POP SWAP2 SWAP1 POP JUMP JUMPDEST PUSH1 0x0 PUSH2 0x28D7 DUP3 PUSH2 0x28AC JUMP JUMPDEST SWAP1 POP SWAP2 SWAP1 POP JUMP JUMPDEST PUSH2 0x28E7 DUP2 PUSH2 0x28CC JUMP JUMPDEST DUP3 MSTORE POP POP JUMP JUMPDEST PUSH1 0x0 DUP2 ISZERO ISZERO SWAP1 POP SWAP2 SWAP1 POP JUMP JUMPDEST PUSH2 0x2902 DUP2 PUSH2 0x28ED JUMP JUMPDEST DUP3 MSTORE POP POP JUMP JUMPDEST PUSH1 0x0 PUSH2 0x120 DUP3 ADD SWAP1 POP PUSH2 0x291E PUSH1 0x0 DUP4 ADD DUP13 PUSH2 0x289D JUMP JUMPDEST PUSH2 0x292B PUSH1 0x20 DUP4 ADD DUP12 PUSH2 0x28DE JUMP JUMPDEST PUSH2 0x2938 PUSH1 0x40 DUP4 ADD DUP11 PUSH2 0x289D JUMP JUMPDEST PUSH2 0x2945 PUSH1 0x60 DUP4 ADD DUP10 PUSH2 0x289D JUMP JUMPDEST PUSH2 0x2952 PUSH1 0x80 DUP4 ADD DUP9 PUSH2 0x289D JUMP JUMPDEST PUSH2 0x295F PUSH1 0xA0 DUP4 ADD DUP8 PUSH2 0x289D JUMP JUMPDEST PUSH2 0x296C PUSH1 0xC0 DUP4 ADD DUP7 PUSH2 0x289D JUMP JUMPDEST PUSH2 0x2979 PUSH1 0xE0 DUP4 ADD DUP6 PUSH2 0x28F9 JUMP JUMPDEST PUSH2 0x2987 PUSH2 0x100 DUP4 ADD DUP5 PUSH2 0x28F9 JUMP JUMPDEST SWAP11 SWAP10 POP POP POP POP POP POP POP POP POP POP JUMP JUMPDEST PUSH1 0x0 PUSH1 0x20 DUP3 ADD SWAP1 POP PUSH2 0x29AA PUSH1 0x0 DUP4 ADD DUP5 PUSH2 0x289D JUMP JUMPDEST SWAP3 SWAP2 POP POP JUMP JUMPDEST PUSH1 0x0 DUP2 MLOAD SWAP1 POP SWAP2 SWAP1 POP JUMP JUMPDEST PUSH1 0x0 DUP3 DUP3 MSTORE PUSH1 0x20 DUP3 ADD SWAP1 POP SWAP3 SWAP2 POP POP JUMP JUMPDEST PUSH1 0x0 JUMPDEST DUP4 DUP2 LT ISZERO PUSH2 0x29EA JUMPI DUP1 DUP3 ADD MLOAD DUP2 DUP5 ADD MSTORE PUSH1 0x20 DUP2 ADD SWAP1 POP PUSH2 0x29CF JUMP JUMPDEST DUP4 DUP2 GT ISZERO PUSH2 0x29F9 JUMPI PUSH1 0x0 DUP5 DUP5 ADD MSTORE JUMPDEST POP POP POP POP JUMP JUMPDEST PUSH1 0x0 PUSH1 0x1F NOT PUSH1 0x1F DUP4 ADD AND SWAP1 POP SWAP2 SWAP1 POP JUMP JUMPDEST PUSH1 0x0 PUSH2 0x2A1B DUP3 PUSH2 0x29B0 JUMP JUMPDEST PUSH2 0x2A25 DUP2 DUP6 PUSH2 0x29BB JUMP JUMPDEST SWAP4 POP PUSH2 0x2A35 DUP2 DUP6 PUSH1 0x20 DUP7 ADD PUSH2 0x29CC JUMP JUMPDEST PUSH2 0x2A3E DUP2 PUSH2 0x29FF JUMP JUMPDEST DUP5 ADD SWAP2 POP POP SWAP3 SWAP2 POP POP JUMP JUMPDEST PUSH1 0x0 PUSH1 0x20 DUP3 ADD SWAP1 POP DUP2 DUP2 SUB PUSH1 0x0 DUP4 ADD MSTORE PUSH2 0x2A63 DUP2 DUP5 PUSH2 0x2A10 JUMP JUMPDEST SWAP1 POP SWAP3 SWAP2 POP POP JUMP JUMPDEST PUSH1 0x0 DUP2 SWAP1 POP SWAP2 SWAP1 POP JUMP JUMPDEST PUSH1 0x0 PUSH2 0x2A90 PUSH2 0x2A8B PUSH2 0x2A86 DUP5 PUSH2 0x28AC JUMP JUMPDEST PUSH2 0x2A6B JUMP JUMPDEST PUSH2 0x28AC JUMP JUMPDEST SWAP1 POP SWAP2 SWAP1 POP JUMP JUMPDEST PUSH1 0x0 PUSH2 0x2AA2 DUP3 PUSH2 0x2A75 JUMP JUMPDEST SWAP1 POP SWAP2 SWAP1 POP JUMP JUMPDEST PUSH1 0x0 PUSH2 0x2AB4 DUP3 PUSH2 0x2A97 JUMP JUMPDEST SWAP1 POP SWAP2 SWAP1 POP JUMP JUMPDEST PUSH2 0x2AC4 DUP2 PUSH2 0x2AA9 JUMP JUMPDEST DUP3 MSTORE POP POP JUMP JUMPDEST PUSH1 0x0 PUSH1 0x20 DUP3 ADD SWAP1 POP PUSH2 0x2ADF PUSH1 0x0 DUP4 ADD DUP5 PUSH2 0x2ABB JUMP JUMPDEST SWAP3 SWAP2 POP POP JUMP JUMPDEST PUSH2 0x2AEE DUP2 PUSH2 0x28ED JUMP JUMPDEST DUP2 EQ PUSH2 0x2AF9 JUMPI PUSH1 0x0 DUP1 REVERT JUMPDEST POP JUMP JUMPDEST PUSH1 0x0 DUP2 CALLDATALOAD SWAP1 POP PUSH2 0x2B0B DUP2 PUSH2 0x2AE5 JUMP JUMPDEST SWAP3 SWAP2 POP POP JUMP JUMPDEST PUSH1 0x0 DUP1 PUSH1 0x40 DUP4 DUP6 SUB SLT ISZERO PUSH2 0x2B28 JUMPI PUSH2 0x2B27 PUSH2 0x2830 JUMP JUMPDEST JUMPDEST PUSH1 0x0 PUSH2 0x2B36 DUP6 DUP3 DUP7 ADD PUSH2 0x285B JUMP JUMPDEST SWAP3 POP POP PUSH1 0x20 PUSH2 0x2B47 DUP6 DUP3 DUP7 ADD PUSH2 0x2AFC JUMP JUMPDEST SWAP2 POP POP SWAP3 POP SWAP3 SWAP1 POP JUMP JUMPDEST PUSH2 0x2B5A DUP2 PUSH2 0x28CC JUMP JUMPDEST DUP2 EQ PUSH2 0x2B65 JUMPI PUSH1 0x0 DUP1 REVERT JUMPDEST POP JUMP JUMPDEST PUSH1 0x0 DUP2 CALLDATALOAD SWAP1 POP PUSH2 0x2B77 DUP2 PUSH2 0x2B51 JUMP JUMPDEST SWAP3 SWAP2 POP POP JUMP JUMPDEST PUSH1 0x0 PUSH1 0x20 DUP3 DUP5 SUB SLT ISZERO PUSH2 0x2B93 JUMPI PUSH2 0x2B92 PUSH2 0x2830 JUMP JUMPDEST JUMPDEST PUSH1 0x0 PUSH2 0x2BA1 DUP5 DUP3 DUP6 ADD PUSH2 0x2B68 JUMP JUMPDEST SWAP2 POP POP SWAP3 SWAP2 POP POP JUMP JUMPDEST PUSH1 0x0 DUP2 SWAP1 POP SWAP2 SWAP1 POP JUMP JUMPDEST PUSH2 0x2BBD DUP2 PUSH2 0x2BAA JUMP JUMPDEST DUP3 MSTORE POP POP JUMP JUMPDEST PUSH1 0x0 PUSH1 0x20 DUP3 ADD SWAP1 POP PUSH2 0x2BD8 PUSH1 0x0 DUP4 ADD DUP5 PUSH2 0x2BB4 JUMP JUMPDEST SWAP3 SWAP2 POP POP JUMP JUMPDEST PUSH1 0x0 DUP1 PUSH1 0x40 DUP4 DUP6 SUB SLT ISZERO PUSH2 0x2BF5 JUMPI PUSH2 0x2BF4 PUSH2 0x2830 JUMP JUMPDEST JUMPDEST PUSH1 0x0 PUSH2 0x2C03 DUP6 DUP3 DUP7 ADD PUSH2 0x2B68 JUMP JUMPDEST SWAP3 POP POP PUSH1 0x20 PUSH2 0x2C14 DUP6 DUP3 DUP7 ADD PUSH2 0x285B JUMP JUMPDEST SWAP2 POP POP SWAP3 POP SWAP3 SWAP1 POP JUMP JUMPDEST PUSH1 0x0 DUP2 MLOAD SWAP1 POP SWAP2 SWAP1 POP JUMP JUMPDEST PUSH1 0x0 DUP3 DUP3 MSTORE PUSH1 0x20 DUP3 ADD SWAP1 POP SWAP3 SWAP2 POP POP JUMP JUMPDEST PUSH1 0x0 DUP2 SWAP1 POP PUSH1 0x20 DUP3 ADD SWAP1 POP SWAP2 SWAP1 POP JUMP JUMPDEST PUSH2 0x2C53 DUP2 PUSH2 0x28CC JUMP JUMPDEST DUP3 MSTORE POP POP JUMP JUMPDEST PUSH1 0x0 PUSH2 0x2C65 DUP4 DUP4 PUSH2 0x2C4A JUMP JUMPDEST PUSH1 0x20 DUP4 ADD SWAP1 POP SWAP3 SWAP2 POP POP JUMP JUMPDEST PUSH1 0x0 PUSH1 0x20 DUP3 ADD SWAP1 POP SWAP2 SWAP1 POP JUMP JUMPDEST PUSH1 0x0 PUSH2 0x2C89 DUP3 PUSH2 0x2C1E JUMP JUMPDEST PUSH2 0x2C93 DUP2 DUP6 PUSH2 0x2C29 JUMP JUMPDEST SWAP4 POP PUSH2 0x2C9E DUP4 PUSH2 0x2C3A JUMP JUMPDEST DUP1 PUSH1 0x0 JUMPDEST DUP4 DUP2 LT ISZERO PUSH2 0x2CCF JUMPI DUP2 MLOAD PUSH2 0x2CB6 DUP9 DUP3 PUSH2 0x2C59 JUMP JUMPDEST SWAP8 POP PUSH2 0x2CC1 DUP4 PUSH2 0x2C71 JUMP JUMPDEST SWAP3 POP POP PUSH1 0x1 DUP2 ADD SWAP1 POP PUSH2 0x2CA2 JUMP JUMPDEST POP DUP6 SWAP4 POP POP POP POP SWAP3 SWAP2 POP POP JUMP JUMPDEST PUSH1 0x0 DUP2 MLOAD SWAP1 POP SWAP2 SWAP1 POP JUMP JUMPDEST PUSH1 0x0 DUP3 DUP3 MSTORE PUSH1 0x20 DUP3 ADD SWAP1 POP SWAP3 SWAP2 POP POP JUMP JUMPDEST PUSH1 0x0 DUP2 SWAP1 POP PUSH1 0x20 DUP3 ADD SWAP1 POP SWAP2 SWAP1 POP JUMP JUMPDEST PUSH2 0x2D11 DUP2 PUSH2 0x283A JUMP JUMPDEST DUP3 MSTORE POP POP JUMP JUMPDEST PUSH1 0x0 PUSH2 0x2D23 DUP4 DUP4 PUSH2 0x2D08 JUMP JUMPDEST PUSH1 0x20 DUP4 ADD SWAP1 POP SWAP3 SWAP2 POP POP JUMP JUMPDEST PUSH1 0x0 PUSH1 0x20 DUP3 ADD SWAP1 POP SWAP2 SWAP1 POP JUMP JUMPDEST PUSH1 0x0 PUSH2 0x2D47 DUP3 PUSH2 0x2CDC JUMP JUMPDEST PUSH2 0x2D51 DUP2 DUP6 PUSH2 0x2CE7 JUMP JUMPDEST SWAP4 POP PUSH2 0x2D5C DUP4 PUSH2 0x2CF8 JUMP JUMPDEST DUP1 PUSH1 0x0 JUMPDEST DUP4 DUP2 LT ISZERO PUSH2 0x2D8D JUMPI DUP2 MLOAD PUSH2 0x2D74 DUP9 DUP3 PUSH2 0x2D17 JUMP JUMPDEST SWAP8 POP PUSH2 0x2D7F DUP4 PUSH2 0x2D2F JUMP JUMPDEST SWAP3 POP POP PUSH1 0x1 DUP2 ADD SWAP1 POP PUSH2 0x2D60 JUMP JUMPDEST POP DUP6 SWAP4 POP POP POP POP SWAP3 SWAP2 POP POP JUMP JUMPDEST PUSH1 0x0 DUP2 MLOAD SWAP1 POP SWAP2 SWAP1 POP JUMP JUMPDEST PUSH1 0x0 DUP3 DUP3 MSTORE PUSH1 0x20 DUP3 ADD SWAP1 POP SWAP3 SWAP2 POP POP JUMP JUMPDEST PUSH1 0x0 DUP2 SWAP1 POP PUSH1 0x20 DUP3 ADD SWAP1 POP SWAP2 SWAP1 POP JUMP JUMPDEST PUSH1 0x0 DUP2 MLOAD SWAP1 POP SWAP2 SWAP1 POP JUMP JUMPDEST PUSH1 0x0 DUP3 DUP3 MSTORE PUSH1 0x20 DUP3 ADD SWAP1 POP SWAP3 SWAP2 POP POP JUMP JUMPDEST PUSH1 0x0 PUSH2 0x2DED DUP3 PUSH2 0x2DC6 JUMP JUMPDEST PUSH2 0x2DF7 DUP2 DUP6 PUSH2 0x2DD1 JUMP JUMPDEST SWAP4 POP PUSH2 0x2E07 DUP2 DUP6 PUSH1 0x20 DUP7 ADD PUSH2 0x29CC JUMP JUMPDEST PUSH2 0x2E10 DUP2 PUSH2 0x29FF JUMP JUMPDEST DUP5 ADD SWAP2 POP POP SWAP3 SWAP2 POP POP JUMP JUMPDEST PUSH1 0x0 PUSH2 0x2E27 DUP4 DUP4 PUSH2 0x2DE2 JUMP JUMPDEST SWAP1 POP SWAP3 SWAP2 POP POP JUMP JUMPDEST PUSH1 0x0 PUSH1 0x20 DUP3 ADD SWAP1 POP SWAP2 SWAP1 POP JUMP JUMPDEST PUSH1 0x0 PUSH2 0x2E47 DUP3 PUSH2 0x2D9A JUMP JUMPDEST PUSH2 0x2E51 DUP2 DUP6 PUSH2 0x2DA5 JUMP JUMPDEST SWAP4 POP DUP4 PUSH1 0x20 DUP3 MUL DUP6 ADD PUSH2 0x2E63 DUP6 PUSH2 0x2DB6 JUMP JUMPDEST DUP1 PUSH1 0x0 JUMPDEST DUP6 DUP2 LT ISZERO PUSH2 0x2E9F JUMPI DUP5 DUP5 SUB DUP10 MSTORE DUP2 MLOAD PUSH2 0x2E80 DUP6 DUP3 PUSH2 0x2E1B JUMP JUMPDEST SWAP5 POP PUSH2 0x2E8B DUP4 PUSH2 0x2E2F JUMP JUMPDEST SWAP3 POP PUSH1 0x20 DUP11 ADD SWAP10 POP POP PUSH1 0x1 DUP2 ADD SWAP1 POP PUSH2 0x2E67 JUMP JUMPDEST POP DUP3 SWAP8 POP DUP8 SWAP6 POP POP POP POP POP POP SWAP3 SWAP2 POP POP JUMP JUMPDEST PUSH1 0x0 PUSH1 0x60 DUP3 ADD SWAP1 POP DUP2 DUP2 SUB PUSH1 0x0 DUP4 ADD MSTORE PUSH2 0x2ECB DUP2 DUP7 PUSH2 0x2C7E JUMP JUMPDEST SWAP1 POP DUP2 DUP2 SUB PUSH1 0x20 DUP4 ADD MSTORE PUSH2 0x2EDF DUP2 DUP6 PUSH2 0x2D3C JUMP JUMPDEST SWAP1 POP DUP2 DUP2 SUB PUSH1 0x40 DUP4 ADD MSTORE PUSH2 0x2EF3 DUP2 DUP5 PUSH2 0x2E3C JUMP JUMPDEST SWAP1 POP SWAP5 SWAP4 POP POP POP POP JUMP JUMPDEST PUSH32 0x4E487B7100000000000000000000000000000000000000000000000000000000 PUSH1 0x0 MSTORE PUSH1 0x21 PUSH1 0x4 MSTORE PUSH1 0x24 PUSH1 0x0 REVERT JUMPDEST PUSH1 0x8 DUP2 LT PUSH2 0x2F3D JUMPI PUSH2 0x2F3C PUSH2 0x2EFD JUMP JUMPDEST JUMPDEST POP JUMP JUMPDEST PUSH1 0x0 DUP2 SWAP1 POP PUSH2 0x2F4E DUP3 PUSH2 0x2F2C JUMP JUMPDEST SWAP2 SWAP1 POP JUMP JUMPDEST PUSH1 0x0 PUSH2 0x2F5E DUP3 PUSH2 0x2F40 JUMP JUMPDEST SWAP1 POP SWAP2 SWAP1 POP JUMP JUMPDEST PUSH2 0x2F6E DUP2 PUSH2 0x2F53 JUMP JUMPDEST DUP3 MSTORE POP POP JUMP JUMPDEST PUSH1 0x0 PUSH1 0x20 DUP3 ADD SWAP1 POP PUSH2 0x2F89 PUSH1 0x0 DUP4 ADD DUP5 PUSH2 0x2F65 JUMP JUMPDEST SWAP3 SWAP2 POP POP JUMP JUMPDEST PUSH1 0x0 PUSH1 0x20 DUP3 ADD SWAP1 POP PUSH2 0x2FA4 PUSH1 0x0 DUP4 ADD DUP5 PUSH2 0x28DE JUMP JUMPDEST SWAP3 SWAP2 POP POP JUMP JUMPDEST PUSH1 0x0 PUSH1 0xFF DUP3 AND SWAP1 POP SWAP2 SWAP1 POP JUMP JUMPDEST PUSH2 0x2FC0 DUP2 PUSH2 0x2FAA JUMP JUMPDEST DUP2 EQ PUSH2 0x2FCB JUMPI PUSH1 0x0 DUP1 REVERT JUMPDEST POP JUMP JUMPDEST PUSH1 0x0 DUP2 CALLDATALOAD SWAP1 POP PUSH2 0x2FDD DUP2 PUSH2 0x2FB7 JUMP JUMPDEST SWAP3 SWAP2 POP POP JUMP JUMPDEST PUSH2 0x2FEC DUP2 PUSH2 0x2BAA JUMP JUMPDEST DUP2 EQ PUSH2 0x2FF7 JUMPI PUSH1 0x0 DUP1 REVERT JUMPDEST POP JUMP JUMPDEST PUSH1 0x0 DUP2 CALLDATALOAD SWAP1 POP PUSH2 0x3009 DUP2 PUSH2 0x2FE3 JUMP JUMPDEST SWAP3 SWAP2 POP POP JUMP JUMPDEST PUSH1 0x0 DUP1 PUSH1 0x0 DUP1 PUSH1 0x0 PUSH1 0xA0 DUP7 DUP9 SUB SLT ISZERO PUSH2 0x302B JUMPI PUSH2 0x302A PUSH2 0x2830 JUMP JUMPDEST JUMPDEST PUSH1 0x0 PUSH2 0x3039 DUP9 DUP3 DUP10 ADD PUSH2 0x285B JUMP JUMPDEST SWAP6 POP POP PUSH1 0x20 PUSH2 0x304A DUP9 DUP3 DUP10 ADD PUSH2 0x2AFC JUMP JUMPDEST SWAP5 POP POP PUSH1 0x40 PUSH2 0x305B DUP9 DUP3 DUP10 ADD PUSH2 0x2FCE JUMP JUMPDEST SWAP4 POP POP PUSH1 0x60 PUSH2 0x306C DUP9 DUP3 DUP10 ADD PUSH2 0x2FFA JUMP JUMPDEST SWAP3 POP POP PUSH1 0x80 PUSH2 0x307D DUP9 DUP3 DUP10 ADD PUSH2 0x2FFA JUMP JUMPDEST SWAP2 POP POP SWAP3 SWAP6 POP SWAP3 SWAP6 SWAP1 SWAP4 POP JUMP JUMPDEST PUSH1 0x0 DUP1 REVERT JUMPDEST PUSH32 0x4E487B7100000000000000000000000000000000000000000000000000000000 PUSH1 0x0 MSTORE PUSH1 0x41 PUSH1 0x4 MSTORE PUSH1 0x24 PUSH1 0x0 REVERT JUMPDEST PUSH2 0x30C7 DUP3 PUSH2 0x29FF JUMP JUMPDEST DUP2 ADD DUP2 DUP2 LT PUSH8 0xFFFFFFFFFFFFFFFF DUP3 GT OR ISZERO PUSH2 0x30E6 JUMPI PUSH2 0x30E5 PUSH2 0x308F JUMP JUMPDEST JUMPDEST DUP1 PUSH1 0x40 MSTORE POP POP POP JUMP JUMPDEST PUSH1 0x0 PUSH2 0x30F9 PUSH2 0x2826 JUMP JUMPDEST SWAP1 POP PUSH2 0x3105 DUP3 DUP3 PUSH2 0x30BE JUMP JUMPDEST SWAP2 SWAP1 POP JUMP JUMPDEST PUSH1 0x0 PUSH8 0xFFFFFFFFFFFFFFFF DUP3 GT ISZERO PUSH2 0x3125 JUMPI PUSH2 0x3124 PUSH2 0x308F JUMP JUMPDEST JUMPDEST PUSH1 0x20 DUP3 MUL SWAP1 POP PUSH1 0x20 DUP2 ADD SWAP1 POP SWAP2 SWAP1 POP JUMP JUMPDEST PUSH1 0x0 DUP1 REVERT JUMPDEST PUSH1 0x0 PUSH2 0x314E PUSH2 0x3149 DUP5 PUSH2 0x310A JUMP JUMPDEST PUSH2 0x30EF JUMP JUMPDEST SWAP1 POP DUP1 DUP4 DUP3 MSTORE PUSH1 0x20 DUP3 ADD SWAP1 POP PUSH1 0x20 DUP5 MUL DUP4 ADD DUP6 DUP2 GT ISZERO PUSH2 0x3171 JUMPI PUSH2 0x3170 PUSH2 0x3136 JUMP JUMPDEST JUMPDEST DUP4 JUMPDEST DUP2 DUP2 LT ISZERO PUSH2 0x319A JUMPI DUP1 PUSH2 0x3186 DUP9 DUP3 PUSH2 0x2B68 JUMP JUMPDEST DUP5 MSTORE PUSH1 0x20 DUP5 ADD SWAP4 POP POP PUSH1 0x20 DUP2 ADD SWAP1 POP PUSH2 0x3173 JUMP JUMPDEST POP POP POP SWAP4 SWAP3 POP POP POP JUMP JUMPDEST PUSH1 0x0 DUP3 PUSH1 0x1F DUP4 ADD SLT PUSH2 0x31B9 JUMPI PUSH2 0x31B8 PUSH2 0x308A JUMP JUMPDEST JUMPDEST DUP2 CALLDATALOAD PUSH2 0x31C9 DUP5 DUP3 PUSH1 0x20 DUP7 ADD PUSH2 0x313B JUMP JUMPDEST SWAP2 POP POP SWAP3 SWAP2 POP POP JUMP JUMPDEST PUSH1 0x0 PUSH8 0xFFFFFFFFFFFFFFFF DUP3 GT ISZERO PUSH2 0x31ED JUMPI PUSH2 0x31EC PUSH2 0x308F JUMP JUMPDEST JUMPDEST PUSH1 0x20 DUP3 MUL SWAP1 POP PUSH1 0x20 DUP2 ADD SWAP1 POP SWAP2 SWAP1 POP JUMP JUMPDEST PUSH1 0x0 PUSH2 0x3211 PUSH2 0x320C DUP5 PUSH2 0x31D2 JUMP JUMPDEST PUSH2 0x30EF JUMP JUMPDEST SWAP1 POP DUP1 DUP4 DUP3 MSTORE PUSH1 0x20 DUP3 ADD SWAP1 POP PUSH1 0x20 DUP5 MUL DUP4 ADD DUP6 DUP2 GT ISZERO PUSH2 0x3234 JUMPI PUSH2 0x3233 PUSH2 0x3136 JUMP JUMPDEST JUMPDEST DUP4 JUMPDEST DUP2 DUP2 LT ISZERO PUSH2 0x325D JUMPI DUP1 PUSH2 0x3249 DUP9 DUP3 PUSH2 0x285B JUMP JUMPDEST DUP5 MSTORE PUSH1 0x20 DUP5 ADD SWAP4 POP POP PUSH1 0x20 DUP2 ADD SWAP1 POP PUSH2 0x3236 JUMP JUMPDEST POP POP POP SWAP4 SWAP3 POP POP POP JUMP JUMPDEST PUSH1 0x0 DUP3 PUSH1 0x1F DUP4 ADD SLT PUSH2 0x327C JUMPI PUSH2 0x327B PUSH2 0x308A JUMP JUMPDEST JUMPDEST DUP2 CALLDATALOAD PUSH2 0x328C DUP5 DUP3 PUSH1 0x20 DUP7 ADD PUSH2 0x31FE JUMP JUMPDEST SWAP2 POP POP SWAP3 SWAP2 POP POP JUMP JUMPDEST PUSH1 0x0 PUSH8 0xFFFFFFFFFFFFFFFF DUP3 GT ISZERO PUSH2 0x32B0 JUMPI PUSH2 0x32AF PUSH2 0x308F JUMP JUMPDEST JUMPDEST PUSH1 0x20 DUP3 MUL SWAP1 POP PUSH1 0x20 DUP2 ADD SWAP1 POP SWAP2 SWAP1 POP JUMP JUMPDEST PUSH1 0x0 DUP1 REVERT JUMPDEST PUSH1 0x0 PUSH8 0xFFFFFFFFFFFFFFFF DUP3 GT ISZERO PUSH2 0x32E1 JUMPI PUSH2 0x32E0 PUSH2 0x308F JUMP JUMPDEST JUMPDEST PUSH2 0x32EA DUP3 PUSH2 0x29FF JUMP JUMPDEST SWAP1 POP PUSH1 0x20 DUP2 ADD SWAP1 POP SWAP2 SWAP1 POP JUMP JUMPDEST DUP3 DUP2 DUP4 CALLDATACOPY PUSH1 0x0 DUP4 DUP4 ADD MSTORE POP POP POP JUMP JUMPDEST PUSH1 0x0 PUSH2 0x3319 PUSH2 0x3314 DUP5 PUSH2 0x32C6 JUMP JUMPDEST PUSH2 0x30EF JUMP JUMPDEST SWAP1 POP DUP3 DUP2 MSTORE PUSH1 0x20 DUP2 ADD DUP5 DUP5 DUP5 ADD GT ISZERO PUSH2 0x3335 JUMPI PUSH2 0x3334 PUSH2 0x32C1 JUMP JUMPDEST JUMPDEST PUSH2 0x3340 DUP5 DUP3 DUP6 PUSH2 0x32F7 JUMP JUMPDEST POP SWAP4 SWAP3 POP POP POP JUMP JUMPDEST PUSH1 0x0 DUP3 PUSH1 0x1F DUP4 ADD SLT PUSH2 0x335D JUMPI PUSH2 0x335C PUSH2 0x308A JUMP JUMPDEST JUMPDEST DUP2 CALLDATALOAD PUSH2 0x336D DUP5 DUP3 PUSH1 0x20 DUP7 ADD PUSH2 0x3306 JUMP JUMPDEST SWAP2 POP POP SWAP3 SWAP2 POP POP JUMP JUMPDEST PUSH1 0x0 PUSH2 0x3389 PUSH2 0x3384 DUP5 PUSH2 0x3295 JUMP JUMPDEST PUSH2 0x30EF JUMP JUMPDEST SWAP1 POP DUP1 DUP4 DUP3 MSTORE PUSH1 0x20 DUP3 ADD SWAP1 POP PUSH1 0x20 DUP5 MUL DUP4 ADD DUP6 DUP2 GT ISZERO PUSH2 0x33AC JUMPI PUSH2 0x33AB PUSH2 0x3136 JUMP JUMPDEST JUMPDEST DUP4 JUMPDEST DUP2 DUP2 LT ISZERO PUSH2 0x33F3 JUMPI DUP1 CALLDATALOAD PUSH8 0xFFFFFFFFFFFFFFFF DUP2 GT ISZERO PUSH2 0x33D1 JUMPI PUSH2 0x33D0 PUSH2 0x308A JUMP JUMPDEST JUMPDEST DUP1 DUP7 ADD PUSH2 0x33DE DUP10 DUP3 PUSH2 0x3348 JUMP JUMPDEST DUP6 MSTORE PUSH1 0x20 DUP6 ADD SWAP5 POP POP POP PUSH1 0x20 DUP2 ADD SWAP1 POP PUSH2 0x33AE JUMP JUMPDEST POP POP POP SWAP4 SWAP3 POP POP POP JUMP JUMPDEST PUSH1 0x0 DUP3 PUSH1 0x1F DUP4 ADD SLT PUSH2 0x3412 JUMPI PUSH2 0x3411 PUSH2 0x308A JUMP JUMPDEST JUMPDEST DUP2 CALLDATALOAD PUSH2 0x3422 DUP5 DUP3 PUSH1 0x20 DUP7 ADD PUSH2 0x3376 JUMP JUMPDEST SWAP2 POP POP SWAP3 SWAP2 POP POP JUMP JUMPDEST PUSH1 0x0 PUSH8 0xFFFFFFFFFFFFFFFF DUP3 GT ISZERO PUSH2 0x3446 JUMPI PUSH2 0x3445 PUSH2 0x308F JUMP JUMPDEST JUMPDEST PUSH2 0x344F DUP3 PUSH2 0x29FF JUMP JUMPDEST SWAP1 POP PUSH1 0x20 DUP2 ADD SWAP1 POP SWAP2 SWAP1 POP JUMP JUMPDEST PUSH1 0x0 PUSH2 0x346F PUSH2 0x346A DUP5 PUSH2 0x342B JUMP JUMPDEST PUSH2 0x30EF JUMP JUMPDEST SWAP1 POP DUP3 DUP2 MSTORE PUSH1 0x20 DUP2 ADD DUP5 DUP5 DUP5 ADD GT ISZERO PUSH2 0x348B JUMPI PUSH2 0x348A PUSH2 0x32C1 JUMP JUMPDEST JUMPDEST PUSH2 0x3496 DUP5 DUP3 DUP6 PUSH2 0x32F7 JUMP JUMPDEST POP SWAP4 SWAP3 POP POP POP JUMP JUMPDEST PUSH1 0x0 DUP3 PUSH1 0x1F DUP4 ADD SLT PUSH2 0x34B3 JUMPI PUSH2 0x34B2 PUSH2 0x308A JUMP JUMPDEST JUMPDEST DUP2 CALLDATALOAD PUSH2 0x34C3 DUP5 DUP3 PUSH1 0x20 DUP7 ADD PUSH2 0x345C JUMP JUMPDEST SWAP2 POP POP SWAP3 SWAP2 POP POP JUMP JUMPDEST PUSH1 0x0 DUP1 PUSH1 0x0 DUP1 PUSH1 0x80 DUP6 DUP8 SUB SLT ISZERO PUSH2 0x34E6 JUMPI PUSH2 0x34E5 PUSH2 0x2830 JUMP JUMPDEST JUMPDEST PUSH1 0x0 DUP6 ADD CALLDATALOAD PUSH8 0xFFFFFFFFFFFFFFFF DUP2 GT ISZERO PUSH2 0x3504 JUMPI PUSH2 0x3503 PUSH2 0x2835 JUMP JUMPDEST JUMPDEST PUSH2 0x3510 DUP8 DUP3 DUP9 ADD PUSH2 0x31A4 JUMP JUMPDEST SWAP5 POP POP PUSH1 0x20 DUP6 ADD CALLDATALOAD PUSH8 0xFFFFFFFFFFFFFFFF DUP2 GT ISZERO PUSH2 0x3531 JUMPI PUSH2 0x3530 PUSH2 0x2835 JUMP JUMPDEST JUMPDEST PUSH2 0x353D DUP8 DUP3 DUP9 ADD PUSH2 0x3267 JUMP JUMPDEST SWAP4 POP POP PUSH1 0x40 DUP6 ADD CALLDATALOAD PUSH8 0xFFFFFFFFFFFFFFFF DUP2 GT ISZERO PUSH2 0x355E JUMPI PUSH2 0x355D PUSH2 0x2835 JUMP JUMPDEST JUMPDEST PUSH2 0x356A DUP8 DUP3 DUP9 ADD PUSH2 0x33FD JUMP JUMPDEST SWAP3 POP POP PUSH1 0x60 DUP6 ADD CALLDATALOAD PUSH8 0xFFFFFFFFFFFFFFFF DUP2 GT ISZERO PUSH2 0x358B JUMPI PUSH2 0x358A PUSH2 0x2835 JUMP JUMPDEST JUMPDEST PUSH2 0x3597 DUP8 DUP3 DUP9 ADD PUSH2 0x349E JUMP JUMPDEST SWAP2 POP POP SWAP3 SWAP6 SWAP2 SWAP5 POP SWAP3 POP JUMP JUMPDEST PUSH1 0x0 PUSH1 0x20 DUP3 ADD SWAP1 POP PUSH2 0x35B8 PUSH1 0x0 DUP4 ADD DUP5 PUSH2 0x28F9 JUMP JUMPDEST SWAP3 SWAP2 POP POP JUMP JUMPDEST PUSH1 0x0 PUSH2 0x35C9 DUP3 PUSH2 0x2A97 JUMP JUMPDEST SWAP1 POP SWAP2 SWAP1 POP JUMP JUMPDEST PUSH2 0x35D9 DUP2 PUSH2 0x35BE JUMP JUMPDEST DUP3 MSTORE POP POP JUMP JUMPDEST PUSH1 0x0 PUSH1 0x20 DUP3 ADD SWAP1 POP PUSH2 0x35F4 PUSH1 0x0 DUP4 ADD DUP5 PUSH2 0x35D0 JUMP JUMPDEST SWAP3 SWAP2 POP POP JUMP JUMPDEST PUSH1 0x0 DUP1 PUSH1 0x40 DUP4 DUP6 SUB SLT ISZERO PUSH2 0x3611 JUMPI PUSH2 0x3610 PUSH2 0x2830 JUMP JUMPDEST JUMPDEST PUSH1 0x0 PUSH2 0x361F DUP6 DUP3 DUP7 ADD PUSH2 0x285B JUMP JUMPDEST SWAP3 POP POP PUSH1 0x20 PUSH2 0x3630 DUP6 DUP3 DUP7 ADD PUSH2 0x2B68 JUMP JUMPDEST SWAP2 POP POP SWAP3 POP SWAP3 SWAP1 POP JUMP JUMPDEST PUSH2 0x3643 DUP2 PUSH2 0x28ED JUMP JUMPDEST DUP3 MSTORE POP POP JUMP JUMPDEST PUSH1 0x0 PUSH12 0xFFFFFFFFFFFFFFFFFFFFFFFF DUP3 AND SWAP1 POP SWAP2 SWAP1 POP JUMP JUMPDEST PUSH2 0x366A DUP2 PUSH2 0x3649 JUMP JUMPDEST DUP3 MSTORE POP POP JUMP JUMPDEST PUSH1 0x60 DUP3 ADD PUSH1 0x0 DUP3 ADD MLOAD PUSH2 0x3686 PUSH1 0x0 DUP6 ADD DUP3 PUSH2 0x363A JUMP JUMPDEST POP PUSH1 0x20 DUP3 ADD MLOAD PUSH2 0x3699 PUSH1 0x20 DUP6 ADD DUP3 PUSH2 0x363A JUMP JUMPDEST POP PUSH1 0x40 DUP3 ADD MLOAD PUSH2 0x36AC PUSH1 0x40 DUP6 ADD DUP3 PUSH2 0x3661 JUMP JUMPDEST POP POP POP POP JUMP JUMPDEST PUSH1 0x0 PUSH1 0x60 DUP3 ADD SWAP1 POP PUSH2 0x36C7 PUSH1 0x0 DUP4 ADD DUP5 PUSH2 0x3670 JUMP JUMPDEST SWAP3 SWAP2 POP POP JUMP JUMPDEST PUSH32 0x4E487B7100000000000000000000000000000000000000000000000000000000 PUSH1 0x0 MSTORE PUSH1 0x22 PUSH1 0x4 MSTORE PUSH1 0x24 PUSH1 0x0 REVERT JUMPDEST PUSH1 0x0 PUSH1 0x2 DUP3 DIV SWAP1 POP PUSH1 0x1 DUP3 AND DUP1 PUSH2 0x3714 JUMPI PUSH1 0x7F DUP3 AND SWAP2 POP JUMPDEST PUSH1 0x20 DUP3 LT DUP2 EQ ISZERO PUSH2 0x3728 JUMPI PUSH2 0x3727 PUSH2 0x36CD JUMP JUMPDEST JUMPDEST POP SWAP2 SWAP1 POP JUMP JUMPDEST PUSH32 0x476F7665726E6F72416C7068613A3A5F5F6578656375746553657454696D656C PUSH1 0x0 DUP3 ADD MSTORE PUSH32 0x6F636B50656E64696E6741646D696E3A2073656E646572206D75737420626520 PUSH1 0x20 DUP3 ADD MSTORE PUSH32 0x676F7620677561726469616E0000000000000000000000000000000000000000 PUSH1 0x40 DUP3 ADD MSTORE POP JUMP JUMPDEST PUSH1 0x0 PUSH2 0x37B0 PUSH1 0x4C DUP4 PUSH2 0x29BB JUMP JUMPDEST SWAP2 POP PUSH2 0x37BB DUP3 PUSH2 0x372E JUMP JUMPDEST PUSH1 0x60 DUP3 ADD SWAP1 POP SWAP2 SWAP1 POP JUMP JUMPDEST PUSH1 0x0 PUSH1 0x20 DUP3 ADD SWAP1 POP DUP2 DUP2 SUB PUSH1 0x0 DUP4 ADD MSTORE PUSH2 0x37DF DUP2 PUSH2 0x37A3 JUMP JUMPDEST SWAP1 POP SWAP2 SWAP1 POP JUMP JUMPDEST PUSH1 0x0 DUP2 SWAP1 POP SWAP2 SWAP1 POP JUMP JUMPDEST PUSH1 0x0 PUSH2 0x380B PUSH2 0x3806 PUSH2 0x3801 DUP5 PUSH2 0x37E6 JUMP JUMPDEST PUSH2 0x2A6B JUMP JUMPDEST PUSH2 0x283A JUMP JUMPDEST SWAP1 POP SWAP2 SWAP1 POP JUMP JUMPDEST PUSH2 0x381B DUP2 PUSH2 0x37F0 JUMP JUMPDEST DUP3 MSTORE POP POP JUMP JUMPDEST PUSH1 0x0 DUP3 DUP3 MSTORE PUSH1 0x20 DUP3 ADD SWAP1 POP SWAP3 SWAP2 POP POP JUMP JUMPDEST PUSH1 0x0 PUSH2 0x383D DUP3 PUSH2 0x2DC6 JUMP JUMPDEST PUSH2 0x3847 DUP2 DUP6 PUSH2 0x3821 JUMP JUMPDEST SWAP4 POP PUSH2 0x3857 DUP2 DUP6 PUSH1 0x20 DUP7 ADD PUSH2 0x29CC JUMP JUMPDEST PUSH2 0x3860 DUP2 PUSH2 0x29FF JUMP JUMPDEST DUP5 ADD SWAP2 POP POP SWAP3 SWAP2 POP POP JUMP JUMPDEST PUSH1 0x0 PUSH1 0x80 DUP3 ADD SWAP1 POP PUSH2 0x3880 PUSH1 0x0 DUP4 ADD DUP8 PUSH2 0x28DE JUMP JUMPDEST PUSH2 0x388D PUSH1 0x20 DUP4 ADD DUP7 PUSH2 0x3812 JUMP JUMPDEST DUP2 DUP2 SUB PUSH1 0x40 DUP4 ADD MSTORE PUSH2 0x389F DUP2 DUP6 PUSH2 0x3832 JUMP JUMPDEST SWAP1 POP PUSH2 0x38AE PUSH1 0x60 DUP4 ADD DUP5 PUSH2 0x289D JUMP JUMPDEST SWAP6 SWAP5 POP POP POP POP POP JUMP JUMPDEST PUSH1 0x0 PUSH2 0x38CA PUSH2 0x38C5 DUP5 PUSH2 0x32C6 JUMP JUMPDEST PUSH2 0x30EF JUMP JUMPDEST SWAP1 POP DUP3 DUP2 MSTORE PUSH1 0x20 DUP2 ADD DUP5 DUP5 DUP5 ADD GT ISZERO PUSH2 0x38E6 JUMPI PUSH2 0x38E5 PUSH2 0x32C1 JUMP JUMPDEST JUMPDEST PUSH2 0x38F1 DUP5 DUP3 DUP6 PUSH2 0x29CC JUMP JUMPDEST POP SWAP4 SWAP3 POP POP POP JUMP JUMPDEST PUSH1 0x0 DUP3 PUSH1 0x1F DUP4 ADD SLT PUSH2 0x390E JUMPI PUSH2 0x390D PUSH2 0x308A JUMP JUMPDEST JUMPDEST DUP2 MLOAD PUSH2 0x391E DUP5 DUP3 PUSH1 0x20 DUP7 ADD PUSH2 0x38B7 JUMP JUMPDEST SWAP2 POP POP SWAP3 SWAP2 POP POP JUMP JUMPDEST PUSH1 0x0 PUSH1 0x20 DUP3 DUP5 SUB SLT ISZERO PUSH2 0x393D JUMPI PUSH2 0x393C PUSH2 0x2830 JUMP JUMPDEST JUMPDEST PUSH1 0x0 DUP3 ADD MLOAD PUSH8 0xFFFFFFFFFFFFFFFF DUP2 GT ISZERO PUSH2 0x395B JUMPI PUSH2 0x395A PUSH2 0x2835 JUMP JUMPDEST JUMPDEST PUSH2 0x3967 DUP5 DUP3 DUP6 ADD PUSH2 0x38F9 JUMP JUMPDEST SWAP2 POP POP SWAP3 SWAP2 POP POP JUMP JUMPDEST PUSH32 0x476F7665726E6F72416C7068613A3A73746174653A20696E76616C6964207072 PUSH1 0x0 DUP3 ADD MSTORE PUSH32 0x6F706F73616C2069640000000000000000000000000000000000000000000000 PUSH1 0x20 DUP3 ADD MSTORE POP JUMP JUMPDEST PUSH1 0x0 PUSH2 0x39CC PUSH1 0x29 DUP4 PUSH2 0x29BB JUMP JUMPDEST SWAP2 POP PUSH2 0x39D7 DUP3 PUSH2 0x3970 JUMP JUMPDEST PUSH1 0x40 DUP3 ADD SWAP1 POP SWAP2 SWAP1 POP JUMP JUMPDEST PUSH1 0x0 PUSH1 0x20 DUP3 ADD SWAP1 POP DUP2 DUP2 SUB PUSH1 0x0 DUP4 ADD MSTORE PUSH2 0x39FB DUP2 PUSH2 0x39BF JUMP JUMPDEST SWAP1 POP SWAP2 SWAP1 POP JUMP JUMPDEST PUSH1 0x0 DUP2 MLOAD SWAP1 POP PUSH2 0x3A11 DUP2 PUSH2 0x2844 JUMP JUMPDEST SWAP3 SWAP2 POP POP JUMP JUMPDEST PUSH1 0x0 PUSH1 0x20 DUP3 DUP5 SUB SLT ISZERO PUSH2 0x3A2D JUMPI PUSH2 0x3A2C PUSH2 0x2830 JUMP JUMPDEST JUMPDEST PUSH1 0x0 PUSH2 0x3A3B DUP5 DUP3 DUP6 ADD PUSH2 0x3A02 JUMP JUMPDEST SWAP2 POP POP SWAP3 SWAP2 POP POP JUMP JUMPDEST PUSH32 0x476F7665726E6F72416C7068613A3A63616E63656C3A2063616E6E6F74206361 PUSH1 0x0 DUP3 ADD MSTORE PUSH32 0x6E63656C2065786563757465642070726F706F73616C00000000000000000000 PUSH1 0x20 DUP3 ADD MSTORE POP JUMP JUMPDEST PUSH1 0x0 PUSH2 0x3AA0 PUSH1 0x36 DUP4 PUSH2 0x29BB JUMP JUMPDEST SWAP2 POP PUSH2 0x3AAB DUP3 PUSH2 0x3A44 JUMP JUMPDEST PUSH1 0x40 DUP3 ADD SWAP1 POP SWAP2 SWAP1 POP JUMP JUMPDEST PUSH1 0x0 PUSH1 0x20 DUP3 ADD SWAP1 POP DUP2 DUP2 SUB PUSH1 0x0 DUP4 ADD MSTORE PUSH2 0x3ACF DUP2 PUSH2 0x3A93 JUMP JUMPDEST SWAP1 POP SWAP2 SWAP1 POP JUMP JUMPDEST PUSH1 0x0 PUSH1 0x40 DUP3 ADD SWAP1 POP PUSH2 0x3AEB PUSH1 0x0 DUP4 ADD DUP6 PUSH2 0x28DE JUMP JUMPDEST PUSH2 0x3AF8 PUSH1 0x20 DUP4 ADD DUP5 PUSH2 0x289D JUMP JUMPDEST SWAP4 SWAP3 POP POP POP JUMP JUMPDEST PUSH2 0x3B08 DUP2 PUSH2 0x3649 JUMP JUMPDEST DUP2 EQ PUSH2 0x3B13 JUMPI PUSH1 0x0 DUP1 REVERT JUMPDEST POP JUMP JUMPDEST PUSH1 0x0 DUP2 MLOAD SWAP1 POP PUSH2 0x3B25 DUP2 PUSH2 0x3AFF JUMP JUMPDEST SWAP3 SWAP2 POP POP JUMP JUMPDEST PUSH1 0x0 PUSH1 0x20 DUP3 DUP5 SUB SLT ISZERO PUSH2 0x3B41 JUMPI PUSH2 0x3B40 PUSH2 0x2830 JUMP JUMPDEST JUMPDEST PUSH1 0x0 PUSH2 0x3B4F DUP5 DUP3 DUP6 ADD PUSH2 0x3B16 JUMP JUMPDEST SWAP2 POP POP SWAP3 SWAP2 POP POP JUMP JUMPDEST PUSH32 0x476F7665726E6F72416C7068613A3A63616E63656C3A2070726F706F73657220 PUSH1 0x0 DUP3 ADD MSTORE PUSH32 0x61626F7665207468726573686F6C640000000000000000000000000000000000 PUSH1 0x20 DUP3 ADD MSTORE POP JUMP JUMPDEST PUSH1 0x0 PUSH2 0x3BB4 PUSH1 0x2F DUP4 PUSH2 0x29BB JUMP JUMPDEST SWAP2 POP PUSH2 0x3BBF DUP3 PUSH2 0x3B58 JUMP JUMPDEST PUSH1 0x40 DUP3 ADD SWAP1 POP SWAP2 SWAP1 POP JUMP JUMPDEST PUSH1 0x0 PUSH1 0x20 DUP3 ADD SWAP1 POP DUP2 DUP2 SUB PUSH1 0x0 DUP4 ADD MSTORE PUSH2 0x3BE3 DUP2 PUSH2 0x3BA7 JUMP JUMPDEST SWAP1 POP SWAP2 SWAP1 POP JUMP JUMPDEST PUSH32 0x4E487B7100000000000000000000000000000000000000000000000000000000 PUSH1 0x0 MSTORE PUSH1 0x32 PUSH1 0x4 MSTORE PUSH1 0x24 PUSH1 0x0 REVERT JUMPDEST PUSH1 0x0 DUP2 SWAP1 POP DUP2 PUSH1 0x0 MSTORE PUSH1 0x20 PUSH1 0x0 KECCAK256 SWAP1 POP SWAP2 SWAP1 POP JUMP JUMPDEST PUSH1 0x0 DUP2 SLOAD PUSH2 0x3C3B DUP2 PUSH2 0x36FC JUMP JUMPDEST PUSH2 0x3C45 DUP2 DUP7 PUSH2 0x3821 JUMP JUMPDEST SWAP5 POP PUSH1 0x1 DUP3 AND PUSH1 0x0 DUP2 EQ PUSH2 0x3C60 JUMPI PUSH1 0x1 DUP2 EQ PUSH2 0x3C72 JUMPI PUSH2 0x3CA5 JUMP JUMPDEST PUSH1 0xFF NOT DUP4 AND DUP7 MSTORE PUSH1 0x20 DUP7 ADD SWAP4 POP PUSH2 0x3CA5 JUMP JUMPDEST PUSH2 0x3C7B DUP6 PUSH2 0x3C19 JUMP JUMPDEST PUSH1 0x0 JUMPDEST DUP4 DUP2 LT ISZERO PUSH2 0x3C9D JUMPI DUP2 SLOAD DUP2 DUP10 ADD MSTORE PUSH1 0x1 DUP3 ADD SWAP2 POP PUSH1 0x20 DUP2 ADD SWAP1 POP PUSH2 0x3C7E JUMP JUMPDEST DUP1 DUP9 ADD SWAP6 POP POP POP JUMPDEST POP POP POP SWAP3 SWAP2 POP POP JUMP JUMPDEST PUSH1 0x0 PUSH1 0x80 DUP3 ADD SWAP1 POP PUSH2 0x3CC3 PUSH1 0x0 DUP4 ADD DUP8 PUSH2 0x28DE JUMP JUMPDEST PUSH2 0x3CD0 PUSH1 0x20 DUP4 ADD DUP7 PUSH2 0x289D JUMP JUMPDEST DUP2 DUP2 SUB PUSH1 0x40 DUP4 ADD MSTORE PUSH2 0x3CE2 DUP2 DUP6 PUSH2 0x3C2E JUMP JUMPDEST SWAP1 POP PUSH2 0x3CF1 PUSH1 0x60 DUP4 ADD DUP5 PUSH2 0x289D JUMP JUMPDEST SWAP6 SWAP5 POP POP POP POP POP JUMP JUMPDEST PUSH32 0x4E487B7100000000000000000000000000000000000000000000000000000000 PUSH1 0x0 MSTORE PUSH1 0x11 PUSH1 0x4 MSTORE PUSH1 0x24 PUSH1 0x0 REVERT JUMPDEST PUSH1 0x0 PUSH2 0x3D34 DUP3 PUSH2 0x283A JUMP JUMPDEST SWAP2 POP PUSH32 0xFFFFFFFFFFFFFFFFFFFFFFFFFFFFFFFFFFFFFFFFFFFFFFFFFFFFFFFFFFFFFFFF DUP3 EQ ISZERO PUSH2 0x3D67 JUMPI PUSH2 0x3D66 PUSH2 0x3CFA JUMP JUMPDEST JUMPDEST PUSH1 0x1 DUP3 ADD SWAP1 POP SWAP2 SWAP1 POP JUMP JUMPDEST PUSH1 0x0 DUP2 SWAP1 POP SWAP3 SWAP2 POP POP JUMP JUMPDEST PUSH1 0x0 DUP2 SWAP1 POP DUP2 PUSH1 0x0 MSTORE PUSH1 0x20 PUSH1 0x0 KECCAK256 SWAP1 POP SWAP2 SWAP1 POP JUMP JUMPDEST PUSH1 0x0 DUP2 SLOAD PUSH2 0x3D9F DUP2 PUSH2 0x36FC JUMP JUMPDEST PUSH2 0x3DA9 DUP2 DUP7 PUSH2 0x3D72 JUMP JUMPDEST SWAP5 POP PUSH1 0x1 DUP3 AND PUSH1 0x0 DUP2 EQ PUSH2 0x3DC4 JUMPI PUSH1 0x1 DUP2 EQ PUSH2 0x3DD5 JUMPI PUSH2 0x3E08 JUMP JUMPDEST PUSH1 0xFF NOT DUP4 AND DUP7 MSTORE DUP2 DUP7 ADD SWAP4 POP PUSH2 0x3E08 JUMP JUMPDEST PUSH2 0x3DDE DUP6 PUSH2 0x3D7D JUMP JUMPDEST PUSH1 0x0 JUMPDEST DUP4 DUP2 LT ISZERO PUSH2 0x3E00 JUMPI DUP2 SLOAD DUP2 DUP10 ADD MSTORE PUSH1 0x1 DUP3 ADD SWAP2 POP PUSH1 0x20 DUP2 ADD SWAP1 POP PUSH2 0x3DE1 JUMP JUMPDEST DUP4 DUP9 ADD SWAP6 POP POP POP JUMPDEST POP POP POP SWAP3 SWAP2 POP POP JUMP JUMPDEST PUSH1 0x0 PUSH2 0x3E1D DUP3 DUP5 PUSH2 0x3D92 JUMP JUMPDEST SWAP2 POP DUP2 SWAP1 POP SWAP3 SWAP2 POP POP JUMP JUMPDEST PUSH1 0x0 PUSH1 0x80 DUP3 ADD SWAP1 POP PUSH2 0x3E3D PUSH1 0x0 DUP4 ADD DUP8 PUSH2 0x2BB4 JUMP JUMPDEST PUSH2 0x3E4A PUSH1 0x20 DUP4 ADD DUP7 PUSH2 0x2BB4 JUMP JUMPDEST PUSH2 0x3E57 PUSH1 0x40 DUP4 ADD DUP6 PUSH2 0x289D JUMP JUMPDEST PUSH2 0x3E64 PUSH1 0x60 DUP4 ADD DUP5 PUSH2 0x28DE JUMP JUMPDEST SWAP6 SWAP5 POP POP POP POP POP JUMP JUMPDEST PUSH1 0x0 PUSH1 0x60 DUP3 ADD SWAP1 POP PUSH2 0x3E82 PUSH1 0x0 DUP4 ADD DUP7 PUSH2 0x2BB4 JUMP JUMPDEST PUSH2 0x3E8F PUSH1 0x20 DUP4 ADD DUP6 PUSH2 0x289D JUMP JUMPDEST PUSH2 0x3E9C PUSH1 0x40 DUP4 ADD DUP5 PUSH2 0x28F9 JUMP JUMPDEST SWAP5 SWAP4 POP POP POP POP JUMP JUMPDEST PUSH1 0x0 DUP2 SWAP1 POP SWAP3 SWAP2 POP POP JUMP JUMPDEST PUSH32 0x1901000000000000000000000000000000000000000000000000000000000000 PUSH1 0x0 DUP3 ADD MSTORE POP JUMP JUMPDEST PUSH1 0x0 PUSH2 0x3EE5 PUSH1 0x2 DUP4 PUSH2 0x3EA4 JUMP JUMPDEST SWAP2 POP PUSH2 0x3EF0 DUP3 PUSH2 0x3EAF JUMP JUMPDEST PUSH1 0x2 DUP3 ADD SWAP1 POP SWAP2 SWAP1 POP JUMP JUMPDEST PUSH1 0x0 DUP2 SWAP1 POP SWAP2 SWAP1 POP JUMP JUMPDEST PUSH2 0x3F16 PUSH2 0x3F11 DUP3 PUSH2 0x2BAA JUMP JUMPDEST PUSH2 0x3EFB JUMP JUMPDEST DUP3 MSTORE POP POP JUMP JUMPDEST PUSH1 0x0 PUSH2 0x3F27 DUP3 PUSH2 0x3ED8 JUMP JUMPDEST SWAP2 POP PUSH2 0x3F33 DUP3 DUP6 PUSH2 0x3F05 JUMP JUMPDEST PUSH1 0x20 DUP3 ADD SWAP2 POP PUSH2 0x3F43 DUP3 DUP5 PUSH2 0x3F05 JUMP JUMPDEST PUSH1 0x20 DUP3 ADD SWAP2 POP DUP2 SWAP1 POP SWAP4 SWAP3 POP POP POP JUMP JUMPDEST PUSH2 0x3F5C DUP2 PUSH2 0x2FAA JUMP JUMPDEST DUP3 MSTORE POP POP JUMP JUMPDEST PUSH1 0x0 PUSH1 0x80 DUP3 ADD SWAP1 POP PUSH2 0x3F77 PUSH1 0x0 DUP4 ADD DUP8 PUSH2 0x2BB4 JUMP JUMPDEST PUSH2 0x3F84 PUSH1 0x20 DUP4 ADD DUP7 PUSH2 0x3F53 JUMP JUMPDEST PUSH2 0x3F91 PUSH1 0x40 DUP4 ADD DUP6 PUSH2 0x2BB4 JUMP JUMPDEST PUSH2 0x3F9E PUSH1 0x60 DUP4 ADD DUP5 PUSH2 0x2BB4 JUMP JUMPDEST SWAP6 SWAP5 POP POP POP POP POP JUMP JUMPDEST PUSH32 0x476F7665726E6F72416C7068613A3A63617374566F746542795369673A20696E PUSH1 0x0 DUP3 ADD MSTORE PUSH32 0x76616C6964207369676E61747572650000000000000000000000000000000000 PUSH1 0x20 DUP3 ADD MSTORE POP JUMP JUMPDEST PUSH1 0x0 PUSH2 0x4003 PUSH1 0x2F DUP4 PUSH2 0x29BB JUMP JUMPDEST SWAP2 POP PUSH2 0x400E DUP3 PUSH2 0x3FA7 JUMP JUMPDEST PUSH1 0x40 DUP3 ADD SWAP1 POP SWAP2 SWAP1 POP JUMP JUMPDEST PUSH1 0x0 PUSH1 0x20 DUP3 ADD SWAP1 POP DUP2 DUP2 SUB PUSH1 0x0 DUP4 ADD MSTORE PUSH2 0x4032 DUP2 PUSH2 0x3FF6 JUMP JUMPDEST SWAP1 POP SWAP2 SWAP1 POP JUMP JUMPDEST PUSH32 0x476F7665726E6F72416C7068613A3A5F5F61626469636174653A2073656E6465 PUSH1 0x0 DUP3 ADD MSTORE PUSH32 0x72206D75737420626520676F7620677561726469616E00000000000000000000 PUSH1 0x20 DUP3 ADD MSTORE POP JUMP JUMPDEST PUSH1 0x0 PUSH2 0x4095 PUSH1 0x36 DUP4 PUSH2 0x29BB JUMP JUMPDEST SWAP2 POP PUSH2 0x40A0 DUP3 PUSH2 0x4039 JUMP JUMPDEST PUSH1 0x40 DUP3 ADD SWAP1 POP SWAP2 SWAP1 POP JUMP JUMPDEST PUSH1 0x0 PUSH1 0x20 DUP3 ADD SWAP1 POP DUP2 DUP2 SUB PUSH1 0x0 DUP4 ADD MSTORE PUSH2 0x40C4 DUP2 PUSH2 0x4088 JUMP JUMPDEST SWAP1 POP SWAP2 SWAP1 POP JUMP JUMPDEST PUSH32 0x476F7665726E6F72416C7068613A3A70726F706F73653A2070726F706F73616C PUSH1 0x0 DUP3 ADD MSTORE PUSH32 0x2066756E6374696F6E20696E666F726D6174696F6E206172697479206D69736D PUSH1 0x20 DUP3 ADD MSTORE PUSH32 0x6174636800000000000000000000000000000000000000000000000000000000 PUSH1 0x40 DUP3 ADD MSTORE POP JUMP JUMPDEST PUSH1 0x0 PUSH2 0x414D PUSH1 0x44 DUP4 PUSH2 0x29BB JUMP JUMPDEST SWAP2 POP PUSH2 0x4158 DUP3 PUSH2 0x40CB JUMP JUMPDEST PUSH1 0x60 DUP3 ADD SWAP1 POP SWAP2 SWAP1 POP JUMP JUMPDEST PUSH1 0x0 PUSH1 0x20 DUP3 ADD SWAP1 POP DUP2 DUP2 SUB PUSH1 0x0 DUP4 ADD MSTORE PUSH2 0x417C DUP2 PUSH2 0x4140 JUMP JUMPDEST SWAP1 POP SWAP2 SWAP1 POP JUMP JUMPDEST PUSH32 0x476F7665726E6F72416C7068613A3A70726F706F73653A206D7573742070726F PUSH1 0x0 DUP3 ADD MSTORE PUSH32 0x7669646520616374696F6E730000000000000000000000000000000000000000 PUSH1 0x20 DUP3 ADD MSTORE POP JUMP JUMPDEST PUSH1 0x0 PUSH2 0x41DF PUSH1 0x2C DUP4 PUSH2 0x29BB JUMP JUMPDEST SWAP2 POP PUSH2 0x41EA DUP3 PUSH2 0x4183 JUMP JUMPDEST PUSH1 0x40 DUP3 ADD SWAP1 POP SWAP2 SWAP1 POP JUMP JUMPDEST PUSH1 0x0 PUSH1 0x20 DUP3 ADD SWAP1 POP DUP2 DUP2 SUB PUSH1 0x0 DUP4 ADD MSTORE PUSH2 0x420E DUP2 PUSH2 0x41D2 JUMP JUMPDEST SWAP1 POP SWAP2 SWAP1 POP JUMP JUMPDEST PUSH32 0x476F7665726E6F72416C7068613A3A70726F706F73653A20746F6F206D616E79 PUSH1 0x0 DUP3 ADD MSTORE PUSH32 0x20616374696F6E73000000000000000000000000000000000000000000000000 PUSH1 0x20 DUP3 ADD MSTORE POP JUMP JUMPDEST PUSH1 0x0 PUSH2 0x4271 PUSH1 0x28 DUP4 PUSH2 0x29BB JUMP JUMPDEST SWAP2 POP PUSH2 0x427C DUP3 PUSH2 0x4215 JUMP JUMPDEST PUSH1 0x40 DUP3 ADD SWAP1 POP SWAP2 SWAP1 POP JUMP JUMPDEST PUSH1 0x0 PUSH1 0x20 DUP3 ADD SWAP1 POP DUP2 DUP2 SUB PUSH1 0x0 DUP4 ADD MSTORE PUSH2 0x42A0 DUP2 PUSH2 0x4264 JUMP JUMPDEST SWAP1 POP SWAP2 SWAP1 POP JUMP JUMPDEST PUSH32 0x476F7665726E6F72416C7068613A3A70726F706F73653A206F6E65206C697665 PUSH1 0x0 DUP3 ADD MSTORE PUSH32 0x2070726F706F73616C207065722070726F706F7365722C20666F756E6420616E PUSH1 0x20 DUP3 ADD MSTORE PUSH32 0x20616C7265616479206163746976652070726F706F73616C0000000000000000 PUSH1 0x40 DUP3 ADD MSTORE POP JUMP JUMPDEST PUSH1 0x0 PUSH2 0x4329 PUSH1 0x58 DUP4 PUSH2 0x29BB JUMP JUMPDEST SWAP2 POP PUSH2 0x4334 DUP3 PUSH2 0x42A7 JUMP JUMPDEST PUSH1 0x60 DUP3 ADD SWAP1 POP SWAP2 SWAP1 POP JUMP JUMPDEST PUSH1 0x0 PUSH1 0x20 DUP3 ADD SWAP1 POP DUP2 DUP2 SUB PUSH1 0x0 DUP4 ADD MSTORE PUSH2 0x4358 DUP2 PUSH2 0x431C JUMP JUMPDEST SWAP1 POP SWAP2 SWAP1 POP JUMP JUMPDEST PUSH32 0x476F7665726E6F72416C7068613A3A70726F706F73653A206F6E65206C697665 PUSH1 0x0 DUP3 ADD MSTORE PUSH32 0x2070726F706F73616C207065722070726F706F7365722C20666F756E6420616E PUSH1 0x20 DUP3 ADD MSTORE PUSH32 0x20616C72656164792070656E64696E672070726F706F73616C00000000000000 PUSH1 0x40 DUP3 ADD MSTORE POP JUMP JUMPDEST PUSH1 0x0 PUSH2 0x43E1 PUSH1 0x59 DUP4 PUSH2 0x29BB JUMP JUMPDEST SWAP2 POP PUSH2 0x43EC DUP3 PUSH2 0x435F JUMP JUMPDEST PUSH1 0x60 DUP3 ADD SWAP1 POP SWAP2 SWAP1 POP JUMP JUMPDEST PUSH1 0x0 PUSH1 0x20 DUP3 ADD SWAP1 POP DUP2 DUP2 SUB PUSH1 0x0 DUP4 ADD MSTORE PUSH2 0x4410 DUP2 PUSH2 0x43D4 JUMP JUMPDEST SWAP1 POP SWAP2 SWAP1 POP JUMP JUMPDEST PUSH1 0x0 PUSH2 0x100 DUP3 ADD SWAP1 POP PUSH2 0x442D PUSH1 0x0 DUP4 ADD DUP12 PUSH2 0x289D JUMP JUMPDEST PUSH2 0x443A PUSH1 0x20 DUP4 ADD DUP11 PUSH2 0x28DE JUMP JUMPDEST DUP2 DUP2 SUB PUSH1 0x40 DUP4 ADD MSTORE PUSH2 0x444C DUP2 DUP10 PUSH2 0x2C7E JUMP JUMPDEST SWAP1 POP DUP2 DUP2 SUB PUSH1 0x60 DUP4 ADD MSTORE PUSH2 0x4460 DUP2 DUP9 PUSH2 0x2D3C JUMP JUMPDEST SWAP1 POP DUP2 DUP2 SUB PUSH1 0x80 DUP4 ADD MSTORE PUSH2 0x4474 DUP2 DUP8 PUSH2 0x2E3C JUMP JUMPDEST SWAP1 POP PUSH2 0x4483 PUSH1 0xA0 DUP4 ADD DUP7 PUSH2 0x289D JUMP JUMPDEST PUSH2 0x4490 PUSH1 0xC0 DUP4 ADD DUP6 PUSH2 0x289D JUMP JUMPDEST DUP2 DUP2 SUB PUSH1 0xE0 DUP4 ADD MSTORE PUSH2 0x44A2 DUP2 DUP5 PUSH2 0x2A10 JUMP JUMPDEST SWAP1 POP SWAP10 SWAP9 POP POP POP POP POP POP POP POP POP JUMP JUMPDEST PUSH32 0x476F7665726E6F72416C7068613A3A5F5F717565756553657454696D656C6F63 PUSH1 0x0 DUP3 ADD MSTORE PUSH32 0x6B50656E64696E6741646D696E3A2073656E646572206D75737420626520676F PUSH1 0x20 DUP3 ADD MSTORE PUSH32 0x7620677561726469616E00000000000000000000000000000000000000000000 PUSH1 0x40 DUP3 ADD MSTORE POP JUMP JUMPDEST PUSH1 0x0 PUSH2 0x4533 PUSH1 0x4A DUP4 PUSH2 0x29BB JUMP JUMPDEST SWAP2 POP PUSH2 0x453E DUP3 PUSH2 0x44B1 JUMP JUMPDEST PUSH1 0x60 DUP3 ADD SWAP1 POP SWAP2 SWAP1 POP JUMP JUMPDEST PUSH1 0x0 PUSH1 0x20 DUP3 ADD SWAP1 POP DUP2 DUP2 SUB PUSH1 0x0 DUP4 ADD MSTORE PUSH2 0x4562 DUP2 PUSH2 0x4526 JUMP JUMPDEST SWAP1 POP SWAP2 SWAP1 POP JUMP JUMPDEST PUSH1 0x0 DUP2 MLOAD SWAP1 POP PUSH2 0x4578 DUP2 PUSH2 0x2FE3 JUMP JUMPDEST SWAP3 SWAP2 POP POP JUMP JUMPDEST PUSH1 0x0 PUSH1 0x20 DUP3 DUP5 SUB SLT ISZERO PUSH2 0x4594 JUMPI PUSH2 0x4593 PUSH2 0x2830 JUMP JUMPDEST JUMPDEST PUSH1 0x0 PUSH2 0x45A2 DUP5 DUP3 DUP6 ADD PUSH2 0x4569 JUMP JUMPDEST SWAP2 POP POP SWAP3 SWAP2 POP POP JUMP JUMPDEST PUSH32 0x476F7665726E6F72416C7068613A3A5F5F61636365707441646D696E3A207365 PUSH1 0x0 DUP3 ADD MSTORE PUSH32 0x6E646572206D75737420626520676F7620677561726469616E00000000000000 PUSH1 0x20 DUP3 ADD MSTORE POP JUMP JUMPDEST PUSH1 0x0 PUSH2 0x4607 PUSH1 0x39 DUP4 PUSH2 0x29BB JUMP JUMPDEST SWAP2 POP PUSH2 0x4612 DUP3 PUSH2 0x45AB JUMP JUMPDEST PUSH1 0x40 DUP3 ADD SWAP1 POP SWAP2 SWAP1 POP JUMP JUMPDEST PUSH1 0x0 PUSH1 0x20 DUP3 ADD SWAP1 POP DUP2 DUP2 SUB PUSH1 0x0 DUP4 ADD MSTORE PUSH2 0x4636 DUP2 PUSH2 0x45FA JUMP JUMPDEST SWAP1 POP SWAP2 SWAP1 POP JUMP JUMPDEST PUSH32 0x476F7665726E6F72416C7068613A3A71756575653A2070726F706F73616C2063 PUSH1 0x0 DUP3 ADD MSTORE PUSH32 0x616E206F6E6C7920626520717565756564206966206974206973207375636365 PUSH1 0x20 DUP3 ADD MSTORE PUSH32 0x6564656400000000000000000000000000000000000000000000000000000000 PUSH1 0x40 DUP3 ADD MSTORE POP JUMP JUMPDEST PUSH1 0x0 PUSH2 0x46BF PUSH1 0x44 DUP4 PUSH2 0x29BB JUMP JUMPDEST SWAP2 POP PUSH2 0x46CA DUP3 PUSH2 0x463D JUMP JUMPDEST PUSH1 0x60 DUP3 ADD SWAP1 POP SWAP2 SWAP1 POP JUMP JUMPDEST PUSH1 0x0 PUSH1 0x20 DUP3 ADD SWAP1 POP DUP2 DUP2 SUB PUSH1 0x0 DUP4 ADD MSTORE PUSH2 0x46EE DUP2 PUSH2 0x46B2 JUMP JUMPDEST SWAP1 POP SWAP2 SWAP1 POP JUMP JUMPDEST PUSH1 0x0 PUSH1 0x40 DUP3 ADD SWAP1 POP PUSH2 0x470A PUSH1 0x0 DUP4 ADD DUP6 PUSH2 0x289D JUMP JUMPDEST PUSH2 0x4717 PUSH1 0x20 DUP4 ADD DUP5 PUSH2 0x289D JUMP JUMPDEST SWAP4 SWAP3 POP POP POP JUMP JUMPDEST PUSH32 0x476F7665726E6F72416C7068613A3A657865637574653A2070726F706F73616C PUSH1 0x0 DUP3 ADD MSTORE PUSH32 0x2063616E206F6E6C792062652065786563757465642069662069742069732071 PUSH1 0x20 DUP3 ADD MSTORE PUSH32 0x7565756564000000000000000000000000000000000000000000000000000000 PUSH1 0x40 DUP3 ADD MSTORE POP JUMP JUMPDEST PUSH1 0x0 PUSH2 0x47A0 PUSH1 0x45 DUP4 PUSH2 0x29BB JUMP JUMPDEST SWAP2 POP PUSH2 0x47AB DUP3 PUSH2 0x471E JUMP JUMPDEST PUSH1 0x60 DUP3 ADD SWAP1 POP SWAP2 SWAP1 POP JUMP JUMPDEST PUSH1 0x0 PUSH1 0x20 DUP3 ADD SWAP1 POP DUP2 DUP2 SUB PUSH1 0x0 DUP4 ADD MSTORE PUSH2 0x47CF DUP2 PUSH2 0x4793 JUMP JUMPDEST SWAP1 POP SWAP2 SWAP1 POP JUMP JUMPDEST PUSH32 0x476F7665726E6F72416C7068613A3A5F63617374566F74653A20766F74696E67 PUSH1 0x0 DUP3 ADD MSTORE PUSH32 0x20697320636C6F73656400000000000000000000000000000000000000000000 PUSH1 0x20 DUP3 ADD MSTORE POP JUMP JUMPDEST PUSH1 0x0 PUSH2 0x4832 PUSH1 0x2A DUP4 PUSH2 0x29BB JUMP JUMPDEST SWAP2 POP PUSH2 0x483D DUP3 PUSH2 0x47D6 JUMP JUMPDEST PUSH1 0x40 DUP3 ADD SWAP1 POP SWAP2 SWAP1 POP JUMP JUMPDEST PUSH1 0x0 PUSH1 0x20 DUP3 ADD SWAP1 POP DUP2 DUP2 SUB PUSH1 0x0 DUP4 ADD MSTORE PUSH2 0x4861 DUP2 PUSH2 0x4825 JUMP JUMPDEST SWAP1 POP SWAP2 SWAP1 POP JUMP JUMPDEST PUSH32 0x476F7665726E6F72416C7068613A3A5F63617374566F74653A20766F74657220 PUSH1 0x0 DUP3 ADD MSTORE PUSH32 0x616C726561647920766F74656400000000000000000000000000000000000000 PUSH1 0x20 DUP3 ADD MSTORE POP JUMP JUMPDEST PUSH1 0x0 PUSH2 0x48C4 PUSH1 0x2D DUP4 PUSH2 0x29BB JUMP JUMPDEST SWAP2 POP PUSH2 0x48CF DUP3 PUSH2 0x4868 JUMP JUMPDEST PUSH1 0x40 DUP3 ADD SWAP1 POP SWAP2 SWAP1 POP JUMP JUMPDEST PUSH1 0x0 PUSH1 0x20 DUP3 ADD SWAP1 POP DUP2 DUP2 SUB PUSH1 0x0 DUP4 ADD MSTORE PUSH2 0x48F3 DUP2 PUSH2 0x48B7 JUMP JUMPDEST SWAP1 POP SWAP2 SWAP1 POP JUMP JUMPDEST PUSH1 0x0 PUSH2 0x4915 PUSH2 0x4910 PUSH2 0x490B DUP5 PUSH2 0x3649 JUMP JUMPDEST PUSH2 0x2A6B JUMP JUMPDEST PUSH2 0x283A JUMP JUMPDEST SWAP1 POP SWAP2 SWAP1 POP JUMP JUMPDEST PUSH2 0x4925 DUP2 PUSH2 0x48FA JUMP JUMPDEST DUP3 MSTORE POP POP JUMP JUMPDEST PUSH1 0x0 PUSH1 0x80 DUP3 ADD SWAP1 POP PUSH2 0x4940 PUSH1 0x0 DUP4 ADD DUP8 PUSH2 0x28DE JUMP JUMPDEST PUSH2 0x494D PUSH1 0x20 DUP4 ADD DUP7 PUSH2 0x289D JUMP JUMPDEST PUSH2 0x495A PUSH1 0x40 DUP4 ADD DUP6 PUSH2 0x28F9 JUMP JUMPDEST PUSH2 0x4967 PUSH1 0x60 DUP4 ADD DUP5 PUSH2 0x491C JUMP JUMPDEST SWAP6 SWAP5 POP POP POP POP POP JUMP JUMPDEST PUSH1 0x0 PUSH2 0x497B DUP3 PUSH2 0x283A JUMP JUMPDEST SWAP2 POP PUSH2 0x4986 DUP4 PUSH2 0x283A JUMP JUMPDEST SWAP3 POP DUP3 PUSH32 0xFFFFFFFFFFFFFFFFFFFFFFFFFFFFFFFFFFFFFFFFFFFFFFFFFFFFFFFFFFFFFFFF SUB DUP3 GT ISZERO PUSH2 0x49BB JUMPI PUSH2 0x49BA PUSH2 0x3CFA JUMP JUMPDEST JUMPDEST DUP3 DUP3 ADD SWAP1 POP SWAP3 SWAP2 POP POP JUMP JUMPDEST PUSH32 0x6164646974696F6E206F766572666C6F77000000000000000000000000000000 PUSH1 0x0 DUP3 ADD MSTORE POP JUMP JUMPDEST PUSH1 0x0 PUSH2 0x49FC PUSH1 0x11 DUP4 PUSH2 0x29BB JUMP JUMPDEST SWAP2 POP PUSH2 0x4A07 DUP3 PUSH2 0x49C6 JUMP JUMPDEST PUSH1 0x20 DUP3 ADD SWAP1 POP SWAP2 SWAP1 POP JUMP JUMPDEST PUSH1 0x0 PUSH1 0x20 DUP3 ADD SWAP1 POP DUP2 DUP2 SUB PUSH1 0x0 DUP4 ADD MSTORE PUSH2 0x4A2B DUP2 PUSH2 0x49EF JUMP JUMPDEST SWAP1 POP SWAP2 SWAP1 POP JUMP JUMPDEST PUSH32 0x7375627472616374696F6E20756E646572666C6F770000000000000000000000 PUSH1 0x0 DUP3 ADD MSTORE POP JUMP JUMPDEST PUSH1 0x0 PUSH2 0x4A68 PUSH1 0x15 DUP4 PUSH2 0x29BB JUMP JUMPDEST SWAP2 POP PUSH2 0x4A73 DUP3 PUSH2 0x4A32 JUMP JUMPDEST PUSH1 0x20 DUP3 ADD SWAP1 POP SWAP2 SWAP1 POP JUMP JUMPDEST PUSH1 0x0 PUSH1 0x20 DUP3 ADD SWAP1 POP DUP2 DUP2 SUB PUSH1 0x0 DUP4 ADD MSTORE PUSH2 0x4A97 DUP2 PUSH2 0x4A5B JUMP JUMPDEST SWAP1 POP SWAP2 SWAP1 POP JUMP JUMPDEST PUSH1 0x0 PUSH2 0x4AA9 DUP3 PUSH2 0x283A JUMP JUMPDEST SWAP2 POP PUSH2 0x4AB4 DUP4 PUSH2 0x283A JUMP JUMPDEST SWAP3 POP DUP3 DUP3 LT ISZERO PUSH2 0x4AC7 JUMPI PUSH2 0x4AC6 PUSH2 0x3CFA JUMP JUMPDEST JUMPDEST DUP3 DUP3 SUB SWAP1 POP SWAP3 SWAP2 POP POP JUMP JUMPDEST PUSH1 0x0 PUSH1 0x80 DUP3 ADD SWAP1 POP PUSH2 0x4AE7 PUSH1 0x0 DUP4 ADD DUP8 PUSH2 0x28DE JUMP JUMPDEST PUSH2 0x4AF4 PUSH1 0x20 DUP4 ADD DUP7 PUSH2 0x289D JUMP JUMPDEST DUP2 DUP2 SUB PUSH1 0x40 DUP4 ADD MSTORE PUSH2 0x4B06 DUP2 DUP6 PUSH2 0x3832 JUMP JUMPDEST SWAP1 POP PUSH2 0x4B15 PUSH1 0x60 DUP4 ADD DUP5 PUSH2 0x289D JUMP JUMPDEST SWAP6 SWAP5 POP POP POP POP POP JUMP JUMPDEST PUSH1 0x0 DUP2 MLOAD SWAP1 POP PUSH2 0x4B2D DUP2 PUSH2 0x2AE5 JUMP JUMPDEST SWAP3 SWAP2 POP POP JUMP JUMPDEST PUSH1 0x0 PUSH1 0x20 DUP3 DUP5 SUB SLT ISZERO PUSH2 0x4B49 JUMPI PUSH2 0x4B48 PUSH2 0x2830 JUMP JUMPDEST JUMPDEST PUSH1 0x0 PUSH2 0x4B57 DUP5 DUP3 DUP6 ADD PUSH2 0x4B1E JUMP JUMPDEST SWAP2 POP POP SWAP3 SWAP2 POP POP JUMP JUMPDEST PUSH32 0x476F7665726E6F72416C7068613A3A5F71756575654F725265766572743A2070 PUSH1 0x0 DUP3 ADD MSTORE PUSH32 0x726F706F73616C20616374696F6E20616C726561647920717565756564206174 PUSH1 0x20 DUP3 ADD MSTORE PUSH32 0x2065746100000000000000000000000000000000000000000000000000000000 PUSH1 0x40 DUP3 ADD MSTORE POP JUMP JUMPDEST PUSH1 0x0 PUSH2 0x4BE2 PUSH1 0x44 DUP4 PUSH2 0x29BB JUMP JUMPDEST SWAP2 POP PUSH2 0x4BED DUP3 PUSH2 0x4B60 JUMP JUMPDEST PUSH1 0x60 DUP3 ADD SWAP1 POP SWAP2 SWAP1 POP JUMP JUMPDEST PUSH1 0x0 PUSH1 0x20 DUP3 ADD SWAP1 POP DUP2 DUP2 SUB PUSH1 0x0 DUP4 ADD MSTORE PUSH2 0x4C11 DUP2 PUSH2 0x4BD5 JUMP JUMPDEST SWAP1 POP SWAP2 SWAP1 POP JUMP INVALID LOG2 PUSH5 0x6970667358 0x22 SLT KECCAK256 PUSH7 0xE62A8356C543E8 KECCAK256 0xC6 PUSH18 0xFD5CAE7297A38F8C81CC995F983F7F472413 0xA7 0xD PUSH6 0x64736F6C6343 STOP ADDMOD EXP STOP CALLER "
        },
        "methodIdentifiers": {
          "BALLOT_TYPEHASH()": "deaaa7cc",
          "DOMAIN_TYPEHASH()": "20606b70",
          "__abdicate()": "760fbc13",
          "__acceptAdmin()": "b9a61961",
          "__executeSetTimelockPendingAdmin(address,uint256)": "21f43e42",
          "__queueSetTimelockPendingAdmin(address,uint256)": "91500671",
          "cancel(uint256)": "40e58ee5",
          "castVote(uint256,bool)": "15373e3d",
          "castVoteBySig(uint256,bool,uint8,bytes32,bytes32)": "4634c61f",
          "comp()": "109d0af8",
          "execute(uint256)": "fe0d94c1",
          "getActions(uint256)": "328dd982",
          "getReceipt(uint256,address)": "e23a9a52",
          "guardian()": "452a9320",
          "latestProposalIds(address)": "17977c61",
          "name()": "06fdde03",
          "proposalCount()": "da35c664",
          "proposalMaxOperations()": "7bdbe4d0",
          "proposalThreshold()": "b58131b0",
          "proposals(uint256)": "013cf08b",
          "propose(address[],uint256[],bytes[],string)": "7d5e81e2",
          "queue(uint256)": "ddf0b009",
          "quorumVotes()": "24bc1a64",
          "qv()": "9352f7be",
          "state(uint256)": "3e4f49e6",
          "timelock()": "d33219b4",
          "votingDelay()": "3932abb1",
          "votingPeriod()": "02a251a3"
        }
      }
    }
  }
}