{
  "_format": "hh-sol-artifact-1",
  "contractName": "Timelock",
  "sourceName": "contracts/Timelock.sol",
  "abi": [
    {
      "inputs": [
        {
          "internalType": "address",
          "name": "admin_",
          "type": "address"
        },
        {
          "internalType": "uint256",
          "name": "delay_",
          "type": "uint256"
        }
      ],
      "stateMutability": "nonpayable",
      "type": "constructor"
    },
    {
      "anonymous": false,
      "inputs": [
        {
          "indexed": true,
          "internalType": "bytes32",
          "name": "txHash",
          "type": "bytes32"
        },
        {
          "indexed": true,
          "internalType": "address",
          "name": "target",
          "type": "address"
        },
        {
          "indexed": false,
          "internalType": "uint256",
          "name": "value",
          "type": "uint256"
        },
        {
          "indexed": false,
          "internalType": "bytes",
          "name": "data",
          "type": "bytes"
        },
        {
          "indexed": false,
          "internalType": "uint256",
          "name": "eta",
          "type": "uint256"
        }
      ],
      "name": "CancelTransaction",
      "type": "event"
    },
    {
      "anonymous": false,
      "inputs": [
        {
          "indexed": true,
          "internalType": "bytes32",
          "name": "txHash",
          "type": "bytes32"
        },
        {
          "indexed": true,
          "internalType": "address",
          "name": "target",
          "type": "address"
        },
        {
          "indexed": false,
          "internalType": "uint256",
          "name": "value",
          "type": "uint256"
        },
        {
          "indexed": false,
          "internalType": "bytes",
          "name": "data",
          "type": "bytes"
        },
        {
          "indexed": false,
          "internalType": "uint256",
          "name": "eta",
          "type": "uint256"
        }
      ],
      "name": "ExecuteTransaction",
      "type": "event"
    },
    {
      "anonymous": false,
      "inputs": [
        {
          "indexed": true,
          "internalType": "address",
          "name": "newAdmin",
          "type": "address"
        }
      ],
      "name": "NewAdmin",
      "type": "event"
    },
    {
      "anonymous": false,
      "inputs": [
        {
          "indexed": true,
          "internalType": "uint256",
          "name": "newDelay",
          "type": "uint256"
        }
      ],
      "name": "NewDelay",
      "type": "event"
    },
    {
      "anonymous": false,
      "inputs": [
        {
          "indexed": true,
          "internalType": "address",
          "name": "newPendingAdmin",
          "type": "address"
        }
      ],
      "name": "NewPendingAdmin",
      "type": "event"
    },
    {
      "anonymous": false,
      "inputs": [
        {
          "indexed": true,
          "internalType": "bytes32",
          "name": "txHash",
          "type": "bytes32"
        },
        {
          "indexed": true,
          "internalType": "address",
          "name": "target",
          "type": "address"
        },
        {
          "indexed": false,
          "internalType": "uint256",
          "name": "value",
          "type": "uint256"
        },
        {
          "indexed": false,
          "internalType": "bytes",
          "name": "data",
          "type": "bytes"
        },
        {
          "indexed": false,
          "internalType": "uint256",
          "name": "eta",
          "type": "uint256"
        }
      ],
      "name": "QueueTransaction",
      "type": "event"
    },
    {
      "inputs": [],
      "name": "GRACE_PERIOD",
      "outputs": [
        {
          "internalType": "uint256",
          "name": "",
          "type": "uint256"
        }
      ],
      "stateMutability": "view",
      "type": "function"
    },
    {
      "inputs": [],
      "name": "MAXIMUM_DELAY",
      "outputs": [
        {
          "internalType": "uint256",
          "name": "",
          "type": "uint256"
        }
      ],
      "stateMutability": "view",
      "type": "function"
    },
    {
      "inputs": [],
      "name": "MINIMUM_DELAY",
      "outputs": [
        {
          "internalType": "uint256",
          "name": "",
          "type": "uint256"
        }
      ],
      "stateMutability": "view",
      "type": "function"
    },
    {
      "inputs": [],
      "name": "acceptAdmin",
      "outputs": [],
      "stateMutability": "nonpayable",
      "type": "function"
    },
    {
      "inputs": [],
      "name": "admin",
      "outputs": [
        {
          "internalType": "address",
          "name": "",
          "type": "address"
        }
      ],
      "stateMutability": "view",
      "type": "function"
    },
    {
      "inputs": [
        {
          "internalType": "address",
          "name": "target",
          "type": "address"
        },
        {
          "internalType": "uint256",
          "name": "value",
          "type": "uint256"
        },
        {
          "internalType": "bytes",
          "name": "data",
          "type": "bytes"
        },
        {
          "internalType": "uint256",
          "name": "eta",
          "type": "uint256"
        }
      ],
      "name": "cancelTransaction",
      "outputs": [],
      "stateMutability": "nonpayable",
      "type": "function"
    },
    {
      "inputs": [],
      "name": "delay",
      "outputs": [
        {
          "internalType": "uint256",
          "name": "",
          "type": "uint256"
        }
      ],
      "stateMutability": "view",
      "type": "function"
    },
    {
      "inputs": [
        {
          "internalType": "address",
          "name": "target",
          "type": "address"
        },
        {
          "internalType": "uint256",
          "name": "value",
          "type": "uint256"
        },
        {
          "internalType": "bytes",
          "name": "data",
          "type": "bytes"
        },
        {
          "internalType": "uint256",
          "name": "eta",
          "type": "uint256"
        }
      ],
      "name": "executeTransaction",
      "outputs": [
        {
          "internalType": "bytes",
          "name": "",
          "type": "bytes"
        }
      ],
      "stateMutability": "payable",
      "type": "function"
    },
    {
      "inputs": [],
      "name": "pendingAdmin",
      "outputs": [
        {
          "internalType": "address",
          "name": "",
          "type": "address"
        }
      ],
      "stateMutability": "view",
      "type": "function"
    },
    {
      "inputs": [
        {
          "internalType": "address",
          "name": "target",
          "type": "address"
        },
        {
          "internalType": "uint256",
          "name": "value",
          "type": "uint256"
        },
        {
          "internalType": "bytes",
          "name": "data",
          "type": "bytes"
        },
        {
          "internalType": "uint256",
          "name": "eta",
          "type": "uint256"
        }
      ],
      "name": "queueTransaction",
      "outputs": [
        {
          "internalType": "bytes32",
          "name": "",
          "type": "bytes32"
        }
      ],
      "stateMutability": "nonpayable",
      "type": "function"
    },
    {
      "inputs": [
        {
          "internalType": "bytes32",
          "name": "",
          "type": "bytes32"
        }
      ],
      "name": "queuedTransactions",
      "outputs": [
        {
          "internalType": "bool",
          "name": "",
          "type": "bool"
        }
      ],
      "stateMutability": "view",
      "type": "function"
    },
    {
      "inputs": [
        {
          "internalType": "uint256",
          "name": "delay_",
          "type": "uint256"
        }
      ],
      "name": "setDelay",
      "outputs": [],
      "stateMutability": "nonpayable",
      "type": "function"
    },
    {
      "inputs": [
        {
          "internalType": "address",
          "name": "pendingAdmin_",
          "type": "address"
        }
      ],
      "name": "setPendingAdmin",
      "outputs": [],
      "stateMutability": "nonpayable",
      "type": "function"
    },
    {
      "stateMutability": "payable",
      "type": "receive"
    }
  ],
  "bytecode": "0x60806040523480156200001157600080fd5b5060405162001f4d38038062001f4d8339818101604052810190620000379190620001bb565b60008110156200007e576040517f08c379a0000000000000000000000000000000000000000000000000000000008152600401620000759062000289565b60405180910390fd5b62278d00811115620000c7576040517f08c379a0000000000000000000000000000000000000000000000000000000008152600401620000be9062000321565b60405180910390fd5b816000806101000a81548173ffffffffffffffffffffffffffffffffffffffff021916908373ffffffffffffffffffffffffffffffffffffffff16021790555080600281905550505062000343565b600080fd5b600073ffffffffffffffffffffffffffffffffffffffff82169050919050565b600062000148826200011b565b9050919050565b6200015a816200013b565b81146200016657600080fd5b50565b6000815190506200017a816200014f565b92915050565b6000819050919050565b620001958162000180565b8114620001a157600080fd5b50565b600081519050620001b5816200018a565b92915050565b60008060408385031215620001d557620001d462000116565b5b6000620001e58582860162000169565b9250506020620001f885828601620001a4565b9150509250929050565b600082825260208201905092915050565b7f54696d656c6f636b3a3a636f6e7374727563746f723a2044656c6179206d757360008201527f7420657863656564206d696e696d756d2064656c61792e000000000000000000602082015250565b60006200027160378362000202565b91506200027e8262000213565b604082019050919050565b60006020820190508181036000830152620002a48162000262565b9050919050565b7f54696d656c6f636b3a3a73657444656c61793a2044656c6179206d757374206e60008201527f6f7420657863656564206d6178696d756d2064656c61792e0000000000000000602082015250565b60006200030960388362000202565b91506200031682620002ab565b604082019050919050565b600060208201905081810360008301526200033c81620002fa565b9050919050565b611bfa80620003536000396000f3fe6080604052600436106100c65760003560e01c80637d645fab1161007f578063c1a287e211610059578063c1a287e214610254578063e177246e1461027f578063f2b06537146102a8578063f851a440146102e5576100cd565b80637d645fab146101c15780638e361cdf146101ec578063b1b43ae514610229576100cd565b806306a41d09146100d25780630e18b6811461010257806326782247146101195780634dd18bf5146101445780635b26b1081461016d5780636a42b8f814610196576100cd565b366100cd57005b600080fd5b6100ec60048036038101906100e79190610f91565b610310565b6040516100f9919061109c565b60405180910390f35b34801561010e57600080fd5b50610117610614565b005b34801561012557600080fd5b5061012e61078b565b60405161013b91906110cd565b60405180910390f35b34801561015057600080fd5b5061016b600480360381019061016691906110e8565b6107b1565b005b34801561017957600080fd5b50610194600480360381019061018f9190610f91565b6108c8565b005b3480156101a257600080fd5b506101ab610a0d565b6040516101b89190611124565b60405180910390f35b3480156101cd57600080fd5b506101d6610a13565b6040516101e39190611124565b60405180910390f35b3480156101f857600080fd5b50610213600480360381019061020e9190610f91565b610a1a565b6040516102209190611158565b60405180910390f35b34801561023557600080fd5b5061023e610bbc565b60405161024b9190611124565b60405180910390f35b34801561026057600080fd5b50610269610bc1565b6040516102769190611124565b60405180910390f35b34801561028b57600080fd5b506102a660048036038101906102a19190611173565b610bc8565b005b3480156102b457600080fd5b506102cf60048036038101906102ca91906111cc565b610cf9565b6040516102dc9190611214565b60405180910390f35b3480156102f157600080fd5b506102fa610d19565b60405161030791906110cd565b60405180910390f35b606060008054906101000a900473ffffffffffffffffffffffffffffffffffffffff1673ffffffffffffffffffffffffffffffffffffffff163373ffffffffffffffffffffffffffffffffffffffff16146103a0576040517f08c379a0000000000000000000000000000000000000000000000000000000008152600401610397906112b2565b60405180910390fd5b6000858585856040516020016103b994939291906112d2565b6040516020818303038152906040528051906020012090506003600082815260200190815260200160002060009054906101000a900460ff16610431576040517f08c379a000000000000000000000000000000000000000000000000000000000815260040161042890611390565b60405180910390fd5b8261043a610d3d565b101561047b576040517f08c379a000000000000000000000000000000000000000000000000000000000815260040161047290611448565b60405180910390fd5b6104888362127500610d45565b610490610d3d565b11156104d1576040517f08c379a00000000000000000000000000000000000000000000000000000000081526004016104c8906114da565b60405180910390fd5b60006003600083815260200190815260200160002060006101000a81548160ff02191690831515021790555060008490506000808873ffffffffffffffffffffffffffffffffffffffff16888460405161052b9190611536565b60006040518083038185875af1925050503d8060008114610568576040519150601f19603f3d011682016040523d82523d6000602084013e61056d565b606091505b5091509150816105b2576040517f08c379a00000000000000000000000000000000000000000000000000000000081526004016105a9906115bf565b60405180910390fd5b8873ffffffffffffffffffffffffffffffffffffffff16847f96e4fc94d58198a0b11692781e488d13e3551d8f3b55612364703c8f163408f28a8a8a6040516105fd939291906115df565b60405180910390a380945050505050949350505050565b600160009054906101000a900473ffffffffffffffffffffffffffffffffffffffff1673ffffffffffffffffffffffffffffffffffffffff163373ffffffffffffffffffffffffffffffffffffffff16146106a4576040517f08c379a000000000000000000000000000000000000000000000000000000000815260040161069b9061168f565b60405180910390fd5b336000806101000a81548173ffffffffffffffffffffffffffffffffffffffff021916908373ffffffffffffffffffffffffffffffffffffffff1602179055506000600160006101000a81548173ffffffffffffffffffffffffffffffffffffffff021916908373ffffffffffffffffffffffffffffffffffffffff16021790555060008054906101000a900473ffffffffffffffffffffffffffffffffffffffff1673ffffffffffffffffffffffffffffffffffffffff167f71614071b88dee5e0b2ae578a9dd7b2ebbe9ae832ba419dc0242cd065a290b6c60405160405180910390a2565b600160009054906101000a900473ffffffffffffffffffffffffffffffffffffffff1681565b3073ffffffffffffffffffffffffffffffffffffffff163373ffffffffffffffffffffffffffffffffffffffff161461081f576040517f08c379a000000000000000000000000000000000000000000000000000000000815260040161081690611721565b60405180910390fd5b80600160006101000a81548173ffffffffffffffffffffffffffffffffffffffff021916908373ffffffffffffffffffffffffffffffffffffffff160217905550600160009054906101000a900473ffffffffffffffffffffffffffffffffffffffff1673ffffffffffffffffffffffffffffffffffffffff167f69d78e38a01985fbb1462961809b4b2d65531bc93b2b94037f3334b82ca4a75660405160405180910390a250565b60008054906101000a900473ffffffffffffffffffffffffffffffffffffffff1673ffffffffffffffffffffffffffffffffffffffff163373ffffffffffffffffffffffffffffffffffffffff1614610956576040517f08c379a000000000000000000000000000000000000000000000000000000000815260040161094d906117b3565b60405180910390fd5b60008484848460405160200161096f94939291906112d2565b60405160208183030381529060405280519060200120905060006003600083815260200190815260200160002060006101000a81548160ff0219169083151502179055508473ffffffffffffffffffffffffffffffffffffffff16817f7a2487ccd8779c83183a454be1dcc8ae3cbdbc70af0cf92cc04e074eda321fb78686866040516109fe939291906115df565b60405180910390a35050505050565b60025481565b62278d0081565b60008060009054906101000a900473ffffffffffffffffffffffffffffffffffffffff1673ffffffffffffffffffffffffffffffffffffffff163373ffffffffffffffffffffffffffffffffffffffff1614610aab576040517f08c379a0000000000000000000000000000000000000000000000000000000008152600401610aa290611845565b60405180910390fd5b610abe610ab6610d3d565b600254610d45565b821015610b00576040517f08c379a0000000000000000000000000000000000000000000000000000000008152600401610af7906118fd565b60405180910390fd5b600085858585604051602001610b1994939291906112d2565b60405160208183030381529060405280519060200120905060016003600083815260200190815260200160002060006101000a81548160ff0219169083151502179055508573ffffffffffffffffffffffffffffffffffffffff16817f9ffdf0c63c8eec344b500e806ac1d1d37308fdf141a29d10cdd82c069aec6e48878787604051610ba8939291906115df565b60405180910390a380915050949350505050565b600081565b6212750081565b3073ffffffffffffffffffffffffffffffffffffffff163373ffffffffffffffffffffffffffffffffffffffff1614610c36576040517f08c379a0000000000000000000000000000000000000000000000000000000008152600401610c2d9061198f565b60405180910390fd5b6000811015610c7a576040517f08c379a0000000000000000000000000000000000000000000000000000000008152600401610c7190611a21565b60405180910390fd5b62278d00811115610cc0576040517f08c379a0000000000000000000000000000000000000000000000000000000008152600401610cb790611ab3565b60405180910390fd5b806002819055506002547f948b1f6a42ee138b7e34058ba85a37f716d55ff25ff05a763f15bed6a04c8d2c60405160405180910390a250565b60036020528060005260406000206000915054906101000a900460ff1681565b60008054906101000a900473ffffffffffffffffffffffffffffffffffffffff1681565b600042905090565b6000808284610d549190611b02565b905083811015610d99576040517f08c379a0000000000000000000000000000000000000000000000000000000008152600401610d9090611ba4565b60405180910390fd5b8091505092915050565b6000604051905090565b600080fd5b600080fd5b600073ffffffffffffffffffffffffffffffffffffffff82169050919050565b6000610de282610db7565b9050919050565b610df281610dd7565b8114610dfd57600080fd5b50565b600081359050610e0f81610de9565b92915050565b6000819050919050565b610e2881610e15565b8114610e3357600080fd5b50565b600081359050610e4581610e1f565b92915050565b600080fd5b600080fd5b6000601f19601f8301169050919050565b7f4e487b7100000000000000000000000000000000000000000000000000000000600052604160045260246000fd5b610e9e82610e55565b810181811067ffffffffffffffff82111715610ebd57610ebc610e66565b5b80604052505050565b6000610ed0610da3565b9050610edc8282610e95565b919050565b600067ffffffffffffffff821115610efc57610efb610e66565b5b610f0582610e55565b9050602081019050919050565b82818337600083830152505050565b6000610f34610f2f84610ee1565b610ec6565b905082815260208101848484011115610f5057610f4f610e50565b5b610f5b848285610f12565b509392505050565b600082601f830112610f7857610f77610e4b565b5b8135610f88848260208601610f21565b91505092915050565b60008060008060808587031215610fab57610faa610dad565b5b6000610fb987828801610e00565b9450506020610fca87828801610e36565b935050604085013567ffffffffffffffff811115610feb57610fea610db2565b5b610ff787828801610f63565b925050606061100887828801610e36565b91505092959194509250565b600081519050919050565b600082825260208201905092915050565b60005b8381101561104e578082015181840152602081019050611033565b8381111561105d576000848401525b50505050565b600061106e82611014565b611078818561101f565b9350611088818560208601611030565b61109181610e55565b840191505092915050565b600060208201905081810360008301526110b68184611063565b905092915050565b6110c781610dd7565b82525050565b60006020820190506110e260008301846110be565b92915050565b6000602082840312156110fe576110fd610dad565b5b600061110c84828501610e00565b91505092915050565b61111e81610e15565b82525050565b60006020820190506111396000830184611115565b92915050565b6000819050919050565b6111528161113f565b82525050565b600060208201905061116d6000830184611149565b92915050565b60006020828403121561118957611188610dad565b5b600061119784828501610e36565b91505092915050565b6111a98161113f565b81146111b457600080fd5b50565b6000813590506111c6816111a0565b92915050565b6000602082840312156111e2576111e1610dad565b5b60006111f0848285016111b7565b91505092915050565b60008115159050919050565b61120e816111f9565b82525050565b60006020820190506112296000830184611205565b92915050565b600082825260208201905092915050565b7f54696d656c6f636b3a3a657865637574655472616e73616374696f6e3a20436160008201527f6c6c206d75737420636f6d652066726f6d2061646d696e2e0000000000000000602082015250565b600061129c60388361122f565b91506112a782611240565b604082019050919050565b600060208201905081810360008301526112cb8161128f565b9050919050565b60006080820190506112e760008301876110be565b6112f46020830186611115565b81810360408301526113068185611063565b90506113156060830184611115565b95945050505050565b7f54696d656c6f636b3a3a657865637574655472616e73616374696f6e3a20547260008201527f616e73616374696f6e206861736e2774206265656e207175657565642e000000602082015250565b600061137a603d8361122f565b91506113858261131e565b604082019050919050565b600060208201905081810360008301526113a98161136d565b9050919050565b7f54696d656c6f636b3a3a657865637574655472616e73616374696f6e3a20547260008201527f616e73616374696f6e206861736e2774207375727061737365642074696d652060208201527f6c6f636b2e000000000000000000000000000000000000000000000000000000604082015250565b600061143260458361122f565b915061143d826113b0565b606082019050919050565b6000602082019050818103600083015261146181611425565b9050919050565b7f54696d656c6f636b3a3a657865637574655472616e73616374696f6e3a20547260008201527f616e73616374696f6e206973207374616c652e00000000000000000000000000602082015250565b60006114c460338361122f565b91506114cf82611468565b604082019050919050565b600060208201905081810360008301526114f3816114b7565b9050919050565b600081905092915050565b600061151082611014565b61151a81856114fa565b935061152a818560208601611030565b80840191505092915050565b60006115428284611505565b915081905092915050565b7f54696d656c6f636b3a3a657865637574655472616e73616374696f6e3a20547260008201527f616e73616374696f6e20657865637574696f6e2072657665727465642e000000602082015250565b60006115a9603d8361122f565b91506115b48261154d565b604082019050919050565b600060208201905081810360008301526115d88161159c565b9050919050565b60006060820190506115f46000830186611115565b81810360208301526116068185611063565b90506116156040830184611115565b949350505050565b7f54696d656c6f636b3a3a61636365707441646d696e3a2043616c6c206d75737460008201527f20636f6d652066726f6d2070656e64696e6741646d696e2e0000000000000000602082015250565b600061167960388361122f565b91506116848261161d565b604082019050919050565b600060208201905081810360008301526116a88161166c565b9050919050565b7f54696d656c6f636b3a3a73657450656e64696e6741646d696e3a2043616c6c2060008201527f6d75737420636f6d652066726f6d2054696d656c6f636b2e0000000000000000602082015250565b600061170b60388361122f565b9150611716826116af565b604082019050919050565b6000602082019050818103600083015261173a816116fe565b9050919050565b7f54696d656c6f636b3a3a63616e63656c5472616e73616374696f6e3a2043616c60008201527f6c206d75737420636f6d652066726f6d2061646d696e2e000000000000000000602082015250565b600061179d60378361122f565b91506117a882611741565b604082019050919050565b600060208201905081810360008301526117cc81611790565b9050919050565b7f54696d656c6f636b3a3a71756575655472616e73616374696f6e3a2043616c6c60008201527f206d75737420636f6d652066726f6d2061646d696e2e00000000000000000000602082015250565b600061182f60368361122f565b915061183a826117d3565b604082019050919050565b6000602082019050818103600083015261185e81611822565b9050919050565b7f54696d656c6f636b3a3a71756575655472616e73616374696f6e3a204573746960008201527f6d6174656420657865637574696f6e20626c6f636b206d75737420736174697360208201527f66792064656c61792e0000000000000000000000000000000000000000000000604082015250565b60006118e760498361122f565b91506118f282611865565b606082019050919050565b60006020820190508181036000830152611916816118da565b9050919050565b7f54696d656c6f636b3a3a73657444656c61793a2043616c6c206d75737420636f60008201527f6d652066726f6d2054696d656c6f636b2e000000000000000000000000000000602082015250565b600061197960318361122f565b91506119848261191d565b604082019050919050565b600060208201905081810360008301526119a88161196c565b9050919050565b7f54696d656c6f636b3a3a73657444656c61793a2044656c6179206d757374206560008201527f7863656564206d696e696d756d2064656c61792e000000000000000000000000602082015250565b6000611a0b60348361122f565b9150611a16826119af565b604082019050919050565b60006020820190508181036000830152611a3a816119fe565b9050919050565b7f54696d656c6f636b3a3a73657444656c61793a2044656c6179206d757374206e60008201527f6f7420657863656564206d6178696d756d2064656c61792e0000000000000000602082015250565b6000611a9d60388361122f565b9150611aa882611a41565b604082019050919050565b60006020820190508181036000830152611acc81611a90565b9050919050565b7f4e487b7100000000000000000000000000000000000000000000000000000000600052601160045260246000fd5b6000611b0d82610e15565b9150611b1883610e15565b9250827fffffffffffffffffffffffffffffffffffffffffffffffffffffffffffffffff03821115611b4d57611b4c611ad3565b5b828201905092915050565b7f536166654d6174683a206164646974696f6e206f766572666c6f770000000000600082015250565b6000611b8e601b8361122f565b9150611b9982611b58565b602082019050919050565b60006020820190508181036000830152611bbd81611b81565b905091905056fea2646970667358221220eac6ce64d9a952ff1f32da130d4decbc8dc62f3b452253c221321074515f8f9564736f6c634300080a0033",
  "linkReferences": {},
  "deployedLinkReferences": {}
}