{
  "_format": "hh-sol-artifact-1",
  "contractName": "Timelock",
  "sourceName": "contracts/Timelock.sol",
  "abi": [
    {
      "inputs": [
        {
          "internalType": "address",
          "name": "admin_",
          "type": "address"
        },
        {
          "internalType": "uint256",
          "name": "delay_",
          "type": "uint256"
        }
      ],
      "payable": false,
      "stateMutability": "nonpayable",
      "type": "constructor"
    },
    {
      "anonymous": false,
      "inputs": [
        {
          "indexed": true,
          "internalType": "bytes32",
          "name": "txHash",
          "type": "bytes32"
        },
        {
          "indexed": true,
          "internalType": "address",
          "name": "target",
          "type": "address"
        },
        {
          "indexed": false,
          "internalType": "uint256",
          "name": "value",
          "type": "uint256"
        },
        {
          "indexed": false,
          "internalType": "bytes",
          "name": "data",
          "type": "bytes"
        },
        {
          "indexed": false,
          "internalType": "uint256",
          "name": "eta",
          "type": "uint256"
        }
      ],
      "name": "CancelTransaction",
      "type": "event"
    },
    {
      "anonymous": false,
      "inputs": [
        {
          "indexed": true,
          "internalType": "bytes32",
          "name": "txHash",
          "type": "bytes32"
        },
        {
          "indexed": true,
          "internalType": "address",
          "name": "target",
          "type": "address"
        },
        {
          "indexed": false,
          "internalType": "uint256",
          "name": "value",
          "type": "uint256"
        },
        {
          "indexed": false,
          "internalType": "bytes",
          "name": "data",
          "type": "bytes"
        },
        {
          "indexed": false,
          "internalType": "uint256",
          "name": "eta",
          "type": "uint256"
        }
      ],
      "name": "ExecuteTransaction",
      "type": "event"
    },
    {
      "anonymous": false,
      "inputs": [
        {
          "indexed": true,
          "internalType": "address",
          "name": "newAdmin",
          "type": "address"
        }
      ],
      "name": "NewAdmin",
      "type": "event"
    },
    {
      "anonymous": false,
      "inputs": [
        {
          "indexed": true,
          "internalType": "uint256",
          "name": "newDelay",
          "type": "uint256"
        }
      ],
      "name": "NewDelay",
      "type": "event"
    },
    {
      "anonymous": false,
      "inputs": [
        {
          "indexed": true,
          "internalType": "address",
          "name": "newPendingAdmin",
          "type": "address"
        }
      ],
      "name": "NewPendingAdmin",
      "type": "event"
    },
    {
      "anonymous": false,
      "inputs": [
        {
          "indexed": true,
          "internalType": "bytes32",
          "name": "txHash",
          "type": "bytes32"
        },
        {
          "indexed": true,
          "internalType": "address",
          "name": "target",
          "type": "address"
        },
        {
          "indexed": false,
          "internalType": "uint256",
          "name": "value",
          "type": "uint256"
        },
        {
          "indexed": false,
          "internalType": "bytes",
          "name": "data",
          "type": "bytes"
        },
        {
          "indexed": false,
          "internalType": "uint256",
          "name": "eta",
          "type": "uint256"
        }
      ],
      "name": "QueueTransaction",
      "type": "event"
    },
    {
      "payable": true,
      "stateMutability": "payable",
      "type": "fallback"
    },
    {
      "constant": true,
      "inputs": [],
      "name": "GRACE_PERIOD",
      "outputs": [
        {
          "internalType": "uint256",
          "name": "",
          "type": "uint256"
        }
      ],
      "payable": false,
      "stateMutability": "view",
      "type": "function"
    },
    {
      "constant": true,
      "inputs": [],
      "name": "MAXIMUM_DELAY",
      "outputs": [
        {
          "internalType": "uint256",
          "name": "",
          "type": "uint256"
        }
      ],
      "payable": false,
      "stateMutability": "view",
      "type": "function"
    },
    {
      "constant": true,
      "inputs": [],
      "name": "MINIMUM_DELAY",
      "outputs": [
        {
          "internalType": "uint256",
          "name": "",
          "type": "uint256"
        }
      ],
      "payable": false,
      "stateMutability": "view",
      "type": "function"
    },
    {
      "constant": false,
      "inputs": [],
      "name": "acceptAdmin",
      "outputs": [],
      "payable": false,
      "stateMutability": "nonpayable",
      "type": "function"
    },
    {
      "constant": true,
      "inputs": [],
      "name": "admin",
      "outputs": [
        {
          "internalType": "address",
          "name": "",
          "type": "address"
        }
      ],
      "payable": false,
      "stateMutability": "view",
      "type": "function"
    },
    {
      "constant": false,
      "inputs": [
        {
          "internalType": "address",
          "name": "target",
          "type": "address"
        },
        {
          "internalType": "uint256",
          "name": "value",
          "type": "uint256"
        },
        {
          "internalType": "bytes",
          "name": "data",
          "type": "bytes"
        },
        {
          "internalType": "uint256",
          "name": "eta",
          "type": "uint256"
        }
      ],
      "name": "cancelTransaction",
      "outputs": [],
      "payable": false,
      "stateMutability": "nonpayable",
      "type": "function"
    },
    {
      "constant": true,
      "inputs": [],
      "name": "delay",
      "outputs": [
        {
          "internalType": "uint256",
          "name": "",
          "type": "uint256"
        }
      ],
      "payable": false,
      "stateMutability": "view",
      "type": "function"
    },
    {
      "constant": false,
      "inputs": [
        {
          "internalType": "address",
          "name": "target",
          "type": "address"
        },
        {
          "internalType": "uint256",
          "name": "value",
          "type": "uint256"
        },
        {
          "internalType": "bytes",
          "name": "data",
          "type": "bytes"
        },
        {
          "internalType": "uint256",
          "name": "eta",
          "type": "uint256"
        }
      ],
      "name": "executeTransaction",
      "outputs": [
        {
          "internalType": "bytes",
          "name": "",
          "type": "bytes"
        }
      ],
      "payable": true,
      "stateMutability": "payable",
      "type": "function"
    },
    {
      "constant": true,
      "inputs": [],
      "name": "pendingAdmin",
      "outputs": [
        {
          "internalType": "address",
          "name": "",
          "type": "address"
        }
      ],
      "payable": false,
      "stateMutability": "view",
      "type": "function"
    },
    {
      "constant": false,
      "inputs": [
        {
          "internalType": "address",
          "name": "target",
          "type": "address"
        },
        {
          "internalType": "uint256",
          "name": "value",
          "type": "uint256"
        },
        {
          "internalType": "bytes",
          "name": "data",
          "type": "bytes"
        },
        {
          "internalType": "uint256",
          "name": "eta",
          "type": "uint256"
        }
      ],
      "name": "queueTransaction",
      "outputs": [
        {
          "internalType": "bytes32",
          "name": "",
          "type": "bytes32"
        }
      ],
      "payable": false,
      "stateMutability": "nonpayable",
      "type": "function"
    },
    {
      "constant": true,
      "inputs": [
        {
          "internalType": "bytes32",
          "name": "",
          "type": "bytes32"
        }
      ],
      "name": "queuedTransactions",
      "outputs": [
        {
          "internalType": "bool",
          "name": "",
          "type": "bool"
        }
      ],
      "payable": false,
      "stateMutability": "view",
      "type": "function"
    },
    {
      "constant": false,
      "inputs": [
        {
          "internalType": "uint256",
          "name": "delay_",
          "type": "uint256"
        }
      ],
      "name": "setDelay",
      "outputs": [],
      "payable": false,
      "stateMutability": "nonpayable",
      "type": "function"
    },
    {
      "constant": false,
      "inputs": [
        {
          "internalType": "address",
          "name": "pendingAdmin_",
          "type": "address"
        }
      ],
      "name": "setPendingAdmin",
      "outputs": [],
      "payable": false,
      "stateMutability": "nonpayable",
      "type": "function"
    }
  ],
  "bytecode": "0x608060405234801561001057600080fd5b50604051611aee380380611aee8339818101604052604081101561003357600080fd5b81019080805190602001909291908051906020019092919050505060008110156100a8576040517f08c379a0000000000000000000000000000000000000000000000000000000008152600401808060200182810382526037815260200180611a7f6037913960400191505060405180910390fd5b62278d00811115610104576040517f08c379a0000000000000000000000000000000000000000000000000000000008152600401808060200182810382526038815260200180611ab66038913960400191505060405180910390fd5b816000806101000a81548173ffffffffffffffffffffffffffffffffffffffff021916908373ffffffffffffffffffffffffffffffffffffffff1602179055508060028190555050506119238061015c6000396000f3fe6080604052600436106100c25760003560e01c80637d645fab1161007f578063c1a287e211610059578063c1a287e214610578578063e177246e146105a3578063f2b06537146105de578063f851a44014610631576100c2565b80637d645fab146104125780638e361cdf1461043d578063b1b43ae51461054d576100c2565b806306a41d09146100c45780630e18b6811461022c57806326782247146102435780634dd18bf51461029a5780635b26b108146102eb5780636a42b8f8146103e7575b005b6101b1600480360360808110156100da57600080fd5b81019080803573ffffffffffffffffffffffffffffffffffffffff169060200190929190803590602001909291908035906020019064010000000081111561012157600080fd5b82018360208201111561013357600080fd5b8035906020019184600183028401116401000000008311171561015557600080fd5b91908080601f016020809104026020016040519081016040528093929190818152602001838380828437600081840152601f19601f82011690508083019250505050505050919291929080359060200190929190505050610688565b6040518080602001828103825283818151815260200191508051906020019080838360005b838110156101f15780820151818401526020810190506101d6565b50505050905090810190601f16801561021e5780820380516001836020036101000a031916815260200191505b509250505060405180910390f35b34801561023857600080fd5b50610241610b64565b005b34801561024f57600080fd5b50610258610cf2565b604051808273ffffffffffffffffffffffffffffffffffffffff1673ffffffffffffffffffffffffffffffffffffffff16815260200191505060405180910390f35b3480156102a657600080fd5b506102e9600480360360208110156102bd57600080fd5b81019080803573ffffffffffffffffffffffffffffffffffffffff169060200190929190505050610d18565b005b3480156102f757600080fd5b506103e56004803603608081101561030e57600080fd5b81019080803573ffffffffffffffffffffffffffffffffffffffff169060200190929190803590602001909291908035906020019064010000000081111561035557600080fd5b82018360208201111561036757600080fd5b8035906020019184600183028401116401000000008311171561038957600080fd5b91908080601f016020809104026020016040519081016040528093929190818152602001838380828437600081840152601f19601f82011690508083019250505050505050919291929080359060200190929190505050610e45565b005b3480156103f357600080fd5b506103fc6110b5565b6040518082815260200191505060405180910390f35b34801561041e57600080fd5b506104276110bb565b6040518082815260200191505060405180910390f35b34801561044957600080fd5b506105376004803603608081101561046057600080fd5b81019080803573ffffffffffffffffffffffffffffffffffffffff16906020019092919080359060200190929190803590602001906401000000008111156104a757600080fd5b8201836020820111156104b957600080fd5b803590602001918460018302840111640100000000831117156104db57600080fd5b91908080601f016020809104026020016040519081016040528093929190818152602001838380828437600081840152601f19601f820116905080830192505050505050509192919290803590602001909291905050506110c2565b6040518082815260200191505060405180910390f35b34801561055957600080fd5b506105626113ad565b6040518082815260200191505060405180910390f35b34801561058457600080fd5b5061058d6113b2565b6040518082815260200191505060405180910390f35b3480156105af57600080fd5b506105dc600480360360208110156105c657600080fd5b81019080803590602001909291905050506113b9565b005b3480156105ea57600080fd5b506106176004803603602081101561060157600080fd5b810190808035906020019092919050505061152c565b604051808215151515815260200191505060405180910390f35b34801561063d57600080fd5b5061064661154c565b604051808273ffffffffffffffffffffffffffffffffffffffff1673ffffffffffffffffffffffffffffffffffffffff16815260200191505060405180910390f35b60606000809054906101000a900473ffffffffffffffffffffffffffffffffffffffff1673ffffffffffffffffffffffffffffffffffffffff163373ffffffffffffffffffffffffffffffffffffffff161461072f576040517f08c379a00000000000000000000000000000000000000000000000000000000081526004018080602001828103825260388152602001806116026038913960400191505060405180910390fd5b600085858585604051602001808573ffffffffffffffffffffffffffffffffffffffff1673ffffffffffffffffffffffffffffffffffffffff16815260200184815260200180602001838152602001828103825284818151815260200191508051906020019080838360005b838110156107b657808201518184015260208101905061079b565b50505050905090810190601f1680156107e35780820380516001836020036101000a031916815260200191505b50955050505050506040516020818303038152906040528051906020012090506003600082815260200190815260200160002060009054906101000a900460ff16610879576040517f08c379a000000000000000000000000000000000000000000000000000000000815260040180806020018281038252603d815260200180611755603d913960400191505060405180910390fd5b82610882611571565b10156108d9576040517f08c379a00000000000000000000000000000000000000000000000000000000081526004018080602001828103825260458152602001806116a46045913960600191505060405180910390fd5b6108ef621275008461157990919063ffffffff16565b6108f7611571565b111561094e576040517f08c379a00000000000000000000000000000000000000000000000000000000081526004018080602001828103825260338152602001806116716033913960400191505060405180910390fd5b60006003600083815260200190815260200160002060006101000a81548160ff0219169083151502179055506060849050600060608873ffffffffffffffffffffffffffffffffffffffff1688846040518082805190602001908083835b602083106109cf57805182526020820191506020810190506020830392506109ac565b6001836020036101000a03801982511681845116808217855250505050505090500191505060006040518083038185875af1925050503d8060008114610a31576040519150601f19603f3d011682016040523d82523d6000602084013e610a36565b606091505b509150915081610a91576040517f08c379a000000000000000000000000000000000000000000000000000000000815260040180806020018281038252603d815260200180611838603d913960400191505060405180910390fd5b8873ffffffffffffffffffffffffffffffffffffffff16847f96e4fc94d58198a0b11692781e488d13e3551d8f3b55612364703c8f163408f28a8a8a6040518084815260200180602001838152602001828103825284818151815260200191508051906020019080838360005b83811015610b19578082015181840152602081019050610afe565b50505050905090810190601f168015610b465780820380516001836020036101000a031916815260200191505b5094505050505060405180910390a380945050505050949350505050565b600160009054906101000a900473ffffffffffffffffffffffffffffffffffffffff1673ffffffffffffffffffffffffffffffffffffffff163373ffffffffffffffffffffffffffffffffffffffff1614610c0a576040517f08c379a00000000000000000000000000000000000000000000000000000000081526004018080602001828103825260388152602001806117926038913960400191505060405180910390fd5b336000806101000a81548173ffffffffffffffffffffffffffffffffffffffff021916908373ffffffffffffffffffffffffffffffffffffffff1602179055506000600160006101000a81548173ffffffffffffffffffffffffffffffffffffffff021916908373ffffffffffffffffffffffffffffffffffffffff1602179055506000809054906101000a900473ffffffffffffffffffffffffffffffffffffffff1673ffffffffffffffffffffffffffffffffffffffff167f71614071b88dee5e0b2ae578a9dd7b2ebbe9ae832ba419dc0242cd065a290b6c60405160405180910390a2565b600160009054906101000a900473ffffffffffffffffffffffffffffffffffffffff1681565b3073ffffffffffffffffffffffffffffffffffffffff163373ffffffffffffffffffffffffffffffffffffffff1614610d9c576040517f08c379a00000000000000000000000000000000000000000000000000000000081526004018080602001828103825260388152602001806117ca6038913960400191505060405180910390fd5b80600160006101000a81548173ffffffffffffffffffffffffffffffffffffffff021916908373ffffffffffffffffffffffffffffffffffffffff160217905550600160009054906101000a900473ffffffffffffffffffffffffffffffffffffffff1673ffffffffffffffffffffffffffffffffffffffff167f69d78e38a01985fbb1462961809b4b2d65531bc93b2b94037f3334b82ca4a75660405160405180910390a250565b6000809054906101000a900473ffffffffffffffffffffffffffffffffffffffff1673ffffffffffffffffffffffffffffffffffffffff163373ffffffffffffffffffffffffffffffffffffffff1614610eea576040517f08c379a000000000000000000000000000000000000000000000000000000000815260040180806020018281038252603781526020018061163a6037913960400191505060405180910390fd5b600084848484604051602001808573ffffffffffffffffffffffffffffffffffffffff1673ffffffffffffffffffffffffffffffffffffffff16815260200184815260200180602001838152602001828103825284818151815260200191508051906020019080838360005b83811015610f71578082015181840152602081019050610f56565b50505050905090810190601f168015610f9e5780820380516001836020036101000a031916815260200191505b509550505050505060405160208183030381529060405280519060200120905060006003600083815260200190815260200160002060006101000a81548160ff0219169083151502179055508473ffffffffffffffffffffffffffffffffffffffff16817f7a2487ccd8779c83183a454be1dcc8ae3cbdbc70af0cf92cc04e074eda321fb78686866040518084815260200180602001838152602001828103825284818151815260200191508051906020019080838360005b83811015611072578082015181840152602081019050611057565b50505050905090810190601f16801561109f5780820380516001836020036101000a031916815260200191505b5094505050505060405180910390a35050505050565b60025481565b62278d0081565b60008060009054906101000a900473ffffffffffffffffffffffffffffffffffffffff1673ffffffffffffffffffffffffffffffffffffffff163373ffffffffffffffffffffffffffffffffffffffff1614611169576040517f08c379a00000000000000000000000000000000000000000000000000000000081526004018080602001828103825260368152602001806118026036913960400191505060405180910390fd5b611185600254611177611571565b61157990919063ffffffff16565b8210156111dd576040517f08c379a00000000000000000000000000000000000000000000000000000000081526004018080602001828103825260498152602001806118756049913960600191505060405180910390fd5b600085858585604051602001808573ffffffffffffffffffffffffffffffffffffffff1673ffffffffffffffffffffffffffffffffffffffff16815260200184815260200180602001838152602001828103825284818151815260200191508051906020019080838360005b83811015611264578082015181840152602081019050611249565b50505050905090810190601f1680156112915780820380516001836020036101000a031916815260200191505b509550505050505060405160208183030381529060405280519060200120905060016003600083815260200190815260200160002060006101000a81548160ff0219169083151502179055508573ffffffffffffffffffffffffffffffffffffffff16817f9ffdf0c63c8eec344b500e806ac1d1d37308fdf141a29d10cdd82c069aec6e488787876040518084815260200180602001838152602001828103825284818151815260200191508051906020019080838360005b8381101561136557808201518184015260208101905061134a565b50505050905090810190601f1680156113925780820380516001836020036101000a031916815260200191505b5094505050505060405180910390a380915050949350505050565b600081565b6212750081565b3073ffffffffffffffffffffffffffffffffffffffff163373ffffffffffffffffffffffffffffffffffffffff161461143d576040517f08c379a00000000000000000000000000000000000000000000000000000000081526004018080602001828103825260318152602001806118be6031913960400191505060405180910390fd5b6000811015611497576040517f08c379a00000000000000000000000000000000000000000000000000000000081526004018080602001828103825260348152602001806116e96034913960400191505060405180910390fd5b62278d008111156114f3576040517f08c379a000000000000000000000000000000000000000000000000000000000815260040180806020018281038252603881526020018061171d6038913960400191505060405180910390fd5b806002819055506002547f948b1f6a42ee138b7e34058ba85a37f716d55ff25ff05a763f15bed6a04c8d2c60405160405180910390a250565b60036020528060005260406000206000915054906101000a900460ff1681565b6000809054906101000a900473ffffffffffffffffffffffffffffffffffffffff1681565b600042905090565b6000808284019050838110156115f7576040517f08c379a000000000000000000000000000000000000000000000000000000000815260040180806020018281038252601b8152602001807f536166654d6174683a206164646974696f6e206f766572666c6f77000000000081525060200191505060405180910390fd5b809150509291505056fe54696d656c6f636b3a3a657865637574655472616e73616374696f6e3a2043616c6c206d75737420636f6d652066726f6d2061646d696e2e54696d656c6f636b3a3a63616e63656c5472616e73616374696f6e3a2043616c6c206d75737420636f6d652066726f6d2061646d696e2e54696d656c6f636b3a3a657865637574655472616e73616374696f6e3a205472616e73616374696f6e206973207374616c652e54696d656c6f636b3a3a657865637574655472616e73616374696f6e3a205472616e73616374696f6e206861736e2774207375727061737365642074696d65206c6f636b2e54696d656c6f636b3a3a73657444656c61793a2044656c6179206d75737420657863656564206d696e696d756d2064656c61792e54696d656c6f636b3a3a73657444656c61793a2044656c6179206d757374206e6f7420657863656564206d6178696d756d2064656c61792e54696d656c6f636b3a3a657865637574655472616e73616374696f6e3a205472616e73616374696f6e206861736e2774206265656e207175657565642e54696d656c6f636b3a3a61636365707441646d696e3a2043616c6c206d75737420636f6d652066726f6d2070656e64696e6741646d696e2e54696d656c6f636b3a3a73657450656e64696e6741646d696e3a2043616c6c206d75737420636f6d652066726f6d2054696d656c6f636b2e54696d656c6f636b3a3a71756575655472616e73616374696f6e3a2043616c6c206d75737420636f6d652066726f6d2061646d696e2e54696d656c6f636b3a3a657865637574655472616e73616374696f6e3a205472616e73616374696f6e20657865637574696f6e2072657665727465642e54696d656c6f636b3a3a71756575655472616e73616374696f6e3a20457374696d6174656420657865637574696f6e20626c6f636b206d75737420736174697366792064656c61792e54696d656c6f636b3a3a73657444656c61793a2043616c6c206d75737420636f6d652066726f6d2054696d656c6f636b2ea265627a7a723158201fd1d97156d0afbc9cfd8468113abb89b7b97229cfc5d3cd96884c39424244bc64736f6c6343000510003254696d656c6f636b3a3a636f6e7374727563746f723a2044656c6179206d75737420657863656564206d696e696d756d2064656c61792e54696d656c6f636b3a3a73657444656c61793a2044656c6179206d757374206e6f7420657863656564206d6178696d756d2064656c61792e",
  "linkReferences": {},
  "deployedLinkReferences": {}
}