{
  "_format": "hh-sol-artifact-1",
  "contractName": "GovernorAlpha",
  "sourceName": "contracts/GovernorAlpha.sol",
  "abi": [
    {
      "inputs": [
        {
          "internalType": "address",
          "name": "timelock_",
          "type": "address"
        },
        {
          "internalType": "address",
          "name": "comp_",
          "type": "address"
        },
        {
          "internalType": "address",
          "name": "guardian_",
          "type": "address"
        }
      ],
      "payable": false,
      "stateMutability": "nonpayable",
      "type": "constructor"
    },
    {
      "anonymous": false,
      "inputs": [
        {
          "indexed": false,
          "internalType": "uint256",
          "name": "id",
          "type": "uint256"
        }
      ],
      "name": "ProposalCanceled",
      "type": "event"
    },
    {
      "anonymous": false,
      "inputs": [
        {
          "indexed": false,
          "internalType": "uint256",
          "name": "id",
          "type": "uint256"
        },
        {
          "indexed": false,
          "internalType": "address",
          "name": "proposer",
          "type": "address"
        },
        {
          "indexed": false,
          "internalType": "address[]",
          "name": "targets",
          "type": "address[]"
        },
        {
          "indexed": false,
          "internalType": "uint256[]",
          "name": "values",
          "type": "uint256[]"
        },
        {
          "indexed": false,
          "internalType": "bytes[]",
          "name": "calldatas",
          "type": "bytes[]"
        },
        {
          "indexed": false,
          "internalType": "uint256",
          "name": "startBlock",
          "type": "uint256"
        },
        {
          "indexed": false,
          "internalType": "uint256",
          "name": "endBlock",
          "type": "uint256"
        },
        {
          "indexed": false,
          "internalType": "string",
          "name": "description",
          "type": "string"
        }
      ],
      "name": "ProposalCreated",
      "type": "event"
    },
    {
      "anonymous": false,
      "inputs": [
        {
          "indexed": false,
          "internalType": "uint256",
          "name": "id",
          "type": "uint256"
        }
      ],
      "name": "ProposalExecuted",
      "type": "event"
    },
    {
      "anonymous": false,
      "inputs": [
        {
          "indexed": false,
          "internalType": "uint256",
          "name": "id",
          "type": "uint256"
        },
        {
          "indexed": false,
          "internalType": "uint256",
          "name": "eta",
          "type": "uint256"
        }
      ],
      "name": "ProposalQueued",
      "type": "event"
    },
    {
      "anonymous": false,
      "inputs": [
        {
          "indexed": false,
          "internalType": "address",
          "name": "voter",
          "type": "address"
        },
        {
          "indexed": false,
          "internalType": "uint256",
          "name": "proposalId",
          "type": "uint256"
        },
        {
          "indexed": false,
          "internalType": "bool",
          "name": "support",
          "type": "bool"
        },
        {
          "indexed": false,
          "internalType": "uint256",
          "name": "votes",
          "type": "uint256"
        }
      ],
      "name": "VoteCast",
      "type": "event"
    },
    {
      "constant": true,
      "inputs": [],
      "name": "BALLOT_TYPEHASH",
      "outputs": [
        {
          "internalType": "bytes32",
          "name": "",
          "type": "bytes32"
        }
      ],
      "payable": false,
      "stateMutability": "view",
      "type": "function"
    },
    {
      "constant": true,
      "inputs": [],
      "name": "DOMAIN_TYPEHASH",
      "outputs": [
        {
          "internalType": "bytes32",
          "name": "",
          "type": "bytes32"
        }
      ],
      "payable": false,
      "stateMutability": "view",
      "type": "function"
    },
    {
      "constant": false,
      "inputs": [],
      "name": "__abdicate",
      "outputs": [],
      "payable": false,
      "stateMutability": "nonpayable",
      "type": "function"
    },
    {
      "constant": false,
      "inputs": [],
      "name": "__acceptAdmin",
      "outputs": [],
      "payable": false,
      "stateMutability": "nonpayable",
      "type": "function"
    },
    {
      "constant": false,
      "inputs": [
        {
          "internalType": "address",
          "name": "newPendingAdmin",
          "type": "address"
        },
        {
          "internalType": "uint256",
          "name": "eta",
          "type": "uint256"
        }
      ],
      "name": "__executeSetTimelockPendingAdmin",
      "outputs": [],
      "payable": false,
      "stateMutability": "nonpayable",
      "type": "function"
    },
    {
      "constant": false,
      "inputs": [
        {
          "internalType": "address",
          "name": "newPendingAdmin",
          "type": "address"
        },
        {
          "internalType": "uint256",
          "name": "eta",
          "type": "uint256"
        }
      ],
      "name": "__queueSetTimelockPendingAdmin",
      "outputs": [],
      "payable": false,
      "stateMutability": "nonpayable",
      "type": "function"
    },
    {
      "constant": false,
      "inputs": [
        {
          "internalType": "uint256",
          "name": "proposalId",
          "type": "uint256"
        }
      ],
      "name": "cancel",
      "outputs": [],
      "payable": false,
      "stateMutability": "nonpayable",
      "type": "function"
    },
    {
      "constant": false,
      "inputs": [
        {
          "internalType": "uint256",
          "name": "proposalId",
          "type": "uint256"
        },
        {
          "internalType": "bool",
          "name": "support",
          "type": "bool"
        }
      ],
      "name": "castVote",
      "outputs": [],
      "payable": false,
      "stateMutability": "nonpayable",
      "type": "function"
    },
    {
      "constant": false,
      "inputs": [
        {
          "internalType": "uint256",
          "name": "proposalId",
          "type": "uint256"
        },
        {
          "internalType": "bool",
          "name": "support",
          "type": "bool"
        },
        {
          "internalType": "uint8",
          "name": "v",
          "type": "uint8"
        },
        {
          "internalType": "bytes32",
          "name": "r",
          "type": "bytes32"
        },
        {
          "internalType": "bytes32",
          "name": "s",
          "type": "bytes32"
        }
      ],
      "name": "castVoteBySig",
      "outputs": [],
      "payable": false,
      "stateMutability": "nonpayable",
      "type": "function"
    },
    {
      "constant": true,
      "inputs": [],
      "name": "comp",
      "outputs": [
        {
          "internalType": "contract CompInterface",
          "name": "",
          "type": "address"
        }
      ],
      "payable": false,
      "stateMutability": "view",
      "type": "function"
    },
    {
      "constant": false,
      "inputs": [
        {
          "internalType": "uint256",
          "name": "proposalId",
          "type": "uint256"
        }
      ],
      "name": "execute",
      "outputs": [],
      "payable": true,
      "stateMutability": "payable",
      "type": "function"
    },
    {
      "constant": true,
      "inputs": [
        {
          "internalType": "uint256",
          "name": "proposalId",
          "type": "uint256"
        }
      ],
      "name": "getActions",
      "outputs": [
        {
          "internalType": "address[]",
          "name": "targets",
          "type": "address[]"
        },
        {
          "internalType": "uint256[]",
          "name": "values",
          "type": "uint256[]"
        },
        {
          "internalType": "bytes[]",
          "name": "calldatas",
          "type": "bytes[]"
        }
      ],
      "payable": false,
      "stateMutability": "view",
      "type": "function"
    },
    {
      "constant": true,
      "inputs": [
        {
          "internalType": "uint256",
          "name": "proposalId",
          "type": "uint256"
        },
        {
          "internalType": "address",
          "name": "voter",
          "type": "address"
        }
      ],
      "name": "getReceipt",
      "outputs": [
        {
          "components": [
            {
              "internalType": "bool",
              "name": "hasVoted",
              "type": "bool"
            },
            {
              "internalType": "bool",
              "name": "support",
              "type": "bool"
            },
            {
              "internalType": "uint96",
              "name": "votes",
              "type": "uint96"
            }
          ],
          "internalType": "struct GovernorAlpha.Receipt",
          "name": "",
          "type": "tuple"
        }
      ],
      "payable": false,
      "stateMutability": "view",
      "type": "function"
    },
    {
      "constant": true,
      "inputs": [],
      "name": "guardian",
      "outputs": [
        {
          "internalType": "address",
          "name": "",
          "type": "address"
        }
      ],
      "payable": false,
      "stateMutability": "view",
      "type": "function"
    },
    {
      "constant": true,
      "inputs": [
        {
          "internalType": "address",
          "name": "",
          "type": "address"
        }
      ],
      "name": "latestProposalIds",
      "outputs": [
        {
          "internalType": "uint256",
          "name": "",
          "type": "uint256"
        }
      ],
      "payable": false,
      "stateMutability": "view",
      "type": "function"
    },
    {
      "constant": true,
      "inputs": [],
      "name": "name",
      "outputs": [
        {
          "internalType": "string",
          "name": "",
          "type": "string"
        }
      ],
      "payable": false,
      "stateMutability": "view",
      "type": "function"
    },
    {
      "constant": true,
      "inputs": [],
      "name": "proposalCount",
      "outputs": [
        {
          "internalType": "uint256",
          "name": "",
          "type": "uint256"
        }
      ],
      "payable": false,
      "stateMutability": "view",
      "type": "function"
    },
    {
      "constant": true,
      "inputs": [],
      "name": "proposalMaxOperations",
      "outputs": [
        {
          "internalType": "uint256",
          "name": "",
          "type": "uint256"
        }
      ],
      "payable": false,
      "stateMutability": "pure",
      "type": "function"
    },
    {
      "constant": true,
      "inputs": [],
      "name": "proposalThreshold",
      "outputs": [
        {
          "internalType": "uint256",
          "name": "",
          "type": "uint256"
        }
      ],
      "payable": false,
      "stateMutability": "pure",
      "type": "function"
    },
    {
      "constant": true,
      "inputs": [
        {
          "internalType": "uint256",
          "name": "",
          "type": "uint256"
        }
      ],
      "name": "proposals",
      "outputs": [
        {
          "internalType": "uint256",
          "name": "id",
          "type": "uint256"
        },
        {
          "internalType": "address",
          "name": "proposer",
          "type": "address"
        },
        {
          "internalType": "uint256",
          "name": "eta",
          "type": "uint256"
        },
        {
          "internalType": "uint256",
          "name": "startBlock",
          "type": "uint256"
        },
        {
          "internalType": "uint256",
          "name": "endBlock",
          "type": "uint256"
        },
        {
          "internalType": "uint256",
          "name": "forVotes",
          "type": "uint256"
        },
        {
          "internalType": "uint256",
          "name": "againstVotes",
          "type": "uint256"
        },
        {
          "internalType": "bool",
          "name": "canceled",
          "type": "bool"
        },
        {
          "internalType": "bool",
          "name": "executed",
          "type": "bool"
        }
      ],
      "payable": false,
      "stateMutability": "view",
      "type": "function"
    },
    {
      "constant": false,
      "inputs": [
        {
          "internalType": "address[]",
          "name": "targets",
          "type": "address[]"
        },
        {
          "internalType": "uint256[]",
          "name": "values",
          "type": "uint256[]"
        },
        {
          "internalType": "bytes[]",
          "name": "calldatas",
          "type": "bytes[]"
        },
        {
          "internalType": "string",
          "name": "description",
          "type": "string"
        }
      ],
      "name": "propose",
      "outputs": [
        {
          "internalType": "uint256",
          "name": "",
          "type": "uint256"
        }
      ],
      "payable": false,
      "stateMutability": "nonpayable",
      "type": "function"
    },
    {
      "constant": false,
      "inputs": [
        {
          "internalType": "uint256",
          "name": "proposalId",
          "type": "uint256"
        }
      ],
      "name": "queue",
      "outputs": [],
      "payable": false,
      "stateMutability": "nonpayable",
      "type": "function"
    },
    {
      "constant": true,
      "inputs": [],
      "name": "quorumVotes",
      "outputs": [
        {
          "internalType": "uint256",
          "name": "",
          "type": "uint256"
        }
      ],
      "payable": false,
      "stateMutability": "pure",
      "type": "function"
    },
    {
      "constant": true,
      "inputs": [
        {
          "internalType": "uint256",
          "name": "proposalId",
          "type": "uint256"
        }
      ],
      "name": "state",
      "outputs": [
        {
          "internalType": "enum GovernorAlpha.ProposalState",
          "name": "",
          "type": "uint8"
        }
      ],
      "payable": false,
      "stateMutability": "view",
      "type": "function"
    },
    {
      "constant": true,
      "inputs": [],
      "name": "timelock",
      "outputs": [
        {
          "internalType": "contract TimelockInterface",
          "name": "",
          "type": "address"
        }
      ],
      "payable": false,
      "stateMutability": "view",
      "type": "function"
    },
    {
      "constant": true,
      "inputs": [],
      "name": "votingDelay",
      "outputs": [
        {
          "internalType": "uint256",
          "name": "",
          "type": "uint256"
        }
      ],
      "payable": false,
      "stateMutability": "pure",
      "type": "function"
    },
    {
      "constant": true,
      "inputs": [],
      "name": "votingPeriod",
      "outputs": [
        {
          "internalType": "uint256",
          "name": "",
          "type": "uint256"
        }
      ],
      "payable": false,
      "stateMutability": "pure",
      "type": "function"
    }
  ],
  "bytecode": "0x60806040523480156200001157600080fd5b5060405162004d6538038062004d65833981810160405262000037919081019062000119565b826000806101000a81548173ffffffffffffffffffffffffffffffffffffffff021916908373ffffffffffffffffffffffffffffffffffffffff16021790555081600160006101000a81548173ffffffffffffffffffffffffffffffffffffffff021916908373ffffffffffffffffffffffffffffffffffffffff16021790555080600260006101000a81548173ffffffffffffffffffffffffffffffffffffffff021916908373ffffffffffffffffffffffffffffffffffffffff160217905550505050620001bd565b6000815190506200011381620001a3565b92915050565b6000806000606084860312156200012f57600080fd5b60006200013f8682870162000102565b9350506020620001528682870162000102565b9250506040620001658682870162000102565b9150509250925092565b60006200017c8262000183565b9050919050565b600073ffffffffffffffffffffffffffffffffffffffff82169050919050565b620001ae816200016f565b8114620001ba57600080fd5b50565b614b9880620001cd6000396000f3fe60806040526004361061019c5760003560e01c8063452a9320116100ec578063b9a619611161008a578063ddf0b00911610064578063ddf0b009146105b0578063deaaa7cc146105d9578063e23a9a5214610604578063fe0d94c1146106415761019c565b8063b9a6196114610543578063d33219b41461055a578063da35c664146105855761019c565b80637bdbe4d0116100c65780637bdbe4d0146104875780637d5e81e2146104b257806391500671146104ef578063b58131b0146105185761019c565b8063452a93201461041c5780634634c61f14610447578063760fbc13146104705761019c565b806320606b7011610159578063328dd98211610133578063328dd9821461034c5780633932abb11461038b5780633e4f49e6146103b657806340e58ee5146103f35761019c565b806320606b70146102cd57806321f43e42146102f857806324bc1a64146103215761019c565b8063013cf08b146101a157806302a251a3146101e657806306fdde0314610211578063109d0af81461023c57806315373e3d1461026757806317977c6114610290575b600080fd5b3480156101ad57600080fd5b506101c860048036036101c39190810190612f18565b61065d565b6040516101dd9998979695949392919061461a565b60405180910390f35b3480156101f257600080fd5b506101fb6106e5565b6040516102089190614565565b60405180910390f35b34801561021d57600080fd5b506102266106ee565b6040516102339190614288565b60405180910390f35b34801561024857600080fd5b50610251610727565b60405161025e9190614237565b60405180910390f35b34801561027357600080fd5b5061028e60048036036102899190810190612fa6565b61074d565b005b34801561029c57600080fd5b506102b760048036036102b29190810190612d5d565b61075c565b6040516102c49190614565565b60405180910390f35b3480156102d957600080fd5b506102e2610774565b6040516102ef919061415b565b60405180910390f35b34801561030457600080fd5b5061031f600480360361031a9190810190612d86565b61078b565b005b34801561032d57600080fd5b50610336610918565b6040516103439190614565565b60405180910390f35b34801561035857600080fd5b50610373600480360361036e9190810190612f18565b61092b565b6040516103829392919061410f565b60405180910390f35b34801561039757600080fd5b506103a0610b1e565b6040516103ad9190614565565b60405180910390f35b3480156103c257600080fd5b506103dd60048036036103d89190810190612f18565b610b27565b6040516103ea919061426d565b60405180910390f35b3480156103ff57600080fd5b5061041a60048036036104159190810190612f18565b610d0b565b005b34801561042857600080fd5b5061043161108d565b60405161043e9190613f79565b60405180910390f35b34801561045357600080fd5b5061046e60048036036104699190810190612fe2565b6110b3565b005b34801561047c57600080fd5b50610485611282565b005b34801561049357600080fd5b5061049c611356565b6040516104a99190614565565b60405180910390f35b3480156104be57600080fd5b506104d960048036036104d49190810190612dc2565b61135f565b6040516104e69190614565565b60405180910390f35b3480156104fb57600080fd5b5061051660048036036105119190810190612d86565b6118f8565b005b34801561052457600080fd5b5061052d611a80565b60405161053a9190614565565b60405180910390f35b34801561054f57600080fd5b50610558611a92565b005b34801561056657600080fd5b5061056f611ba5565b60405161057c9190614252565b60405180910390f35b34801561059157600080fd5b5061059a611bca565b6040516105a79190614565565b60405180910390f35b3480156105bc57600080fd5b506105d760048036036105d29190810190612f18565b611bd0565b005b3480156105e557600080fd5b506105ee611e6d565b6040516105fb919061415b565b60405180910390f35b34801561061057600080fd5b5061062b60048036036106269190810190612f6a565b611e84565b604051610638919061454a565b60405180910390f35b61065b60048036036106569190810190612f18565b611f66565b005b60046020528060005260406000206000915090508060000154908060010160009054906101000a900473ffffffffffffffffffffffffffffffffffffffff169080600201549080600601549080600701549080600801549080600901549080600a0160009054906101000a900460ff169080600a0160019054906101000a900460ff16905089565b6000603c905090565b6040518060400160405280600e81526020017f476f7665726e6f7220416c70686100000000000000000000000000000000000081525081565b600160009054906101000a900473ffffffffffffffffffffffffffffffffffffffff1681565b610758338383612199565b5050565b60056020528060005260406000206000915090505481565b60405161078090613f4f565b604051809103902081565b600260009054906101000a900473ffffffffffffffffffffffffffffffffffffffff1673ffffffffffffffffffffffffffffffffffffffff163373ffffffffffffffffffffffffffffffffffffffff161461081b576040517f08c379a00000000000000000000000000000000000000000000000000000000081526004016108129061430a565b60405180910390fd5b6000809054906101000a900473ffffffffffffffffffffffffffffffffffffffff1673ffffffffffffffffffffffffffffffffffffffff166306a41d096000809054906101000a900473ffffffffffffffffffffffffffffffffffffffff1660008560405160200161088d9190613f79565b604051602081830303815290604052856040518563ffffffff1660e01b81526004016108bc9493929190613fbd565b600060405180830381600087803b1580156108d657600080fd5b505af11580156108ea573d6000803e3d6000fd5b505050506040513d6000823e3d601f19601f820116820180604052506109139190810190612ed7565b505050565b60006a0422ca8b0a00a425000000905090565b60608060606000600460008681526020019081526020016000209050806003018160040182600501828054806020026020016040519081016040528092919081815260200182805480156109d457602002820191906000526020600020905b8160009054906101000a900473ffffffffffffffffffffffffffffffffffffffff1673ffffffffffffffffffffffffffffffffffffffff168152602001906001019080831161098a575b5050505050925081805480602002602001604051908101604052809291908181526020018280548015610a2657602002820191906000526020600020905b815481526020019060010190808311610a12575b5050505050915080805480602002602001604051908101604052809291908181526020016000905b82821015610b0a578382906000526020600020018054600181600116156101000203166002900480601f016020809104026020016040519081016040528092919081815260200182805460018160011615610100020316600290048015610af65780601f10610acb57610100808354040283529160200191610af6565b820191906000526020600020905b815481529060010190602001808311610ad957829003601f168201915b505050505081526020019060010190610a4e565b505050509050935093509350509193909250565b60006001905090565b60008160035410158015610b3b5750600082115b610b7a576040517f08c379a0000000000000000000000000000000000000000000000000000000008152600401610b719061432a565b60405180910390fd5b600060046000848152602001908152602001600020905080600a0160009054906101000a900460ff1615610bb2576002915050610d06565b80600601544311610bc7576000915050610d06565b80600701544311610bdc576001915050610d06565b80600901548160080154111580610bfd5750610bf6610918565b8160080154105b15610c0c576003915050610d06565b600081600201541415610c23576004915050610d06565b80600a0160019054906101000a900460ff1615610c44576007915050610d06565b610cf081600201546000809054906101000a900473ffffffffffffffffffffffffffffffffffffffff1673ffffffffffffffffffffffffffffffffffffffff1663c1a287e26040518163ffffffff1660e01b815260040160206040518083038186803b158015610cb357600080fd5b505afa158015610cc7573d6000803e3d6000fd5b505050506040513d601f19601f82011682018060405250610ceb9190810190612f41565b612468565b4210610d00576006915050610d06565b60059150505b919050565b6000610d1682610b27565b9050600780811115610d2457fe5b816007811115610d3057fe5b1415610d71576040517f08c379a0000000000000000000000000000000000000000000000000000000008152600401610d68906144ca565b60405180910390fd5b6000600460008481526020019081526020016000209050600260009054906101000a900473ffffffffffffffffffffffffffffffffffffffff1673ffffffffffffffffffffffffffffffffffffffff163373ffffffffffffffffffffffffffffffffffffffff161480610ed25750610de7611a80565b600160009054906101000a900473ffffffffffffffffffffffffffffffffffffffff1673ffffffffffffffffffffffffffffffffffffffff1663782d6fe18360010160009054906101000a900473ffffffffffffffffffffffffffffffffffffffff16610e554360016124bd565b6040518363ffffffff1660e01b8152600401610e72929190614009565b60206040518083038186803b158015610e8a57600080fd5b505afa158015610e9e573d6000803e3d6000fd5b505050506040513d601f19601f82011682018060405250610ec29190810190613059565b6bffffffffffffffffffffffff16105b610f11576040517f08c379a0000000000000000000000000000000000000000000000000000000008152600401610f089061440a565b60405180910390fd5b600181600a0160006101000a81548160ff02191690831515021790555060008090505b8160030180549050811015611050576000809054906101000a900473ffffffffffffffffffffffffffffffffffffffff1673ffffffffffffffffffffffffffffffffffffffff16635b26b108836003018381548110610f8f57fe5b9060005260206000200160009054906101000a900473ffffffffffffffffffffffffffffffffffffffff16846004018481548110610fc957fe5b9060005260206000200154856005018581548110610fe357fe5b9060005260206000200186600201546040518563ffffffff1660e01b815260040161101194939291906140c3565b600060405180830381600087803b15801561102b57600080fd5b505af115801561103f573d6000803e3d6000fd5b505050508080600101915050610f34565b507f789cf55be980739dad1d0699b93b58e806b51c9d96619bfa8fe0a28abaa7b30c836040516110809190614565565b60405180910390a1505050565b600260009054906101000a900473ffffffffffffffffffffffffffffffffffffffff1681565b60006040516110c190613f4f565b60405180910390206040518060400160405280600e81526020017f476f7665726e6f7220416c7068610000000000000000000000000000000000008152508051906020012061110e61250d565b306040516020016111229493929190614176565b604051602081830303815290604052805190602001209050600060405161114890613f64565b60405180910390208787604051602001611164939291906141bb565b60405160208183030381529060405280519060200120905060008282604051602001611191929190613f18565b6040516020818303038152906040528051906020012090506000600182888888604051600081526020016040526040516111ce94939291906141f2565b6020604051602081039080840390855afa1580156111f0573d6000803e3d6000fd5b505050602060405103519050600073ffffffffffffffffffffffffffffffffffffffff168173ffffffffffffffffffffffffffffffffffffffff16141561126c576040517f08c379a00000000000000000000000000000000000000000000000000000000081526004016112639061448a565b60405180910390fd5b611277818a8a612199565b505050505050505050565b600260009054906101000a900473ffffffffffffffffffffffffffffffffffffffff1673ffffffffffffffffffffffffffffffffffffffff163373ffffffffffffffffffffffffffffffffffffffff1614611312576040517f08c379a00000000000000000000000000000000000000000000000000000000081526004016113099061452a565b60405180910390fd5b6000600260006101000a81548173ffffffffffffffffffffffffffffffffffffffff021916908373ffffffffffffffffffffffffffffffffffffffff160217905550565b6000600a905090565b6000611369611a80565b600160009054906101000a900473ffffffffffffffffffffffffffffffffffffffff1673ffffffffffffffffffffffffffffffffffffffff1663782d6fe1336113b34360016124bd565b6040518363ffffffff1660e01b81526004016113d0929190613f94565b60206040518083038186803b1580156113e857600080fd5b505afa1580156113fc573d6000803e3d6000fd5b505050506040513d601f19601f820116820180604052506114209190810190613059565b6bffffffffffffffffffffffff161161146e576040517f08c379a00000000000000000000000000000000000000000000000000000000081526004016114659061446a565b60405180910390fd5b83518551148015611480575082518551145b6114bf576040517f08c379a00000000000000000000000000000000000000000000000000000000081526004016114b6906143ea565b60405180910390fd5b600085511415611504576040517f08c379a00000000000000000000000000000000000000000000000000000000081526004016114fb9061444a565b60405180910390fd5b61150c611356565b8551111561154f576040517f08c379a0000000000000000000000000000000000000000000000000000000008152600401611546906143aa565b60405180910390fd5b6000600560003373ffffffffffffffffffffffffffffffffffffffff1673ffffffffffffffffffffffffffffffffffffffff1681526020019081526020016000205490506000811461165e5760006115a682610b27565b9050600160078111156115b557fe5b8160078111156115c157fe5b1415611602576040517f08c379a00000000000000000000000000000000000000000000000000000000081526004016115f9906144aa565b60405180910390fd5b6000600781111561160f57fe5b81600781111561161b57fe5b141561165c576040517f08c379a00000000000000000000000000000000000000000000000000000000081526004016116539061436a565b60405180910390fd5b505b60006116714361166c610b1e565b612468565b90506000611686826116816106e5565b612468565b90506003600081548092919060010191905055506116a26126e9565b60405180610180016040528060035481526020013373ffffffffffffffffffffffffffffffffffffffff168152602001600081526020018a815260200189815260200188815260200184815260200183815260200160008152602001600081526020016000151581526020016000151581525090508060046000836000015181526020019081526020016000206000820151816000015560208201518160010160006101000a81548173ffffffffffffffffffffffffffffffffffffffff021916908373ffffffffffffffffffffffffffffffffffffffff1602179055506040820151816002015560608201518160030190805190602001906117a6929190612764565b5060808201518160040190805190602001906117c39291906127ee565b5060a08201518160050190805190602001906117e092919061283b565b5060c0820151816006015560e082015181600701556101008201518160080155610120820151816009015561014082015181600a0160006101000a81548160ff02191690831515021790555061016082015181600a0160016101000a81548160ff021916908315150217905550905050806000015160056000836020015173ffffffffffffffffffffffffffffffffffffffff1673ffffffffffffffffffffffffffffffffffffffff168152602001908152602001600020819055507f95f03e437e6d5037418f12bef80fc7e0a5f27754c078a1d5d3f62d39bac44e508160000151338b8b8b88888d6040516118dd989796959493929190614580565b60405180910390a18060000151945050505050949350505050565b600260009054906101000a900473ffffffffffffffffffffffffffffffffffffffff1673ffffffffffffffffffffffffffffffffffffffff163373ffffffffffffffffffffffffffffffffffffffff1614611988576040517f08c379a000000000000000000000000000000000000000000000000000000000815260040161197f9061438a565b60405180910390fd5b6000809054906101000a900473ffffffffffffffffffffffffffffffffffffffff1673ffffffffffffffffffffffffffffffffffffffff16638e361cdf6000809054906101000a900473ffffffffffffffffffffffffffffffffffffffff166000856040516020016119fa9190613f79565b604051602081830303815290604052856040518563ffffffff1660e01b8152600401611a299493929190613fbd565b602060405180830381600087803b158015611a4357600080fd5b505af1158015611a57573d6000803e3d6000fd5b505050506040513d601f19601f82011682018060405250611a7b9190810190612eae565b505050565b600069152d02c7e14af6800000905090565b600260009054906101000a900473ffffffffffffffffffffffffffffffffffffffff1673ffffffffffffffffffffffffffffffffffffffff163373ffffffffffffffffffffffffffffffffffffffff1614611b22576040517f08c379a0000000000000000000000000000000000000000000000000000000008152600401611b19906142aa565b60405180910390fd5b6000809054906101000a900473ffffffffffffffffffffffffffffffffffffffff1673ffffffffffffffffffffffffffffffffffffffff16630e18b6816040518163ffffffff1660e01b8152600401600060405180830381600087803b158015611b8b57600080fd5b505af1158015611b9f573d6000803e3d6000fd5b50505050565b6000809054906101000a900473ffffffffffffffffffffffffffffffffffffffff1681565b60035481565b60046007811115611bdd57fe5b611be682610b27565b6007811115611bf157fe5b14611c31576040517f08c379a0000000000000000000000000000000000000000000000000000000008152600401611c28906142ca565b60405180910390fd5b60006004600083815260200190815260200160002090506000611cf2426000809054906101000a900473ffffffffffffffffffffffffffffffffffffffff1673ffffffffffffffffffffffffffffffffffffffff16636a42b8f86040518163ffffffff1660e01b815260040160206040518083038186803b158015611cb557600080fd5b505afa158015611cc9573d6000803e3d6000fd5b505050506040513d601f19601f82011682018060405250611ced9190810190612f41565b612468565b905060008090505b8260030180549050811015611e2557611e18836003018281548110611d1b57fe5b9060005260206000200160009054906101000a900473ffffffffffffffffffffffffffffffffffffffff16846004018381548110611d5557fe5b9060005260206000200154856005018481548110611d6f57fe5b906000526020600020018054600181600116156101000203166002900480601f016020809104026020016040519081016040528092919081815260200182805460018160011615610100020316600290048015611e0d5780601f10611de257610100808354040283529160200191611e0d565b820191906000526020600020905b815481529060010190602001808311611df057829003601f168201915b50505050508561251a565b8080600101915050611cfa565b508082600201819055507f9a2e42fd6722813d69113e7d0079d3d940171428df7373df9c7f7617cfda28928382604051611e609291906146a7565b60405180910390a1505050565b604051611e7990613f64565b604051809103902081565b611e8c61289b565b60046000848152602001908152602001600020600b0160008373ffffffffffffffffffffffffffffffffffffffff1673ffffffffffffffffffffffffffffffffffffffff1681526020019081526020016000206040518060600160405290816000820160009054906101000a900460ff161515151581526020016000820160019054906101000a900460ff161515151581526020016000820160029054906101000a90046bffffffffffffffffffffffff166bffffffffffffffffffffffff166bffffffffffffffffffffffff1681525050905092915050565b60056007811115611f7357fe5b611f7c82610b27565b6007811115611f8757fe5b14611fc7576040517f08c379a0000000000000000000000000000000000000000000000000000000008152600401611fbe906142ea565b60405180910390fd5b6000600460008381526020019081526020016000209050600181600a0160016101000a81548160ff02191690831515021790555060008090505b816003018054905081101561215d576000809054906101000a900473ffffffffffffffffffffffffffffffffffffffff1673ffffffffffffffffffffffffffffffffffffffff166306a41d0983600401838154811061205c57fe5b906000526020600020015484600301848154811061207657fe5b9060005260206000200160009054906101000a900473ffffffffffffffffffffffffffffffffffffffff168560040185815481106120b057fe5b90600052602060002001548660050186815481106120ca57fe5b9060005260206000200187600201546040518663ffffffff1660e01b81526004016120f894939291906140c3565b6000604051808303818588803b15801561211157600080fd5b505af1158015612125573d6000803e3d6000fd5b50505050506040513d6000823e3d601f19601f8201168201806040525061214f9190810190612ed7565b508080600101915050612001565b507f712ae1383f79ac853f8d882153778e0260ef8f03b504e2866e0593e04d2b291f8260405161218d9190614565565b60405180910390a15050565b600160078111156121a657fe5b6121af83610b27565b60078111156121ba57fe5b146121fa576040517f08c379a00000000000000000000000000000000000000000000000000000000081526004016121f1906144ea565b60405180910390fd5b6000600460008481526020019081526020016000209050600081600b0160008673ffffffffffffffffffffffffffffffffffffffff1673ffffffffffffffffffffffffffffffffffffffff1681526020019081526020016000209050600015158160000160009054906101000a900460ff161515146122ae576040517f08c379a00000000000000000000000000000000000000000000000000000000081526004016122a59061434a565b60405180910390fd5b6000600160009054906101000a900473ffffffffffffffffffffffffffffffffffffffff1673ffffffffffffffffffffffffffffffffffffffff1663782d6fe18785600601546040518363ffffffff1660e01b8152600401612311929190614009565b60206040518083038186803b15801561232957600080fd5b505afa15801561233d573d6000803e3d6000fd5b505050506040513d601f19601f820116820180604052506123619190810190613059565b90508315612392576123858360080154826bffffffffffffffffffffffff16612468565b83600801819055506123b7565b6123ae8360090154826bffffffffffffffffffffffff16612468565b83600901819055505b60018260000160006101000a81548160ff021916908315150217905550838260000160016101000a81548160ff021916908315150217905550808260000160026101000a8154816bffffffffffffffffffffffff02191690836bffffffffffffffffffffffff1602179055507f877856338e13f63d0c36822ff0ef736b80934cd90574a3a5bc9262c39d217c46868686846040516124589493929190614032565b60405180910390a1505050505050565b6000808284019050838110156124b3576040517f08c379a00000000000000000000000000000000000000000000000000000000081526004016124aa906143ca565b60405180910390fd5b8091505092915050565b600082821115612502576040517f08c379a00000000000000000000000000000000000000000000000000000000081526004016124f99061450a565b60405180910390fd5b818303905092915050565b6000804690508091505090565b6000809054906101000a900473ffffffffffffffffffffffffffffffffffffffff1673ffffffffffffffffffffffffffffffffffffffff1663f2b065378585858560405160200161256e9493929190614077565b604051602081830303815290604052805190602001206040518263ffffffff1660e01b81526004016125a0919061415b565b60206040518083038186803b1580156125b857600080fd5b505afa1580156125cc573d6000803e3d6000fd5b505050506040513d601f19601f820116820180604052506125f09190810190612e85565b15612630576040517f08c379a00000000000000000000000000000000000000000000000000000000081526004016126279061442a565b60405180910390fd5b6000809054906101000a900473ffffffffffffffffffffffffffffffffffffffff1673ffffffffffffffffffffffffffffffffffffffff16638e361cdf858585856040518563ffffffff1660e01b81526004016126909493929190614077565b602060405180830381600087803b1580156126aa57600080fd5b505af11580156126be573d6000803e3d6000fd5b505050506040513d601f19601f820116820180604052506126e29190810190612eae565b5050505050565b60405180610180016040528060008152602001600073ffffffffffffffffffffffffffffffffffffffff16815260200160008152602001606081526020016060815260200160608152602001600081526020016000815260200160008152602001600081526020016000151581526020016000151581525090565b8280548282559060005260206000209081019282156127dd579160200282015b828111156127dc5782518260006101000a81548173ffffffffffffffffffffffffffffffffffffffff021916908373ffffffffffffffffffffffffffffffffffffffff16021790555091602001919060010190612784565b5b5090506127ea91906128ce565b5090565b82805482825590600052602060002090810192821561282a579160200282015b8281111561282957825182559160200191906001019061280e565b5b5090506128379190612911565b5090565b82805482825590600052602060002090810192821561288a579160200282015b82811115612889578251829080519060200190612879929190612936565b509160200191906001019061285b565b5b50905061289791906129b6565b5090565b604051806060016040528060001515815260200160001515815260200160006bffffffffffffffffffffffff1681525090565b61290e91905b8082111561290a57600081816101000a81549073ffffffffffffffffffffffffffffffffffffffff0219169055506001016128d4565b5090565b90565b61293391905b8082111561292f576000816000905550600101612917565b5090565b90565b828054600181600116156101000203166002900490600052602060002090601f016020900481019282601f1061297757805160ff19168380011785556129a5565b828001600101855582156129a5579182015b828111156129a4578251825591602001919060010190612989565b5b5090506129b29190612911565b5090565b6129df91905b808211156129db57600081816129d291906129e2565b506001016129bc565b5090565b90565b50805460018160011615610100020316600290046000825580601f10612a085750612a27565b601f016020900490600052602060002090810190612a269190612911565b5b50565b600081359050612a3981614acb565b92915050565b600082601f830112612a5057600080fd5b8135612a63612a5e826146fd565b6146d0565b91508181835260208401935060208101905083856020840282011115612a8857600080fd5b60005b83811015612ab85781612a9e8882612a2a565b845260208401935060208301925050600181019050612a8b565b5050505092915050565b600082601f830112612ad357600080fd5b8135612ae6612ae182614725565b6146d0565b9150818183526020840193506020810190508360005b83811015612b2c5781358601612b128882612c0d565b845260208401935060208301925050600181019050612afc565b5050505092915050565b600082601f830112612b4757600080fd5b8135612b5a612b558261474d565b6146d0565b91508181835260208401935060208101905083856020840282011115612b7f57600080fd5b60005b83811015612baf5781612b958882612d09565b845260208401935060208301925050600181019050612b82565b5050505092915050565b600081359050612bc881614ae2565b92915050565b600081519050612bdd81614ae2565b92915050565b600081359050612bf281614af9565b92915050565b600081519050612c0781614af9565b92915050565b600082601f830112612c1e57600080fd5b8135612c31612c2c82614775565b6146d0565b91508082526020830160208301858383011115612c4d57600080fd5b612c58838284614a61565b50505092915050565b600082601f830112612c7257600080fd5b8151612c85612c80826147a1565b6146d0565b91508082526020830160208301858383011115612ca157600080fd5b612cac838284614a70565b50505092915050565b600082601f830112612cc657600080fd5b8135612cd9612cd4826147cd565b6146d0565b91508082526020830160208301858383011115612cf557600080fd5b612d00838284614a61565b50505092915050565b600081359050612d1881614b10565b92915050565b600081519050612d2d81614b10565b92915050565b600081359050612d4281614b27565b92915050565b600081519050612d5781614b3e565b92915050565b600060208284031215612d6f57600080fd5b6000612d7d84828501612a2a565b91505092915050565b60008060408385031215612d9957600080fd5b6000612da785828601612a2a565b9250506020612db885828601612d09565b9150509250929050565b60008060008060808587031215612dd857600080fd5b600085013567ffffffffffffffff811115612df257600080fd5b612dfe87828801612a3f565b945050602085013567ffffffffffffffff811115612e1b57600080fd5b612e2787828801612b36565b935050604085013567ffffffffffffffff811115612e4457600080fd5b612e5087828801612ac2565b925050606085013567ffffffffffffffff811115612e6d57600080fd5b612e7987828801612cb5565b91505092959194509250565b600060208284031215612e9757600080fd5b6000612ea584828501612bce565b91505092915050565b600060208284031215612ec057600080fd5b6000612ece84828501612bf8565b91505092915050565b600060208284031215612ee957600080fd5b600082015167ffffffffffffffff811115612f0357600080fd5b612f0f84828501612c61565b91505092915050565b600060208284031215612f2a57600080fd5b6000612f3884828501612d09565b91505092915050565b600060208284031215612f5357600080fd5b6000612f6184828501612d1e565b91505092915050565b60008060408385031215612f7d57600080fd5b6000612f8b85828601612d09565b9250506020612f9c85828601612a2a565b9150509250929050565b60008060408385031215612fb957600080fd5b6000612fc785828601612d09565b9250506020612fd885828601612bb9565b9150509250929050565b600080600080600060a08688031215612ffa57600080fd5b600061300888828901612d09565b955050602061301988828901612bb9565b945050604061302a88828901612d33565b935050606061303b88828901612be3565b925050608061304c88828901612be3565b9150509295509295909350565b60006020828403121561306b57600080fd5b600061307984828501612d48565b91505092915050565b600061308e83836130d5565b60208301905092915050565b60006130a683836132a1565b905092915050565b60006130ba8383613ecd565b60208301905092915050565b6130cf816149ad565b82525050565b6130de81614923565b82525050565b6130ed81614923565b82525050565b60006130fe8261483e565b61310881856148b2565b9350613113836147f9565b8060005b8381101561314457815161312b8882613082565b97506131368361488b565b925050600181019050613117565b5085935050505092915050565b600061315c82614849565b61316681856148c3565b93508360208202850161317885614809565b8060005b858110156131b45784840389528151613195858261309a565b94506131a083614898565b925060208a0199505060018101905061317c565b50829750879550505050505092915050565b60006131d182614854565b6131db81856148d4565b93506131e683614819565b8060005b838110156132175781516131fe88826130ae565b9750613209836148a5565b9250506001810190506131ea565b5085935050505092915050565b61322d81614935565b82525050565b61323c81614935565b82525050565b61324b81614941565b82525050565b61326261325d82614941565b614aa3565b82525050565b60006132738261486a565b61327d81856148f6565b935061328d818560208601614a70565b61329681614aad565b840191505092915050565b60006132ac8261485f565b6132b681856148e5565b93506132c6818560208601614a70565b6132cf81614aad565b840191505092915050565b6000815460018116600081146132f7576001811461331d57613361565b607f600283041661330881876148f6565b955060ff198316865260208601935050613361565b6002820461332b81876148f6565b955061333685614829565b60005b8281101561335857815481890152600182019150602081019050613339565b80880195505050505b505092915050565b613372816149bf565b82525050565b613381816149e3565b82525050565b61339081614a07565b82525050565b61339f81614a19565b82525050565b60006133b082614880565b6133ba8185614907565b93506133ca818560208601614a70565b6133d381614aad565b840191505092915050565b60006133e982614875565b6133f38185614907565b9350613403818560208601614a70565b61340c81614aad565b840191505092915050565b6000613424603983614907565b91507f476f7665726e6f72416c7068613a3a5f5f61636365707441646d696e3a20736560008301527f6e646572206d75737420626520676f7620677561726469616e000000000000006020830152604082019050919050565b600061348a604483614907565b91507f476f7665726e6f72416c7068613a3a71756575653a2070726f706f73616c206360008301527f616e206f6e6c792062652071756575656420696620697420697320737563636560208301527f65646564000000000000000000000000000000000000000000000000000000006040830152606082019050919050565b6000613516604583614907565b91507f476f7665726e6f72416c7068613a3a657865637574653a2070726f706f73616c60008301527f2063616e206f6e6c79206265206578656375746564206966206974206973207160208301527f75657565640000000000000000000000000000000000000000000000000000006040830152606082019050919050565b60006135a2600283614918565b91507f19010000000000000000000000000000000000000000000000000000000000006000830152600282019050919050565b60006135e2604c83614907565b91507f476f7665726e6f72416c7068613a3a5f5f6578656375746553657454696d656c60008301527f6f636b50656e64696e6741646d696e3a2073656e646572206d7573742062652060208301527f676f7620677561726469616e00000000000000000000000000000000000000006040830152606082019050919050565b600061366e602983614907565b91507f476f7665726e6f72416c7068613a3a73746174653a20696e76616c696420707260008301527f6f706f73616c20696400000000000000000000000000000000000000000000006020830152604082019050919050565b60006136d4602d83614907565b91507f476f7665726e6f72416c7068613a3a5f63617374566f74653a20766f7465722060008301527f616c726561647920766f746564000000000000000000000000000000000000006020830152604082019050919050565b600061373a605983614907565b91507f476f7665726e6f72416c7068613a3a70726f706f73653a206f6e65206c69766560008301527f2070726f706f73616c207065722070726f706f7365722c20666f756e6420616e60208301527f20616c72656164792070656e64696e672070726f706f73616c000000000000006040830152606082019050919050565b60006137c6604a83614907565b91507f476f7665726e6f72416c7068613a3a5f5f717565756553657454696d656c6f6360008301527f6b50656e64696e6741646d696e3a2073656e646572206d75737420626520676f60208301527f7620677561726469616e000000000000000000000000000000000000000000006040830152606082019050919050565b6000613852602883614907565b91507f476f7665726e6f72416c7068613a3a70726f706f73653a20746f6f206d616e7960008301527f20616374696f6e730000000000000000000000000000000000000000000000006020830152604082019050919050565b60006138b8601183614907565b91507f6164646974696f6e206f766572666c6f770000000000000000000000000000006000830152602082019050919050565b60006138f8604383614918565b91507f454950373132446f6d61696e28737472696e67206e616d652c75696e7432353660008301527f20636861696e49642c6164647265737320766572696679696e67436f6e74726160208301527f63742900000000000000000000000000000000000000000000000000000000006040830152604382019050919050565b6000613984602783614918565b91507f42616c6c6f742875696e743235362070726f706f73616c49642c626f6f6c207360008301527f7570706f727429000000000000000000000000000000000000000000000000006020830152602782019050919050565b60006139ea604483614907565b91507f476f7665726e6f72416c7068613a3a70726f706f73653a2070726f706f73616c60008301527f2066756e6374696f6e20696e666f726d6174696f6e206172697479206d69736d60208301527f61746368000000000000000000000000000000000000000000000000000000006040830152606082019050919050565b6000613a76602f83614907565b91507f476f7665726e6f72416c7068613a3a63616e63656c3a2070726f706f7365722060008301527f61626f7665207468726573686f6c6400000000000000000000000000000000006020830152604082019050919050565b6000613adc604483614907565b91507f476f7665726e6f72416c7068613a3a5f71756575654f725265766572743a207060008301527f726f706f73616c20616374696f6e20616c72656164792071756575656420617460208301527f20657461000000000000000000000000000000000000000000000000000000006040830152606082019050919050565b6000613b68602c83614907565b91507f476f7665726e6f72416c7068613a3a70726f706f73653a206d7573742070726f60008301527f7669646520616374696f6e7300000000000000000000000000000000000000006020830152604082019050919050565b6000613bce603f83614907565b91507f476f7665726e6f72416c7068613a3a70726f706f73653a2070726f706f73657260008301527f20766f7465732062656c6f772070726f706f73616c207468726573686f6c64006020830152604082019050919050565b6000613c34602f83614907565b91507f476f7665726e6f72416c7068613a3a63617374566f746542795369673a20696e60008301527f76616c6964207369676e617475726500000000000000000000000000000000006020830152604082019050919050565b6000613c9a605883614907565b91507f476f7665726e6f72416c7068613a3a70726f706f73653a206f6e65206c69766560008301527f2070726f706f73616c207065722070726f706f7365722c20666f756e6420616e60208301527f20616c7265616479206163746976652070726f706f73616c00000000000000006040830152606082019050919050565b6000613d26603683614907565b91507f476f7665726e6f72416c7068613a3a63616e63656c3a2063616e6e6f7420636160008301527f6e63656c2065786563757465642070726f706f73616c000000000000000000006020830152604082019050919050565b6000613d8c602a83614907565b91507f476f7665726e6f72416c7068613a3a5f63617374566f74653a20766f74696e6760008301527f20697320636c6f736564000000000000000000000000000000000000000000006020830152604082019050919050565b6000613df2601583614907565b91507f7375627472616374696f6e20756e646572666c6f7700000000000000000000006000830152602082019050919050565b6000613e32603683614907565b91507f476f7665726e6f72416c7068613a3a5f5f61626469636174653a2073656e646560008301527f72206d75737420626520676f7620677561726469616e000000000000000000006020830152604082019050919050565b606082016000820151613ea16000850182613224565b506020820151613eb46020850182613224565b506040820151613ec76040850182613f09565b50505050565b613ed68161497e565b82525050565b613ee58161497e565b82525050565b613ef481614988565b82525050565b613f0381614a4f565b82525050565b613f1281614995565b82525050565b6000613f2382613595565b9150613f2f8285613251565b602082019150613f3f8284613251565b6020820191508190509392505050565b6000613f5a826138eb565b9150819050919050565b6000613f6f82613977565b9150819050919050565b6000602082019050613f8e60008301846130e4565b92915050565b6000604082019050613fa960008301856130c6565b613fb66020830184613edc565b9392505050565b6000608082019050613fd260008301876130e4565b613fdf6020830186613396565b8181036040830152613ff18185613268565b90506140006060830184613edc565b95945050505050565b600060408201905061401e60008301856130e4565b61402b6020830184613edc565b9392505050565b600060808201905061404760008301876130e4565b6140546020830186613edc565b6140616040830185613233565b61406e6060830184613efa565b95945050505050565b600060808201905061408c60008301876130e4565b6140996020830186613edc565b81810360408301526140ab8185613268565b90506140ba6060830184613edc565b95945050505050565b60006080820190506140d860008301876130e4565b6140e56020830186613edc565b81810360408301526140f781856132da565b90506141066060830184613edc565b95945050505050565b6000606082019050818103600083015261412981866130f3565b9050818103602083015261413d81856131c6565b905081810360408301526141518184613151565b9050949350505050565b60006020820190506141706000830184613242565b92915050565b600060808201905061418b6000830187613242565b6141986020830186613242565b6141a56040830185613edc565b6141b260608301846130e4565b95945050505050565b60006060820190506141d06000830186613242565b6141dd6020830185613edc565b6141ea6040830184613233565b949350505050565b60006080820190506142076000830187613242565b6142146020830186613eeb565b6142216040830185613242565b61422e6060830184613242565b95945050505050565b600060208201905061424c6000830184613369565b92915050565b60006020820190506142676000830184613378565b92915050565b60006020820190506142826000830184613387565b92915050565b600060208201905081810360008301526142a281846133de565b905092915050565b600060208201905081810360008301526142c381613417565b9050919050565b600060208201905081810360008301526142e38161347d565b9050919050565b6000602082019050818103600083015261430381613509565b9050919050565b60006020820190508181036000830152614323816135d5565b9050919050565b6000602082019050818103600083015261434381613661565b9050919050565b60006020820190508181036000830152614363816136c7565b9050919050565b600060208201905081810360008301526143838161372d565b9050919050565b600060208201905081810360008301526143a3816137b9565b9050919050565b600060208201905081810360008301526143c381613845565b9050919050565b600060208201905081810360008301526143e3816138ab565b9050919050565b60006020820190508181036000830152614403816139dd565b9050919050565b6000602082019050818103600083015261442381613a69565b9050919050565b6000602082019050818103600083015261444381613acf565b9050919050565b6000602082019050818103600083015261446381613b5b565b9050919050565b6000602082019050818103600083015261448381613bc1565b9050919050565b600060208201905081810360008301526144a381613c27565b9050919050565b600060208201905081810360008301526144c381613c8d565b9050919050565b600060208201905081810360008301526144e381613d19565b9050919050565b6000602082019050818103600083015261450381613d7f565b9050919050565b6000602082019050818103600083015261452381613de5565b9050919050565b6000602082019050818103600083015261454381613e25565b9050919050565b600060608201905061455f6000830184613e8b565b92915050565b600060208201905061457a6000830184613edc565b92915050565b600061010082019050614596600083018b613edc565b6145a3602083018a6130c6565b81810360408301526145b581896130f3565b905081810360608301526145c981886131c6565b905081810360808301526145dd8187613151565b90506145ec60a0830186613edc565b6145f960c0830185613edc565b81810360e083015261460b81846133a5565b90509998505050505050505050565b600061012082019050614630600083018c613edc565b61463d602083018b6130e4565b61464a604083018a613edc565b6146576060830189613edc565b6146646080830188613edc565b61467160a0830187613edc565b61467e60c0830186613edc565b61468b60e0830185613233565b614699610100830184613233565b9a9950505050505050505050565b60006040820190506146bc6000830185613edc565b6146c96020830184613edc565b9392505050565b6000604051905081810181811067ffffffffffffffff821117156146f357600080fd5b8060405250919050565b600067ffffffffffffffff82111561471457600080fd5b602082029050602081019050919050565b600067ffffffffffffffff82111561473c57600080fd5b602082029050602081019050919050565b600067ffffffffffffffff82111561476457600080fd5b602082029050602081019050919050565b600067ffffffffffffffff82111561478c57600080fd5b601f19601f8301169050602081019050919050565b600067ffffffffffffffff8211156147b857600080fd5b601f19601f8301169050602081019050919050565b600067ffffffffffffffff8211156147e457600080fd5b601f19601f8301169050602081019050919050565b6000819050602082019050919050565b6000819050602082019050919050565b6000819050602082019050919050565b60008190508160005260206000209050919050565b600081519050919050565b600081519050919050565b600081519050919050565b600081519050919050565b600081519050919050565b600081519050919050565b600081519050919050565b6000602082019050919050565b6000602082019050919050565b6000602082019050919050565b600082825260208201905092915050565b600082825260208201905092915050565b600082825260208201905092915050565b600082825260208201905092915050565b600082825260208201905092915050565b600082825260208201905092915050565b600081905092915050565b600061492e8261495e565b9050919050565b60008115159050919050565b6000819050919050565b600081905061495982614abe565b919050565b600073ffffffffffffffffffffffffffffffffffffffff82169050919050565b6000819050919050565b600060ff82169050919050565b60006bffffffffffffffffffffffff82169050919050565b60006149b882614a2b565b9050919050565b60006149ca826149d1565b9050919050565b60006149dc8261495e565b9050919050565b60006149ee826149f5565b9050919050565b6000614a008261495e565b9050919050565b6000614a128261494b565b9050919050565b6000614a248261497e565b9050919050565b6000614a3682614a3d565b9050919050565b6000614a488261495e565b9050919050565b6000614a5a82614995565b9050919050565b82818337600083830152505050565b60005b83811015614a8e578082015181840152602081019050614a73565b83811115614a9d576000848401525b50505050565b6000819050919050565b6000601f19601f8301169050919050565b60088110614ac857fe5b50565b614ad481614923565b8114614adf57600080fd5b50565b614aeb81614935565b8114614af657600080fd5b50565b614b0281614941565b8114614b0d57600080fd5b50565b614b198161497e565b8114614b2457600080fd5b50565b614b3081614988565b8114614b3b57600080fd5b50565b614b4781614995565b8114614b5257600080fd5b5056fea365627a7a723158209b1021d89106531f3a864a4b3e9c5c870d70ce5d1a8ed972e15c852f4f20ed876c6578706572696d656e74616cf564736f6c63430005100040",
  "linkReferences": {},
  "deployedLinkReferences": {}
}