{
  "_format": "hh-sol-artifact-1",
  "contractName": "GovernorAlpha",
  "sourceName": "contracts/GovernorAlpha.sol",
  "abi": [
    {
      "inputs": [
        {
          "internalType": "address",
          "name": "_timelock",
          "type": "address"
        },
        {
          "internalType": "address",
          "name": "_comp",
          "type": "address"
        },
        {
          "internalType": "address",
          "name": "_guardian",
          "type": "address"
        },
        {
          "internalType": "string",
          "name": "_name",
          "type": "string"
        }
      ],
      "stateMutability": "nonpayable",
      "type": "constructor"
    },
    {
      "anonymous": false,
      "inputs": [
        {
          "indexed": false,
          "internalType": "uint256",
          "name": "id",
          "type": "uint256"
        }
      ],
      "name": "ProposalCanceled",
      "type": "event"
    },
    {
      "anonymous": false,
      "inputs": [
        {
          "indexed": false,
          "internalType": "uint256",
          "name": "id",
          "type": "uint256"
        },
        {
          "indexed": false,
          "internalType": "address",
          "name": "proposer",
          "type": "address"
        },
        {
          "indexed": false,
          "internalType": "address[]",
          "name": "targets",
          "type": "address[]"
        },
        {
          "indexed": false,
          "internalType": "uint256[]",
          "name": "values",
          "type": "uint256[]"
        },
        {
          "indexed": false,
          "internalType": "bytes[]",
          "name": "calldatas",
          "type": "bytes[]"
        },
        {
          "indexed": false,
          "internalType": "uint256",
          "name": "startBlock",
          "type": "uint256"
        },
        {
          "indexed": false,
          "internalType": "uint256",
          "name": "endBlock",
          "type": "uint256"
        },
        {
          "indexed": false,
          "internalType": "string",
          "name": "description",
          "type": "string"
        }
      ],
      "name": "ProposalCreated",
      "type": "event"
    },
    {
      "anonymous": false,
      "inputs": [
        {
          "indexed": false,
          "internalType": "uint256",
          "name": "id",
          "type": "uint256"
        }
      ],
      "name": "ProposalExecuted",
      "type": "event"
    },
    {
      "anonymous": false,
      "inputs": [
        {
          "indexed": false,
          "internalType": "uint256",
          "name": "id",
          "type": "uint256"
        },
        {
          "indexed": false,
          "internalType": "uint256",
          "name": "eta",
          "type": "uint256"
        }
      ],
      "name": "ProposalQueued",
      "type": "event"
    },
    {
      "anonymous": false,
      "inputs": [
        {
          "indexed": false,
          "internalType": "address",
          "name": "voter",
          "type": "address"
        },
        {
          "indexed": false,
          "internalType": "uint256",
          "name": "proposalId",
          "type": "uint256"
        },
        {
          "indexed": false,
          "internalType": "bool",
          "name": "support",
          "type": "bool"
        },
        {
          "indexed": false,
          "internalType": "uint256",
          "name": "votes",
          "type": "uint256"
        }
      ],
      "name": "VoteCast",
      "type": "event"
    },
    {
      "inputs": [],
      "name": "BALLOT_TYPEHASH",
      "outputs": [
        {
          "internalType": "bytes32",
          "name": "",
          "type": "bytes32"
        }
      ],
      "stateMutability": "view",
      "type": "function"
    },
    {
      "inputs": [],
      "name": "DOMAIN_TYPEHASH",
      "outputs": [
        {
          "internalType": "bytes32",
          "name": "",
          "type": "bytes32"
        }
      ],
      "stateMutability": "view",
      "type": "function"
    },
    {
      "inputs": [],
      "name": "__abdicate",
      "outputs": [],
      "stateMutability": "nonpayable",
      "type": "function"
    },
    {
      "inputs": [],
      "name": "__acceptAdmin",
      "outputs": [],
      "stateMutability": "nonpayable",
      "type": "function"
    },
    {
      "inputs": [
        {
          "internalType": "address",
          "name": "newPendingAdmin",
          "type": "address"
        },
        {
          "internalType": "uint256",
          "name": "eta",
          "type": "uint256"
        }
      ],
      "name": "__executeSetTimelockPendingAdmin",
      "outputs": [],
      "stateMutability": "nonpayable",
      "type": "function"
    },
    {
      "inputs": [
        {
          "internalType": "address",
          "name": "newPendingAdmin",
          "type": "address"
        },
        {
          "internalType": "uint256",
          "name": "eta",
          "type": "uint256"
        }
      ],
      "name": "__queueSetTimelockPendingAdmin",
      "outputs": [],
      "stateMutability": "nonpayable",
      "type": "function"
    },
    {
      "inputs": [
        {
          "internalType": "uint256",
          "name": "proposalId",
          "type": "uint256"
        }
      ],
      "name": "cancel",
      "outputs": [],
      "stateMutability": "nonpayable",
      "type": "function"
    },
    {
      "inputs": [
        {
          "internalType": "uint256",
          "name": "proposalId",
          "type": "uint256"
        },
        {
          "internalType": "bool",
          "name": "support",
          "type": "bool"
        }
      ],
      "name": "castVote",
      "outputs": [],
      "stateMutability": "nonpayable",
      "type": "function"
    },
    {
      "inputs": [
        {
          "internalType": "uint256",
          "name": "proposalId",
          "type": "uint256"
        },
        {
          "internalType": "bool",
          "name": "support",
          "type": "bool"
        },
        {
          "internalType": "uint8",
          "name": "v",
          "type": "uint8"
        },
        {
          "internalType": "bytes32",
          "name": "r",
          "type": "bytes32"
        },
        {
          "internalType": "bytes32",
          "name": "s",
          "type": "bytes32"
        }
      ],
      "name": "castVoteBySig",
      "outputs": [],
      "stateMutability": "nonpayable",
      "type": "function"
    },
    {
      "inputs": [],
      "name": "comp",
      "outputs": [
        {
          "internalType": "contract CompInterface",
          "name": "",
          "type": "address"
        }
      ],
      "stateMutability": "view",
      "type": "function"
    },
    {
      "inputs": [
        {
          "internalType": "uint256",
          "name": "proposalId",
          "type": "uint256"
        }
      ],
      "name": "execute",
      "outputs": [],
      "stateMutability": "payable",
      "type": "function"
    },
    {
      "inputs": [
        {
          "internalType": "uint256",
          "name": "proposalId",
          "type": "uint256"
        }
      ],
      "name": "getActions",
      "outputs": [
        {
          "internalType": "address[]",
          "name": "targets",
          "type": "address[]"
        },
        {
          "internalType": "uint256[]",
          "name": "values",
          "type": "uint256[]"
        },
        {
          "internalType": "bytes[]",
          "name": "calldatas",
          "type": "bytes[]"
        }
      ],
      "stateMutability": "view",
      "type": "function"
    },
    {
      "inputs": [
        {
          "internalType": "uint256",
          "name": "proposalId",
          "type": "uint256"
        },
        {
          "internalType": "address",
          "name": "voter",
          "type": "address"
        }
      ],
      "name": "getReceipt",
      "outputs": [
        {
          "components": [
            {
              "internalType": "bool",
              "name": "hasVoted",
              "type": "bool"
            },
            {
              "internalType": "bool",
              "name": "support",
              "type": "bool"
            },
            {
              "internalType": "uint96",
              "name": "votes",
              "type": "uint96"
            }
          ],
          "internalType": "struct GovernorAlpha.Receipt",
          "name": "",
          "type": "tuple"
        }
      ],
      "stateMutability": "view",
      "type": "function"
    },
    {
      "inputs": [],
      "name": "guardian",
      "outputs": [
        {
          "internalType": "address",
          "name": "",
          "type": "address"
        }
      ],
      "stateMutability": "view",
      "type": "function"
    },
    {
      "inputs": [
        {
          "internalType": "address",
          "name": "",
          "type": "address"
        }
      ],
      "name": "latestProposalIds",
      "outputs": [
        {
          "internalType": "uint256",
          "name": "",
          "type": "uint256"
        }
      ],
      "stateMutability": "view",
      "type": "function"
    },
    {
      "inputs": [],
      "name": "name",
      "outputs": [
        {
          "internalType": "string",
          "name": "",
          "type": "string"
        }
      ],
      "stateMutability": "view",
      "type": "function"
    },
    {
      "inputs": [],
      "name": "proposalCount",
      "outputs": [
        {
          "internalType": "uint256",
          "name": "",
          "type": "uint256"
        }
      ],
      "stateMutability": "view",
      "type": "function"
    },
    {
      "inputs": [],
      "name": "proposalMaxOperations",
      "outputs": [
        {
          "internalType": "uint256",
          "name": "",
          "type": "uint256"
        }
      ],
      "stateMutability": "pure",
      "type": "function"
    },
    {
      "inputs": [],
      "name": "proposalThreshold",
      "outputs": [
        {
          "internalType": "uint256",
          "name": "",
          "type": "uint256"
        }
      ],
      "stateMutability": "pure",
      "type": "function"
    },
    {
      "inputs": [
        {
          "internalType": "uint256",
          "name": "",
          "type": "uint256"
        }
      ],
      "name": "proposals",
      "outputs": [
        {
          "internalType": "uint256",
          "name": "id",
          "type": "uint256"
        },
        {
          "internalType": "address",
          "name": "proposer",
          "type": "address"
        },
        {
          "internalType": "uint256",
          "name": "eta",
          "type": "uint256"
        },
        {
          "internalType": "uint256",
          "name": "startBlock",
          "type": "uint256"
        },
        {
          "internalType": "uint256",
          "name": "endBlock",
          "type": "uint256"
        },
        {
          "internalType": "uint256",
          "name": "forVotes",
          "type": "uint256"
        },
        {
          "internalType": "uint256",
          "name": "againstVotes",
          "type": "uint256"
        },
        {
          "internalType": "bool",
          "name": "canceled",
          "type": "bool"
        },
        {
          "internalType": "bool",
          "name": "executed",
          "type": "bool"
        }
      ],
      "stateMutability": "view",
      "type": "function"
    },
    {
      "inputs": [
        {
          "internalType": "address[]",
          "name": "targets",
          "type": "address[]"
        },
        {
          "internalType": "uint256[]",
          "name": "values",
          "type": "uint256[]"
        },
        {
          "internalType": "bytes[]",
          "name": "calldatas",
          "type": "bytes[]"
        },
        {
          "internalType": "string",
          "name": "description",
          "type": "string"
        }
      ],
      "name": "propose",
      "outputs": [
        {
          "internalType": "uint256",
          "name": "",
          "type": "uint256"
        }
      ],
      "stateMutability": "nonpayable",
      "type": "function"
    },
    {
      "inputs": [
        {
          "internalType": "uint256",
          "name": "proposalId",
          "type": "uint256"
        }
      ],
      "name": "queue",
      "outputs": [],
      "stateMutability": "nonpayable",
      "type": "function"
    },
    {
      "inputs": [],
      "name": "quorumVotes",
      "outputs": [
        {
          "internalType": "uint256",
          "name": "",
          "type": "uint256"
        }
      ],
      "stateMutability": "pure",
      "type": "function"
    },
    {
      "inputs": [
        {
          "internalType": "uint256",
          "name": "proposalId",
          "type": "uint256"
        }
      ],
      "name": "state",
      "outputs": [
        {
          "internalType": "enum GovernorAlpha.ProposalState",
          "name": "",
          "type": "uint8"
        }
      ],
      "stateMutability": "view",
      "type": "function"
    },
    {
      "inputs": [],
      "name": "timelock",
      "outputs": [
        {
          "internalType": "contract TimelockInterface",
          "name": "",
          "type": "address"
        }
      ],
      "stateMutability": "view",
      "type": "function"
    },
    {
      "inputs": [],
      "name": "votingDelay",
      "outputs": [
        {
          "internalType": "uint256",
          "name": "",
          "type": "uint256"
        }
      ],
      "stateMutability": "pure",
      "type": "function"
    },
    {
      "inputs": [],
      "name": "votingPeriod",
      "outputs": [
        {
          "internalType": "uint256",
          "name": "",
          "type": "uint256"
        }
      ],
      "stateMutability": "pure",
      "type": "function"
    }
  ],
  "bytecode": "0x60806040526040518060400160405280600d81526020017f476f7665726e6f72416c7068610000000000000000000000000000000000000081525060009080519060200190620000519291906200016b565b503480156200005f57600080fd5b50604051620052aa380380620052aa83398181016040528101906200008591906200041d565b83600160006101000a81548173ffffffffffffffffffffffffffffffffffffffff021916908373ffffffffffffffffffffffffffffffffffffffff16021790555082600260006101000a81548173ffffffffffffffffffffffffffffffffffffffff021916908373ffffffffffffffffffffffffffffffffffffffff16021790555081600360006101000a81548173ffffffffffffffffffffffffffffffffffffffff021916908373ffffffffffffffffffffffffffffffffffffffff1602179055508060009080519060200190620001609291906200016b565b505050505062000513565b8280546200017990620004dd565b90600052602060002090601f0160209004810192826200019d5760008555620001e9565b82601f10620001b857805160ff1916838001178555620001e9565b82800160010185558215620001e9579182015b82811115620001e8578251825591602001919060010190620001cb565b5b509050620001f89190620001fc565b5090565b5b8082111562000217576000816000905550600101620001fd565b5090565b6000604051905090565b600080fd5b600080fd5b600073ffffffffffffffffffffffffffffffffffffffff82169050919050565b60006200025c826200022f565b9050919050565b6200026e816200024f565b81146200027a57600080fd5b50565b6000815190506200028e8162000263565b92915050565b600080fd5b600080fd5b6000601f19601f8301169050919050565b7f4e487b7100000000000000000000000000000000000000000000000000000000600052604160045260246000fd5b620002e9826200029e565b810181811067ffffffffffffffff821117156200030b576200030a620002af565b5b80604052505050565b6000620003206200021b565b90506200032e8282620002de565b919050565b600067ffffffffffffffff821115620003515762000350620002af565b5b6200035c826200029e565b9050602081019050919050565b60005b83811015620003895780820151818401526020810190506200036c565b8381111562000399576000848401525b50505050565b6000620003b6620003b08462000333565b62000314565b905082815260208101848484011115620003d557620003d462000299565b5b620003e284828562000369565b509392505050565b600082601f83011262000402576200040162000294565b5b8151620004148482602086016200039f565b91505092915050565b600080600080608085870312156200043a576200043962000225565b5b60006200044a878288016200027d565b94505060206200045d878288016200027d565b935050604062000470878288016200027d565b925050606085015167ffffffffffffffff8111156200049457620004936200022a565b5b620004a287828801620003ea565b91505092959194509250565b7f4e487b7100000000000000000000000000000000000000000000000000000000600052602260045260246000fd5b60006002820490506001821680620004f657607f821691505b602082108114156200050d576200050c620004ae565b5b50919050565b614d8780620005236000396000f3fe60806040526004361061019c5760003560e01c8063452a9320116100ec578063b9a619611161008a578063ddf0b00911610064578063ddf0b009146105b0578063deaaa7cc146105d9578063e23a9a5214610604578063fe0d94c1146106415761019c565b8063b9a6196114610543578063d33219b41461055a578063da35c664146105855761019c565b80637bdbe4d0116100c65780637bdbe4d0146104875780637d5e81e2146104b257806391500671146104ef578063b58131b0146105185761019c565b8063452a93201461041c5780634634c61f14610447578063760fbc13146104705761019c565b806320606b7011610159578063328dd98211610133578063328dd9821461034c5780633932abb11461038b5780633e4f49e6146103b657806340e58ee5146103f35761019c565b806320606b70146102cd57806321f43e42146102f857806324bc1a64146103215761019c565b8063013cf08b146101a157806302a251a3146101e657806306fdde0314610211578063109d0af81461023c57806315373e3d1461026757806317977c6114610290575b600080fd5b3480156101ad57600080fd5b506101c860048036038101906101c39190612932565b61065d565b6040516101dd999897969594939291906129ca565b60405180910390f35b3480156101f257600080fd5b506101fb6106e5565b6040516102089190612a57565b60405180910390f35b34801561021d57600080fd5b506102266106ee565b6040516102339190612b0b565b60405180910390f35b34801561024857600080fd5b5061025161077c565b60405161025e9190612b8c565b60405180910390f35b34801561027357600080fd5b5061028e60048036038101906102899190612bd3565b6107a2565b005b34801561029c57600080fd5b506102b760048036038101906102b29190612c3f565b6107b1565b6040516102c49190612a57565b60405180910390f35b3480156102d957600080fd5b506102e26107c9565b6040516102ef9190612c85565b60405180910390f35b34801561030457600080fd5b5061031f600480360381019061031a9190612ca0565b6107ed565b005b34801561032d57600080fd5b5061033661096d565b6040516103439190612a57565b60405180910390f35b34801561035857600080fd5b50610373600480360381019061036e9190612932565b610980565b60405161038293929190612f73565b60405180910390f35b34801561039757600080fd5b506103a0610b63565b6040516103ad9190612a57565b60405180910390f35b3480156103c257600080fd5b506103dd60048036038101906103d89190612932565b610b6c565b6040516103ea9190613036565b60405180910390f35b3480156103ff57600080fd5b5061041a60048036038101906104159190612932565b610d42565b005b34801561042857600080fd5b506104316110dc565b60405161043e9190613051565b60405180910390f35b34801561045357600080fd5b5061046e600480360381019061046991906130d1565b611102565b005b34801561047c57600080fd5b506104856112c5565b005b34801561049357600080fd5b5061049c611399565b6040516104a99190612a57565b60405180910390f35b3480156104be57600080fd5b506104d960048036038101906104d4919061358e565b6113a2565b6040516104e69190612a57565b60405180910390f35b3480156104fb57600080fd5b5061051660048036038101906105119190612ca0565b611868565b005b34801561052457600080fd5b5061052d6119e3565b60405161053a9190612a57565b60405180910390f35b34801561054f57600080fd5b506105586119f5565b005b34801561056657600080fd5b5061056f611b09565b60405161057c9190613686565b60405180910390f35b34801561059157600080fd5b5061059a611b2f565b6040516105a79190612a57565b60405180910390f35b3480156105bc57600080fd5b506105d760048036038101906105d29190612932565b611b35565b005b3480156105e557600080fd5b506105ee611dda565b6040516105fb9190612c85565b60405180910390f35b34801561061057600080fd5b5061062b600480360381019061062691906136a1565b611dfe565b6040516106389190613759565b60405180910390f35b61065b60048036038101906106569190612932565b611ee0565b005b60056020528060005260406000206000915090508060000154908060010160009054906101000a900473ffffffffffffffffffffffffffffffffffffffff169080600201549080600601549080600701549080600801549080600901549080600a0160009054906101000a900460ff169080600a0160019054906101000a900460ff16905089565b6000603c905090565b600080546106fb906137a3565b80601f0160208091040260200160405190810160405280929190818152602001828054610727906137a3565b80156107745780601f1061074957610100808354040283529160200191610774565b820191906000526020600020905b81548152906001019060200180831161075757829003601f168201915b505050505081565b600260009054906101000a900473ffffffffffffffffffffffffffffffffffffffff1681565b6107ad338383612132565b5050565b60066020528060005260406000206000915090505481565b7f8cad95687ba82c2ce50e74f7b754645e5117c3a5bec8151c0726d5857980a86681565b600360009054906101000a900473ffffffffffffffffffffffffffffffffffffffff1673ffffffffffffffffffffffffffffffffffffffff163373ffffffffffffffffffffffffffffffffffffffff161461087d576040517f08c379a00000000000000000000000000000000000000000000000000000000081526004016108749061386d565b60405180910390fd5b600160009054906101000a900473ffffffffffffffffffffffffffffffffffffffff1673ffffffffffffffffffffffffffffffffffffffff166306a41d09600160009054906101000a900473ffffffffffffffffffffffffffffffffffffffff166000856040516020016108f19190613051565b604051602081830303815290604052856040518563ffffffff1660e01b81526004016109209493929190613912565b6000604051808303816000875af115801561093f573d6000803e3d6000fd5b505050506040513d6000823e3d601f19601f8201168201806040525081019061096891906139ce565b505050565b60006a0422ca8b0a00a425000000905090565b6060806060600060056000868152602001908152602001600020905080600301816004018260050182805480602002602001604051908101604052809291908181526020018280548015610a2957602002820191906000526020600020905b8160009054906101000a900473ffffffffffffffffffffffffffffffffffffffff1673ffffffffffffffffffffffffffffffffffffffff16815260200190600101908083116109df575b5050505050925081805480602002602001604051908101604052809291908181526020018280548015610a7b57602002820191906000526020600020905b815481526020019060010190808311610a67575b5050505050915080805480602002602001604051908101604052809291908181526020016000905b82821015610b4f578382906000526020600020018054610ac2906137a3565b80601f0160208091040260200160405190810160405280929190818152602001828054610aee906137a3565b8015610b3b5780601f10610b1057610100808354040283529160200191610b3b565b820191906000526020600020905b815481529060010190602001808311610b1e57829003601f168201915b505050505081526020019060010190610aa3565b505050509050935093509350509193909250565b60006001905090565b60008160045410158015610b805750600082115b610bbf576040517f08c379a0000000000000000000000000000000000000000000000000000000008152600401610bb690613a89565b60405180910390fd5b600060056000848152602001908152602001600020905080600a0160009054906101000a900460ff1615610bf7576002915050610d3d565b80600601544311610c0c576000915050610d3d565b80600701544311610c21576001915050610d3d565b80600901548160080154111580610c425750610c3b61096d565b8160080154105b15610c51576003915050610d3d565b600081600201541415610c68576004915050610d3d565b80600a0160019054906101000a900460ff1615610c89576007915050610d3d565b610d278160020154600160009054906101000a900473ffffffffffffffffffffffffffffffffffffffff1673ffffffffffffffffffffffffffffffffffffffff1663c1a287e26040518163ffffffff1660e01b8152600401602060405180830381865afa158015610cfe573d6000803e3d6000fd5b505050506040513d601f19601f82011682018060405250810190610d229190613abe565b612400565b4210610d37576006915050610d3d565b60059150505b919050565b6000610d4d82610b6c565b9050600780811115610d6257610d61612fbf565b5b816007811115610d7557610d74612fbf565b5b1415610db6576040517f08c379a0000000000000000000000000000000000000000000000000000000008152600401610dad90613b5d565b60405180910390fd5b6000600560008481526020019081526020016000209050600360009054906101000a900473ffffffffffffffffffffffffffffffffffffffff1673ffffffffffffffffffffffffffffffffffffffff163373ffffffffffffffffffffffffffffffffffffffff161480610f085750610e2c6119e3565b600260009054906101000a900473ffffffffffffffffffffffffffffffffffffffff1673ffffffffffffffffffffffffffffffffffffffff1663782d6fe18360010160009054906101000a900473ffffffffffffffffffffffffffffffffffffffff16610e9a43600161245e565b6040518363ffffffff1660e01b8152600401610eb7929190613b7d565b602060405180830381865afa158015610ed4573d6000803e3d6000fd5b505050506040513d601f19601f82011682018060405250810190610ef89190613bd2565b6bffffffffffffffffffffffff16105b610f47576040517f08c379a0000000000000000000000000000000000000000000000000000000008152600401610f3e90613c71565b60405180910390fd5b600181600a0160006101000a81548160ff02191690831515021790555060005b816003018054905081101561109f57600160009054906101000a900473ffffffffffffffffffffffffffffffffffffffff1673ffffffffffffffffffffffffffffffffffffffff16635b26b108836003018381548110610fca57610fc9613c91565b5b9060005260206000200160009054906101000a900473ffffffffffffffffffffffffffffffffffffffff1684600401848154811061100b5761100a613c91565b5b906000526020600020015485600501858154811061102c5761102b613c91565b5b9060005260206000200186600201546040518563ffffffff1660e01b815260040161105a9493929190613d55565b600060405180830381600087803b15801561107457600080fd5b505af1158015611088573d6000803e3d6000fd5b50505050808061109790613dd0565b915050610f67565b507f789cf55be980739dad1d0699b93b58e806b51c9d96619bfa8fe0a28abaa7b30c836040516110cf9190612a57565b60405180910390a1505050565b600360009054906101000a900473ffffffffffffffffffffffffffffffffffffffff1681565b60007f8cad95687ba82c2ce50e74f7b754645e5117c3a5bec8151c0726d5857980a86660006040516111349190613eb8565b60405180910390206111446124b7565b306040516020016111589493929190613ecf565b60405160208183030381529060405280519060200120905060007f8e25870c07e0b0b3884c78da52790939a455c275406c44ae8b434b692fb916ee87876040516020016111a793929190613f14565b604051602081830303815290604052805190602001209050600082826040516020016111d4929190613fc3565b6040516020818303038152906040528051906020012090506000600182888888604051600081526020016040526040516112119493929190614009565b6020604051602081039080840390855afa158015611233573d6000803e3d6000fd5b505050602060405103519050600073ffffffffffffffffffffffffffffffffffffffff168173ffffffffffffffffffffffffffffffffffffffff1614156112af576040517f08c379a00000000000000000000000000000000000000000000000000000000081526004016112a6906140c0565b60405180910390fd5b6112ba818a8a612132565b505050505050505050565b600360009054906101000a900473ffffffffffffffffffffffffffffffffffffffff1673ffffffffffffffffffffffffffffffffffffffff163373ffffffffffffffffffffffffffffffffffffffff1614611355576040517f08c379a000000000000000000000000000000000000000000000000000000000815260040161134c90614152565b60405180910390fd5b6000600360006101000a81548173ffffffffffffffffffffffffffffffffffffffff021916908373ffffffffffffffffffffffffffffffffffffffff160217905550565b6000600a905090565b60006113ac6119e3565b600260009054906101000a900473ffffffffffffffffffffffffffffffffffffffff1673ffffffffffffffffffffffffffffffffffffffff1663782d6fe1336113f643600161245e565b6040518363ffffffff1660e01b8152600401611413929190613b7d565b602060405180830381865afa158015611430573d6000803e3d6000fd5b505050506040513d601f19601f820116820180604052508101906114549190613bd2565b6bffffffffffffffffffffffff16116114a2576040517f08c379a0000000000000000000000000000000000000000000000000000000008152600401611499906141e4565b60405180910390fd5b835185511480156114b4575082518551145b6114f3576040517f08c379a00000000000000000000000000000000000000000000000000000000081526004016114ea9061429c565b60405180910390fd5b600085511415611538576040517f08c379a000000000000000000000000000000000000000000000000000000000815260040161152f9061432e565b60405180910390fd5b611540611399565b85511115611583576040517f08c379a000000000000000000000000000000000000000000000000000000000815260040161157a906143c0565b60405180910390fd5b6000600660003373ffffffffffffffffffffffffffffffffffffffff1673ffffffffffffffffffffffffffffffffffffffff168152602001908152602001600020549050600081146116ae5760006115da82610b6c565b9050600160078111156115f0576115ef612fbf565b5b81600781111561160357611602612fbf565b5b1415611644576040517f08c379a000000000000000000000000000000000000000000000000000000000815260040161163b90614478565b60405180910390fd5b6000600781111561165857611657612fbf565b5b81600781111561166b5761166a612fbf565b5b14156116ac576040517f08c379a00000000000000000000000000000000000000000000000000000000081526004016116a390614530565b60405180910390fd5b505b60006116c1436116bc610b63565b612400565b905060006116d6826116d16106e5565b612400565b9050600460008154809291906116eb90613dd0565b9190505550600060056000600454815260200190815260200160002090506004548160000181905550338160010160006101000a81548173ffffffffffffffffffffffffffffffffffffffff021916908373ffffffffffffffffffffffffffffffffffffffff1602179055506000816002018190555088816003019080519060200190611779929190612677565b5087816004019080519060200190611792929190612701565b50868160050190805190602001906117ab92919061274e565b508281600601819055508181600701819055506000816008018190555060008160090181905550600081600a0160006101000a81548160ff021916908315150217905550600081600a0160016101000a81548160ff0219169083151502179055507f95f03e437e6d5037418f12bef80fc7e0a5f27754c078a1d5d3f62d39bac44e508160000154338b8b8b88888d60405161184d989796959493929190614550565b60405180910390a18060000154945050505050949350505050565b600360009054906101000a900473ffffffffffffffffffffffffffffffffffffffff1673ffffffffffffffffffffffffffffffffffffffff163373ffffffffffffffffffffffffffffffffffffffff16146118f8576040517f08c379a00000000000000000000000000000000000000000000000000000000081526004016118ef90614682565b60405180910390fd5b600160009054906101000a900473ffffffffffffffffffffffffffffffffffffffff1673ffffffffffffffffffffffffffffffffffffffff16638e361cdf600160009054906101000a900473ffffffffffffffffffffffffffffffffffffffff1660008560405160200161196c9190613051565b604051602081830303815290604052856040518563ffffffff1660e01b815260040161199b9493929190613912565b6020604051808303816000875af11580156119ba573d6000803e3d6000fd5b505050506040513d601f19601f820116820180604052508101906119de91906146b7565b505050565b600069152d02c7e14af6800000905090565b600360009054906101000a900473ffffffffffffffffffffffffffffffffffffffff1673ffffffffffffffffffffffffffffffffffffffff163373ffffffffffffffffffffffffffffffffffffffff1614611a85576040517f08c379a0000000000000000000000000000000000000000000000000000000008152600401611a7c90614756565b60405180910390fd5b600160009054906101000a900473ffffffffffffffffffffffffffffffffffffffff1673ffffffffffffffffffffffffffffffffffffffff16630e18b6816040518163ffffffff1660e01b8152600401600060405180830381600087803b158015611aef57600080fd5b505af1158015611b03573d6000803e3d6000fd5b50505050565b600160009054906101000a900473ffffffffffffffffffffffffffffffffffffffff1681565b60045481565b60046007811115611b4957611b48612fbf565b5b611b5282610b6c565b6007811115611b6457611b63612fbf565b5b14611ba4576040517f08c379a0000000000000000000000000000000000000000000000000000000008152600401611b9b9061480e565b60405180910390fd5b60006005600083815260200190815260200160002090506000611c5742600160009054906101000a900473ffffffffffffffffffffffffffffffffffffffff1673ffffffffffffffffffffffffffffffffffffffff16636a42b8f86040518163ffffffff1660e01b8152600401602060405180830381865afa158015611c2e573d6000803e3d6000fd5b505050506040513d601f19601f82011682018060405250810190611c529190613abe565b612400565b905060005b8260030180549050811015611d9257611d7f836003018281548110611c8457611c83613c91565b5b9060005260206000200160009054906101000a900473ffffffffffffffffffffffffffffffffffffffff16846004018381548110611cc557611cc4613c91565b5b9060005260206000200154856005018481548110611ce657611ce5613c91565b5b906000526020600020018054611cfb906137a3565b80601f0160208091040260200160405190810160405280929190818152602001828054611d27906137a3565b8015611d745780601f10611d4957610100808354040283529160200191611d74565b820191906000526020600020905b815481529060010190602001808311611d5757829003601f168201915b5050505050856124c4565b8080611d8a90613dd0565b915050611c5c565b508082600201819055507f9a2e42fd6722813d69113e7d0079d3d940171428df7373df9c7f7617cfda28928382604051611dcd92919061482e565b60405180910390a1505050565b7f8e25870c07e0b0b3884c78da52790939a455c275406c44ae8b434b692fb916ee81565b611e066127ae565b60056000848152602001908152602001600020600b0160008373ffffffffffffffffffffffffffffffffffffffff1673ffffffffffffffffffffffffffffffffffffffff1681526020019081526020016000206040518060600160405290816000820160009054906101000a900460ff161515151581526020016000820160019054906101000a900460ff161515151581526020016000820160029054906101000a90046bffffffffffffffffffffffff166bffffffffffffffffffffffff166bffffffffffffffffffffffff1681525050905092915050565b60056007811115611ef457611ef3612fbf565b5b611efd82610b6c565b6007811115611f0f57611f0e612fbf565b5b14611f4f576040517f08c379a0000000000000000000000000000000000000000000000000000000008152600401611f46906148ef565b60405180910390fd5b6000600560008381526020019081526020016000209050600181600a0160016101000a81548160ff02191690831515021790555060005b81600301805490508110156120f657600160009054906101000a900473ffffffffffffffffffffffffffffffffffffffff1673ffffffffffffffffffffffffffffffffffffffff166306a41d09836004018381548110611fe957611fe8613c91565b5b906000526020600020015484600301848154811061200a57612009613c91565b5b9060005260206000200160009054906101000a900473ffffffffffffffffffffffffffffffffffffffff1685600401858154811061204b5761204a613c91565b5b906000526020600020015486600501868154811061206c5761206b613c91565b5b9060005260206000200187600201546040518663ffffffff1660e01b815260040161209a9493929190613d55565b60006040518083038185885af11580156120b8573d6000803e3d6000fd5b50505050506040513d6000823e3d601f19601f820116820180604052508101906120e291906139ce565b5080806120ee90613dd0565b915050611f86565b507f712ae1383f79ac853f8d882153778e0260ef8f03b504e2866e0593e04d2b291f826040516121269190612a57565b60405180910390a15050565b6001600781111561214657612145612fbf565b5b61214f83610b6c565b600781111561216157612160612fbf565b5b146121a1576040517f08c379a000000000000000000000000000000000000000000000000000000000815260040161219890614981565b60405180910390fd5b6000600560008481526020019081526020016000209050600081600b0160008673ffffffffffffffffffffffffffffffffffffffff1673ffffffffffffffffffffffffffffffffffffffff1681526020019081526020016000209050600015158160000160009054906101000a900460ff16151514612255576040517f08c379a000000000000000000000000000000000000000000000000000000000815260040161224c90614a13565b60405180910390fd5b6000600260009054906101000a900473ffffffffffffffffffffffffffffffffffffffff1673ffffffffffffffffffffffffffffffffffffffff1663782d6fe18785600601546040518363ffffffff1660e01b81526004016122b8929190613b7d565b602060405180830381865afa1580156122d5573d6000803e3d6000fd5b505050506040513d601f19601f820116820180604052508101906122f99190613bd2565b9050831561232a5761231d8360080154826bffffffffffffffffffffffff16612400565b836008018190555061234f565b6123468360090154826bffffffffffffffffffffffff16612400565b83600901819055505b60018260000160006101000a81548160ff021916908315150217905550838260000160016101000a81548160ff021916908315150217905550808260000160026101000a8154816bffffffffffffffffffffffff02191690836bffffffffffffffffffffffff1602179055507f877856338e13f63d0c36822ff0ef736b80934cd90574a3a5bc9262c39d217c46868686846040516123f09493929190614a64565b60405180910390a1505050505050565b600080828461240f9190614aa9565b905083811015612454576040517f08c379a000000000000000000000000000000000000000000000000000000000815260040161244b90614b4b565b60405180910390fd5b8091505092915050565b6000828211156124a3576040517f08c379a000000000000000000000000000000000000000000000000000000000815260040161249a90614bb7565b60405180910390fd5b81836124af9190614bd7565b905092915050565b6000804690508091505090565b600160009054906101000a900473ffffffffffffffffffffffffffffffffffffffff1673ffffffffffffffffffffffffffffffffffffffff1663f2b06537858585856040516020016125199493929190614c0b565b604051602081830303815290604052805190602001206040518263ffffffff1660e01b815260040161254b9190612c85565b602060405180830381865afa158015612568573d6000803e3d6000fd5b505050506040513d601f19601f8201168201806040525081019061258c9190614c6c565b156125cc576040517f08c379a00000000000000000000000000000000000000000000000000000000081526004016125c390614d31565b60405180910390fd5b600160009054906101000a900473ffffffffffffffffffffffffffffffffffffffff1673ffffffffffffffffffffffffffffffffffffffff16638e361cdf858585856040518563ffffffff1660e01b815260040161262d9493929190614c0b565b6020604051808303816000875af115801561264c573d6000803e3d6000fd5b505050506040513d601f19601f8201168201806040525081019061267091906146b7565b5050505050565b8280548282559060005260206000209081019282156126f0579160200282015b828111156126ef5782518260006101000a81548173ffffffffffffffffffffffffffffffffffffffff021916908373ffffffffffffffffffffffffffffffffffffffff16021790555091602001919060010190612697565b5b5090506126fd91906127e1565b5090565b82805482825590600052602060002090810192821561273d579160200282015b8281111561273c578251825591602001919060010190612721565b5b50905061274a91906127e1565b5090565b82805482825590600052602060002090810192821561279d579160200282015b8281111561279c57825182908051906020019061278c9291906127fe565b509160200191906001019061276e565b5b5090506127aa9190612884565b5090565b604051806060016040528060001515815260200160001515815260200160006bffffffffffffffffffffffff1681525090565b5b808211156127fa5760008160009055506001016127e2565b5090565b82805461280a906137a3565b90600052602060002090601f01602090048101928261282c5760008555612873565b82601f1061284557805160ff1916838001178555612873565b82800160010185558215612873579182015b82811115612872578251825591602001919060010190612857565b5b50905061288091906127e1565b5090565b5b808211156128a4576000818161289b91906128a8565b50600101612885565b5090565b5080546128b4906137a3565b6000825580601f106128c657506128e5565b601f0160209004906000526020600020908101906128e491906127e1565b5b50565b6000604051905090565b600080fd5b600080fd5b6000819050919050565b61290f816128fc565b811461291a57600080fd5b50565b60008135905061292c81612906565b92915050565b600060208284031215612948576129476128f2565b5b60006129568482850161291d565b91505092915050565b612968816128fc565b82525050565b600073ffffffffffffffffffffffffffffffffffffffff82169050919050565b60006129998261296e565b9050919050565b6129a98161298e565b82525050565b60008115159050919050565b6129c4816129af565b82525050565b6000610120820190506129e0600083018c61295f565b6129ed602083018b6129a0565b6129fa604083018a61295f565b612a07606083018961295f565b612a14608083018861295f565b612a2160a083018761295f565b612a2e60c083018661295f565b612a3b60e08301856129bb565b612a496101008301846129bb565b9a9950505050505050505050565b6000602082019050612a6c600083018461295f565b92915050565b600081519050919050565b600082825260208201905092915050565b60005b83811015612aac578082015181840152602081019050612a91565b83811115612abb576000848401525b50505050565b6000601f19601f8301169050919050565b6000612add82612a72565b612ae78185612a7d565b9350612af7818560208601612a8e565b612b0081612ac1565b840191505092915050565b60006020820190508181036000830152612b258184612ad2565b905092915050565b6000819050919050565b6000612b52612b4d612b488461296e565b612b2d565b61296e565b9050919050565b6000612b6482612b37565b9050919050565b6000612b7682612b59565b9050919050565b612b8681612b6b565b82525050565b6000602082019050612ba16000830184612b7d565b92915050565b612bb0816129af565b8114612bbb57600080fd5b50565b600081359050612bcd81612ba7565b92915050565b60008060408385031215612bea57612be96128f2565b5b6000612bf88582860161291d565b9250506020612c0985828601612bbe565b9150509250929050565b612c1c8161298e565b8114612c2757600080fd5b50565b600081359050612c3981612c13565b92915050565b600060208284031215612c5557612c546128f2565b5b6000612c6384828501612c2a565b91505092915050565b6000819050919050565b612c7f81612c6c565b82525050565b6000602082019050612c9a6000830184612c76565b92915050565b60008060408385031215612cb757612cb66128f2565b5b6000612cc585828601612c2a565b9250506020612cd68582860161291d565b9150509250929050565b600081519050919050565b600082825260208201905092915050565b6000819050602082019050919050565b612d158161298e565b82525050565b6000612d278383612d0c565b60208301905092915050565b6000602082019050919050565b6000612d4b82612ce0565b612d558185612ceb565b9350612d6083612cfc565b8060005b83811015612d91578151612d788882612d1b565b9750612d8383612d33565b925050600181019050612d64565b5085935050505092915050565b600081519050919050565b600082825260208201905092915050565b6000819050602082019050919050565b612dd3816128fc565b82525050565b6000612de58383612dca565b60208301905092915050565b6000602082019050919050565b6000612e0982612d9e565b612e138185612da9565b9350612e1e83612dba565b8060005b83811015612e4f578151612e368882612dd9565b9750612e4183612df1565b925050600181019050612e22565b5085935050505092915050565b600081519050919050565b600082825260208201905092915050565b6000819050602082019050919050565b600081519050919050565b600082825260208201905092915050565b6000612eaf82612e88565b612eb98185612e93565b9350612ec9818560208601612a8e565b612ed281612ac1565b840191505092915050565b6000612ee98383612ea4565b905092915050565b6000602082019050919050565b6000612f0982612e5c565b612f138185612e67565b935083602082028501612f2585612e78565b8060005b85811015612f615784840389528151612f428582612edd565b9450612f4d83612ef1565b925060208a01995050600181019050612f29565b50829750879550505050505092915050565b60006060820190508181036000830152612f8d8186612d40565b90508181036020830152612fa18185612dfe565b90508181036040830152612fb58184612efe565b9050949350505050565b7f4e487b7100000000000000000000000000000000000000000000000000000000600052602160045260246000fd5b60088110612fff57612ffe612fbf565b5b50565b600081905061301082612fee565b919050565b600061302082613002565b9050919050565b61303081613015565b82525050565b600060208201905061304b6000830184613027565b92915050565b600060208201905061306660008301846129a0565b92915050565b600060ff82169050919050565b6130828161306c565b811461308d57600080fd5b50565b60008135905061309f81613079565b92915050565b6130ae81612c6c565b81146130b957600080fd5b50565b6000813590506130cb816130a5565b92915050565b600080600080600060a086880312156130ed576130ec6128f2565b5b60006130fb8882890161291d565b955050602061310c88828901612bbe565b945050604061311d88828901613090565b935050606061312e888289016130bc565b925050608061313f888289016130bc565b9150509295509295909350565b600080fd5b7f4e487b7100000000000000000000000000000000000000000000000000000000600052604160045260246000fd5b61318982612ac1565b810181811067ffffffffffffffff821117156131a8576131a7613151565b5b80604052505050565b60006131bb6128e8565b90506131c78282613180565b919050565b600067ffffffffffffffff8211156131e7576131e6613151565b5b602082029050602081019050919050565b600080fd5b600061321061320b846131cc565b6131b1565b90508083825260208201905060208402830185811115613233576132326131f8565b5b835b8181101561325c57806132488882612c2a565b845260208401935050602081019050613235565b5050509392505050565b600082601f83011261327b5761327a61314c565b5b813561328b8482602086016131fd565b91505092915050565b600067ffffffffffffffff8211156132af576132ae613151565b5b602082029050602081019050919050565b60006132d36132ce84613294565b6131b1565b905080838252602082019050602084028301858111156132f6576132f56131f8565b5b835b8181101561331f578061330b888261291d565b8452602084019350506020810190506132f8565b5050509392505050565b600082601f83011261333e5761333d61314c565b5b813561334e8482602086016132c0565b91505092915050565b600067ffffffffffffffff82111561337257613371613151565b5b602082029050602081019050919050565b600080fd5b600067ffffffffffffffff8211156133a3576133a2613151565b5b6133ac82612ac1565b9050602081019050919050565b82818337600083830152505050565b60006133db6133d684613388565b6131b1565b9050828152602081018484840111156133f7576133f6613383565b5b6134028482856133b9565b509392505050565b600082601f83011261341f5761341e61314c565b5b813561342f8482602086016133c8565b91505092915050565b600061344b61344684613357565b6131b1565b9050808382526020820190506020840283018581111561346e5761346d6131f8565b5b835b818110156134b557803567ffffffffffffffff8111156134935761349261314c565b5b8086016134a0898261340a565b85526020850194505050602081019050613470565b5050509392505050565b600082601f8301126134d4576134d361314c565b5b81356134e4848260208601613438565b91505092915050565b600067ffffffffffffffff82111561350857613507613151565b5b61351182612ac1565b9050602081019050919050565b600061353161352c846134ed565b6131b1565b90508281526020810184848401111561354d5761354c613383565b5b6135588482856133b9565b509392505050565b600082601f8301126135755761357461314c565b5b813561358584826020860161351e565b91505092915050565b600080600080608085870312156135a8576135a76128f2565b5b600085013567ffffffffffffffff8111156135c6576135c56128f7565b5b6135d287828801613266565b945050602085013567ffffffffffffffff8111156135f3576135f26128f7565b5b6135ff87828801613329565b935050604085013567ffffffffffffffff8111156136205761361f6128f7565b5b61362c878288016134bf565b925050606085013567ffffffffffffffff81111561364d5761364c6128f7565b5b61365987828801613560565b91505092959194509250565b600061367082612b59565b9050919050565b61368081613665565b82525050565b600060208201905061369b6000830184613677565b92915050565b600080604083850312156136b8576136b76128f2565b5b60006136c68582860161291d565b92505060206136d785828601612c2a565b9150509250929050565b6136ea816129af565b82525050565b60006bffffffffffffffffffffffff82169050919050565b613711816136f0565b82525050565b60608201600082015161372d60008501826136e1565b50602082015161374060208501826136e1565b5060408201516137536040850182613708565b50505050565b600060608201905061376e6000830184613717565b92915050565b7f4e487b7100000000000000000000000000000000000000000000000000000000600052602260045260246000fd5b600060028204905060018216806137bb57607f821691505b602082108114156137cf576137ce613774565b5b50919050565b7f476f7665726e6f72416c7068613a3a5f5f6578656375746553657454696d656c60008201527f6f636b50656e64696e6741646d696e3a2073656e646572206d7573742062652060208201527f676f7620677561726469616e0000000000000000000000000000000000000000604082015250565b6000613857604c83612a7d565b9150613862826137d5565b606082019050919050565b600060208201905081810360008301526138868161384a565b9050919050565b6000819050919050565b60006138b26138ad6138a88461388d565b612b2d565b6128fc565b9050919050565b6138c281613897565b82525050565b600082825260208201905092915050565b60006138e482612e88565b6138ee81856138c8565b93506138fe818560208601612a8e565b61390781612ac1565b840191505092915050565b600060808201905061392760008301876129a0565b61393460208301866138b9565b818103604083015261394681856138d9565b9050613955606083018461295f565b95945050505050565b600061397161396c84613388565b6131b1565b90508281526020810184848401111561398d5761398c613383565b5b613998848285612a8e565b509392505050565b600082601f8301126139b5576139b461314c565b5b81516139c584826020860161395e565b91505092915050565b6000602082840312156139e4576139e36128f2565b5b600082015167ffffffffffffffff811115613a0257613a016128f7565b5b613a0e848285016139a0565b91505092915050565b7f476f7665726e6f72416c7068613a3a73746174653a20696e76616c696420707260008201527f6f706f73616c2069640000000000000000000000000000000000000000000000602082015250565b6000613a73602983612a7d565b9150613a7e82613a17565b604082019050919050565b60006020820190508181036000830152613aa281613a66565b9050919050565b600081519050613ab881612906565b92915050565b600060208284031215613ad457613ad36128f2565b5b6000613ae284828501613aa9565b91505092915050565b7f476f7665726e6f72416c7068613a3a63616e63656c3a2063616e6e6f7420636160008201527f6e63656c2065786563757465642070726f706f73616c00000000000000000000602082015250565b6000613b47603683612a7d565b9150613b5282613aeb565b604082019050919050565b60006020820190508181036000830152613b7681613b3a565b9050919050565b6000604082019050613b9260008301856129a0565b613b9f602083018461295f565b9392505050565b613baf816136f0565b8114613bba57600080fd5b50565b600081519050613bcc81613ba6565b92915050565b600060208284031215613be857613be76128f2565b5b6000613bf684828501613bbd565b91505092915050565b7f476f7665726e6f72416c7068613a3a63616e63656c3a2070726f706f7365722060008201527f61626f7665207468726573686f6c640000000000000000000000000000000000602082015250565b6000613c5b602f83612a7d565b9150613c6682613bff565b604082019050919050565b60006020820190508181036000830152613c8a81613c4e565b9050919050565b7f4e487b7100000000000000000000000000000000000000000000000000000000600052603260045260246000fd5b60008190508160005260206000209050919050565b60008154613ce2816137a3565b613cec81866138c8565b94506001821660008114613d075760018114613d1957613d4c565b60ff1983168652602086019350613d4c565b613d2285613cc0565b60005b83811015613d4457815481890152600182019150602081019050613d25565b808801955050505b50505092915050565b6000608082019050613d6a60008301876129a0565b613d77602083018661295f565b8181036040830152613d898185613cd5565b9050613d98606083018461295f565b95945050505050565b7f4e487b7100000000000000000000000000000000000000000000000000000000600052601160045260246000fd5b6000613ddb826128fc565b91507fffffffffffffffffffffffffffffffffffffffffffffffffffffffffffffffff821415613e0e57613e0d613da1565b5b600182019050919050565b600081905092915050565b60008190508160005260206000209050919050565b60008154613e46816137a3565b613e508186613e19565b94506001821660008114613e6b5760018114613e7c57613eaf565b60ff19831686528186019350613eaf565b613e8585613e24565b60005b83811015613ea757815481890152600182019150602081019050613e88565b838801955050505b50505092915050565b6000613ec48284613e39565b915081905092915050565b6000608082019050613ee46000830187612c76565b613ef16020830186612c76565b613efe604083018561295f565b613f0b60608301846129a0565b95945050505050565b6000606082019050613f296000830186612c76565b613f36602083018561295f565b613f4360408301846129bb565b949350505050565b600081905092915050565b7f1901000000000000000000000000000000000000000000000000000000000000600082015250565b6000613f8c600283613f4b565b9150613f9782613f56565b600282019050919050565b6000819050919050565b613fbd613fb882612c6c565b613fa2565b82525050565b6000613fce82613f7f565b9150613fda8285613fac565b602082019150613fea8284613fac565b6020820191508190509392505050565b6140038161306c565b82525050565b600060808201905061401e6000830187612c76565b61402b6020830186613ffa565b6140386040830185612c76565b6140456060830184612c76565b95945050505050565b7f476f7665726e6f72416c7068613a3a63617374566f746542795369673a20696e60008201527f76616c6964207369676e61747572650000000000000000000000000000000000602082015250565b60006140aa602f83612a7d565b91506140b58261404e565b604082019050919050565b600060208201905081810360008301526140d98161409d565b9050919050565b7f476f7665726e6f72416c7068613a3a5f5f61626469636174653a2073656e646560008201527f72206d75737420626520676f7620677561726469616e00000000000000000000602082015250565b600061413c603683612a7d565b9150614147826140e0565b604082019050919050565b6000602082019050818103600083015261416b8161412f565b9050919050565b7f476f7665726e6f72416c7068613a3a70726f706f73653a2070726f706f73657260008201527f20766f7465732062656c6f772070726f706f73616c207468726573686f6c6400602082015250565b60006141ce603f83612a7d565b91506141d982614172565b604082019050919050565b600060208201905081810360008301526141fd816141c1565b9050919050565b7f476f7665726e6f72416c7068613a3a70726f706f73653a2070726f706f73616c60008201527f2066756e6374696f6e20696e666f726d6174696f6e206172697479206d69736d60208201527f6174636800000000000000000000000000000000000000000000000000000000604082015250565b6000614286604483612a7d565b915061429182614204565b606082019050919050565b600060208201905081810360008301526142b581614279565b9050919050565b7f476f7665726e6f72416c7068613a3a70726f706f73653a206d7573742070726f60008201527f7669646520616374696f6e730000000000000000000000000000000000000000602082015250565b6000614318602c83612a7d565b9150614323826142bc565b604082019050919050565b600060208201905081810360008301526143478161430b565b9050919050565b7f476f7665726e6f72416c7068613a3a70726f706f73653a20746f6f206d616e7960008201527f20616374696f6e73000000000000000000000000000000000000000000000000602082015250565b60006143aa602883612a7d565b91506143b58261434e565b604082019050919050565b600060208201905081810360008301526143d98161439d565b9050919050565b7f476f7665726e6f72416c7068613a3a70726f706f73653a206f6e65206c69766560008201527f2070726f706f73616c207065722070726f706f7365722c20666f756e6420616e60208201527f20616c7265616479206163746976652070726f706f73616c0000000000000000604082015250565b6000614462605883612a7d565b915061446d826143e0565b606082019050919050565b6000602082019050818103600083015261449181614455565b9050919050565b7f476f7665726e6f72416c7068613a3a70726f706f73653a206f6e65206c69766560008201527f2070726f706f73616c207065722070726f706f7365722c20666f756e6420616e60208201527f20616c72656164792070656e64696e672070726f706f73616c00000000000000604082015250565b600061451a605983612a7d565b915061452582614498565b606082019050919050565b600060208201905081810360008301526145498161450d565b9050919050565b600061010082019050614566600083018b61295f565b614573602083018a6129a0565b81810360408301526145858189612d40565b905081810360608301526145998188612dfe565b905081810360808301526145ad8187612efe565b90506145bc60a083018661295f565b6145c960c083018561295f565b81810360e08301526145db8184612ad2565b90509998505050505050505050565b7f476f7665726e6f72416c7068613a3a5f5f717565756553657454696d656c6f6360008201527f6b50656e64696e6741646d696e3a2073656e646572206d75737420626520676f60208201527f7620677561726469616e00000000000000000000000000000000000000000000604082015250565b600061466c604a83612a7d565b9150614677826145ea565b606082019050919050565b6000602082019050818103600083015261469b8161465f565b9050919050565b6000815190506146b1816130a5565b92915050565b6000602082840312156146cd576146cc6128f2565b5b60006146db848285016146a2565b91505092915050565b7f476f7665726e6f72416c7068613a3a5f5f61636365707441646d696e3a20736560008201527f6e646572206d75737420626520676f7620677561726469616e00000000000000602082015250565b6000614740603983612a7d565b915061474b826146e4565b604082019050919050565b6000602082019050818103600083015261476f81614733565b9050919050565b7f476f7665726e6f72416c7068613a3a71756575653a2070726f706f73616c206360008201527f616e206f6e6c792062652071756575656420696620697420697320737563636560208201527f6564656400000000000000000000000000000000000000000000000000000000604082015250565b60006147f8604483612a7d565b915061480382614776565b606082019050919050565b60006020820190508181036000830152614827816147eb565b9050919050565b6000604082019050614843600083018561295f565b614850602083018461295f565b9392505050565b7f476f7665726e6f72416c7068613a3a657865637574653a2070726f706f73616c60008201527f2063616e206f6e6c79206265206578656375746564206966206974206973207160208201527f7565756564000000000000000000000000000000000000000000000000000000604082015250565b60006148d9604583612a7d565b91506148e482614857565b606082019050919050565b60006020820190508181036000830152614908816148cc565b9050919050565b7f476f7665726e6f72416c7068613a3a5f63617374566f74653a20766f74696e6760008201527f20697320636c6f73656400000000000000000000000000000000000000000000602082015250565b600061496b602a83612a7d565b91506149768261490f565b604082019050919050565b6000602082019050818103600083015261499a8161495e565b9050919050565b7f476f7665726e6f72416c7068613a3a5f63617374566f74653a20766f7465722060008201527f616c726561647920766f74656400000000000000000000000000000000000000602082015250565b60006149fd602d83612a7d565b9150614a08826149a1565b604082019050919050565b60006020820190508181036000830152614a2c816149f0565b9050919050565b6000614a4e614a49614a44846136f0565b612b2d565b6128fc565b9050919050565b614a5e81614a33565b82525050565b6000608082019050614a7960008301876129a0565b614a86602083018661295f565b614a9360408301856129bb565b614aa06060830184614a55565b95945050505050565b6000614ab4826128fc565b9150614abf836128fc565b9250827fffffffffffffffffffffffffffffffffffffffffffffffffffffffffffffffff03821115614af457614af3613da1565b5b828201905092915050565b7f6164646974696f6e206f766572666c6f77000000000000000000000000000000600082015250565b6000614b35601183612a7d565b9150614b4082614aff565b602082019050919050565b60006020820190508181036000830152614b6481614b28565b9050919050565b7f7375627472616374696f6e20756e646572666c6f770000000000000000000000600082015250565b6000614ba1601583612a7d565b9150614bac82614b6b565b602082019050919050565b60006020820190508181036000830152614bd081614b94565b9050919050565b6000614be2826128fc565b9150614bed836128fc565b925082821015614c0057614bff613da1565b5b828203905092915050565b6000608082019050614c2060008301876129a0565b614c2d602083018661295f565b8181036040830152614c3f81856138d9565b9050614c4e606083018461295f565b95945050505050565b600081519050614c6681612ba7565b92915050565b600060208284031215614c8257614c816128f2565b5b6000614c9084828501614c57565b91505092915050565b7f476f7665726e6f72416c7068613a3a5f71756575654f725265766572743a207060008201527f726f706f73616c20616374696f6e20616c72656164792071756575656420617460208201527f2065746100000000000000000000000000000000000000000000000000000000604082015250565b6000614d1b604483612a7d565b9150614d2682614c99565b606082019050919050565b60006020820190508181036000830152614d4a81614d0e565b905091905056fea26469706673582212208b950db5fcb83f1d1933a79a6db32bb2499a625de09f41a714ca21b661ca73c564736f6c634300080a0033",
  "linkReferences": {},
  "deployedLinkReferences": {}
}