{
  "_format": "hh-sol-artifact-1",
  "contractName": "GovernorAlpha",
  "sourceName": "contracts/GovernorAlpha.sol",
  "abi": [
    {
      "inputs": [
        {
          "internalType": "address",
          "name": "_timelock",
          "type": "address"
        },
        {
          "internalType": "address",
          "name": "_comp",
          "type": "address"
        },
        {
          "internalType": "address",
          "name": "_guardian",
          "type": "address"
        },
        {
          "internalType": "string",
          "name": "_name",
          "type": "string"
        }
      ],
      "stateMutability": "nonpayable",
      "type": "constructor"
    },
    {
      "anonymous": false,
      "inputs": [
        {
          "indexed": false,
          "internalType": "uint256",
          "name": "id",
          "type": "uint256"
        }
      ],
      "name": "ProposalCanceled",
      "type": "event"
    },
    {
      "anonymous": false,
      "inputs": [
        {
          "indexed": false,
          "internalType": "uint256",
          "name": "id",
          "type": "uint256"
        },
        {
          "indexed": false,
          "internalType": "address",
          "name": "proposer",
          "type": "address"
        },
        {
          "indexed": false,
          "internalType": "address[]",
          "name": "targets",
          "type": "address[]"
        },
        {
          "indexed": false,
          "internalType": "uint256[]",
          "name": "values",
          "type": "uint256[]"
        },
        {
          "indexed": false,
          "internalType": "bytes[]",
          "name": "calldatas",
          "type": "bytes[]"
        },
        {
          "indexed": false,
          "internalType": "uint256",
          "name": "startBlock",
          "type": "uint256"
        },
        {
          "indexed": false,
          "internalType": "uint256",
          "name": "endBlock",
          "type": "uint256"
        },
        {
          "indexed": false,
          "internalType": "string",
          "name": "description",
          "type": "string"
        }
      ],
      "name": "ProposalCreated",
      "type": "event"
    },
    {
      "anonymous": false,
      "inputs": [
        {
          "indexed": false,
          "internalType": "uint256",
          "name": "id",
          "type": "uint256"
        }
      ],
      "name": "ProposalExecuted",
      "type": "event"
    },
    {
      "anonymous": false,
      "inputs": [
        {
          "indexed": false,
          "internalType": "uint256",
          "name": "id",
          "type": "uint256"
        },
        {
          "indexed": false,
          "internalType": "uint256",
          "name": "eta",
          "type": "uint256"
        }
      ],
      "name": "ProposalQueued",
      "type": "event"
    },
    {
      "anonymous": false,
      "inputs": [
        {
          "indexed": false,
          "internalType": "address",
          "name": "voter",
          "type": "address"
        },
        {
          "indexed": false,
          "internalType": "uint256",
          "name": "proposalId",
          "type": "uint256"
        },
        {
          "indexed": false,
          "internalType": "bool",
          "name": "support",
          "type": "bool"
        },
        {
          "indexed": false,
          "internalType": "uint256",
          "name": "votes",
          "type": "uint256"
        }
      ],
      "name": "VoteCast",
      "type": "event"
    },
    {
      "inputs": [],
      "name": "BALLOT_TYPEHASH",
      "outputs": [
        {
          "internalType": "bytes32",
          "name": "",
          "type": "bytes32"
        }
      ],
      "stateMutability": "view",
      "type": "function"
    },
    {
      "inputs": [],
      "name": "DOMAIN_TYPEHASH",
      "outputs": [
        {
          "internalType": "bytes32",
          "name": "",
          "type": "bytes32"
        }
      ],
      "stateMutability": "view",
      "type": "function"
    },
    {
      "inputs": [],
      "name": "__abdicate",
      "outputs": [],
      "stateMutability": "nonpayable",
      "type": "function"
    },
    {
      "inputs": [],
      "name": "__acceptAdmin",
      "outputs": [],
      "stateMutability": "nonpayable",
      "type": "function"
    },
    {
      "inputs": [
        {
          "internalType": "address",
          "name": "newPendingAdmin",
          "type": "address"
        },
        {
          "internalType": "uint256",
          "name": "eta",
          "type": "uint256"
        }
      ],
      "name": "__executeSetTimelockPendingAdmin",
      "outputs": [],
      "stateMutability": "nonpayable",
      "type": "function"
    },
    {
      "inputs": [
        {
          "internalType": "address",
          "name": "newPendingAdmin",
          "type": "address"
        },
        {
          "internalType": "uint256",
          "name": "eta",
          "type": "uint256"
        }
      ],
      "name": "__queueSetTimelockPendingAdmin",
      "outputs": [],
      "stateMutability": "nonpayable",
      "type": "function"
    },
    {
      "inputs": [
        {
          "internalType": "uint256",
          "name": "proposalId",
          "type": "uint256"
        }
      ],
      "name": "cancel",
      "outputs": [],
      "stateMutability": "nonpayable",
      "type": "function"
    },
    {
      "inputs": [
        {
          "internalType": "uint256",
          "name": "proposalId",
          "type": "uint256"
        },
        {
          "internalType": "bool",
          "name": "support",
          "type": "bool"
        }
      ],
      "name": "castVote",
      "outputs": [],
      "stateMutability": "nonpayable",
      "type": "function"
    },
    {
      "inputs": [
        {
          "internalType": "uint256",
          "name": "proposalId",
          "type": "uint256"
        },
        {
          "internalType": "bool",
          "name": "support",
          "type": "bool"
        },
        {
          "internalType": "uint8",
          "name": "v",
          "type": "uint8"
        },
        {
          "internalType": "bytes32",
          "name": "r",
          "type": "bytes32"
        },
        {
          "internalType": "bytes32",
          "name": "s",
          "type": "bytes32"
        }
      ],
      "name": "castVoteBySig",
      "outputs": [],
      "stateMutability": "nonpayable",
      "type": "function"
    },
    {
      "inputs": [],
      "name": "comp",
      "outputs": [
        {
          "internalType": "contract CompInterface",
          "name": "",
          "type": "address"
        }
      ],
      "stateMutability": "view",
      "type": "function"
    },
    {
      "inputs": [
        {
          "internalType": "uint256",
          "name": "proposalId",
          "type": "uint256"
        }
      ],
      "name": "execute",
      "outputs": [],
      "stateMutability": "payable",
      "type": "function"
    },
    {
      "inputs": [
        {
          "internalType": "uint256",
          "name": "proposalId",
          "type": "uint256"
        }
      ],
      "name": "getActions",
      "outputs": [
        {
          "internalType": "address[]",
          "name": "targets",
          "type": "address[]"
        },
        {
          "internalType": "uint256[]",
          "name": "values",
          "type": "uint256[]"
        },
        {
          "internalType": "bytes[]",
          "name": "calldatas",
          "type": "bytes[]"
        }
      ],
      "stateMutability": "view",
      "type": "function"
    },
    {
      "inputs": [
        {
          "internalType": "uint256",
          "name": "proposalId",
          "type": "uint256"
        },
        {
          "internalType": "address",
          "name": "voter",
          "type": "address"
        }
      ],
      "name": "getReceipt",
      "outputs": [
        {
          "components": [
            {
              "internalType": "bool",
              "name": "hasVoted",
              "type": "bool"
            },
            {
              "internalType": "bool",
              "name": "support",
              "type": "bool"
            },
            {
              "internalType": "uint96",
              "name": "votes",
              "type": "uint96"
            }
          ],
          "internalType": "struct GovernorAlpha.Receipt",
          "name": "",
          "type": "tuple"
        }
      ],
      "stateMutability": "view",
      "type": "function"
    },
    {
      "inputs": [],
      "name": "guardian",
      "outputs": [
        {
          "internalType": "address",
          "name": "",
          "type": "address"
        }
      ],
      "stateMutability": "view",
      "type": "function"
    },
    {
      "inputs": [
        {
          "internalType": "address",
          "name": "",
          "type": "address"
        }
      ],
      "name": "latestProposalIds",
      "outputs": [
        {
          "internalType": "uint256",
          "name": "",
          "type": "uint256"
        }
      ],
      "stateMutability": "view",
      "type": "function"
    },
    {
      "inputs": [],
      "name": "name",
      "outputs": [
        {
          "internalType": "string",
          "name": "",
          "type": "string"
        }
      ],
      "stateMutability": "view",
      "type": "function"
    },
    {
      "inputs": [],
      "name": "proposalCount",
      "outputs": [
        {
          "internalType": "uint256",
          "name": "",
          "type": "uint256"
        }
      ],
      "stateMutability": "view",
      "type": "function"
    },
    {
      "inputs": [],
      "name": "proposalMaxOperations",
      "outputs": [
        {
          "internalType": "uint256",
          "name": "",
          "type": "uint256"
        }
      ],
      "stateMutability": "pure",
      "type": "function"
    },
    {
      "inputs": [],
      "name": "proposalThreshold",
      "outputs": [
        {
          "internalType": "uint256",
          "name": "",
          "type": "uint256"
        }
      ],
      "stateMutability": "pure",
      "type": "function"
    },
    {
      "inputs": [
        {
          "internalType": "uint256",
          "name": "",
          "type": "uint256"
        }
      ],
      "name": "proposals",
      "outputs": [
        {
          "internalType": "uint256",
          "name": "id",
          "type": "uint256"
        },
        {
          "internalType": "address",
          "name": "proposer",
          "type": "address"
        },
        {
          "internalType": "uint256",
          "name": "eta",
          "type": "uint256"
        },
        {
          "internalType": "uint256",
          "name": "startBlock",
          "type": "uint256"
        },
        {
          "internalType": "uint256",
          "name": "endBlock",
          "type": "uint256"
        },
        {
          "internalType": "uint256",
          "name": "forVotes",
          "type": "uint256"
        },
        {
          "internalType": "uint256",
          "name": "againstVotes",
          "type": "uint256"
        },
        {
          "internalType": "bool",
          "name": "canceled",
          "type": "bool"
        },
        {
          "internalType": "bool",
          "name": "executed",
          "type": "bool"
        }
      ],
      "stateMutability": "view",
      "type": "function"
    },
    {
      "inputs": [
        {
          "internalType": "address[]",
          "name": "targets",
          "type": "address[]"
        },
        {
          "internalType": "uint256[]",
          "name": "values",
          "type": "uint256[]"
        },
        {
          "internalType": "bytes[]",
          "name": "calldatas",
          "type": "bytes[]"
        },
        {
          "internalType": "string",
          "name": "description",
          "type": "string"
        }
      ],
      "name": "propose",
      "outputs": [
        {
          "internalType": "uint256",
          "name": "",
          "type": "uint256"
        }
      ],
      "stateMutability": "nonpayable",
      "type": "function"
    },
    {
      "inputs": [
        {
          "internalType": "uint256",
          "name": "proposalId",
          "type": "uint256"
        }
      ],
      "name": "queue",
      "outputs": [],
      "stateMutability": "nonpayable",
      "type": "function"
    },
    {
      "inputs": [],
      "name": "quorumVotes",
      "outputs": [
        {
          "internalType": "uint256",
          "name": "",
          "type": "uint256"
        }
      ],
      "stateMutability": "pure",
      "type": "function"
    },
    {
      "inputs": [],
      "name": "qv",
      "outputs": [
        {
          "internalType": "bool",
          "name": "",
          "type": "bool"
        }
      ],
      "stateMutability": "view",
      "type": "function"
    },
    {
      "inputs": [
        {
          "internalType": "uint256",
          "name": "proposalId",
          "type": "uint256"
        }
      ],
      "name": "state",
      "outputs": [
        {
          "internalType": "enum GovernorAlpha.ProposalState",
          "name": "",
          "type": "uint8"
        }
      ],
      "stateMutability": "view",
      "type": "function"
    },
    {
      "inputs": [],
      "name": "timelock",
      "outputs": [
        {
          "internalType": "contract TimelockInterface",
          "name": "",
          "type": "address"
        }
      ],
      "stateMutability": "view",
      "type": "function"
    },
    {
      "inputs": [],
      "name": "votingDelay",
      "outputs": [
        {
          "internalType": "uint256",
          "name": "",
          "type": "uint256"
        }
      ],
      "stateMutability": "pure",
      "type": "function"
    },
    {
      "inputs": [],
      "name": "votingPeriod",
      "outputs": [
        {
          "internalType": "uint256",
          "name": "",
          "type": "uint256"
        }
      ],
      "stateMutability": "pure",
      "type": "function"
    }
  ],
  "bytecode": "0x60806040526040518060400160405280600d81526020017f476f7665726e6f72416c7068610000000000000000000000000000000000000081525060009080519060200190620000519291906200016a565b503480156200005f57600080fd5b50604051620051703803806200517083398181016040528101906200008591906200041c565b836001806101000a81548173ffffffffffffffffffffffffffffffffffffffff021916908373ffffffffffffffffffffffffffffffffffffffff16021790555082600260006101000a81548173ffffffffffffffffffffffffffffffffffffffff021916908373ffffffffffffffffffffffffffffffffffffffff16021790555081600360006101000a81548173ffffffffffffffffffffffffffffffffffffffff021916908373ffffffffffffffffffffffffffffffffffffffff16021790555080600090805190602001906200015f9291906200016a565b505050505062000512565b8280546200017890620004dc565b90600052602060002090601f0160209004810192826200019c5760008555620001e8565b82601f10620001b757805160ff1916838001178555620001e8565b82800160010185558215620001e8579182015b82811115620001e7578251825591602001919060010190620001ca565b5b509050620001f79190620001fb565b5090565b5b8082111562000216576000816000905550600101620001fc565b5090565b6000604051905090565b600080fd5b600080fd5b600073ffffffffffffffffffffffffffffffffffffffff82169050919050565b60006200025b826200022e565b9050919050565b6200026d816200024e565b81146200027957600080fd5b50565b6000815190506200028d8162000262565b92915050565b600080fd5b600080fd5b6000601f19601f8301169050919050565b7f4e487b7100000000000000000000000000000000000000000000000000000000600052604160045260246000fd5b620002e8826200029d565b810181811067ffffffffffffffff821117156200030a5762000309620002ae565b5b80604052505050565b60006200031f6200021a565b90506200032d8282620002dd565b919050565b600067ffffffffffffffff82111562000350576200034f620002ae565b5b6200035b826200029d565b9050602081019050919050565b60005b83811015620003885780820151818401526020810190506200036b565b8381111562000398576000848401525b50505050565b6000620003b5620003af8462000332565b62000313565b905082815260208101848484011115620003d457620003d362000298565b5b620003e184828562000368565b509392505050565b600082601f83011262000401576200040062000293565b5b8151620004138482602086016200039e565b91505092915050565b6000806000806080858703121562000439576200043862000224565b5b600062000449878288016200027c565b94505060206200045c878288016200027c565b93505060406200046f878288016200027c565b925050606085015167ffffffffffffffff81111562000493576200049262000229565b5b620004a187828801620003e9565b91505092959194509250565b7f4e487b7100000000000000000000000000000000000000000000000000000000600052602260045260246000fd5b60006002820490506001821680620004f557607f821691505b602082108114156200050c576200050b620004ad565b5b50919050565b614c4e80620005226000396000f3fe6080604052600436106101b75760003560e01c80634634c61f116100ec578063b9a619611161008a578063ddf0b00911610064578063ddf0b009146105f6578063deaaa7cc1461061f578063e23a9a521461064a578063fe0d94c114610687576101b7565b8063b9a6196114610589578063d33219b4146105a0578063da35c664146105cb576101b7565b80637d5e81e2116100c65780637d5e81e2146104cd578063915006711461050a5780639352f7be14610533578063b58131b01461055e576101b7565b80634634c61f14610462578063760fbc131461048b5780637bdbe4d0146104a2576101b7565b806321f43e42116101595780633932abb1116101335780633932abb1146103a65780633e4f49e6146103d157806340e58ee51461040e578063452a932014610437576101b7565b806321f43e421461031357806324bc1a641461033c578063328dd98214610367576101b7565b8063109d0af811610195578063109d0af81461025757806315373e3d1461028257806317977c61146102ab57806320606b70146102e8576101b7565b8063013cf08b146101bc57806302a251a31461020157806306fdde031461022c575b600080fd5b3480156101c857600080fd5b506101e360048036038101906101de9190612870565b6106a3565b6040516101f899989796959493929190612908565b60405180910390f35b34801561020d57600080fd5b5061021661072b565b6040516102239190612995565b60405180910390f35b34801561023857600080fd5b50610241610734565b60405161024e9190612a49565b60405180910390f35b34801561026357600080fd5b5061026c6107c2565b6040516102799190612aca565b60405180910390f35b34801561028e57600080fd5b506102a960048036038101906102a49190612b11565b6107e8565b005b3480156102b757600080fd5b506102d260048036038101906102cd9190612b7d565b6107f7565b6040516102df9190612995565b60405180910390f35b3480156102f457600080fd5b506102fd61080f565b60405161030a9190612bc3565b60405180910390f35b34801561031f57600080fd5b5061033a60048036038101906103359190612bde565b610833565b005b34801561034857600080fd5b506103516109af565b60405161035e9190612995565b60405180910390f35b34801561037357600080fd5b5061038e60048036038101906103899190612870565b6109c2565b60405161039d93929190612eb1565b60405180910390f35b3480156103b257600080fd5b506103bb610ba5565b6040516103c89190612995565b60405180910390f35b3480156103dd57600080fd5b506103f860048036038101906103f39190612870565b610bae565b6040516104059190612f74565b60405180910390f35b34801561041a57600080fd5b5061043560048036038101906104309190612870565b610d7d565b005b34801561044357600080fd5b5061044c611115565b6040516104599190612f8f565b60405180910390f35b34801561046e57600080fd5b506104896004803603810190610484919061300f565b61113b565b005b34801561049757600080fd5b506104a06112fe565b005b3480156104ae57600080fd5b506104b76113d2565b6040516104c49190612995565b60405180910390f35b3480156104d957600080fd5b506104f460048036038101906104ef91906134cc565b6113db565b6040516105019190612995565b60405180910390f35b34801561051657600080fd5b50610531600480360381019061052c9190612bde565b6117a3565b005b34801561053f57600080fd5b5061054861191a565b60405161055591906135a3565b60405180910390f35b34801561056a57600080fd5b5061057361192d565b6040516105809190612995565b60405180910390f35b34801561059557600080fd5b5061059e61193f565b005b3480156105ac57600080fd5b506105b5611a51565b6040516105c291906135df565b60405180910390f35b3480156105d757600080fd5b506105e0611a75565b6040516105ed9190612995565b60405180910390f35b34801561060257600080fd5b5061061d60048036038101906106189190612870565b611a7b565b005b34801561062b57600080fd5b50610634611d1e565b6040516106419190612bc3565b60405180910390f35b34801561065657600080fd5b50610671600480360381019061066c91906135fa565b611d42565b60405161067e91906136b2565b60405180910390f35b6106a1600480360381019061069c9190612870565b611e24565b005b60056020528060005260406000206000915090508060000154908060010160009054906101000a900473ffffffffffffffffffffffffffffffffffffffff169080600201549080600601549080600701549080600801549080600901549080600a0160009054906101000a900460ff169080600a0160019054906101000a900460ff16905089565b6000603c905090565b60008054610741906136fc565b80601f016020809104026020016040519081016040528092919081815260200182805461076d906136fc565b80156107ba5780601f1061078f576101008083540402835291602001916107ba565b820191906000526020600020905b81548152906001019060200180831161079d57829003601f168201915b505050505081565b600260009054906101000a900473ffffffffffffffffffffffffffffffffffffffff1681565b6107f3338383612074565b5050565b60066020528060005260406000206000915090505481565b7f8cad95687ba82c2ce50e74f7b754645e5117c3a5bec8151c0726d5857980a86681565b600360009054906101000a900473ffffffffffffffffffffffffffffffffffffffff1673ffffffffffffffffffffffffffffffffffffffff163373ffffffffffffffffffffffffffffffffffffffff16146108c3576040517f08c379a00000000000000000000000000000000000000000000000000000000081526004016108ba906137c6565b60405180910390fd5b60018054906101000a900473ffffffffffffffffffffffffffffffffffffffff1673ffffffffffffffffffffffffffffffffffffffff166306a41d0960018054906101000a900473ffffffffffffffffffffffffffffffffffffffff166000856040516020016109339190612f8f565b604051602081830303815290604052856040518563ffffffff1660e01b8152600401610962949392919061386b565b6000604051808303816000875af1158015610981573d6000803e3d6000fd5b505050506040513d6000823e3d601f19601f820116820180604052508101906109aa9190613927565b505050565b60006a0422ca8b0a00a425000000905090565b6060806060600060056000868152602001908152602001600020905080600301816004018260050182805480602002602001604051908101604052809291908181526020018280548015610a6b57602002820191906000526020600020905b8160009054906101000a900473ffffffffffffffffffffffffffffffffffffffff1673ffffffffffffffffffffffffffffffffffffffff1681526020019060010190808311610a21575b5050505050925081805480602002602001604051908101604052809291908181526020018280548015610abd57602002820191906000526020600020905b815481526020019060010190808311610aa9575b5050505050915080805480602002602001604051908101604052809291908181526020016000905b82821015610b91578382906000526020600020018054610b04906136fc565b80601f0160208091040260200160405190810160405280929190818152602001828054610b30906136fc565b8015610b7d5780601f10610b5257610100808354040283529160200191610b7d565b820191906000526020600020905b815481529060010190602001808311610b6057829003601f168201915b505050505081526020019060010190610ae5565b505050509050935093509350509193909250565b60006001905090565b60008160045410158015610bc25750600082115b610c01576040517f08c379a0000000000000000000000000000000000000000000000000000000008152600401610bf8906139e2565b60405180910390fd5b600060056000848152602001908152602001600020905080600a0160009054906101000a900460ff1615610c39576002915050610d78565b80600601544311610c4e576000915050610d78565b80600701544311610c63576001915050610d78565b80600901548160080154111580610c7f57506127108160080154105b15610c8e576003915050610d78565b600081600201541415610ca5576004915050610d78565b80600a0160019054906101000a900460ff1615610cc6576007915050610d78565b610d62816002015460018054906101000a900473ffffffffffffffffffffffffffffffffffffffff1673ffffffffffffffffffffffffffffffffffffffff1663c1a287e26040518163ffffffff1660e01b8152600401602060405180830381865afa158015610d39573d6000803e3d6000fd5b505050506040513d601f19601f82011682018060405250810190610d5d9190613a17565b612342565b4210610d72576006915050610d78565b60059150505b919050565b6000610d8882610bae565b9050600780811115610d9d57610d9c612efd565b5b816007811115610db057610daf612efd565b5b1415610df1576040517f08c379a0000000000000000000000000000000000000000000000000000000008152600401610de890613ab6565b60405180910390fd5b6000600560008481526020019081526020016000209050600360009054906101000a900473ffffffffffffffffffffffffffffffffffffffff1673ffffffffffffffffffffffffffffffffffffffff163373ffffffffffffffffffffffffffffffffffffffff161480610f435750610e6761192d565b600260009054906101000a900473ffffffffffffffffffffffffffffffffffffffff1673ffffffffffffffffffffffffffffffffffffffff1663782d6fe18360010160009054906101000a900473ffffffffffffffffffffffffffffffffffffffff16610ed54360016123a0565b6040518363ffffffff1660e01b8152600401610ef2929190613ad6565b602060405180830381865afa158015610f0f573d6000803e3d6000fd5b505050506040513d601f19601f82011682018060405250810190610f339190613b2b565b6bffffffffffffffffffffffff16105b610f82576040517f08c379a0000000000000000000000000000000000000000000000000000000008152600401610f7990613bca565b60405180910390fd5b600181600a0160006101000a81548160ff02191690831515021790555060005b81600301805490508110156110d85760018054906101000a900473ffffffffffffffffffffffffffffffffffffffff1673ffffffffffffffffffffffffffffffffffffffff16635b26b10883600301838154811061100357611002613bea565b5b9060005260206000200160009054906101000a900473ffffffffffffffffffffffffffffffffffffffff1684600401848154811061104457611043613bea565b5b906000526020600020015485600501858154811061106557611064613bea565b5b9060005260206000200186600201546040518563ffffffff1660e01b81526004016110939493929190613cae565b600060405180830381600087803b1580156110ad57600080fd5b505af11580156110c1573d6000803e3d6000fd5b5050505080806110d090613d29565b915050610fa2565b507f789cf55be980739dad1d0699b93b58e806b51c9d96619bfa8fe0a28abaa7b30c836040516111089190612995565b60405180910390a1505050565b600360009054906101000a900473ffffffffffffffffffffffffffffffffffffffff1681565b60007f8cad95687ba82c2ce50e74f7b754645e5117c3a5bec8151c0726d5857980a866600060405161116d9190613e11565b604051809103902061117d6123f9565b306040516020016111919493929190613e28565b60405160208183030381529060405280519060200120905060007f8e25870c07e0b0b3884c78da52790939a455c275406c44ae8b434b692fb916ee87876040516020016111e093929190613e6d565b6040516020818303038152906040528051906020012090506000828260405160200161120d929190613f1c565b60405160208183030381529060405280519060200120905060006001828888886040516000815260200160405260405161124a9493929190613f62565b6020604051602081039080840390855afa15801561126c573d6000803e3d6000fd5b505050602060405103519050600073ffffffffffffffffffffffffffffffffffffffff168173ffffffffffffffffffffffffffffffffffffffff1614156112e8576040517f08c379a00000000000000000000000000000000000000000000000000000000081526004016112df90614019565b60405180910390fd5b6112f3818a8a612074565b505050505050505050565b600360009054906101000a900473ffffffffffffffffffffffffffffffffffffffff1673ffffffffffffffffffffffffffffffffffffffff163373ffffffffffffffffffffffffffffffffffffffff161461138e576040517f08c379a0000000000000000000000000000000000000000000000000000000008152600401611385906140ab565b60405180910390fd5b6000600360006101000a81548173ffffffffffffffffffffffffffffffffffffffff021916908373ffffffffffffffffffffffffffffffffffffffff160217905550565b6000600a905090565b6000835185511480156113ef575082518551145b61142e576040517f08c379a000000000000000000000000000000000000000000000000000000000815260040161142590614163565b60405180910390fd5b600085511415611473576040517f08c379a000000000000000000000000000000000000000000000000000000000815260040161146a906141f5565b60405180910390fd5b61147b6113d2565b855111156114be576040517f08c379a00000000000000000000000000000000000000000000000000000000081526004016114b590614287565b60405180910390fd5b6000600660003373ffffffffffffffffffffffffffffffffffffffff1673ffffffffffffffffffffffffffffffffffffffff168152602001908152602001600020549050600081146115e957600061151582610bae565b90506001600781111561152b5761152a612efd565b5b81600781111561153e5761153d612efd565b5b141561157f576040517f08c379a00000000000000000000000000000000000000000000000000000000081526004016115769061433f565b60405180910390fd5b6000600781111561159357611592612efd565b5b8160078111156115a6576115a5612efd565b5b14156115e7576040517f08c379a00000000000000000000000000000000000000000000000000000000081526004016115de906143f7565b60405180910390fd5b505b60006115fc436115f7610ba5565b612342565b905060006116118261160c61072b565b612342565b90506004600081548092919061162690613d29565b9190505550600060056000600454815260200190815260200160002090506004548160000181905550338160010160006101000a81548173ffffffffffffffffffffffffffffffffffffffff021916908373ffffffffffffffffffffffffffffffffffffffff16021790555060008160020181905550888160030190805190602001906116b49291906125b5565b50878160040190805190602001906116cd92919061263f565b50868160050190805190602001906116e692919061268c565b508281600601819055508181600701819055506000816008018190555060008160090181905550600081600a0160006101000a81548160ff021916908315150217905550600081600a0160016101000a81548160ff0219169083151502179055507f95f03e437e6d5037418f12bef80fc7e0a5f27754c078a1d5d3f62d39bac44e508160000154338b8b8b88888d604051611788989796959493929190614417565b60405180910390a18060000154945050505050949350505050565b600360009054906101000a900473ffffffffffffffffffffffffffffffffffffffff1673ffffffffffffffffffffffffffffffffffffffff163373ffffffffffffffffffffffffffffffffffffffff1614611833576040517f08c379a000000000000000000000000000000000000000000000000000000000815260040161182a90614549565b60405180910390fd5b60018054906101000a900473ffffffffffffffffffffffffffffffffffffffff1673ffffffffffffffffffffffffffffffffffffffff16638e361cdf60018054906101000a900473ffffffffffffffffffffffffffffffffffffffff166000856040516020016118a39190612f8f565b604051602081830303815290604052856040518563ffffffff1660e01b81526004016118d2949392919061386b565b6020604051808303816000875af11580156118f1573d6000803e3d6000fd5b505050506040513d601f19601f82011682018060405250810190611915919061457e565b505050565b600160009054906101000a900460ff1681565b600069152d02c7e14af6800000905090565b600360009054906101000a900473ffffffffffffffffffffffffffffffffffffffff1673ffffffffffffffffffffffffffffffffffffffff163373ffffffffffffffffffffffffffffffffffffffff16146119cf576040517f08c379a00000000000000000000000000000000000000000000000000000000081526004016119c69061461d565b60405180910390fd5b60018054906101000a900473ffffffffffffffffffffffffffffffffffffffff1673ffffffffffffffffffffffffffffffffffffffff16630e18b6816040518163ffffffff1660e01b8152600401600060405180830381600087803b158015611a3757600080fd5b505af1158015611a4b573d6000803e3d6000fd5b50505050565b60018054906101000a900473ffffffffffffffffffffffffffffffffffffffff1681565b60045481565b60046007811115611a8f57611a8e612efd565b5b611a9882610bae565b6007811115611aaa57611aa9612efd565b5b14611aea576040517f08c379a0000000000000000000000000000000000000000000000000000000008152600401611ae1906146d5565b60405180910390fd5b60006005600083815260200190815260200160002090506000611b9b4260018054906101000a900473ffffffffffffffffffffffffffffffffffffffff1673ffffffffffffffffffffffffffffffffffffffff16636a42b8f86040518163ffffffff1660e01b8152600401602060405180830381865afa158015611b72573d6000803e3d6000fd5b505050506040513d601f19601f82011682018060405250810190611b969190613a17565b612342565b905060005b8260030180549050811015611cd657611cc3836003018281548110611bc857611bc7613bea565b5b9060005260206000200160009054906101000a900473ffffffffffffffffffffffffffffffffffffffff16846004018381548110611c0957611c08613bea565b5b9060005260206000200154856005018481548110611c2a57611c29613bea565b5b906000526020600020018054611c3f906136fc565b80601f0160208091040260200160405190810160405280929190818152602001828054611c6b906136fc565b8015611cb85780601f10611c8d57610100808354040283529160200191611cb8565b820191906000526020600020905b815481529060010190602001808311611c9b57829003601f168201915b505050505085612406565b8080611cce90613d29565b915050611ba0565b508082600201819055507f9a2e42fd6722813d69113e7d0079d3d940171428df7373df9c7f7617cfda28928382604051611d119291906146f5565b60405180910390a1505050565b7f8e25870c07e0b0b3884c78da52790939a455c275406c44ae8b434b692fb916ee81565b611d4a6126ec565b60056000848152602001908152602001600020600b0160008373ffffffffffffffffffffffffffffffffffffffff1673ffffffffffffffffffffffffffffffffffffffff1681526020019081526020016000206040518060600160405290816000820160009054906101000a900460ff161515151581526020016000820160019054906101000a900460ff161515151581526020016000820160029054906101000a90046bffffffffffffffffffffffff166bffffffffffffffffffffffff166bffffffffffffffffffffffff1681525050905092915050565b60056007811115611e3857611e37612efd565b5b611e4182610bae565b6007811115611e5357611e52612efd565b5b14611e93576040517f08c379a0000000000000000000000000000000000000000000000000000000008152600401611e8a906147b6565b60405180910390fd5b6000600560008381526020019081526020016000209050600181600a0160016101000a81548160ff02191690831515021790555060005b81600301805490508110156120385760018054906101000a900473ffffffffffffffffffffffffffffffffffffffff1673ffffffffffffffffffffffffffffffffffffffff166306a41d09836004018381548110611f2b57611f2a613bea565b5b9060005260206000200154846003018481548110611f4c57611f4b613bea565b5b9060005260206000200160009054906101000a900473ffffffffffffffffffffffffffffffffffffffff16856004018581548110611f8d57611f8c613bea565b5b9060005260206000200154866005018681548110611fae57611fad613bea565b5b9060005260206000200187600201546040518663ffffffff1660e01b8152600401611fdc9493929190613cae565b60006040518083038185885af1158015611ffa573d6000803e3d6000fd5b50505050506040513d6000823e3d601f19601f820116820180604052508101906120249190613927565b50808061203090613d29565b915050611eca565b507f712ae1383f79ac853f8d882153778e0260ef8f03b504e2866e0593e04d2b291f826040516120689190612995565b60405180910390a15050565b6001600781111561208857612087612efd565b5b61209183610bae565b60078111156120a3576120a2612efd565b5b146120e3576040517f08c379a00000000000000000000000000000000000000000000000000000000081526004016120da90614848565b60405180910390fd5b6000600560008481526020019081526020016000209050600081600b0160008673ffffffffffffffffffffffffffffffffffffffff1673ffffffffffffffffffffffffffffffffffffffff1681526020019081526020016000209050600015158160000160009054906101000a900460ff16151514612197576040517f08c379a000000000000000000000000000000000000000000000000000000000815260040161218e906148da565b60405180910390fd5b6000600260009054906101000a900473ffffffffffffffffffffffffffffffffffffffff1673ffffffffffffffffffffffffffffffffffffffff1663782d6fe18785600601546040518363ffffffff1660e01b81526004016121fa929190613ad6565b602060405180830381865afa158015612217573d6000803e3d6000fd5b505050506040513d601f19601f8201168201806040525081019061223b9190613b2b565b9050831561226c5761225f8360080154826bffffffffffffffffffffffff16612342565b8360080181905550612291565b6122888360090154826bffffffffffffffffffffffff16612342565b83600901819055505b60018260000160006101000a81548160ff021916908315150217905550838260000160016101000a81548160ff021916908315150217905550808260000160026101000a8154816bffffffffffffffffffffffff02191690836bffffffffffffffffffffffff1602179055507f877856338e13f63d0c36822ff0ef736b80934cd90574a3a5bc9262c39d217c4686868684604051612332949392919061492b565b60405180910390a1505050505050565b60008082846123519190614970565b905083811015612396576040517f08c379a000000000000000000000000000000000000000000000000000000000815260040161238d90614a12565b60405180910390fd5b8091505092915050565b6000828211156123e5576040517f08c379a00000000000000000000000000000000000000000000000000000000081526004016123dc90614a7e565b60405180910390fd5b81836123f19190614a9e565b905092915050565b6000804690508091505090565b60018054906101000a900473ffffffffffffffffffffffffffffffffffffffff1673ffffffffffffffffffffffffffffffffffffffff1663f2b06537858585856040516020016124599493929190614ad2565b604051602081830303815290604052805190602001206040518263ffffffff1660e01b815260040161248b9190612bc3565b602060405180830381865afa1580156124a8573d6000803e3d6000fd5b505050506040513d601f19601f820116820180604052508101906124cc9190614b33565b1561250c576040517f08c379a000000000000000000000000000000000000000000000000000000000815260040161250390614bf8565b60405180910390fd5b60018054906101000a900473ffffffffffffffffffffffffffffffffffffffff1673ffffffffffffffffffffffffffffffffffffffff16638e361cdf858585856040518563ffffffff1660e01b815260040161256b9493929190614ad2565b6020604051808303816000875af115801561258a573d6000803e3d6000fd5b505050506040513d601f19601f820116820180604052508101906125ae919061457e565b5050505050565b82805482825590600052602060002090810192821561262e579160200282015b8281111561262d5782518260006101000a81548173ffffffffffffffffffffffffffffffffffffffff021916908373ffffffffffffffffffffffffffffffffffffffff160217905550916020019190600101906125d5565b5b50905061263b919061271f565b5090565b82805482825590600052602060002090810192821561267b579160200282015b8281111561267a57825182559160200191906001019061265f565b5b509050612688919061271f565b5090565b8280548282559060005260206000209081019282156126db579160200282015b828111156126da5782518290805190602001906126ca92919061273c565b50916020019190600101906126ac565b5b5090506126e891906127c2565b5090565b604051806060016040528060001515815260200160001515815260200160006bffffffffffffffffffffffff1681525090565b5b80821115612738576000816000905550600101612720565b5090565b828054612748906136fc565b90600052602060002090601f01602090048101928261276a57600085556127b1565b82601f1061278357805160ff19168380011785556127b1565b828001600101855582156127b1579182015b828111156127b0578251825591602001919060010190612795565b5b5090506127be919061271f565b5090565b5b808211156127e257600081816127d991906127e6565b506001016127c3565b5090565b5080546127f2906136fc565b6000825580601f106128045750612823565b601f016020900490600052602060002090810190612822919061271f565b5b50565b6000604051905090565b600080fd5b600080fd5b6000819050919050565b61284d8161283a565b811461285857600080fd5b50565b60008135905061286a81612844565b92915050565b60006020828403121561288657612885612830565b5b60006128948482850161285b565b91505092915050565b6128a68161283a565b82525050565b600073ffffffffffffffffffffffffffffffffffffffff82169050919050565b60006128d7826128ac565b9050919050565b6128e7816128cc565b82525050565b60008115159050919050565b612902816128ed565b82525050565b60006101208201905061291e600083018c61289d565b61292b602083018b6128de565b612938604083018a61289d565b612945606083018961289d565b612952608083018861289d565b61295f60a083018761289d565b61296c60c083018661289d565b61297960e08301856128f9565b6129876101008301846128f9565b9a9950505050505050505050565b60006020820190506129aa600083018461289d565b92915050565b600081519050919050565b600082825260208201905092915050565b60005b838110156129ea5780820151818401526020810190506129cf565b838111156129f9576000848401525b50505050565b6000601f19601f8301169050919050565b6000612a1b826129b0565b612a2581856129bb565b9350612a358185602086016129cc565b612a3e816129ff565b840191505092915050565b60006020820190508181036000830152612a638184612a10565b905092915050565b6000819050919050565b6000612a90612a8b612a86846128ac565b612a6b565b6128ac565b9050919050565b6000612aa282612a75565b9050919050565b6000612ab482612a97565b9050919050565b612ac481612aa9565b82525050565b6000602082019050612adf6000830184612abb565b92915050565b612aee816128ed565b8114612af957600080fd5b50565b600081359050612b0b81612ae5565b92915050565b60008060408385031215612b2857612b27612830565b5b6000612b368582860161285b565b9250506020612b4785828601612afc565b9150509250929050565b612b5a816128cc565b8114612b6557600080fd5b50565b600081359050612b7781612b51565b92915050565b600060208284031215612b9357612b92612830565b5b6000612ba184828501612b68565b91505092915050565b6000819050919050565b612bbd81612baa565b82525050565b6000602082019050612bd86000830184612bb4565b92915050565b60008060408385031215612bf557612bf4612830565b5b6000612c0385828601612b68565b9250506020612c148582860161285b565b9150509250929050565b600081519050919050565b600082825260208201905092915050565b6000819050602082019050919050565b612c53816128cc565b82525050565b6000612c658383612c4a565b60208301905092915050565b6000602082019050919050565b6000612c8982612c1e565b612c938185612c29565b9350612c9e83612c3a565b8060005b83811015612ccf578151612cb68882612c59565b9750612cc183612c71565b925050600181019050612ca2565b5085935050505092915050565b600081519050919050565b600082825260208201905092915050565b6000819050602082019050919050565b612d118161283a565b82525050565b6000612d238383612d08565b60208301905092915050565b6000602082019050919050565b6000612d4782612cdc565b612d518185612ce7565b9350612d5c83612cf8565b8060005b83811015612d8d578151612d748882612d17565b9750612d7f83612d2f565b925050600181019050612d60565b5085935050505092915050565b600081519050919050565b600082825260208201905092915050565b6000819050602082019050919050565b600081519050919050565b600082825260208201905092915050565b6000612ded82612dc6565b612df78185612dd1565b9350612e078185602086016129cc565b612e10816129ff565b840191505092915050565b6000612e278383612de2565b905092915050565b6000602082019050919050565b6000612e4782612d9a565b612e518185612da5565b935083602082028501612e6385612db6565b8060005b85811015612e9f5784840389528151612e808582612e1b565b9450612e8b83612e2f565b925060208a01995050600181019050612e67565b50829750879550505050505092915050565b60006060820190508181036000830152612ecb8186612c7e565b90508181036020830152612edf8185612d3c565b90508181036040830152612ef38184612e3c565b9050949350505050565b7f4e487b7100000000000000000000000000000000000000000000000000000000600052602160045260246000fd5b60088110612f3d57612f3c612efd565b5b50565b6000819050612f4e82612f2c565b919050565b6000612f5e82612f40565b9050919050565b612f6e81612f53565b82525050565b6000602082019050612f896000830184612f65565b92915050565b6000602082019050612fa460008301846128de565b92915050565b600060ff82169050919050565b612fc081612faa565b8114612fcb57600080fd5b50565b600081359050612fdd81612fb7565b92915050565b612fec81612baa565b8114612ff757600080fd5b50565b60008135905061300981612fe3565b92915050565b600080600080600060a0868803121561302b5761302a612830565b5b60006130398882890161285b565b955050602061304a88828901612afc565b945050604061305b88828901612fce565b935050606061306c88828901612ffa565b925050608061307d88828901612ffa565b9150509295509295909350565b600080fd5b7f4e487b7100000000000000000000000000000000000000000000000000000000600052604160045260246000fd5b6130c7826129ff565b810181811067ffffffffffffffff821117156130e6576130e561308f565b5b80604052505050565b60006130f9612826565b905061310582826130be565b919050565b600067ffffffffffffffff8211156131255761312461308f565b5b602082029050602081019050919050565b600080fd5b600061314e6131498461310a565b6130ef565b9050808382526020820190506020840283018581111561317157613170613136565b5b835b8181101561319a57806131868882612b68565b845260208401935050602081019050613173565b5050509392505050565b600082601f8301126131b9576131b861308a565b5b81356131c984826020860161313b565b91505092915050565b600067ffffffffffffffff8211156131ed576131ec61308f565b5b602082029050602081019050919050565b600061321161320c846131d2565b6130ef565b9050808382526020820190506020840283018581111561323457613233613136565b5b835b8181101561325d5780613249888261285b565b845260208401935050602081019050613236565b5050509392505050565b600082601f83011261327c5761327b61308a565b5b813561328c8482602086016131fe565b91505092915050565b600067ffffffffffffffff8211156132b0576132af61308f565b5b602082029050602081019050919050565b600080fd5b600067ffffffffffffffff8211156132e1576132e061308f565b5b6132ea826129ff565b9050602081019050919050565b82818337600083830152505050565b6000613319613314846132c6565b6130ef565b905082815260208101848484011115613335576133346132c1565b5b6133408482856132f7565b509392505050565b600082601f83011261335d5761335c61308a565b5b813561336d848260208601613306565b91505092915050565b600061338961338484613295565b6130ef565b905080838252602082019050602084028301858111156133ac576133ab613136565b5b835b818110156133f357803567ffffffffffffffff8111156133d1576133d061308a565b5b8086016133de8982613348565b855260208501945050506020810190506133ae565b5050509392505050565b600082601f8301126134125761341161308a565b5b8135613422848260208601613376565b91505092915050565b600067ffffffffffffffff8211156134465761344561308f565b5b61344f826129ff565b9050602081019050919050565b600061346f61346a8461342b565b6130ef565b90508281526020810184848401111561348b5761348a6132c1565b5b6134968482856132f7565b509392505050565b600082601f8301126134b3576134b261308a565b5b81356134c384826020860161345c565b91505092915050565b600080600080608085870312156134e6576134e5612830565b5b600085013567ffffffffffffffff81111561350457613503612835565b5b613510878288016131a4565b945050602085013567ffffffffffffffff81111561353157613530612835565b5b61353d87828801613267565b935050604085013567ffffffffffffffff81111561355e5761355d612835565b5b61356a878288016133fd565b925050606085013567ffffffffffffffff81111561358b5761358a612835565b5b6135978782880161349e565b91505092959194509250565b60006020820190506135b860008301846128f9565b92915050565b60006135c982612a97565b9050919050565b6135d9816135be565b82525050565b60006020820190506135f460008301846135d0565b92915050565b6000806040838503121561361157613610612830565b5b600061361f8582860161285b565b925050602061363085828601612b68565b9150509250929050565b613643816128ed565b82525050565b60006bffffffffffffffffffffffff82169050919050565b61366a81613649565b82525050565b606082016000820151613686600085018261363a565b506020820151613699602085018261363a565b5060408201516136ac6040850182613661565b50505050565b60006060820190506136c76000830184613670565b92915050565b7f4e487b7100000000000000000000000000000000000000000000000000000000600052602260045260246000fd5b6000600282049050600182168061371457607f821691505b60208210811415613728576137276136cd565b5b50919050565b7f476f7665726e6f72416c7068613a3a5f5f6578656375746553657454696d656c60008201527f6f636b50656e64696e6741646d696e3a2073656e646572206d7573742062652060208201527f676f7620677561726469616e0000000000000000000000000000000000000000604082015250565b60006137b0604c836129bb565b91506137bb8261372e565b606082019050919050565b600060208201905081810360008301526137df816137a3565b9050919050565b6000819050919050565b600061380b613806613801846137e6565b612a6b565b61283a565b9050919050565b61381b816137f0565b82525050565b600082825260208201905092915050565b600061383d82612dc6565b6138478185613821565b93506138578185602086016129cc565b613860816129ff565b840191505092915050565b600060808201905061388060008301876128de565b61388d6020830186613812565b818103604083015261389f8185613832565b90506138ae606083018461289d565b95945050505050565b60006138ca6138c5846132c6565b6130ef565b9050828152602081018484840111156138e6576138e56132c1565b5b6138f18482856129cc565b509392505050565b600082601f83011261390e5761390d61308a565b5b815161391e8482602086016138b7565b91505092915050565b60006020828403121561393d5761393c612830565b5b600082015167ffffffffffffffff81111561395b5761395a612835565b5b613967848285016138f9565b91505092915050565b7f476f7665726e6f72416c7068613a3a73746174653a20696e76616c696420707260008201527f6f706f73616c2069640000000000000000000000000000000000000000000000602082015250565b60006139cc6029836129bb565b91506139d782613970565b604082019050919050565b600060208201905081810360008301526139fb816139bf565b9050919050565b600081519050613a1181612844565b92915050565b600060208284031215613a2d57613a2c612830565b5b6000613a3b84828501613a02565b91505092915050565b7f476f7665726e6f72416c7068613a3a63616e63656c3a2063616e6e6f7420636160008201527f6e63656c2065786563757465642070726f706f73616c00000000000000000000602082015250565b6000613aa06036836129bb565b9150613aab82613a44565b604082019050919050565b60006020820190508181036000830152613acf81613a93565b9050919050565b6000604082019050613aeb60008301856128de565b613af8602083018461289d565b9392505050565b613b0881613649565b8114613b1357600080fd5b50565b600081519050613b2581613aff565b92915050565b600060208284031215613b4157613b40612830565b5b6000613b4f84828501613b16565b91505092915050565b7f476f7665726e6f72416c7068613a3a63616e63656c3a2070726f706f7365722060008201527f61626f7665207468726573686f6c640000000000000000000000000000000000602082015250565b6000613bb4602f836129bb565b9150613bbf82613b58565b604082019050919050565b60006020820190508181036000830152613be381613ba7565b9050919050565b7f4e487b7100000000000000000000000000000000000000000000000000000000600052603260045260246000fd5b60008190508160005260206000209050919050565b60008154613c3b816136fc565b613c458186613821565b94506001821660008114613c605760018114613c7257613ca5565b60ff1983168652602086019350613ca5565b613c7b85613c19565b60005b83811015613c9d57815481890152600182019150602081019050613c7e565b808801955050505b50505092915050565b6000608082019050613cc360008301876128de565b613cd0602083018661289d565b8181036040830152613ce28185613c2e565b9050613cf1606083018461289d565b95945050505050565b7f4e487b7100000000000000000000000000000000000000000000000000000000600052601160045260246000fd5b6000613d348261283a565b91507fffffffffffffffffffffffffffffffffffffffffffffffffffffffffffffffff821415613d6757613d66613cfa565b5b600182019050919050565b600081905092915050565b60008190508160005260206000209050919050565b60008154613d9f816136fc565b613da98186613d72565b94506001821660008114613dc45760018114613dd557613e08565b60ff19831686528186019350613e08565b613dde85613d7d565b60005b83811015613e0057815481890152600182019150602081019050613de1565b838801955050505b50505092915050565b6000613e1d8284613d92565b915081905092915050565b6000608082019050613e3d6000830187612bb4565b613e4a6020830186612bb4565b613e57604083018561289d565b613e6460608301846128de565b95945050505050565b6000606082019050613e826000830186612bb4565b613e8f602083018561289d565b613e9c60408301846128f9565b949350505050565b600081905092915050565b7f1901000000000000000000000000000000000000000000000000000000000000600082015250565b6000613ee5600283613ea4565b9150613ef082613eaf565b600282019050919050565b6000819050919050565b613f16613f1182612baa565b613efb565b82525050565b6000613f2782613ed8565b9150613f338285613f05565b602082019150613f438284613f05565b6020820191508190509392505050565b613f5c81612faa565b82525050565b6000608082019050613f776000830187612bb4565b613f846020830186613f53565b613f916040830185612bb4565b613f9e6060830184612bb4565b95945050505050565b7f476f7665726e6f72416c7068613a3a63617374566f746542795369673a20696e60008201527f76616c6964207369676e61747572650000000000000000000000000000000000602082015250565b6000614003602f836129bb565b915061400e82613fa7565b604082019050919050565b6000602082019050818103600083015261403281613ff6565b9050919050565b7f476f7665726e6f72416c7068613a3a5f5f61626469636174653a2073656e646560008201527f72206d75737420626520676f7620677561726469616e00000000000000000000602082015250565b60006140956036836129bb565b91506140a082614039565b604082019050919050565b600060208201905081810360008301526140c481614088565b9050919050565b7f476f7665726e6f72416c7068613a3a70726f706f73653a2070726f706f73616c60008201527f2066756e6374696f6e20696e666f726d6174696f6e206172697479206d69736d60208201527f6174636800000000000000000000000000000000000000000000000000000000604082015250565b600061414d6044836129bb565b9150614158826140cb565b606082019050919050565b6000602082019050818103600083015261417c81614140565b9050919050565b7f476f7665726e6f72416c7068613a3a70726f706f73653a206d7573742070726f60008201527f7669646520616374696f6e730000000000000000000000000000000000000000602082015250565b60006141df602c836129bb565b91506141ea82614183565b604082019050919050565b6000602082019050818103600083015261420e816141d2565b9050919050565b7f476f7665726e6f72416c7068613a3a70726f706f73653a20746f6f206d616e7960008201527f20616374696f6e73000000000000000000000000000000000000000000000000602082015250565b60006142716028836129bb565b915061427c82614215565b604082019050919050565b600060208201905081810360008301526142a081614264565b9050919050565b7f476f7665726e6f72416c7068613a3a70726f706f73653a206f6e65206c69766560008201527f2070726f706f73616c207065722070726f706f7365722c20666f756e6420616e60208201527f20616c7265616479206163746976652070726f706f73616c0000000000000000604082015250565b60006143296058836129bb565b9150614334826142a7565b606082019050919050565b600060208201905081810360008301526143588161431c565b9050919050565b7f476f7665726e6f72416c7068613a3a70726f706f73653a206f6e65206c69766560008201527f2070726f706f73616c207065722070726f706f7365722c20666f756e6420616e60208201527f20616c72656164792070656e64696e672070726f706f73616c00000000000000604082015250565b60006143e16059836129bb565b91506143ec8261435f565b606082019050919050565b60006020820190508181036000830152614410816143d4565b9050919050565b60006101008201905061442d600083018b61289d565b61443a602083018a6128de565b818103604083015261444c8189612c7e565b905081810360608301526144608188612d3c565b905081810360808301526144748187612e3c565b905061448360a083018661289d565b61449060c083018561289d565b81810360e08301526144a28184612a10565b90509998505050505050505050565b7f476f7665726e6f72416c7068613a3a5f5f717565756553657454696d656c6f6360008201527f6b50656e64696e6741646d696e3a2073656e646572206d75737420626520676f60208201527f7620677561726469616e00000000000000000000000000000000000000000000604082015250565b6000614533604a836129bb565b915061453e826144b1565b606082019050919050565b6000602082019050818103600083015261456281614526565b9050919050565b60008151905061457881612fe3565b92915050565b60006020828403121561459457614593612830565b5b60006145a284828501614569565b91505092915050565b7f476f7665726e6f72416c7068613a3a5f5f61636365707441646d696e3a20736560008201527f6e646572206d75737420626520676f7620677561726469616e00000000000000602082015250565b60006146076039836129bb565b9150614612826145ab565b604082019050919050565b60006020820190508181036000830152614636816145fa565b9050919050565b7f476f7665726e6f72416c7068613a3a71756575653a2070726f706f73616c206360008201527f616e206f6e6c792062652071756575656420696620697420697320737563636560208201527f6564656400000000000000000000000000000000000000000000000000000000604082015250565b60006146bf6044836129bb565b91506146ca8261463d565b606082019050919050565b600060208201905081810360008301526146ee816146b2565b9050919050565b600060408201905061470a600083018561289d565b614717602083018461289d565b9392505050565b7f476f7665726e6f72416c7068613a3a657865637574653a2070726f706f73616c60008201527f2063616e206f6e6c79206265206578656375746564206966206974206973207160208201527f7565756564000000000000000000000000000000000000000000000000000000604082015250565b60006147a06045836129bb565b91506147ab8261471e565b606082019050919050565b600060208201905081810360008301526147cf81614793565b9050919050565b7f476f7665726e6f72416c7068613a3a5f63617374566f74653a20766f74696e6760008201527f20697320636c6f73656400000000000000000000000000000000000000000000602082015250565b6000614832602a836129bb565b915061483d826147d6565b604082019050919050565b6000602082019050818103600083015261486181614825565b9050919050565b7f476f7665726e6f72416c7068613a3a5f63617374566f74653a20766f7465722060008201527f616c726561647920766f74656400000000000000000000000000000000000000602082015250565b60006148c4602d836129bb565b91506148cf82614868565b604082019050919050565b600060208201905081810360008301526148f3816148b7565b9050919050565b600061491561491061490b84613649565b612a6b565b61283a565b9050919050565b614925816148fa565b82525050565b600060808201905061494060008301876128de565b61494d602083018661289d565b61495a60408301856128f9565b614967606083018461491c565b95945050505050565b600061497b8261283a565b91506149868361283a565b9250827fffffffffffffffffffffffffffffffffffffffffffffffffffffffffffffffff038211156149bb576149ba613cfa565b5b828201905092915050565b7f6164646974696f6e206f766572666c6f77000000000000000000000000000000600082015250565b60006149fc6011836129bb565b9150614a07826149c6565b602082019050919050565b60006020820190508181036000830152614a2b816149ef565b9050919050565b7f7375627472616374696f6e20756e646572666c6f770000000000000000000000600082015250565b6000614a686015836129bb565b9150614a7382614a32565b602082019050919050565b60006020820190508181036000830152614a9781614a5b565b9050919050565b6000614aa98261283a565b9150614ab48361283a565b925082821015614ac757614ac6613cfa565b5b828203905092915050565b6000608082019050614ae760008301876128de565b614af4602083018661289d565b8181036040830152614b068185613832565b9050614b15606083018461289d565b95945050505050565b600081519050614b2d81612ae5565b92915050565b600060208284031215614b4957614b48612830565b5b6000614b5784828501614b1e565b91505092915050565b7f476f7665726e6f72416c7068613a3a5f71756575654f725265766572743a207060008201527f726f706f73616c20616374696f6e20616c72656164792071756575656420617460208201527f2065746100000000000000000000000000000000000000000000000000000000604082015250565b6000614be26044836129bb565b9150614bed82614b60565b606082019050919050565b60006020820190508181036000830152614c1181614bd5565b905091905056fea264697066735822122066e62a8356c543e820c671fd5cae7297a38f8c81cc995f983f7f472413a70d6564736f6c634300080a0033",
  "linkReferences": {},
  "deployedLinkReferences": {}
}