{
  "_format": "hh-sol-artifact-1",
  "contractName": "Example",
  "sourceName": "contracts/Example.sol",
  "abi": [
    {
      "constant": false,
      "inputs": [
        {
          "internalType": "string",
          "name": "_message",
          "type": "string"
        }
      ],
      "name": "changeMsg",
      "outputs": [],
      "payable": false,
      "stateMutability": "nonpayable",
      "type": "function"
    },
    {
      "constant": true,
      "inputs": [],
      "name": "message",
      "outputs": [
        {
          "internalType": "string",
          "name": "",
          "type": "string"
        }
      ],
      "payable": false,
      "stateMutability": "view",
      "type": "function"
    }
  ],
  "bytecode": "0x608060405234801561001057600080fd5b506102c5806100206000396000f3fe608060405234801561001057600080fd5b50600436106100365760003560e01c80634549c3c31461003b578063e21f37ce146100b4575b600080fd5b6100b26004803603602081101561005157600080fd5b810190808035906020019064010000000081111561006e57600080fd5b82018360208201111561008057600080fd5b803590602001918460018302840111640100000000831117156100a257600080fd5b9091929391929390505050610137565b005b6100bc61014d565b6040518080602001828103825283818151815260200191508051906020019080838360005b838110156100fc5780820151818401526020810190506100e1565b50505050905090810190601f1680156101295780820380516001836020036101000a031916815260200191505b509250505060405180910390f35b8181600091906101489291906101eb565b505050565b60008054600181600116156101000203166002900480601f0160208091040260200160405190810160405280929190818152602001828054600181600116156101000203166002900480156101e35780601f106101b8576101008083540402835291602001916101e3565b820191906000526020600020905b8154815290600101906020018083116101c657829003601f168201915b505050505081565b828054600181600116156101000203166002900490600052602060002090601f016020900481019282601f1061022c57803560ff191683800117855561025a565b8280016001018555821561025a579182015b8281111561025957823582559160200191906001019061023e565b5b509050610267919061026b565b5090565b61028d91905b80821115610289576000816000905550600101610271565b5090565b9056fea265627a7a7231582011338ebb3c1d63d2ccf0feb7230293d3b7552097ddf4ec37683f2ddef76d746464736f6c63430005100032",
  "linkReferences": {},
  "deployedLinkReferences": {}
}