{
  "_format": "hh-sol-artifact-1",
  "contractName": "Token",
  "sourceName": "contracts/Token.sol",
  "abi": [
    {
      "inputs": [
        {
          "internalType": "address",
          "name": "account",
          "type": "address"
        },
        {
          "internalType": "string",
          "name": "_name",
          "type": "string"
        },
        {
          "internalType": "string",
          "name": "_symbol",
          "type": "string"
        },
        {
          "internalType": "uint256",
          "name": "_totalSupply",
          "type": "uint256"
        },
        {
          "internalType": "bool",
          "name": "_qv",
          "type": "bool"
        }
      ],
      "stateMutability": "nonpayable",
      "type": "constructor"
    },
    {
      "anonymous": false,
      "inputs": [
        {
          "indexed": true,
          "internalType": "address",
          "name": "owner",
          "type": "address"
        },
        {
          "indexed": true,
          "internalType": "address",
          "name": "spender",
          "type": "address"
        },
        {
          "indexed": false,
          "internalType": "uint256",
          "name": "amount",
          "type": "uint256"
        }
      ],
      "name": "Approval",
      "type": "event"
    },
    {
      "anonymous": false,
      "inputs": [
        {
          "indexed": true,
          "internalType": "address",
          "name": "delegator",
          "type": "address"
        },
        {
          "indexed": true,
          "internalType": "address",
          "name": "fromDelegate",
          "type": "address"
        },
        {
          "indexed": true,
          "internalType": "address",
          "name": "toDelegate",
          "type": "address"
        }
      ],
      "name": "DelegateChanged",
      "type": "event"
    },
    {
      "anonymous": false,
      "inputs": [
        {
          "indexed": true,
          "internalType": "address",
          "name": "delegate",
          "type": "address"
        },
        {
          "indexed": false,
          "internalType": "uint256",
          "name": "previousBalance",
          "type": "uint256"
        },
        {
          "indexed": false,
          "internalType": "uint256",
          "name": "newBalance",
          "type": "uint256"
        }
      ],
      "name": "DelegateVotesChanged",
      "type": "event"
    },
    {
      "anonymous": false,
      "inputs": [
        {
          "indexed": true,
          "internalType": "address",
          "name": "from",
          "type": "address"
        },
        {
          "indexed": true,
          "internalType": "address",
          "name": "to",
          "type": "address"
        },
        {
          "indexed": false,
          "internalType": "uint256",
          "name": "amount",
          "type": "uint256"
        },
        {
          "indexed": false,
          "internalType": "bool",
          "name": "qv",
          "type": "bool"
        }
      ],
      "name": "Transfer",
      "type": "event"
    },
    {
      "inputs": [],
      "name": "DELEGATION_TYPEHASH",
      "outputs": [
        {
          "internalType": "bytes32",
          "name": "",
          "type": "bytes32"
        }
      ],
      "stateMutability": "view",
      "type": "function"
    },
    {
      "inputs": [],
      "name": "DOMAIN_TYPEHASH",
      "outputs": [
        {
          "internalType": "bytes32",
          "name": "",
          "type": "bytes32"
        }
      ],
      "stateMutability": "view",
      "type": "function"
    },
    {
      "inputs": [
        {
          "internalType": "address",
          "name": "account",
          "type": "address"
        },
        {
          "internalType": "address",
          "name": "spender",
          "type": "address"
        }
      ],
      "name": "allowance",
      "outputs": [
        {
          "internalType": "uint256",
          "name": "",
          "type": "uint256"
        }
      ],
      "stateMutability": "view",
      "type": "function"
    },
    {
      "inputs": [
        {
          "internalType": "address",
          "name": "spender",
          "type": "address"
        },
        {
          "internalType": "uint256",
          "name": "rawAmount",
          "type": "uint256"
        }
      ],
      "name": "approve",
      "outputs": [
        {
          "internalType": "bool",
          "name": "",
          "type": "bool"
        }
      ],
      "stateMutability": "nonpayable",
      "type": "function"
    },
    {
      "inputs": [
        {
          "internalType": "address",
          "name": "account",
          "type": "address"
        }
      ],
      "name": "balanceOf",
      "outputs": [
        {
          "internalType": "uint256",
          "name": "",
          "type": "uint256"
        }
      ],
      "stateMutability": "view",
      "type": "function"
    },
    {
      "inputs": [
        {
          "internalType": "address",
          "name": "",
          "type": "address"
        },
        {
          "internalType": "uint32",
          "name": "",
          "type": "uint32"
        }
      ],
      "name": "checkpoints",
      "outputs": [
        {
          "internalType": "uint32",
          "name": "fromBlock",
          "type": "uint32"
        },
        {
          "internalType": "uint96",
          "name": "votes",
          "type": "uint96"
        }
      ],
      "stateMutability": "view",
      "type": "function"
    },
    {
      "inputs": [],
      "name": "decimals",
      "outputs": [
        {
          "internalType": "uint8",
          "name": "",
          "type": "uint8"
        }
      ],
      "stateMutability": "view",
      "type": "function"
    },
    {
      "inputs": [
        {
          "internalType": "address",
          "name": "delegatee",
          "type": "address"
        }
      ],
      "name": "delegate",
      "outputs": [],
      "stateMutability": "nonpayable",
      "type": "function"
    },
    {
      "inputs": [
        {
          "internalType": "address",
          "name": "delegatee",
          "type": "address"
        },
        {
          "internalType": "uint256",
          "name": "nonce",
          "type": "uint256"
        },
        {
          "internalType": "uint256",
          "name": "expiry",
          "type": "uint256"
        },
        {
          "internalType": "uint8",
          "name": "v",
          "type": "uint8"
        },
        {
          "internalType": "bytes32",
          "name": "r",
          "type": "bytes32"
        },
        {
          "internalType": "bytes32",
          "name": "s",
          "type": "bytes32"
        }
      ],
      "name": "delegateBySig",
      "outputs": [],
      "stateMutability": "nonpayable",
      "type": "function"
    },
    {
      "inputs": [
        {
          "internalType": "address",
          "name": "",
          "type": "address"
        }
      ],
      "name": "delegates",
      "outputs": [
        {
          "internalType": "address",
          "name": "",
          "type": "address"
        }
      ],
      "stateMutability": "view",
      "type": "function"
    },
    {
      "inputs": [
        {
          "internalType": "address",
          "name": "account",
          "type": "address"
        }
      ],
      "name": "getCurrentVotes",
      "outputs": [
        {
          "internalType": "uint96",
          "name": "",
          "type": "uint96"
        }
      ],
      "stateMutability": "view",
      "type": "function"
    },
    {
      "inputs": [
        {
          "internalType": "address",
          "name": "account",
          "type": "address"
        },
        {
          "internalType": "uint256",
          "name": "blockNumber",
          "type": "uint256"
        }
      ],
      "name": "getPriorVotes",
      "outputs": [
        {
          "internalType": "uint96",
          "name": "",
          "type": "uint96"
        }
      ],
      "stateMutability": "view",
      "type": "function"
    },
    {
      "inputs": [],
      "name": "name",
      "outputs": [
        {
          "internalType": "string",
          "name": "",
          "type": "string"
        }
      ],
      "stateMutability": "view",
      "type": "function"
    },
    {
      "inputs": [
        {
          "internalType": "address",
          "name": "",
          "type": "address"
        }
      ],
      "name": "nonces",
      "outputs": [
        {
          "internalType": "uint256",
          "name": "",
          "type": "uint256"
        }
      ],
      "stateMutability": "view",
      "type": "function"
    },
    {
      "inputs": [
        {
          "internalType": "address",
          "name": "",
          "type": "address"
        }
      ],
      "name": "numCheckpoints",
      "outputs": [
        {
          "internalType": "uint32",
          "name": "",
          "type": "uint32"
        }
      ],
      "stateMutability": "view",
      "type": "function"
    },
    {
      "inputs": [],
      "name": "qv",
      "outputs": [
        {
          "internalType": "bool",
          "name": "",
          "type": "bool"
        }
      ],
      "stateMutability": "view",
      "type": "function"
    },
    {
      "inputs": [],
      "name": "symbol",
      "outputs": [
        {
          "internalType": "string",
          "name": "",
          "type": "string"
        }
      ],
      "stateMutability": "view",
      "type": "function"
    },
    {
      "inputs": [],
      "name": "totalSupply",
      "outputs": [
        {
          "internalType": "uint256",
          "name": "",
          "type": "uint256"
        }
      ],
      "stateMutability": "view",
      "type": "function"
    },
    {
      "inputs": [
        {
          "internalType": "address",
          "name": "dst",
          "type": "address"
        },
        {
          "internalType": "uint256",
          "name": "rawAmount",
          "type": "uint256"
        }
      ],
      "name": "transfer",
      "outputs": [
        {
          "internalType": "bool",
          "name": "",
          "type": "bool"
        }
      ],
      "stateMutability": "nonpayable",
      "type": "function"
    },
    {
      "inputs": [
        {
          "internalType": "address",
          "name": "src",
          "type": "address"
        },
        {
          "internalType": "address",
          "name": "dst",
          "type": "address"
        },
        {
          "internalType": "uint256",
          "name": "rawAmount",
          "type": "uint256"
        }
      ],
      "name": "transferFrom",
      "outputs": [
        {
          "internalType": "bool",
          "name": "",
          "type": "bool"
        }
      ],
      "stateMutability": "nonpayable",
      "type": "function"
    }
  ],
  "bytecode": "0x60806040526040518060400160405280600681526020017f436f6e6665640000000000000000000000000000000000000000000000000000815250600090805190602001906200005192919062000227565b506040518060400160405280600381526020017f4346440000000000000000000000000000000000000000000000000000000000815250600190805190602001906200009f92919062000227565b50348015620000ad57600080fd5b5060405162003844380380620038448339818101604052810190620000d3919062000551565b6a084595161401484a000000600460008773ffffffffffffffffffffffffffffffffffffffff1673ffffffffffffffffffffffffffffffffffffffff16815260200190815260200160002060006101000a8154816bffffffffffffffffffffffff02191690836bffffffffffffffffffffffff16021790555083600090805190602001906200016492919062000227565b5082600190805190602001906200017d92919062000227565b5080600260006101000a81548160ff0219169083151502179055508473ffffffffffffffffffffffffffffffffffffffff16600073ffffffffffffffffffffffffffffffffffffffff167ff431703d7399230d223d254d7e8479fcd3149952c18616d3c9eb716c6ef5d6726a084595161401484a000000600260009054906101000a900460ff166040516200021492919062000639565b60405180910390a35050505050620006cb565b828054620002359062000695565b90600052602060002090601f016020900481019282620002595760008555620002a5565b82601f106200027457805160ff1916838001178555620002a5565b82800160010185558215620002a5579182015b82811115620002a457825182559160200191906001019062000287565b5b509050620002b49190620002b8565b5090565b5b80821115620002d3576000816000905550600101620002b9565b5090565b6000604051905090565b600080fd5b600080fd5b600073ffffffffffffffffffffffffffffffffffffffff82169050919050565b60006200031882620002eb565b9050919050565b6200032a816200030b565b81146200033657600080fd5b50565b6000815190506200034a816200031f565b92915050565b600080fd5b600080fd5b6000601f19601f8301169050919050565b7f4e487b7100000000000000000000000000000000000000000000000000000000600052604160045260246000fd5b620003a5826200035a565b810181811067ffffffffffffffff82111715620003c757620003c66200036b565b5b80604052505050565b6000620003dc620002d7565b9050620003ea82826200039a565b919050565b600067ffffffffffffffff8211156200040d576200040c6200036b565b5b62000418826200035a565b9050602081019050919050565b60005b838110156200044557808201518184015260208101905062000428565b8381111562000455576000848401525b50505050565b6000620004726200046c84620003ef565b620003d0565b90508281526020810184848401111562000491576200049062000355565b5b6200049e84828562000425565b509392505050565b600082601f830112620004be57620004bd62000350565b5b8151620004d08482602086016200045b565b91505092915050565b6000819050919050565b620004ee81620004d9565b8114620004fa57600080fd5b50565b6000815190506200050e81620004e3565b92915050565b60008115159050919050565b6200052b8162000514565b81146200053757600080fd5b50565b6000815190506200054b8162000520565b92915050565b600080600080600060a0868803121562000570576200056f620002e1565b5b6000620005808882890162000339565b955050602086015167ffffffffffffffff811115620005a457620005a3620002e6565b5b620005b288828901620004a6565b945050604086015167ffffffffffffffff811115620005d657620005d5620002e6565b5b620005e488828901620004a6565b9350506060620005f788828901620004fd565b92505060806200060a888289016200053a565b9150509295509295909350565b6200062281620004d9565b82525050565b620006338162000514565b82525050565b600060408201905062000650600083018562000617565b6200065f602083018462000628565b9392505050565b7f4e487b7100000000000000000000000000000000000000000000000000000000600052602260045260246000fd5b60006002820490506001821680620006ae57607f821691505b60208210811415620006c557620006c462000666565b5b50919050565b61316980620006db6000396000f3fe608060405234801561001057600080fd5b506004361061012c5760003560e01c8063782d6fe1116100ad578063b4b5ea5711610071578063b4b5ea5714610381578063c3cda520146103b1578063dd62ed3e146103cd578063e7a324dc146103fd578063f1127ed81461041b5761012c565b8063782d6fe1146102b55780637ecebe00146102e55780639352f7be1461031557806395d89b4114610333578063a9059cbb146103515761012c565b8063313ce567116100f4578063313ce567146101eb578063587cde1e146102095780635c19a95c146102395780636fcfff451461025557806370a08231146102855761012c565b806306fdde0314610131578063095ea7b31461014f57806318160ddd1461017f57806320606b701461019d57806323b872dd146101bb575b600080fd5b61013961044c565b6040516101469190612286565b60405180910390f35b61016960048036038101906101649190612341565b6104da565b604051610176919061239c565b60405180910390f35b610187610644565b60405161019491906123c6565b60405180910390f35b6101a5610653565b6040516101b291906123fa565b60405180910390f35b6101d560048036038101906101d09190612415565b610677565b6040516101e2919061239c565b60405180910390f35b6101f36108e9565b6040516102009190612484565b60405180910390f35b610223600480360381019061021e919061249f565b6108ee565b60405161023091906124db565b60405180910390f35b610253600480360381019061024e919061249f565b610921565b005b61026f600480360381019061026a919061249f565b61092e565b60405161027c9190612515565b60405180910390f35b61029f600480360381019061029a919061249f565b610951565b6040516102ac91906123c6565b60405180910390f35b6102cf60048036038101906102ca9190612341565b6109c0565b6040516102dc9190612557565b60405180910390f35b6102ff60048036038101906102fa919061249f565b610a77565b60405161030c91906123c6565b60405180910390f35b61031d610a8f565b60405161032a919061239c565b60405180910390f35b61033b610aa2565b6040516103489190612286565b60405180910390f35b61036b60048036038101906103669190612341565b610b30565b604051610378919061239c565b60405180910390f35b61039b6004803603810190610396919061249f565b610b6d565b6040516103a89190612557565b60405180910390f35b6103cb60048036038101906103c691906125ca565b610c64565b005b6103e760048036038101906103e29190612657565b610f01565b6040516103f491906123c6565b60405180910390f35b610405610fae565b60405161041291906123fa565b60405180910390f35b610435600480360381019061043091906126c3565b610fd2565b604051610443929190612703565b60405180910390f35b600080546104599061275b565b80601f01602080910402602001604051908101604052809291908181526020018280546104859061275b565b80156104d25780601f106104a7576101008083540402835291602001916104d2565b820191906000526020600020905b8154815290600101906020018083116104b557829003601f168201915b505050505081565b6000806bffffffffffffffffffffffff8310610504576bffffffffffffffffffffffff9050610529565b61052683604051806060016040528060258152602001612ff96025913961102b565b90505b80600360003373ffffffffffffffffffffffffffffffffffffffff1673ffffffffffffffffffffffffffffffffffffffff16815260200190815260200160002060008673ffffffffffffffffffffffffffffffffffffffff1673ffffffffffffffffffffffffffffffffffffffff16815260200190815260200160002060006101000a8154816bffffffffffffffffffffffff02191690836bffffffffffffffffffffffff1602179055508373ffffffffffffffffffffffffffffffffffffffff163373ffffffffffffffffffffffffffffffffffffffff167f8c5be1e5ebec7d5bd14f71427d1e84f3dd0314c0f7b2291e5b200ac8c7c3b9258360405161063191906127c8565b60405180910390a3600191505092915050565b6a084595161401484a00000081565b7f8cad95687ba82c2ce50e74f7b754645e5117c3a5bec8151c0726d5857980a86681565b6000803390506000600360008773ffffffffffffffffffffffffffffffffffffffff1673ffffffffffffffffffffffffffffffffffffffff16815260200190815260200160002060008373ffffffffffffffffffffffffffffffffffffffff1673ffffffffffffffffffffffffffffffffffffffff16815260200190815260200160002060009054906101000a90046bffffffffffffffffffffffff169050600061073a85604051806060016040528060258152602001612ff96025913961102b565b90508673ffffffffffffffffffffffffffffffffffffffff168373ffffffffffffffffffffffffffffffffffffffff161415801561079257506bffffffffffffffffffffffff826bffffffffffffffffffffffff1614155b156108d05760006107bc83836040518060600160405280603d81526020016130d0603d9139611089565b905080600360008a73ffffffffffffffffffffffffffffffffffffffff1673ffffffffffffffffffffffffffffffffffffffff16815260200190815260200160002060008673ffffffffffffffffffffffffffffffffffffffff1673ffffffffffffffffffffffffffffffffffffffff16815260200190815260200160002060006101000a8154816bffffffffffffffffffffffff02191690836bffffffffffffffffffffffff1602179055508373ffffffffffffffffffffffffffffffffffffffff168873ffffffffffffffffffffffffffffffffffffffff167f8c5be1e5ebec7d5bd14f71427d1e84f3dd0314c0f7b2291e5b200ac8c7c3b925836040516108c691906127c8565b60405180910390a3505b6108db878783611103565b600193505050509392505050565b601281565b60056020528060005260406000206000915054906101000a900473ffffffffffffffffffffffffffffffffffffffff1681565b61092b33826114f5565b50565b60076020528060005260406000206000915054906101000a900463ffffffff1681565b6000600460008373ffffffffffffffffffffffffffffffffffffffff1673ffffffffffffffffffffffffffffffffffffffff16815260200190815260200160002060009054906101000a90046bffffffffffffffffffffffff166bffffffffffffffffffffffff169050919050565b6000600260009054906101000a900460ff1615610a645760006109e384846116b5565b9050600060026001836109f69190612812565b610a009190612883565b905060008290505b806bffffffffffffffffffffffff16826bffffffffffffffffffffffff161015610a59578190506002828385610a3e9190612883565b610a489190612812565b610a529190612883565b9150610a08565b809350505050610a71565b610a6e83836116b5565b90505b92915050565b60086020528060005260406000206000915090505481565b600260009054906101000a900460ff1681565b60018054610aaf9061275b565b80601f0160208091040260200160405190810160405280929190818152602001828054610adb9061275b565b8015610b285780601f10610afd57610100808354040283529160200191610b28565b820191906000526020600020905b815481529060010190602001808311610b0b57829003601f168201915b505050505081565b600080610b558360405180606001604052806026815260200161301e6026913961102b565b9050610b62338583611103565b600191505092915050565b600080600760008473ffffffffffffffffffffffffffffffffffffffff1673ffffffffffffffffffffffffffffffffffffffff16815260200190815260200160002060009054906101000a900463ffffffff16905060008163ffffffff1611610bd7576000610c5c565b600660008473ffffffffffffffffffffffffffffffffffffffff1673ffffffffffffffffffffffffffffffffffffffff1681526020019081526020016000206000600183610c2591906128b4565b63ffffffff1663ffffffff16815260200190815260200160002060000160049054906101000a90046bffffffffffffffffffffffff165b915050919050565b60007f8cad95687ba82c2ce50e74f7b754645e5117c3a5bec8151c0726d5857980a8666000604051610c969190612987565b6040518091039020610ca6611af0565b30604051602001610cba949392919061299e565b60405160208183030381529060405280519060200120905060007fe48329057bfd03d55e49b547132e39cffd9c1820ad7b9d4c5307691425d15adf888888604051602001610d0b94939291906129e3565b60405160208183030381529060405280519060200120905060008282604051602001610d38929190612aa0565b604051602081830303815290604052805190602001209050600060018288888860405160008152602001604052604051610d759493929190612ad7565b6020604051602081039080840390855afa158015610d97573d6000803e3d6000fd5b505050602060405103519050600073ffffffffffffffffffffffffffffffffffffffff168173ffffffffffffffffffffffffffffffffffffffff161415610e13576040517f08c379a0000000000000000000000000000000000000000000000000000000008152600401610e0a90612b8e565b60405180910390fd5b600860008273ffffffffffffffffffffffffffffffffffffffff1673ffffffffffffffffffffffffffffffffffffffff1681526020019081526020016000206000815480929190610e6390612bae565b919050558914610ea8576040517f08c379a0000000000000000000000000000000000000000000000000000000008152600401610e9f90612c69565b60405180910390fd5b87421115610eeb576040517f08c379a0000000000000000000000000000000000000000000000000000000008152600401610ee290612cfb565b60405180910390fd5b610ef5818b6114f5565b50505050505050505050565b6000600360008473ffffffffffffffffffffffffffffffffffffffff1673ffffffffffffffffffffffffffffffffffffffff16815260200190815260200160002060008373ffffffffffffffffffffffffffffffffffffffff1673ffffffffffffffffffffffffffffffffffffffff16815260200190815260200160002060009054906101000a90046bffffffffffffffffffffffff166bffffffffffffffffffffffff16905092915050565b7fe48329057bfd03d55e49b547132e39cffd9c1820ad7b9d4c5307691425d15adf81565b6006602052816000526040600020602052806000526040600020600091509150508060000160009054906101000a900463ffffffff16908060000160049054906101000a90046bffffffffffffffffffffffff16905082565b60006c010000000000000000000000008310829061107f576040517f08c379a00000000000000000000000000000000000000000000000000000000081526004016110769190612286565b60405180910390fd5b5082905092915050565b6000836bffffffffffffffffffffffff16836bffffffffffffffffffffffff16111582906110ed576040517f08c379a00000000000000000000000000000000000000000000000000000000081526004016110e49190612286565b60405180910390fd5b5082846110fa9190612d1b565b90509392505050565b600073ffffffffffffffffffffffffffffffffffffffff168373ffffffffffffffffffffffffffffffffffffffff161415611173576040517f08c379a000000000000000000000000000000000000000000000000000000000815260040161116a90612dc1565b60405180910390fd5b600073ffffffffffffffffffffffffffffffffffffffff168273ffffffffffffffffffffffffffffffffffffffff1614156111e3576040517f08c379a00000000000000000000000000000000000000000000000000000000081526004016111da90612e53565b60405180910390fd5b61125d600460008573ffffffffffffffffffffffffffffffffffffffff1673ffffffffffffffffffffffffffffffffffffffff16815260200190815260200160002060009054906101000a90046bffffffffffffffffffffffff1682604051806060016040528060368152602001612fc360369139611089565b600460008573ffffffffffffffffffffffffffffffffffffffff1673ffffffffffffffffffffffffffffffffffffffff16815260200190815260200160002060006101000a8154816bffffffffffffffffffffffff02191690836bffffffffffffffffffffffff160217905550611344600460008473ffffffffffffffffffffffffffffffffffffffff1673ffffffffffffffffffffffffffffffffffffffff16815260200190815260200160002060009054906101000a90046bffffffffffffffffffffffff16826040518060600160405280603081526020016130a060309139611afd565b600460008473ffffffffffffffffffffffffffffffffffffffff1673ffffffffffffffffffffffffffffffffffffffff16815260200190815260200160002060006101000a8154816bffffffffffffffffffffffff02191690836bffffffffffffffffffffffff1602179055508173ffffffffffffffffffffffffffffffffffffffff168373ffffffffffffffffffffffffffffffffffffffff167ff431703d7399230d223d254d7e8479fcd3149952c18616d3c9eb716c6ef5d67283600260009054906101000a900460ff1660405161141f929190612e73565b60405180910390a36114f0600560008573ffffffffffffffffffffffffffffffffffffffff1673ffffffffffffffffffffffffffffffffffffffff16815260200190815260200160002060009054906101000a900473ffffffffffffffffffffffffffffffffffffffff16600560008573ffffffffffffffffffffffffffffffffffffffff1673ffffffffffffffffffffffffffffffffffffffff16815260200190815260200160002060009054906101000a900473ffffffffffffffffffffffffffffffffffffffff1683611b7c565b505050565b6000600560008473ffffffffffffffffffffffffffffffffffffffff1673ffffffffffffffffffffffffffffffffffffffff16815260200190815260200160002060009054906101000a900473ffffffffffffffffffffffffffffffffffffffff1690506000600460008573ffffffffffffffffffffffffffffffffffffffff1673ffffffffffffffffffffffffffffffffffffffff16815260200190815260200160002060009054906101000a90046bffffffffffffffffffffffff16905082600560008673ffffffffffffffffffffffffffffffffffffffff1673ffffffffffffffffffffffffffffffffffffffff16815260200190815260200160002060006101000a81548173ffffffffffffffffffffffffffffffffffffffff021916908373ffffffffffffffffffffffffffffffffffffffff1602179055508273ffffffffffffffffffffffffffffffffffffffff168273ffffffffffffffffffffffffffffffffffffffff168573ffffffffffffffffffffffffffffffffffffffff167f3134e8a2e6d97e929a7e54011ea5485d7d196dd5f0ba4d4ef95803e8e3fc257f60405160405180910390a46116af828483611b7c565b50505050565b60004382106116f9576040517f08c379a00000000000000000000000000000000000000000000000000000000081526004016116f090612f0e565b60405180910390fd5b6000600760008573ffffffffffffffffffffffffffffffffffffffff1673ffffffffffffffffffffffffffffffffffffffff16815260200190815260200160002060009054906101000a900463ffffffff16905060008163ffffffff161415611766576000915050611aea565b82600660008673ffffffffffffffffffffffffffffffffffffffff1673ffffffffffffffffffffffffffffffffffffffff16815260200190815260200160002060006001846117b591906128b4565b63ffffffff1663ffffffff16815260200190815260200160002060000160009054906101000a900463ffffffff1663ffffffff161161187a57600660008573ffffffffffffffffffffffffffffffffffffffff1673ffffffffffffffffffffffffffffffffffffffff168152602001908152602001600020600060018361183c91906128b4565b63ffffffff1663ffffffff16815260200190815260200160002060000160049054906101000a90046bffffffffffffffffffffffff16915050611aea565b82600660008673ffffffffffffffffffffffffffffffffffffffff1673ffffffffffffffffffffffffffffffffffffffff16815260200190815260200160002060008063ffffffff16815260200190815260200160002060000160009054906101000a900463ffffffff1663ffffffff1611156118fb576000915050611aea565b60008060018361190b91906128b4565b90505b8163ffffffff168163ffffffff161115611a6c5760006002838361193291906128b4565b61193c9190612f2e565b8261194791906128b4565b90506000600660008973ffffffffffffffffffffffffffffffffffffffff1673ffffffffffffffffffffffffffffffffffffffff16815260200190815260200160002060008363ffffffff1663ffffffff1681526020019081526020016000206040518060400160405290816000820160009054906101000a900463ffffffff1663ffffffff1663ffffffff1681526020016000820160049054906101000a90046bffffffffffffffffffffffff166bffffffffffffffffffffffff166bffffffffffffffffffffffff1681525050905086816000015163ffffffff161415611a3b57806020015195505050505050611aea565b86816000015163ffffffff161015611a5557819350611a65565b600182611a6291906128b4565b92505b505061190e565b600660008773ffffffffffffffffffffffffffffffffffffffff1673ffffffffffffffffffffffffffffffffffffffff16815260200190815260200160002060008363ffffffff1663ffffffff16815260200190815260200160002060000160049054906101000a90046bffffffffffffffffffffffff1693505050505b92915050565b6000804690508091505090565b6000808385611b0c9190612812565b9050846bffffffffffffffffffffffff16816bffffffffffffffffffffffff1610158390611b70576040517f08c379a0000000000000000000000000000000000000000000000000000000008152600401611b679190612286565b60405180910390fd5b50809150509392505050565b8173ffffffffffffffffffffffffffffffffffffffff168373ffffffffffffffffffffffffffffffffffffffff1614158015611bc657506000816bffffffffffffffffffffffff16115b15611e8457600073ffffffffffffffffffffffffffffffffffffffff168373ffffffffffffffffffffffffffffffffffffffff1614611d27576000600760008573ffffffffffffffffffffffffffffffffffffffff1673ffffffffffffffffffffffffffffffffffffffff16815260200190815260200160002060009054906101000a900463ffffffff1690506000808263ffffffff1611611c69576000611cee565b600660008673ffffffffffffffffffffffffffffffffffffffff1673ffffffffffffffffffffffffffffffffffffffff1681526020019081526020016000206000600184611cb791906128b4565b63ffffffff1663ffffffff16815260200190815260200160002060000160049054906101000a90046bffffffffffffffffffffffff165b90506000611d15828560405180606001604052806028815260200161307860289139611089565b9050611d2386848484611e89565b5050505b600073ffffffffffffffffffffffffffffffffffffffff168273ffffffffffffffffffffffffffffffffffffffff1614611e83576000600760008473ffffffffffffffffffffffffffffffffffffffff1673ffffffffffffffffffffffffffffffffffffffff16815260200190815260200160002060009054906101000a900463ffffffff1690506000808263ffffffff1611611dc5576000611e4a565b600660008573ffffffffffffffffffffffffffffffffffffffff1673ffffffffffffffffffffffffffffffffffffffff1681526020019081526020016000206000600184611e1391906128b4565b63ffffffff1663ffffffff16815260200190815260200160002060000160049054906101000a90046bffffffffffffffffffffffff165b90506000611e71828560405180606001604052806027815260200161310d60279139611afd565b9050611e7f85848484611e89565b5050505b5b505050565b6000611ead4360405180606001604052806034815260200161304460349139612197565b905060008463ffffffff16118015611f4b57508063ffffffff16600660008773ffffffffffffffffffffffffffffffffffffffff1673ffffffffffffffffffffffffffffffffffffffff1681526020019081526020016000206000600187611f1591906128b4565b63ffffffff1663ffffffff16815260200190815260200160002060000160009054906101000a900463ffffffff1663ffffffff16145b15611fef5781600660008773ffffffffffffffffffffffffffffffffffffffff1673ffffffffffffffffffffffffffffffffffffffff1681526020019081526020016000206000600187611f9f91906128b4565b63ffffffff1663ffffffff16815260200190815260200160002060000160046101000a8154816bffffffffffffffffffffffff02191690836bffffffffffffffffffffffff160217905550612140565b60405180604001604052808263ffffffff168152602001836bffffffffffffffffffffffff16815250600660008773ffffffffffffffffffffffffffffffffffffffff1673ffffffffffffffffffffffffffffffffffffffff16815260200190815260200160002060008663ffffffff1663ffffffff16815260200190815260200160002060008201518160000160006101000a81548163ffffffff021916908363ffffffff16021790555060208201518160000160046101000a8154816bffffffffffffffffffffffff02191690836bffffffffffffffffffffffff1602179055509050506001846120e29190612f5f565b600760008773ffffffffffffffffffffffffffffffffffffffff1673ffffffffffffffffffffffffffffffffffffffff16815260200190815260200160002060006101000a81548163ffffffff021916908363ffffffff1602179055505b8473ffffffffffffffffffffffffffffffffffffffff167fdec2bacdd2f05b59de34da9b523dff8be42e5e38e818c82fdb0bae774387a7248484604051612188929190612f99565b60405180910390a25050505050565b6000640100000000831082906121e3576040517f08c379a00000000000000000000000000000000000000000000000000000000081526004016121da9190612286565b60405180910390fd5b5082905092915050565b600081519050919050565b600082825260208201905092915050565b60005b8381101561222757808201518184015260208101905061220c565b83811115612236576000848401525b50505050565b6000601f19601f8301169050919050565b6000612258826121ed565b61226281856121f8565b9350612272818560208601612209565b61227b8161223c565b840191505092915050565b600060208201905081810360008301526122a0818461224d565b905092915050565b600080fd5b600073ffffffffffffffffffffffffffffffffffffffff82169050919050565b60006122d8826122ad565b9050919050565b6122e8816122cd565b81146122f357600080fd5b50565b600081359050612305816122df565b92915050565b6000819050919050565b61231e8161230b565b811461232957600080fd5b50565b60008135905061233b81612315565b92915050565b60008060408385031215612358576123576122a8565b5b6000612366858286016122f6565b92505060206123778582860161232c565b9150509250929050565b60008115159050919050565b61239681612381565b82525050565b60006020820190506123b1600083018461238d565b92915050565b6123c08161230b565b82525050565b60006020820190506123db60008301846123b7565b92915050565b6000819050919050565b6123f4816123e1565b82525050565b600060208201905061240f60008301846123eb565b92915050565b60008060006060848603121561242e5761242d6122a8565b5b600061243c868287016122f6565b935050602061244d868287016122f6565b925050604061245e8682870161232c565b9150509250925092565b600060ff82169050919050565b61247e81612468565b82525050565b60006020820190506124996000830184612475565b92915050565b6000602082840312156124b5576124b46122a8565b5b60006124c3848285016122f6565b91505092915050565b6124d5816122cd565b82525050565b60006020820190506124f060008301846124cc565b92915050565b600063ffffffff82169050919050565b61250f816124f6565b82525050565b600060208201905061252a6000830184612506565b92915050565b60006bffffffffffffffffffffffff82169050919050565b61255181612530565b82525050565b600060208201905061256c6000830184612548565b92915050565b61257b81612468565b811461258657600080fd5b50565b60008135905061259881612572565b92915050565b6125a7816123e1565b81146125b257600080fd5b50565b6000813590506125c48161259e565b92915050565b60008060008060008060c087890312156125e7576125e66122a8565b5b60006125f589828a016122f6565b965050602061260689828a0161232c565b955050604061261789828a0161232c565b945050606061262889828a01612589565b935050608061263989828a016125b5565b92505060a061264a89828a016125b5565b9150509295509295509295565b6000806040838503121561266e5761266d6122a8565b5b600061267c858286016122f6565b925050602061268d858286016122f6565b9150509250929050565b6126a0816124f6565b81146126ab57600080fd5b50565b6000813590506126bd81612697565b92915050565b600080604083850312156126da576126d96122a8565b5b60006126e8858286016122f6565b92505060206126f9858286016126ae565b9150509250929050565b60006040820190506127186000830185612506565b6127256020830184612548565b9392505050565b7f4e487b7100000000000000000000000000000000000000000000000000000000600052602260045260246000fd5b6000600282049050600182168061277357607f821691505b602082108114156127875761278661272c565b5b50919050565b6000819050919050565b60006127b26127ad6127a884612530565b61278d565b61230b565b9050919050565b6127c281612797565b82525050565b60006020820190506127dd60008301846127b9565b92915050565b7f4e487b7100000000000000000000000000000000000000000000000000000000600052601160045260246000fd5b600061281d82612530565b915061282883612530565b9250826bffffffffffffffffffffffff03821115612849576128486127e3565b5b828201905092915050565b7f4e487b7100000000000000000000000000000000000000000000000000000000600052601260045260246000fd5b600061288e82612530565b915061289983612530565b9250826128a9576128a8612854565b5b828204905092915050565b60006128bf826124f6565b91506128ca836124f6565b9250828210156128dd576128dc6127e3565b5b828203905092915050565b600081905092915050565b60008190508160005260206000209050919050565b600081546129158161275b565b61291f81866128e8565b9450600182166000811461293a576001811461294b5761297e565b60ff1983168652818601935061297e565b612954856128f3565b60005b8381101561297657815481890152600182019150602081019050612957565b838801955050505b50505092915050565b60006129938284612908565b915081905092915050565b60006080820190506129b360008301876123eb565b6129c060208301866123eb565b6129cd60408301856123b7565b6129da60608301846124cc565b95945050505050565b60006080820190506129f860008301876123eb565b612a0560208301866124cc565b612a1260408301856123b7565b612a1f60608301846123b7565b95945050505050565b600081905092915050565b7f1901000000000000000000000000000000000000000000000000000000000000600082015250565b6000612a69600283612a28565b9150612a7482612a33565b600282019050919050565b6000819050919050565b612a9a612a95826123e1565b612a7f565b82525050565b6000612aab82612a5c565b9150612ab78285612a89565b602082019150612ac78284612a89565b6020820191508190509392505050565b6000608082019050612aec60008301876123eb565b612af96020830186612475565b612b0660408301856123eb565b612b1360608301846123eb565b95945050505050565b7f436f6d703a3a64656c656761746542795369673a20696e76616c69642073696760008201527f6e61747572650000000000000000000000000000000000000000000000000000602082015250565b6000612b786026836121f8565b9150612b8382612b1c565b604082019050919050565b60006020820190508181036000830152612ba781612b6b565b9050919050565b6000612bb98261230b565b91507fffffffffffffffffffffffffffffffffffffffffffffffffffffffffffffffff821415612bec57612beb6127e3565b5b600182019050919050565b7f436f6d703a3a64656c656761746542795369673a20696e76616c6964206e6f6e60008201527f6365000000000000000000000000000000000000000000000000000000000000602082015250565b6000612c536022836121f8565b9150612c5e82612bf7565b604082019050919050565b60006020820190508181036000830152612c8281612c46565b9050919050565b7f436f6d703a3a64656c656761746542795369673a207369676e6174757265206560008201527f7870697265640000000000000000000000000000000000000000000000000000602082015250565b6000612ce56026836121f8565b9150612cf082612c89565b604082019050919050565b60006020820190508181036000830152612d1481612cd8565b9050919050565b6000612d2682612530565b9150612d3183612530565b925082821015612d4457612d436127e3565b5b828203905092915050565b7f436f6d703a3a5f7472616e73666572546f6b656e733a2063616e6e6f7420747260008201527f616e736665722066726f6d20746865207a65726f206164647265737300000000602082015250565b6000612dab603c836121f8565b9150612db682612d4f565b604082019050919050565b60006020820190508181036000830152612dda81612d9e565b9050919050565b7f436f6d703a3a5f7472616e73666572546f6b656e733a2063616e6e6f7420747260008201527f616e7366657220746f20746865207a65726f2061646472657373000000000000602082015250565b6000612e3d603a836121f8565b9150612e4882612de1565b604082019050919050565b60006020820190508181036000830152612e6c81612e30565b9050919050565b6000604082019050612e8860008301856127b9565b612e95602083018461238d565b9392505050565b7f436f6d703a3a6765745072696f72566f7465733a206e6f74207965742064657460008201527f65726d696e656400000000000000000000000000000000000000000000000000602082015250565b6000612ef86027836121f8565b9150612f0382612e9c565b604082019050919050565b60006020820190508181036000830152612f2781612eeb565b9050919050565b6000612f39826124f6565b9150612f44836124f6565b925082612f5457612f53612854565b5b828204905092915050565b6000612f6a826124f6565b9150612f75836124f6565b92508263ffffffff03821115612f8e57612f8d6127e3565b5b828201905092915050565b6000604082019050612fae60008301856127b9565b612fbb60208301846127b9565b939250505056fe436f6d703a3a5f7472616e73666572546f6b656e733a207472616e7366657220616d6f756e7420657863656564732062616c616e6365436f6d703a3a617070726f76653a20616d6f756e7420657863656564732039362062697473436f6d703a3a7472616e736665723a20616d6f756e7420657863656564732039362062697473436f6d703a3a5f7772697465436865636b706f696e743a20626c6f636b206e756d62657220657863656564732033322062697473436f6d703a3a5f6d6f7665566f7465733a20766f746520616d6f756e7420756e646572666c6f7773436f6d703a3a5f7472616e73666572546f6b656e733a207472616e7366657220616d6f756e74206f766572666c6f7773436f6d703a3a7472616e7366657246726f6d3a207472616e7366657220616d6f756e742065786365656473207370656e64657220616c6c6f77616e6365436f6d703a3a5f6d6f7665566f7465733a20766f746520616d6f756e74206f766572666c6f7773a26469706673582212200351d4a175ffa3436ad9c3012a3d0cbab15e69d6b5de57a34892573b9a8d4dae64736f6c634300080a0033",
  "linkReferences": {},
  "deployedLinkReferences": {}
}