{
  "_format": "hh-sol-artifact-1",
  "contractName": "Token",
  "sourceName": "contracts/Token.sol",
  "abi": [
    {
      "inputs": [
        {
          "internalType": "address",
          "name": "account",
          "type": "address"
        },
        {
          "internalType": "string",
          "name": "_name",
          "type": "string"
        },
        {
          "internalType": "string",
          "name": "_symbol",
          "type": "string"
        },
        {
          "internalType": "uint256",
          "name": "_totalSupply",
          "type": "uint256"
        },
        {
          "internalType": "bool",
          "name": "_qv",
          "type": "bool"
        }
      ],
      "stateMutability": "nonpayable",
      "type": "constructor"
    },
    {
      "anonymous": false,
      "inputs": [
        {
          "indexed": true,
          "internalType": "address",
          "name": "owner",
          "type": "address"
        },
        {
          "indexed": true,
          "internalType": "address",
          "name": "spender",
          "type": "address"
        },
        {
          "indexed": false,
          "internalType": "uint256",
          "name": "amount",
          "type": "uint256"
        }
      ],
      "name": "Approval",
      "type": "event"
    },
    {
      "anonymous": false,
      "inputs": [
        {
          "indexed": true,
          "internalType": "address",
          "name": "delegator",
          "type": "address"
        },
        {
          "indexed": true,
          "internalType": "address",
          "name": "fromDelegate",
          "type": "address"
        },
        {
          "indexed": true,
          "internalType": "address",
          "name": "toDelegate",
          "type": "address"
        }
      ],
      "name": "DelegateChanged",
      "type": "event"
    },
    {
      "anonymous": false,
      "inputs": [
        {
          "indexed": true,
          "internalType": "address",
          "name": "delegate",
          "type": "address"
        },
        {
          "indexed": false,
          "internalType": "uint256",
          "name": "previousBalance",
          "type": "uint256"
        },
        {
          "indexed": false,
          "internalType": "uint256",
          "name": "newBalance",
          "type": "uint256"
        }
      ],
      "name": "DelegateVotesChanged",
      "type": "event"
    },
    {
      "anonymous": false,
      "inputs": [
        {
          "indexed": true,
          "internalType": "address",
          "name": "from",
          "type": "address"
        },
        {
          "indexed": true,
          "internalType": "address",
          "name": "to",
          "type": "address"
        },
        {
          "indexed": false,
          "internalType": "uint256",
          "name": "amount",
          "type": "uint256"
        },
        {
          "indexed": false,
          "internalType": "bool",
          "name": "qv",
          "type": "bool"
        }
      ],
      "name": "Transfer",
      "type": "event"
    },
    {
      "inputs": [],
      "name": "DELEGATION_TYPEHASH",
      "outputs": [
        {
          "internalType": "bytes32",
          "name": "",
          "type": "bytes32"
        }
      ],
      "stateMutability": "view",
      "type": "function"
    },
    {
      "inputs": [],
      "name": "DOMAIN_TYPEHASH",
      "outputs": [
        {
          "internalType": "bytes32",
          "name": "",
          "type": "bytes32"
        }
      ],
      "stateMutability": "view",
      "type": "function"
    },
    {
      "inputs": [
        {
          "internalType": "address",
          "name": "account",
          "type": "address"
        },
        {
          "internalType": "address",
          "name": "spender",
          "type": "address"
        }
      ],
      "name": "allowance",
      "outputs": [
        {
          "internalType": "uint256",
          "name": "",
          "type": "uint256"
        }
      ],
      "stateMutability": "view",
      "type": "function"
    },
    {
      "inputs": [
        {
          "internalType": "address",
          "name": "spender",
          "type": "address"
        },
        {
          "internalType": "uint256",
          "name": "rawAmount",
          "type": "uint256"
        }
      ],
      "name": "approve",
      "outputs": [
        {
          "internalType": "bool",
          "name": "",
          "type": "bool"
        }
      ],
      "stateMutability": "nonpayable",
      "type": "function"
    },
    {
      "inputs": [
        {
          "internalType": "address",
          "name": "account",
          "type": "address"
        }
      ],
      "name": "balanceOf",
      "outputs": [
        {
          "internalType": "uint256",
          "name": "",
          "type": "uint256"
        }
      ],
      "stateMutability": "view",
      "type": "function"
    },
    {
      "inputs": [
        {
          "internalType": "address",
          "name": "",
          "type": "address"
        },
        {
          "internalType": "uint32",
          "name": "",
          "type": "uint32"
        }
      ],
      "name": "checkpoints",
      "outputs": [
        {
          "internalType": "uint32",
          "name": "fromBlock",
          "type": "uint32"
        },
        {
          "internalType": "uint96",
          "name": "votes",
          "type": "uint96"
        }
      ],
      "stateMutability": "view",
      "type": "function"
    },
    {
      "inputs": [],
      "name": "decimals",
      "outputs": [
        {
          "internalType": "uint8",
          "name": "",
          "type": "uint8"
        }
      ],
      "stateMutability": "view",
      "type": "function"
    },
    {
      "inputs": [
        {
          "internalType": "address",
          "name": "delegatee",
          "type": "address"
        }
      ],
      "name": "delegate",
      "outputs": [],
      "stateMutability": "nonpayable",
      "type": "function"
    },
    {
      "inputs": [
        {
          "internalType": "address",
          "name": "delegatee",
          "type": "address"
        },
        {
          "internalType": "uint256",
          "name": "nonce",
          "type": "uint256"
        },
        {
          "internalType": "uint256",
          "name": "expiry",
          "type": "uint256"
        },
        {
          "internalType": "uint8",
          "name": "v",
          "type": "uint8"
        },
        {
          "internalType": "bytes32",
          "name": "r",
          "type": "bytes32"
        },
        {
          "internalType": "bytes32",
          "name": "s",
          "type": "bytes32"
        }
      ],
      "name": "delegateBySig",
      "outputs": [],
      "stateMutability": "nonpayable",
      "type": "function"
    },
    {
      "inputs": [
        {
          "internalType": "address",
          "name": "",
          "type": "address"
        }
      ],
      "name": "delegates",
      "outputs": [
        {
          "internalType": "address",
          "name": "",
          "type": "address"
        }
      ],
      "stateMutability": "view",
      "type": "function"
    },
    {
      "inputs": [
        {
          "internalType": "address",
          "name": "account",
          "type": "address"
        }
      ],
      "name": "getCurrentVotes",
      "outputs": [
        {
          "internalType": "uint96",
          "name": "",
          "type": "uint96"
        }
      ],
      "stateMutability": "view",
      "type": "function"
    },
    {
      "inputs": [
        {
          "internalType": "address",
          "name": "account",
          "type": "address"
        },
        {
          "internalType": "uint256",
          "name": "blockNumber",
          "type": "uint256"
        }
      ],
      "name": "getPriorVotes",
      "outputs": [
        {
          "internalType": "uint96",
          "name": "",
          "type": "uint96"
        }
      ],
      "stateMutability": "view",
      "type": "function"
    },
    {
      "inputs": [],
      "name": "name",
      "outputs": [
        {
          "internalType": "string",
          "name": "",
          "type": "string"
        }
      ],
      "stateMutability": "view",
      "type": "function"
    },
    {
      "inputs": [
        {
          "internalType": "address",
          "name": "",
          "type": "address"
        }
      ],
      "name": "nonces",
      "outputs": [
        {
          "internalType": "uint256",
          "name": "",
          "type": "uint256"
        }
      ],
      "stateMutability": "view",
      "type": "function"
    },
    {
      "inputs": [
        {
          "internalType": "address",
          "name": "",
          "type": "address"
        }
      ],
      "name": "numCheckpoints",
      "outputs": [
        {
          "internalType": "uint32",
          "name": "",
          "type": "uint32"
        }
      ],
      "stateMutability": "view",
      "type": "function"
    },
    {
      "inputs": [],
      "name": "qv",
      "outputs": [
        {
          "internalType": "bool",
          "name": "",
          "type": "bool"
        }
      ],
      "stateMutability": "view",
      "type": "function"
    },
    {
      "inputs": [],
      "name": "symbol",
      "outputs": [
        {
          "internalType": "string",
          "name": "",
          "type": "string"
        }
      ],
      "stateMutability": "view",
      "type": "function"
    },
    {
      "inputs": [],
      "name": "totalSupply",
      "outputs": [
        {
          "internalType": "uint256",
          "name": "",
          "type": "uint256"
        }
      ],
      "stateMutability": "view",
      "type": "function"
    },
    {
      "inputs": [
        {
          "internalType": "address",
          "name": "dst",
          "type": "address"
        },
        {
          "internalType": "uint256",
          "name": "rawAmount",
          "type": "uint256"
        }
      ],
      "name": "transfer",
      "outputs": [
        {
          "internalType": "bool",
          "name": "",
          "type": "bool"
        }
      ],
      "stateMutability": "nonpayable",
      "type": "function"
    },
    {
      "inputs": [
        {
          "internalType": "address",
          "name": "src",
          "type": "address"
        },
        {
          "internalType": "address",
          "name": "dst",
          "type": "address"
        },
        {
          "internalType": "uint256",
          "name": "rawAmount",
          "type": "uint256"
        }
      ],
      "name": "transferFrom",
      "outputs": [
        {
          "internalType": "bool",
          "name": "",
          "type": "bool"
        }
      ],
      "stateMutability": "nonpayable",
      "type": "function"
    }
  ],
  "bytecode": "0x60806040526040518060400160405280600681526020017f436f6e6665640000000000000000000000000000000000000000000000000000815250600090805190602001906200005192919062000231565b506040518060400160405280600381526020017f4346440000000000000000000000000000000000000000000000000000000000815250600190805190602001906200009f92919062000231565b50348015620000ad57600080fd5b50604051620038d5380380620038d58339818101604052810190620000d391906200055b565b600354600560008773ffffffffffffffffffffffffffffffffffffffff1673ffffffffffffffffffffffffffffffffffffffff16815260200190815260200160002060006101000a8154816bffffffffffffffffffffffff02191690836bffffffffffffffffffffffff16021790555083600090805190602001906200015b92919062000231565b5082600190805190602001906200017492919062000231565b50670de0b6b3a7640000826200018b919062000650565b60038190555080600260006101000a81548160ff0219169083151502179055508473ffffffffffffffffffffffffffffffffffffffff16600073ffffffffffffffffffffffffffffffffffffffff167ff431703d7399230d223d254d7e8479fcd3149952c18616d3c9eb716c6ef5d672600354600260009054906101000a900460ff166040516200021e929190620006d3565b60405180910390a3505050505062000765565b8280546200023f906200072f565b90600052602060002090601f016020900481019282620002635760008555620002af565b82601f106200027e57805160ff1916838001178555620002af565b82800160010185558215620002af579182015b82811115620002ae57825182559160200191906001019062000291565b5b509050620002be9190620002c2565b5090565b5b80821115620002dd576000816000905550600101620002c3565b5090565b6000604051905090565b600080fd5b600080fd5b600073ffffffffffffffffffffffffffffffffffffffff82169050919050565b60006200032282620002f5565b9050919050565b620003348162000315565b81146200034057600080fd5b50565b600081519050620003548162000329565b92915050565b600080fd5b600080fd5b6000601f19601f8301169050919050565b7f4e487b7100000000000000000000000000000000000000000000000000000000600052604160045260246000fd5b620003af8262000364565b810181811067ffffffffffffffff82111715620003d157620003d062000375565b5b80604052505050565b6000620003e6620002e1565b9050620003f48282620003a4565b919050565b600067ffffffffffffffff82111562000417576200041662000375565b5b620004228262000364565b9050602081019050919050565b60005b838110156200044f57808201518184015260208101905062000432565b838111156200045f576000848401525b50505050565b60006200047c6200047684620003f9565b620003da565b9050828152602081018484840111156200049b576200049a6200035f565b5b620004a88482856200042f565b509392505050565b600082601f830112620004c857620004c76200035a565b5b8151620004da84826020860162000465565b91505092915050565b6000819050919050565b620004f881620004e3565b81146200050457600080fd5b50565b6000815190506200051881620004ed565b92915050565b60008115159050919050565b62000535816200051e565b81146200054157600080fd5b50565b60008151905062000555816200052a565b92915050565b600080600080600060a086880312156200057a5762000579620002eb565b5b60006200058a8882890162000343565b955050602086015167ffffffffffffffff811115620005ae57620005ad620002f0565b5b620005bc88828901620004b0565b945050604086015167ffffffffffffffff811115620005e057620005df620002f0565b5b620005ee88828901620004b0565b9350506060620006018882890162000507565b9250506080620006148882890162000544565b9150509295509295909350565b7f4e487b7100000000000000000000000000000000000000000000000000000000600052601160045260246000fd5b60006200065d82620004e3565b91506200066a83620004e3565b9250817fffffffffffffffffffffffffffffffffffffffffffffffffffffffffffffffff0483118215151615620006a657620006a562000621565b5b828202905092915050565b620006bc81620004e3565b82525050565b620006cd816200051e565b82525050565b6000604082019050620006ea6000830185620006b1565b620006f96020830184620006c2565b9392505050565b7f4e487b7100000000000000000000000000000000000000000000000000000000600052602260045260246000fd5b600060028204905060018216806200074857607f821691505b602082108114156200075f576200075e62000700565b5b50919050565b61316080620007756000396000f3fe608060405234801561001057600080fd5b506004361061012c5760003560e01c8063782d6fe1116100ad578063b4b5ea5711610071578063b4b5ea5714610381578063c3cda520146103b1578063dd62ed3e146103cd578063e7a324dc146103fd578063f1127ed81461041b5761012c565b8063782d6fe1146102b55780637ecebe00146102e55780639352f7be1461031557806395d89b4114610333578063a9059cbb146103515761012c565b8063313ce567116100f4578063313ce567146101eb578063587cde1e146102095780635c19a95c146102395780636fcfff451461025557806370a08231146102855761012c565b806306fdde0314610131578063095ea7b31461014f57806318160ddd1461017f57806320606b701461019d57806323b872dd146101bb575b600080fd5b61013961044c565b604051610146919061227d565b60405180910390f35b61016960048036038101906101649190612338565b6104da565b6040516101769190612393565b60405180910390f35b610187610644565b60405161019491906123bd565b60405180910390f35b6101a561064a565b6040516101b291906123f1565b60405180910390f35b6101d560048036038101906101d0919061240c565b61066e565b6040516101e29190612393565b60405180910390f35b6101f36108e0565b604051610200919061247b565b60405180910390f35b610223600480360381019061021e9190612496565b6108e5565b60405161023091906124d2565b60405180910390f35b610253600480360381019061024e9190612496565b610918565b005b61026f600480360381019061026a9190612496565b610925565b60405161027c919061250c565b60405180910390f35b61029f600480360381019061029a9190612496565b610948565b6040516102ac91906123bd565b60405180910390f35b6102cf60048036038101906102ca9190612338565b6109b7565b6040516102dc919061254e565b60405180910390f35b6102ff60048036038101906102fa9190612496565b610a6e565b60405161030c91906123bd565b60405180910390f35b61031d610a86565b60405161032a9190612393565b60405180910390f35b61033b610a99565b604051610348919061227d565b60405180910390f35b61036b60048036038101906103669190612338565b610b27565b6040516103789190612393565b60405180910390f35b61039b60048036038101906103969190612496565b610b64565b6040516103a8919061254e565b60405180910390f35b6103cb60048036038101906103c691906125c1565b610c5b565b005b6103e760048036038101906103e2919061264e565b610ef8565b6040516103f491906123bd565b60405180910390f35b610405610fa5565b60405161041291906123f1565b60405180910390f35b610435600480360381019061043091906126ba565b610fc9565b6040516104439291906126fa565b60405180910390f35b6000805461045990612752565b80601f016020809104026020016040519081016040528092919081815260200182805461048590612752565b80156104d25780601f106104a7576101008083540402835291602001916104d2565b820191906000526020600020905b8154815290600101906020018083116104b557829003601f168201915b505050505081565b6000806bffffffffffffffffffffffff8310610504576bffffffffffffffffffffffff9050610529565b61052683604051806060016040528060258152602001612ff060259139611022565b90505b80600460003373ffffffffffffffffffffffffffffffffffffffff1673ffffffffffffffffffffffffffffffffffffffff16815260200190815260200160002060008673ffffffffffffffffffffffffffffffffffffffff1673ffffffffffffffffffffffffffffffffffffffff16815260200190815260200160002060006101000a8154816bffffffffffffffffffffffff02191690836bffffffffffffffffffffffff1602179055508373ffffffffffffffffffffffffffffffffffffffff163373ffffffffffffffffffffffffffffffffffffffff167f8c5be1e5ebec7d5bd14f71427d1e84f3dd0314c0f7b2291e5b200ac8c7c3b9258360405161063191906127bf565b60405180910390a3600191505092915050565b60035481565b7f8cad95687ba82c2ce50e74f7b754645e5117c3a5bec8151c0726d5857980a86681565b6000803390506000600460008773ffffffffffffffffffffffffffffffffffffffff1673ffffffffffffffffffffffffffffffffffffffff16815260200190815260200160002060008373ffffffffffffffffffffffffffffffffffffffff1673ffffffffffffffffffffffffffffffffffffffff16815260200190815260200160002060009054906101000a90046bffffffffffffffffffffffff169050600061073185604051806060016040528060258152602001612ff060259139611022565b90508673ffffffffffffffffffffffffffffffffffffffff168373ffffffffffffffffffffffffffffffffffffffff161415801561078957506bffffffffffffffffffffffff826bffffffffffffffffffffffff1614155b156108c75760006107b383836040518060600160405280603d81526020016130c7603d9139611080565b905080600460008a73ffffffffffffffffffffffffffffffffffffffff1673ffffffffffffffffffffffffffffffffffffffff16815260200190815260200160002060008673ffffffffffffffffffffffffffffffffffffffff1673ffffffffffffffffffffffffffffffffffffffff16815260200190815260200160002060006101000a8154816bffffffffffffffffffffffff02191690836bffffffffffffffffffffffff1602179055508373ffffffffffffffffffffffffffffffffffffffff168873ffffffffffffffffffffffffffffffffffffffff167f8c5be1e5ebec7d5bd14f71427d1e84f3dd0314c0f7b2291e5b200ac8c7c3b925836040516108bd91906127bf565b60405180910390a3505b6108d28787836110fa565b600193505050509392505050565b601281565b60066020528060005260406000206000915054906101000a900473ffffffffffffffffffffffffffffffffffffffff1681565b61092233826114ec565b50565b60086020528060005260406000206000915054906101000a900463ffffffff1681565b6000600560008373ffffffffffffffffffffffffffffffffffffffff1673ffffffffffffffffffffffffffffffffffffffff16815260200190815260200160002060009054906101000a90046bffffffffffffffffffffffff166bffffffffffffffffffffffff169050919050565b6000600260009054906101000a900460ff1615610a5b5760006109da84846116ac565b9050600060026001836109ed9190612809565b6109f7919061287a565b905060008290505b806bffffffffffffffffffffffff16826bffffffffffffffffffffffff161015610a50578190506002828385610a35919061287a565b610a3f9190612809565b610a49919061287a565b91506109ff565b809350505050610a68565b610a6583836116ac565b90505b92915050565b60096020528060005260406000206000915090505481565b600260009054906101000a900460ff1681565b60018054610aa690612752565b80601f0160208091040260200160405190810160405280929190818152602001828054610ad290612752565b8015610b1f5780601f10610af457610100808354040283529160200191610b1f565b820191906000526020600020905b815481529060010190602001808311610b0257829003601f168201915b505050505081565b600080610b4c8360405180606001604052806026815260200161301560269139611022565b9050610b593385836110fa565b600191505092915050565b600080600860008473ffffffffffffffffffffffffffffffffffffffff1673ffffffffffffffffffffffffffffffffffffffff16815260200190815260200160002060009054906101000a900463ffffffff16905060008163ffffffff1611610bce576000610c53565b600760008473ffffffffffffffffffffffffffffffffffffffff1673ffffffffffffffffffffffffffffffffffffffff1681526020019081526020016000206000600183610c1c91906128ab565b63ffffffff1663ffffffff16815260200190815260200160002060000160049054906101000a90046bffffffffffffffffffffffff165b915050919050565b60007f8cad95687ba82c2ce50e74f7b754645e5117c3a5bec8151c0726d5857980a8666000604051610c8d919061297e565b6040518091039020610c9d611ae7565b30604051602001610cb19493929190612995565b60405160208183030381529060405280519060200120905060007fe48329057bfd03d55e49b547132e39cffd9c1820ad7b9d4c5307691425d15adf888888604051602001610d0294939291906129da565b60405160208183030381529060405280519060200120905060008282604051602001610d2f929190612a97565b604051602081830303815290604052805190602001209050600060018288888860405160008152602001604052604051610d6c9493929190612ace565b6020604051602081039080840390855afa158015610d8e573d6000803e3d6000fd5b505050602060405103519050600073ffffffffffffffffffffffffffffffffffffffff168173ffffffffffffffffffffffffffffffffffffffff161415610e0a576040517f08c379a0000000000000000000000000000000000000000000000000000000008152600401610e0190612b85565b60405180910390fd5b600960008273ffffffffffffffffffffffffffffffffffffffff1673ffffffffffffffffffffffffffffffffffffffff1681526020019081526020016000206000815480929190610e5a90612ba5565b919050558914610e9f576040517f08c379a0000000000000000000000000000000000000000000000000000000008152600401610e9690612c60565b60405180910390fd5b87421115610ee2576040517f08c379a0000000000000000000000000000000000000000000000000000000008152600401610ed990612cf2565b60405180910390fd5b610eec818b6114ec565b50505050505050505050565b6000600460008473ffffffffffffffffffffffffffffffffffffffff1673ffffffffffffffffffffffffffffffffffffffff16815260200190815260200160002060008373ffffffffffffffffffffffffffffffffffffffff1673ffffffffffffffffffffffffffffffffffffffff16815260200190815260200160002060009054906101000a90046bffffffffffffffffffffffff166bffffffffffffffffffffffff16905092915050565b7fe48329057bfd03d55e49b547132e39cffd9c1820ad7b9d4c5307691425d15adf81565b6007602052816000526040600020602052806000526040600020600091509150508060000160009054906101000a900463ffffffff16908060000160049054906101000a90046bffffffffffffffffffffffff16905082565b60006c0100000000000000000000000083108290611076576040517f08c379a000000000000000000000000000000000000000000000000000000000815260040161106d919061227d565b60405180910390fd5b5082905092915050565b6000836bffffffffffffffffffffffff16836bffffffffffffffffffffffff16111582906110e4576040517f08c379a00000000000000000000000000000000000000000000000000000000081526004016110db919061227d565b60405180910390fd5b5082846110f19190612d12565b90509392505050565b600073ffffffffffffffffffffffffffffffffffffffff168373ffffffffffffffffffffffffffffffffffffffff16141561116a576040517f08c379a000000000000000000000000000000000000000000000000000000000815260040161116190612db8565b60405180910390fd5b600073ffffffffffffffffffffffffffffffffffffffff168273ffffffffffffffffffffffffffffffffffffffff1614156111da576040517f08c379a00000000000000000000000000000000000000000000000000000000081526004016111d190612e4a565b60405180910390fd5b611254600560008573ffffffffffffffffffffffffffffffffffffffff1673ffffffffffffffffffffffffffffffffffffffff16815260200190815260200160002060009054906101000a90046bffffffffffffffffffffffff1682604051806060016040528060368152602001612fba60369139611080565b600560008573ffffffffffffffffffffffffffffffffffffffff1673ffffffffffffffffffffffffffffffffffffffff16815260200190815260200160002060006101000a8154816bffffffffffffffffffffffff02191690836bffffffffffffffffffffffff16021790555061133b600560008473ffffffffffffffffffffffffffffffffffffffff1673ffffffffffffffffffffffffffffffffffffffff16815260200190815260200160002060009054906101000a90046bffffffffffffffffffffffff168260405180606001604052806030815260200161309760309139611af4565b600560008473ffffffffffffffffffffffffffffffffffffffff1673ffffffffffffffffffffffffffffffffffffffff16815260200190815260200160002060006101000a8154816bffffffffffffffffffffffff02191690836bffffffffffffffffffffffff1602179055508173ffffffffffffffffffffffffffffffffffffffff168373ffffffffffffffffffffffffffffffffffffffff167ff431703d7399230d223d254d7e8479fcd3149952c18616d3c9eb716c6ef5d67283600260009054906101000a900460ff16604051611416929190612e6a565b60405180910390a36114e7600660008573ffffffffffffffffffffffffffffffffffffffff1673ffffffffffffffffffffffffffffffffffffffff16815260200190815260200160002060009054906101000a900473ffffffffffffffffffffffffffffffffffffffff16600660008573ffffffffffffffffffffffffffffffffffffffff1673ffffffffffffffffffffffffffffffffffffffff16815260200190815260200160002060009054906101000a900473ffffffffffffffffffffffffffffffffffffffff1683611b73565b505050565b6000600660008473ffffffffffffffffffffffffffffffffffffffff1673ffffffffffffffffffffffffffffffffffffffff16815260200190815260200160002060009054906101000a900473ffffffffffffffffffffffffffffffffffffffff1690506000600560008573ffffffffffffffffffffffffffffffffffffffff1673ffffffffffffffffffffffffffffffffffffffff16815260200190815260200160002060009054906101000a90046bffffffffffffffffffffffff16905082600660008673ffffffffffffffffffffffffffffffffffffffff1673ffffffffffffffffffffffffffffffffffffffff16815260200190815260200160002060006101000a81548173ffffffffffffffffffffffffffffffffffffffff021916908373ffffffffffffffffffffffffffffffffffffffff1602179055508273ffffffffffffffffffffffffffffffffffffffff168273ffffffffffffffffffffffffffffffffffffffff168573ffffffffffffffffffffffffffffffffffffffff167f3134e8a2e6d97e929a7e54011ea5485d7d196dd5f0ba4d4ef95803e8e3fc257f60405160405180910390a46116a6828483611b73565b50505050565b60004382106116f0576040517f08c379a00000000000000000000000000000000000000000000000000000000081526004016116e790612f05565b60405180910390fd5b6000600860008573ffffffffffffffffffffffffffffffffffffffff1673ffffffffffffffffffffffffffffffffffffffff16815260200190815260200160002060009054906101000a900463ffffffff16905060008163ffffffff16141561175d576000915050611ae1565b82600760008673ffffffffffffffffffffffffffffffffffffffff1673ffffffffffffffffffffffffffffffffffffffff16815260200190815260200160002060006001846117ac91906128ab565b63ffffffff1663ffffffff16815260200190815260200160002060000160009054906101000a900463ffffffff1663ffffffff161161187157600760008573ffffffffffffffffffffffffffffffffffffffff1673ffffffffffffffffffffffffffffffffffffffff168152602001908152602001600020600060018361183391906128ab565b63ffffffff1663ffffffff16815260200190815260200160002060000160049054906101000a90046bffffffffffffffffffffffff16915050611ae1565b82600760008673ffffffffffffffffffffffffffffffffffffffff1673ffffffffffffffffffffffffffffffffffffffff16815260200190815260200160002060008063ffffffff16815260200190815260200160002060000160009054906101000a900463ffffffff1663ffffffff1611156118f2576000915050611ae1565b60008060018361190291906128ab565b90505b8163ffffffff168163ffffffff161115611a635760006002838361192991906128ab565b6119339190612f25565b8261193e91906128ab565b90506000600760008973ffffffffffffffffffffffffffffffffffffffff1673ffffffffffffffffffffffffffffffffffffffff16815260200190815260200160002060008363ffffffff1663ffffffff1681526020019081526020016000206040518060400160405290816000820160009054906101000a900463ffffffff1663ffffffff1663ffffffff1681526020016000820160049054906101000a90046bffffffffffffffffffffffff166bffffffffffffffffffffffff166bffffffffffffffffffffffff1681525050905086816000015163ffffffff161415611a3257806020015195505050505050611ae1565b86816000015163ffffffff161015611a4c57819350611a5c565b600182611a5991906128ab565b92505b5050611905565b600760008773ffffffffffffffffffffffffffffffffffffffff1673ffffffffffffffffffffffffffffffffffffffff16815260200190815260200160002060008363ffffffff1663ffffffff16815260200190815260200160002060000160049054906101000a90046bffffffffffffffffffffffff1693505050505b92915050565b6000804690508091505090565b6000808385611b039190612809565b9050846bffffffffffffffffffffffff16816bffffffffffffffffffffffff1610158390611b67576040517f08c379a0000000000000000000000000000000000000000000000000000000008152600401611b5e919061227d565b60405180910390fd5b50809150509392505050565b8173ffffffffffffffffffffffffffffffffffffffff168373ffffffffffffffffffffffffffffffffffffffff1614158015611bbd57506000816bffffffffffffffffffffffff16115b15611e7b57600073ffffffffffffffffffffffffffffffffffffffff168373ffffffffffffffffffffffffffffffffffffffff1614611d1e576000600860008573ffffffffffffffffffffffffffffffffffffffff1673ffffffffffffffffffffffffffffffffffffffff16815260200190815260200160002060009054906101000a900463ffffffff1690506000808263ffffffff1611611c60576000611ce5565b600760008673ffffffffffffffffffffffffffffffffffffffff1673ffffffffffffffffffffffffffffffffffffffff1681526020019081526020016000206000600184611cae91906128ab565b63ffffffff1663ffffffff16815260200190815260200160002060000160049054906101000a90046bffffffffffffffffffffffff165b90506000611d0c828560405180606001604052806028815260200161306f60289139611080565b9050611d1a86848484611e80565b5050505b600073ffffffffffffffffffffffffffffffffffffffff168273ffffffffffffffffffffffffffffffffffffffff1614611e7a576000600860008473ffffffffffffffffffffffffffffffffffffffff1673ffffffffffffffffffffffffffffffffffffffff16815260200190815260200160002060009054906101000a900463ffffffff1690506000808263ffffffff1611611dbc576000611e41565b600760008573ffffffffffffffffffffffffffffffffffffffff1673ffffffffffffffffffffffffffffffffffffffff1681526020019081526020016000206000600184611e0a91906128ab565b63ffffffff1663ffffffff16815260200190815260200160002060000160049054906101000a90046bffffffffffffffffffffffff165b90506000611e68828560405180606001604052806027815260200161310460279139611af4565b9050611e7685848484611e80565b5050505b5b505050565b6000611ea44360405180606001604052806034815260200161303b6034913961218e565b905060008463ffffffff16118015611f4257508063ffffffff16600760008773ffffffffffffffffffffffffffffffffffffffff1673ffffffffffffffffffffffffffffffffffffffff1681526020019081526020016000206000600187611f0c91906128ab565b63ffffffff1663ffffffff16815260200190815260200160002060000160009054906101000a900463ffffffff1663ffffffff16145b15611fe65781600760008773ffffffffffffffffffffffffffffffffffffffff1673ffffffffffffffffffffffffffffffffffffffff1681526020019081526020016000206000600187611f9691906128ab565b63ffffffff1663ffffffff16815260200190815260200160002060000160046101000a8154816bffffffffffffffffffffffff02191690836bffffffffffffffffffffffff160217905550612137565b60405180604001604052808263ffffffff168152602001836bffffffffffffffffffffffff16815250600760008773ffffffffffffffffffffffffffffffffffffffff1673ffffffffffffffffffffffffffffffffffffffff16815260200190815260200160002060008663ffffffff1663ffffffff16815260200190815260200160002060008201518160000160006101000a81548163ffffffff021916908363ffffffff16021790555060208201518160000160046101000a8154816bffffffffffffffffffffffff02191690836bffffffffffffffffffffffff1602179055509050506001846120d99190612f56565b600860008773ffffffffffffffffffffffffffffffffffffffff1673ffffffffffffffffffffffffffffffffffffffff16815260200190815260200160002060006101000a81548163ffffffff021916908363ffffffff1602179055505b8473ffffffffffffffffffffffffffffffffffffffff167fdec2bacdd2f05b59de34da9b523dff8be42e5e38e818c82fdb0bae774387a724848460405161217f929190612f90565b60405180910390a25050505050565b6000640100000000831082906121da576040517f08c379a00000000000000000000000000000000000000000000000000000000081526004016121d1919061227d565b60405180910390fd5b5082905092915050565b600081519050919050565b600082825260208201905092915050565b60005b8381101561221e578082015181840152602081019050612203565b8381111561222d576000848401525b50505050565b6000601f19601f8301169050919050565b600061224f826121e4565b61225981856121ef565b9350612269818560208601612200565b61227281612233565b840191505092915050565b600060208201905081810360008301526122978184612244565b905092915050565b600080fd5b600073ffffffffffffffffffffffffffffffffffffffff82169050919050565b60006122cf826122a4565b9050919050565b6122df816122c4565b81146122ea57600080fd5b50565b6000813590506122fc816122d6565b92915050565b6000819050919050565b61231581612302565b811461232057600080fd5b50565b6000813590506123328161230c565b92915050565b6000806040838503121561234f5761234e61229f565b5b600061235d858286016122ed565b925050602061236e85828601612323565b9150509250929050565b60008115159050919050565b61238d81612378565b82525050565b60006020820190506123a86000830184612384565b92915050565b6123b781612302565b82525050565b60006020820190506123d260008301846123ae565b92915050565b6000819050919050565b6123eb816123d8565b82525050565b600060208201905061240660008301846123e2565b92915050565b6000806000606084860312156124255761242461229f565b5b6000612433868287016122ed565b9350506020612444868287016122ed565b925050604061245586828701612323565b9150509250925092565b600060ff82169050919050565b6124758161245f565b82525050565b6000602082019050612490600083018461246c565b92915050565b6000602082840312156124ac576124ab61229f565b5b60006124ba848285016122ed565b91505092915050565b6124cc816122c4565b82525050565b60006020820190506124e760008301846124c3565b92915050565b600063ffffffff82169050919050565b612506816124ed565b82525050565b600060208201905061252160008301846124fd565b92915050565b60006bffffffffffffffffffffffff82169050919050565b61254881612527565b82525050565b6000602082019050612563600083018461253f565b92915050565b6125728161245f565b811461257d57600080fd5b50565b60008135905061258f81612569565b92915050565b61259e816123d8565b81146125a957600080fd5b50565b6000813590506125bb81612595565b92915050565b60008060008060008060c087890312156125de576125dd61229f565b5b60006125ec89828a016122ed565b96505060206125fd89828a01612323565b955050604061260e89828a01612323565b945050606061261f89828a01612580565b935050608061263089828a016125ac565b92505060a061264189828a016125ac565b9150509295509295509295565b600080604083850312156126655761266461229f565b5b6000612673858286016122ed565b9250506020612684858286016122ed565b9150509250929050565b612697816124ed565b81146126a257600080fd5b50565b6000813590506126b48161268e565b92915050565b600080604083850312156126d1576126d061229f565b5b60006126df858286016122ed565b92505060206126f0858286016126a5565b9150509250929050565b600060408201905061270f60008301856124fd565b61271c602083018461253f565b9392505050565b7f4e487b7100000000000000000000000000000000000000000000000000000000600052602260045260246000fd5b6000600282049050600182168061276a57607f821691505b6020821081141561277e5761277d612723565b5b50919050565b6000819050919050565b60006127a96127a461279f84612527565b612784565b612302565b9050919050565b6127b98161278e565b82525050565b60006020820190506127d460008301846127b0565b92915050565b7f4e487b7100000000000000000000000000000000000000000000000000000000600052601160045260246000fd5b600061281482612527565b915061281f83612527565b9250826bffffffffffffffffffffffff038211156128405761283f6127da565b5b828201905092915050565b7f4e487b7100000000000000000000000000000000000000000000000000000000600052601260045260246000fd5b600061288582612527565b915061289083612527565b9250826128a05761289f61284b565b5b828204905092915050565b60006128b6826124ed565b91506128c1836124ed565b9250828210156128d4576128d36127da565b5b828203905092915050565b600081905092915050565b60008190508160005260206000209050919050565b6000815461290c81612752565b61291681866128df565b94506001821660008114612931576001811461294257612975565b60ff19831686528186019350612975565b61294b856128ea565b60005b8381101561296d5781548189015260018201915060208101905061294e565b838801955050505b50505092915050565b600061298a82846128ff565b915081905092915050565b60006080820190506129aa60008301876123e2565b6129b760208301866123e2565b6129c460408301856123ae565b6129d160608301846124c3565b95945050505050565b60006080820190506129ef60008301876123e2565b6129fc60208301866124c3565b612a0960408301856123ae565b612a1660608301846123ae565b95945050505050565b600081905092915050565b7f1901000000000000000000000000000000000000000000000000000000000000600082015250565b6000612a60600283612a1f565b9150612a6b82612a2a565b600282019050919050565b6000819050919050565b612a91612a8c826123d8565b612a76565b82525050565b6000612aa282612a53565b9150612aae8285612a80565b602082019150612abe8284612a80565b6020820191508190509392505050565b6000608082019050612ae360008301876123e2565b612af0602083018661246c565b612afd60408301856123e2565b612b0a60608301846123e2565b95945050505050565b7f436f6d703a3a64656c656761746542795369673a20696e76616c69642073696760008201527f6e61747572650000000000000000000000000000000000000000000000000000602082015250565b6000612b6f6026836121ef565b9150612b7a82612b13565b604082019050919050565b60006020820190508181036000830152612b9e81612b62565b9050919050565b6000612bb082612302565b91507fffffffffffffffffffffffffffffffffffffffffffffffffffffffffffffffff821415612be357612be26127da565b5b600182019050919050565b7f436f6d703a3a64656c656761746542795369673a20696e76616c6964206e6f6e60008201527f6365000000000000000000000000000000000000000000000000000000000000602082015250565b6000612c4a6022836121ef565b9150612c5582612bee565b604082019050919050565b60006020820190508181036000830152612c7981612c3d565b9050919050565b7f436f6d703a3a64656c656761746542795369673a207369676e6174757265206560008201527f7870697265640000000000000000000000000000000000000000000000000000602082015250565b6000612cdc6026836121ef565b9150612ce782612c80565b604082019050919050565b60006020820190508181036000830152612d0b81612ccf565b9050919050565b6000612d1d82612527565b9150612d2883612527565b925082821015612d3b57612d3a6127da565b5b828203905092915050565b7f436f6d703a3a5f7472616e73666572546f6b656e733a2063616e6e6f7420747260008201527f616e736665722066726f6d20746865207a65726f206164647265737300000000602082015250565b6000612da2603c836121ef565b9150612dad82612d46565b604082019050919050565b60006020820190508181036000830152612dd181612d95565b9050919050565b7f436f6d703a3a5f7472616e73666572546f6b656e733a2063616e6e6f7420747260008201527f616e7366657220746f20746865207a65726f2061646472657373000000000000602082015250565b6000612e34603a836121ef565b9150612e3f82612dd8565b604082019050919050565b60006020820190508181036000830152612e6381612e27565b9050919050565b6000604082019050612e7f60008301856127b0565b612e8c6020830184612384565b9392505050565b7f436f6d703a3a6765745072696f72566f7465733a206e6f74207965742064657460008201527f65726d696e656400000000000000000000000000000000000000000000000000602082015250565b6000612eef6027836121ef565b9150612efa82612e93565b604082019050919050565b60006020820190508181036000830152612f1e81612ee2565b9050919050565b6000612f30826124ed565b9150612f3b836124ed565b925082612f4b57612f4a61284b565b5b828204905092915050565b6000612f61826124ed565b9150612f6c836124ed565b92508263ffffffff03821115612f8557612f846127da565b5b828201905092915050565b6000604082019050612fa560008301856127b0565b612fb260208301846127b0565b939250505056fe436f6d703a3a5f7472616e73666572546f6b656e733a207472616e7366657220616d6f756e7420657863656564732062616c616e6365436f6d703a3a617070726f76653a20616d6f756e7420657863656564732039362062697473436f6d703a3a7472616e736665723a20616d6f756e7420657863656564732039362062697473436f6d703a3a5f7772697465436865636b706f696e743a20626c6f636b206e756d62657220657863656564732033322062697473436f6d703a3a5f6d6f7665566f7465733a20766f746520616d6f756e7420756e646572666c6f7773436f6d703a3a5f7472616e73666572546f6b656e733a207472616e7366657220616d6f756e74206f766572666c6f7773436f6d703a3a7472616e7366657246726f6d3a207472616e7366657220616d6f756e742065786365656473207370656e64657220616c6c6f77616e6365436f6d703a3a5f6d6f7665566f7465733a20766f746520616d6f756e74206f766572666c6f7773a264697066735822122047546164b9535f2e98fb50a884f41de353669fc848946cfddd5b3a6c0bdb409464736f6c634300080a0033",
  "linkReferences": {},
  "deployedLinkReferences": {}
}